:1000000075C00000A3C00000A1C000009FC0000098
:100010009DC000009BC0000099C0000097C0000078
:1000200095C0000093C0000091C000008FC0000088
:100030008DC000008BC0000089C0000087C0000098
:1000400085C0000083C0000081C000007FC00000A8
:100050007DC000007BC0000079C0000097C4000094
:1000600075C0000069C600009DC600006FC000009A
:100070006DC000006BC0000069C0000067C00000D8
:1000800065C0000063C0000061C000005FC00000E8
:10009000DFC6000013C7000059C0000057C00000B1
:1000A00055C0000053C0000051C000004FC0000008
:1000B0004DC000004BC0000049C0000047C0000018
:1000C00045C0000043C000006FC300004DC70000E2
:1000D00081C700003BC00000D3C700000C94760825
:1000E00035C00000FB06870713089F0811241FBEB8
:1000F000CFEFD1E2DEBFCDBF00E00CBF12E0A0E049
:10010000B2E0E0EDF9E100E00BBF02C007900D9214
:10011000A432B107D9F724E0A4E2B2E001C01D92F5
:10012000A63CB207E1F710E0C6E7D0E000E006C069
:1001300021970109802FFE010E94180BC237D107B9
:1001400080E00807A9F796D30C94E60C59CF8823D2
:1001500009F1823069F08330A1F08130D9F426E0D2
:1001600030E040E052EC61E070E081E090E0C8C235
:1001700026E030E040E052EC61E070E082E090E0A8
:10018000F6CF26E030E040E052EC61E070E083E042
:1001900090E0EDCF08952F923F924F925F926F9231
:1001A0007F928F929F92AF92BF92CF92DF92EF9207
:1001B000FF920F931F93CF93DF931F92CDB7DEB7BC
:1001C0002B013A01D02EE9829C2DCA2CF401EF8834
:1001D000F88C998C6A8D7B8D4C8D843008F0D4C15D
:1001E000823051F0833009F453C0813049F431ED4D
:1001F000232E32E0332E04C0AEE62A2EA3E03A2EA0
:1002000030E02830310511F424E030E0269D500123
:10021000279DB00C369DB00C11240AE010E0992304
:1002200051F000E110E0913031F008E010E0923040
:1002300011F002E010E08111D7C0D1102EC061157D
:10024000710521F050E084E392E0A6D7A501B20148
:1002500084E392E0A1D7E114F10409F495C1492D9A
:1002600050E0B70184E392E00F90DF91CF911F91AE
:100270000F91FF90EF90DF90CF90BF90AF909F9045
:100280008F907F906F905F904F903F902F9084C79A
:100290005BE0252E54E0352EB3CFBF0184E392E01E
:1002A000B7D78981873008F06FC1E82FF0E0882741
:1002B000E35AFE4F8F4F0C94180B7C018F01A30162
:1002C000B801CC01DE016401AC2CB12CE1E06E1A66
:1002D000710808F459C1D2014D915D916D917D91E4
:1002E0002D01B1E0950184E392E0DB127AC00E9417
:1002F000E50AECCF0E94E0096A94AFEF6A1609F4B0
:1003000043C1F20161912F01F1E0A80184E392E081
:10031000DF12F0CF0E94DA09EFCF0E94F5096A944C
:100320008FEF681609F430C1D2016D917D912D01D6
:10033000B1E0A80184E392E0DB12EFCF0E94F00964
:10034000EECF0E94050A6A94EFEF6E1609F41CC105
:10035000D2014D915D916D917D912D01B1E098019A
:1003600084E392E0DB12EDCF0E94CE09ECCFF6D70A
:100370006A94EFEF6E1609F407C1D2016D912D0159
:10038000062E000C770BB1E0A80184E392E0DB12AB
:10039000EECFDED7EDCFE2D76A94EFEF6E1609F419
:1003A000F3C0D2016D917D912D01B1E0A80184E3EC
:1003B00092E0DB12F0CFCCD7EFCFE0D76A94EFEF2B
:1003C0006E1609F4E1C0D2014D915D916D917D9160
:1003D0002D01B1E0980184E392E0DB12EECF73D7F8
:1003E000EDCF0E94E60A72CFD11038C061157105B9
:1003F00049F050E0D101ED91FC910280F381E02DB4
:10040000C1011995D101ED91FC910280F381E02D9C
:10041000A501B201C1011995E114F10409F4B4C0B8
:10042000492D50E0D101ED91FC910280F381E02D46
:10043000B701C1010F90DF91CF911F910F91FF90F4
:10044000EF90DF90CF90BF90AF909F908F907F9074
:100450006F905F904F903F902F901994BF01C10112
:10046000D7D6B981B73008F08FC0EB2FF0E08827DE
:10047000E35CFD4F8F4F0C94180B5A026A027B020B
:100480008E02A002B0024402AC2CB12CE1E06E1A44
:10049000710808F479C0D2014D915D916D917D9103
:1004A0002D01B1E09501C101DB126BC00E94E50A8C
:1004B000EDCF86D76A94EFEF6E1609F465C0D201CE
:1004C0006D912D01B1E0A801C101DB12F2CF72D70D
:1004D000F1CF8BD76A94EFEF6E1609F455C0D201B5
:1004E0006D917D912D01B1E0A801C101DB12F1CF29
:1004F00077D7F0CF8AD76A94EFEF6E1609F444C02D
:10050000D2014D915D916D917D912D01B1E09801E8
:10051000C101DB12EFCF42D7EECF20D76A94EFEFC5
:100520006E1691F1D2016D912D01062E000C770B04
:10053000B1E0A801C101DB12F0CF0AD7EFCF0ED78F
:100540006A94EFEF6E1601F1D2016D917D912D014C
:10055000B1E0A801C101DB12F2CFFAD6F1CF0ED77C
:100560006A94EFEF6E1681F0D2014D915D916D911D
:100570007D912D01B1E09801C101DB12F0CFA3D62E
:10058000EFCF0E94E60A82CF0F90DF91CF911F91AB
:100590000F91FF90EF90DF90CF90BF90AF909F9022
:1005A0008F907F906F905F904F903F902F90089525
:1005B0008F929F92AF92BF92CF92EF920F931F9321
:1005C000CF93DF9300D01F92CDB7DEB780E090E0ED
:1005D000A0E3B1E489839A83AB83BC8388EAA82E25
:1005E00084E0B82EF50166897789808D918D79D167
:1005F000C62EF501668577858089918972D1E62EB0
:10060000F50162897389848995896BD1062FF5017B
:10061000628573858485958564D1162FF501668181
:100620007781808591855DD1862F1F921F921F92C1
:100630001F921F921F92912C812C92E0A92E212FA4
:1006400041E050E0BE016F5F7F4FA5DD0F900F903E
:100650000F900F900F900F900F900F900F900F90A2
:10066000DF91CF911F910F91EF90CF90BF90AF90FE
:100670009F908F900895CF93DF93C8EAD4E01882BB
:1006800081E090E0A0E0B0E089839A83AB83BC83F3
:1006900080E090E0A0E8BFE38E839F83A887B987BE
:1006A00080E090E0A0E0B1E48A879B87AC87BD87BB
:1006B00080E090E0A0ECB0E48E879F87A88BB98B98
:1006C0001A8A1B8A1C8A1D8A1E8A1F8A188E198EF6
:1006D00081E03DDD81E08D83DF91CF9108958091B0
:1006E000A804811103C081E08093A804089526E046
:1006F00030E040E052EC61E070E090E080E000C06B
:1007000010922702109226028930910508F039C014
:10071000FC018827E257FC4F8F4F8AC79703A0033D
:10072000A903B203BB03C203C503C803CE0381E020
:1007300090E0909327028093260284E392E09CC28B
:1007400082E090E0909327028093260281ED92E070
:10075000F6CF84E090E090932702809326028EE605
:1007600093E0EDCF88E090E09093270280932602FB
:100770008BE094E0E4CF80E190E0909327028093B7
:100780002602089580E290E0F8CF80E490E0F5CF73
:1007900080E890E0909327028093260280912602C1
:1007A000909127029160E9CF1F920F920FB60F929E
:1007B00011240BB60F922F933F934F935F936F9338
:1007C0007F938F939F93AF93BF93EF93FF938EEE9F
:1007D00095E8909325018093240134D0FF91EF9107
:1007E000BF91AF919F918F917F916F915F914F9149
:1007F0003F912F910F900BBE0F900FBE0F901F9047
:1008000018958EEE95E89093250180932401A3E737
:10081000B0E08C918E7F8C93E0E2F1E080818C7F60
:100820008083E1E2F1E08081877E80838081846043
:10083000808380818C7F80838C9181608C930895EC
:1008400081E008958091280291E0980F909328020A
:10085000882349F021E030E030932A0220932902D6
:100860008093280208957894A3DEF894809128025A
:100870008150F6CFCF93DF931092C5041092C40439
:10088000CFD035DFC0910002D091010219821882C9
:10089000F2DEF894B6DF2881398181E0232B09F05C
:1008A00080E08093C404789478948091C40481118A
:1008B00007C015DFF89490E080E0DF91CF910895B4
:1008C0002881398181E0232B09F480E08093C504DD
:1008D0009091C50481E0911180E08093C404B0DF61
:1008E000E4CF33D088F09F5790F0B92F9927B751B4
:1008F000A0F0D1F0660F771F881F991F1AF0BA95E4
:10090000C9F712C0B13081F03AD0B1E0089537C0D4
:10091000672F782F8827B85F39F0B93FCCF38695D9
:1009200077956795B395D9F73EF490958095709536
:1009300061957F4F8F4F9F4F089557FD9058440FFB
:10094000551F59F05F3F71F04795880F97FB991F2E
:1009500061F09F3F79F087950895121613061406EB
:10096000551FF2CF4695F1DF08C016161706180678
:10097000991FF1CF86957105610508940895E89453
:10098000BB2766277727CB0197F908951F920F920F
:100990000FB60F9211242F933F938F939F93AF9392
:1009A000BF9380912C0290912D02A0912E02B091C4
:1009B0002F0230912B0223E0230F2D3758F501969B
:1009C000A11DB11D20932B0280932C0290932D0228
:1009D000A0932E02B0932F028091300290913102A9
:1009E000A0913202B09133020196A11DB11D8093F6
:1009F000300290933102A0933202B0933302BF9140
:100A0000AF919F918F913F912F910F900FBE0F90BB
:100A10001F90189526E8230F0296A11DB11DD2CF75
:100A2000789484B5826084BD84B5816084BD85B5C9
:100A3000826085BD85B5816085BDEEE6F0E0808190
:100A400081608083E1E8F0E01082808182608083B1
:100A5000808181608083E0E8F0E080818160808334
:100A6000E1EBF0E0808184608083E0EBF0E0808166
:100A700081608083E1E9F0E0808182608083808111
:100A800081608083E0E9F0E0808181608083E1EA39
:100A9000F0E0808182608083808181608083E0EAF1
:100AA000F0E0808181608083E1E2F1E0808182601A
:100AB0008083808181608083E0E2F1E080818160D9
:100AC0008083EAE7F0E080818460808380818260B7
:100AD00080838081816080838081806880831092A0
:100AE000C1000895FC01918D228D892F90E0805CDA
:100AF0009F4F821B91098F7399270895FC01918D57
:100B0000828D981731F0828DE80FF11D858D90E070
:100B100008958FEF9FEF0895FC01918D828D9817B6
:100B200061F0A28DAE0FBF2FB11D5D968C91928D9D
:100B30009F5F9F73928F90E008958FEF9FEF0895CE
:100B4000FC01538D448D252F30E0842F90E0821BD3
:100B5000930B541710F0CF96089501970895FC0158
:100B6000A48DA80FB92FB11DA35ABF4F2C91848D0E
:100B700090E001968F739927848FA689B7892C936B
:100B8000A089B1898C91837080648C93938D848DBE
:100B9000981306C00288F389E02D80818F7D8083C1
:100BA0000895CF93DF93EC01888D8823B1F0AA8953
:100BB000BB89E889F9898C9185FD03C0808186FD18
:100BC0000CC00FB607FCF7CF8C9185FFF2CF808168
:100BD00085FFEDCFCE01C3DFEACFDF91CF9108953E
:100BE000EF92FF920F931F93CF93DF93EC0181E07D
:100BF000888F9B8D8C8D98131AC0E889F989808124
:100C000085FF15C09FB7F894EE89FF896083E88956
:100C1000F98980818370806480839FBF81E090E048
:100C2000DF91CF911F910F91FF90EF900895F62ED5
:100C30000B8D10E00F5F1F4F0F731127E02E8C8D6F
:100C40008E110BC00FB607FCFACFE889F9898081B5
:100C500085FFF5CFCE0183DFF2CFEB8DEC0FFD2FBB
:100C6000F11DE35AFF4FF0829FB7F8940B8FEA898A
:100C7000FB8980818062D0CFCF92DF92EF92FF928A
:100C80001F93CF93DF93EC016A017B01122FE88958
:100C9000F98982E08083C11481EED806E104F10471
:100CA00099F060E079E08DE390E0A70196019ED491
:100CB0002150310941095109569547953795279596
:100CC000211580E1380790F0E889F989108260E801
:100CD00074E88EE190E0A701960188D42150310993
:100CE000410951095695479537952795EC85FD851E
:100CF0003083EE85FF852083188EEC89FD89108373
:100D0000EA89FB89808180618083EA89FB8980810F
:100D100088608083EA89FB89808180688083EA8992
:100D2000FB8980818F7D8083DF91CF911F91FF9020
:100D3000EF90DF90CF9008951F920F920FB60F9211
:100D400011240BB60F922F938F939F93EF93FF93E2
:100D5000E0914402F09145028081E0914A02F091D5
:100D60004B0282FD1DC0908180914D028F5F8F7379
:100D700020914E02821741F0E0914D02F0E0EC5CD0
:100D8000FD4F958F80934D02FF91EF919F918F9131
:100D90002F910F900BBE0F900FBE0F901F901895C4
:100DA0008081F2CF1F920F920FB60F9211240BB6D3
:100DB0000F922F933F934F935F936F937F938F93F4
:100DC0009F93AF93BF93EF93FF9384E392E0C7DECB
:100DD000FF91EF91BF91AF919F918F917F916F9113
:100DE0005F914F913F912F910F900BBE0F900FBECF
:100DF0000F901F901895E4E3F2E01382128288EEC0
:100E000093E0A0E0B0E084839583A683B78386E077
:100E100092E09183808385EC90E09587848784ECD1
:100E200090E09787868780EC90E0918B808B81ECB7
:100E300090E0938B828B82EC90E0958B848B86EC98
:100E400090E0978B868B118E128E138E148E0895E0
:100E50001F920F920FB60F9211240BB60F922F9381
:100E60008F939F93EF93FF93E091E102F091E20261
:100E70008081E091E702F091E80282FD1DC090813F
:100E80008091EA028F5F8F732091EB02821741F00D
:100E9000E091EA02F0E0EF52FD4F958F8093EA0275
:100EA000FF91EF919F918F912F910F900BBE0F901B
:100EB0000FBE0F901F9018958081F2CF1F920F9256
:100EC0000FB60F9211240BB60F922F933F934F93AF
:100ED0005F936F937F938F939F93AF93BF93EF93A2
:100EE000FF9381ED92E03BDEFF91EF91BF91AF91D7
:100EF0009F918F917F916F915F914F913F912F9132
:100F00000F900BBE0F900FBE0F901F901895E1ED44
:100F1000F2E01382128288EE93E0A0E0B0E08483D6
:100F20009583A683B78386E092E0918380838DECDE
:100F300090E0958784878CEC90E09787868788EC93
:100F400090E0918B808B89EC90E0938B828B8AEC84
:100F500090E0958B848B8EEC90E0978B868B118E36
:100F6000128E138E148E08951F920F920FB60F9249
:100F700011240BB60F922F938F939F93EF93FF93B0
:100F8000E0917E03F0917F038081E0918403F091F2
:100F9000850382FD1DC09081809187038F5F8F73D1
:100FA00020918803821741F0E0918703F0E0E25935
:100FB000FC4F958F80938703FF91EF919F918F91C5
:100FC0002F910F900BBE0F900FBE0F901F90189592
:100FD0008081F2CF1F920F920FB60F9211240BB6A1
:100FE0000F922F933F934F935F936F937F938F93C2
:100FF0009F93AF93BF93EF93FF938EE693E0AFDDA4
:10100000FF91EF91BF91AF919F918F917F916F91E0
:101010005F914F913F912F910F900BBE0F900FBE9C
:101020000F901F901895EEE6F3E01382128288EE7F
:1010300093E0A0E0B0E084839583A683B78386E045
:1010400092E09183808385ED90E09587848784ED9D
:1010500090E09787868780ED90E0918B808B81ED83
:1010600090E0938B828B82ED90E0958B848B86ED64
:1010700090E0978B868B118E128E138E148E0895AE
:101080001F920F920FB60F9211240BB60F922F934F
:101090008F939F93EF93FF93E0911B04F0911C04B7
:1010A0008081E0912104F091220482FD1DC0908195
:1010B000809124048F5F8F7320912504821741F063
:1010C000E0912404F0E0E55FFB4F958F80932404CA
:1010D000FF91EF919F918F912F910F900BBE0F90E9
:1010E0000FBE0F901F9018958081F2CF1F920F9224
:1010F0000FB60F9211240BB60F922F933F934F937D
:101100005F936F937F938F939F93AF93BF93EF936F
:10111000FF938BE094E023DDFF91EF91BF91AF91BE
:101120009F918F917F916F915F914F913F912F91FF
:101130000F900BBE0F900FBE0F901F901895EBE015
:10114000F4E01382128288EE93E0A0E0B0E08483A2
:101150009583A683B78386E092E09183808385E3BD
:1011600091E09587848784E391E09787868780E381
:1011700091E0918B808B81E391E0938B828B82E372
:1011800091E0958B848B86E391E0978B868B118E13
:10119000128E138E148E0895AF92BF92CF92DF926B
:1011A000EF92FF920F931F93CF93DF936C017B011C
:1011B0008B01040F151FEB015E01AE18BF08C017AD
:1011C000D10759F06991D601ED91FC910190F08120
:1011D000E02DC6011995892B79F7C501DF91CF91D3
:1011E0001F910F91FF90EF90DF90CF90BF90AF9045
:1011F0000895FB0101900020E9F73197AF01461BEC
:10120000570BDC01ED91FC910280F381E02D1994E4
:101210006115710509F0EDCF90E080E00895DC01E3
:10122000ED91FC910190F081E02D199464E172E060
:10123000E0CF8F929F92AF92BF92EF92FF920F9367
:101240001F93CF93DF93CDB7DEB7A1970FB6F89476
:10125000DEBF0FBECDBF7C01FA01CB0119A2223047
:1012600008F42AE08E010F5D1F4F822E912CB12CC5
:10127000A12CBF01A5019401B9D1F901CA016A30BD
:1012800004F5605DD8016E938D01232B242B252B53
:1012900081F790E080E0109719F0BD01C701A9DF48
:1012A000A1960FB6F894DEBF0FBECDBFDF91CF91F0
:1012B0001F910F91FF90EF90BF90AF909F908F90F4
:1012C0000895695CDFCFCF92DF92EF92FF920F9388
:1012D0001F93CF93DF932115310581F4DC01ED914C
:1012E000FC910190F081E02D642FDF91CF911F914F
:1012F0000F91FF90EF90DF90CF9019942A30310535
:10130000F1F42AE077FF1BC06A017B01EC016DE27A
:1013100086DF8C0144275527BA014C195D096E09F7
:101320007F092AE0CE0185DF800F911FDF91CF91E9
:101330001F910F91FF90EF90DF90CF900895DF9174
:10134000CF911F910F91FF90EF90DF90CF9071CFD1
:101350009A01AB01770F660B770BB5CF0F931F93F5
:10136000CF93DF93EC01F4DF8C01CE015FDF800FC0
:10137000911FDF91CF911F910F9108950F931F93AC
:10138000CF93DF93EC019FDF8C01CE014FDF800F05
:10139000911FDF91CF911F910F9108952115310574
:1013A00041F4DC01ED91FC910190F081E02D642F7E
:1013B00019943FCF9A01462F50E070E060E0EECFE5
:1013C0000F931F93CF93DF93EC01F4DF8C01CE01D9
:1013D0002DDF800F911FDF91CF911F910F91089505
:1013E0009A01AB0170E060E0D9CF0F931F93CF93C8
:1013F000DF93EC01F5DF8C01CE0118DF800F911F28
:10140000DF91CF911F910F9108950F931F93CF9369
:10141000DF93EC01C3DF8C01CE0108DF800F911F49
:10142000DF91CF911F910F9108952F923F924F928C
:101430005F926F927F928F929F92AF92BF92CF9264
:10144000DF92EF92FF921F93CF93DF93EC016A013B
:101450007B01722EAB019601CB01B601B3D267E1DD
:1014600072E0811123C046015701E894B7F82FEFCD
:101470003FEF4FE75FE7C501B401A4D281110BC074
:101480002FEF3FEF4FE75FE7C501B4013ED16BE1BE
:1014900072E018165CF02FEF3FEF4FE75FE4C701F3
:1014A000B60128D21816ACF46FE172E0CE01DF91DC
:1014B000CF911F91FF90EF90DF90CF90BF90AF90B2
:1014C0009F908F907F906F905F904F903F902F9064
:1014D00090CE2FEF3FEF4FE75FECC701B60115D17C
:1014E00087FDE2CF20E030E0A901C701B6010DD1B0
:1014F000312C212C87FF08C06DE2CE0190DE1C014B
:10150000F7FAF094F7F8F09410E060E070E080E013
:101510009FE3711639F020E030E040E251E4F9D069
:101520001F5FF7CFA70196018CD02B013C01D9D9C1
:101530004B015C012AE0BC01A401CE017ADE7C01F2
:10154000E20CF31C112371F1C501B4014AD19B01D6
:10155000AC01C301B20174D04B015C016EE2CE015B
:101560005EDEE80EF91E1150E8F020E030E040E2C7
:1015700051E4C501B401C2D12B013C01B2D94B01E8
:101580004AE050E0CE012CDFE80EF91EB40190E0F5
:1015900080E027D19B01AC01C301B20151D04B01C6
:1015A0005C01E1CFC701DF91CF911F91FF90EF90D8
:1015B000DF90CF90BF90AF909F908F907F906F9073
:1015C0005F904F903F902F9008952FCF0F931F93D0
:1015D000CF93DF93EC0129DF8C01CE0127DE800F52
:1015E000911FDF91CF911F910F910895A1E21A2EC3
:1015F000AA1BBB1BFD010DC0AA1FBB1FEE1FFF1FB7
:10160000A217B307E407F50720F0A21BB30BE40B06
:10161000F50B661F771F881F991F1A9469F760954D
:101620007095809590959B01AC01BD01CF01089507
:10163000EE0FFF1F881F8BBF0790F691E02D1994C6
:101640005058BB27AA270ED044C135D130F03AD12B
:1016500020F031F49F3F11F41EF42AC10EF4E095FE
:10166000E7FB20C1E92F69D980F3BA176207730736
:101670008407950718F071F49EF581C90EF4E09582
:101680000B2EBA2FA02D0B01B90190010C01CA013C
:10169000A0011124FF27591B99F0593F50F4503EE7
:1016A00068F11A16F040A22F232F342F4427585FD9
:1016B000F3CF469537952795A795F0405395C9F7F1
:1016C0007EF41F16BA0B620B730B840BBAF09150A9
:1016D000A1F0FF0FBB1F661F771F881FC2F70EC048
:1016E000BA0F621F731F841F48F48795779567951B
:1016F000B795F7959E3F08F0B3CF9395880F08F004
:101700009927EE0F979587950895A8D008F481E062
:1017100008950CD0DEC0D6D040F0CDD030F021F40A
:101720005F3F19F0BFC051112BC9C2C006D998F351
:101730009923C9F35523B1F3951B550BBB27AA2752
:1017400062177307840738F09F5F5F4F220F331FC4
:10175000441FAA1FA9F333D00E2E3AF0E0E830D090
:1017600091505040E695001CCAF729D0FE2F27D093
:10177000660F771F881FBB1F261737074807AB0761
:10178000B0E809F0BB0B802DBF01FF2793585F4FD6
:101790002AF09E3F510568F085C0F2C85F3FECF328
:1017A000983EDCF3869577956795B795F7959F5F9B
:1017B000C9F7880F911D9695879597F90895E1E0EF
:1017C000660F771F881FBB1F621773078407BA074E
:1017D00020F0621B730B840BBA0BEE1F88F7E095A9
:1017E0000895E89409C097FB3EF490958095709514
:1017F00061957F4F8F4F9F4F9923A9F0F92F96E95D
:10180000BB279395F695879577956795B795F111D1
:10181000F8CFFAF4BB0F11F460FF1BC06F5F7F4F6E
:101820008F4F9F4F16C0882311F096E911C0772380
:1018300021F09EE8872F762F05C0662371F096E889
:10184000862F70E060E02AF09A95660F771F881F58
:10185000DAF7880F9695879597F90895990F0008FC
:10186000550FAA0BE0E8FEEF16161706E807F90772
:10187000C0F012161306E407F50798F0621B730B0D
:10188000840B950B39F40A2661F0232B242B252B8E
:1018900021F408950A2609F4A140A6958FEF811D31
:1018A000811D089597F99F6780E870E060E00895D2
:1018B0009FEF80EC089500240A9416161706180668
:1018C0000906089500240A94121613061406050644
:1018D0000895092E0394000C11F4882352F0BB0FD5
:1018E00040F4BF2B11F460FF04C06F5F7F4F8F4F38
:1018F0009F4F0895B3DF08F48FEF08950BD0E9CF21
:10190000DADF28F0DFDF18F0952309F0CBCFD0CF56
:10191000112436C812D8A0F3959FD1F3950F50E04B
:10192000551F629FF001729FBB27F00DB11D639F91
:10193000AA27F00DB11DAA1F649F6627B00DA11D37
:10194000661F829F2227B00DA11D621F739FB00DDD
:10195000A11D621F839FA00D611D221F749F33274D
:10196000A00D611D231F849F600D211D822F762FE6
:101970006A2F11249F57504092F0E9F088234AF0D3
:10198000EE0FFF1FBB1F661F771F881F915050402F
:10199000A9F79E3F510578F085CF0C94C0045F3FB6
:1019A000E4F3983ED4F3869577956795B795F795C8
:1019B000E7959F5FC1F7FE2B880F911D9695879540
:1019C00097F908954BDF880B990B0895F894FFCF92
:1019D000240200000000F005CC08A005D105720526
:1019E0008C057E050D0A006E616E00696E66006FE3
:0419F0007666000017
:00000001FF
