:1000000075C00000A4C00000A2C00000A0C0000095
:100010009EC000009CC000009AC0000098C0000074
:1000200096C0000094C0000092C0000090C0000084
:100030008EC000008CC000008AC0000088C0000094
:1000400086C0000084C0000082C0000080C00000A4
:100050007EC000007CC000007AC000000C942936ED
:1000600076C000000C9466380C949C3870C0000078
:100070006EC000006CC000006AC0000068C00000D4
:1000800066C0000064C0000062C0000060C00000E4
:100090000C94F2380C9428395AC0000058C0000063
:1000A00056C0000054C0000052C0000050C0000004
:1000B0004EC000004CC000004AC0000048C0000014
:1000C00046C0000044C000000C942B310C947E39D3
:1000D0000C94B4393CC000000C940A3A0C94403A99
:1000E00036C00000C5385139DD39693A11241FBEC8
:1000F000CFEFD1E2DEBFCDBF00E00CBF13E0A0E048
:10010000B2E0E4E3FBE700E00BBF02C007900D9212
:10011000A832B107D9F72AE0A8E2B3E001C01D92E6
:10012000AE36B207E1F710E0C6E7D0E000E006C067
:1001300021970109802FFE010E94563DC237D10749
:1001400080E00807A9F70E94C9320C94983D58CF67
:10015000AB01BC0184E297E00C94F73CAB01BC011D
:1001600081EC97E00C94F73CAB01BC018EE598E084
:100170000C94F73CAB01BC018BEF98E00C94F73C7E
:100180008F929F92AF92BF92CF92DF92EF92FF92A7
:100190000F931F93CF93DF93CDB7DEB77B014A0157
:1001A0005901CDB6DEB69B01220F331F4DB75EB7A6
:1001B000421B530B0FB6F8945EBF0FBE4DBF0DB779
:1001C0001EB70F5F1F4FE82FF0E0EE0FFF1FE05F3D
:1001D000FD4F0190F081E02DC8011995F801D4017F
:1001E000E00EF11EEE15FF0519F081918D93FACF07
:1001F00081E0F50180830FB6F894DEBE0FBECDBE60
:10020000DF91CF911F910F91FF90EF90DF90CF90F2
:10021000BF90AF909F908F9008952F923F924F92F2
:100220005F926F927F928F929F92AF92BF92CF9286
:10023000DF92EF92FF920F931F93CF93DF9300D043
:1002400000D000D01F92CDB7DEB7682E7A876987BD
:10025000742EB52E3C832B8348012A2C312C4E2C36
:10026000512C81E090E0012B11F490E080E0849D1E
:100270009001859D300D949D300D112449855A853E
:10028000420F531F5A834983062D10E0000F111FA0
:10029000F801E050FE4F0190F081E02D199541E00A
:1002A00050E0C114D10411F450E040E0429D9001AF
:1002B000439D300D529D300D1124A981BA812A0F22
:1002C0003B1F821793075CF5E72DFB2D29853A85A7
:1002D0002E0F3F1F3A83298349815A81E417F5077E
:1002E00011F01192F9CFAB81BC811C922A960FB606
:1002F000F894DEBF0FBECDBFDF91CF911F910F915C
:10030000FF90EF90DF90CF90BF90AF909F908F9035
:100310007F906F905F904F903F902F900895C11401
:10032000D10409F441C0F12CE12CF801E050FE4F5A
:10033000FE83ED839801285F3D4F38872F83AD8181
:10034000BE81ED91FC91E214F30474F51995892BAB
:1003500081F4E72DFB2D29853A852E0F3F1F3A8327
:10036000298349815A81E417F50709F4BCCF11921A
:10037000F8CFAF81B885ED91FC911995F601EE0D9E
:10038000FF1D9081981761F021E030E0F601908127
:10039000981302C030E020E0EE24FF24E21AF30AB2
:1003A000FFEFEF1AFF0ACBCF980120503E4F6901B3
:1003B000D901ED91FC911995E981FA818E179F077A
:1003C00084F4E72DFB2D29853A852E0F3F1F3A83B4
:1003D000298349815A81E417F50709F484CF1192E2
:1003E000F8CF2B813C81472D5B2D69857A85862D41
:1003F000C7DE8114910409F479CF7401085F1D4FA1
:10040000C70188199909841595050CF06FCFD6019D
:10041000ED91FC911995892B81F4E72DFB2D298510
:100420003A852E0F3F1F3A83298349815A81E41769
:10043000F50709F458CF1192F8CFD801ED91FC914E
:100440001995F70191917F019817D1F2E72DFB2DB6
:1004500029853A852E0F3F1F3A83298349815A8186
:10046000E417F50709F43FCF1192F8CF84E297E043
:100470000C94563781EC97E00C9456378EE598E053
:100480000C9456378BEF98E00C94563784E297E043
:100490000C943C3781EC97E00C943C378EE598E067
:1004A0000C943C378BEF98E00C943C37882311F187
:1004B000823071F08330A9F08130E1F426E030E041
:1004C00040E052EC61E070E081E090E00C94D630C6
:1004D00026E030E040E052EC61E070E082E090E045
:1004E000F5CF26E030E040E052EC61E070E083E0E0
:1004F00090E0ECCF08952F923F924F925F926F92CF
:100500007F928F929F92AF92BF92CF92DF92EF92A3
:10051000FF920F931F93CF93DF931F92CDB7DEB758
:100520002B013A01D02EE9829C2DCA2CF401EF88D0
:10053000F88C998C6A8D7B8D4C8D843008F0EBC1E2
:10054000823051F0833009F456C0813049F431ECE7
:10055000232E37E0332E04C0AEE52A2EA8E03A2E33
:1005600030E02830310511F424E030E0269D5001C0
:10057000279DB00C369DB00C11240AE010E09923A1
:1005800051F000E110E0913031F008E010E09230DD
:1005900011F002E010E08111E1C0D11031C061150D
:1005A000710529F050E084E297E00E94963AA50197
:1005B000B20184E297E00E94963AE114F10409F452
:1005C000AAC1492D50E0B70184E297E00F90DF9176
:1005D000CF911F910F91FF90EF90DF90CF90BF9040
:1005E000AF909F908F907F906F905F904F903F90D3
:1005F0002F900C94963A5BEF252E58E0352EB0CF15
:10060000BF0184E297E00E94D23A8981873008F0E6
:1006100082C1E82FF0E08827EF5EFC4F8F4F0C94EB
:10062000563D3003430357036D03830397031803B9
:10063000AC2CB12CE1E06E1A710808F46CC1D20147
:100640004D915D916D917D912D01B1E0950184E217
:1006500097E0DB1280C00E94BA3CECCF0E94AA3B1C
:100660006A94AFEF6A1609F456C1F20161912F0145
:10067000F1E0A80184E297E0DF12F0CF0E94A43BF2
:10068000EFCF0E94BF3B6A948FEF681609F443C115
:10069000D2016D917D912D01B1E0A80184E297E036
:1006A000DB12EFCF0E94BA3BEECF0E94CF3B6A94A1
:1006B000EFEF6E1609F42FC1D2014D915D916D914E
:1006C0007D912D01B1E0980184E297E0DB12EDCF3E
:1006D0000E94983BECCF0E94783B6A94EFEF6E1635
:1006E00009F419C1D2016D912D01062E000C770B72
:1006F000B1E0A80184E297E0DB12EDCF0E94723BEB
:10070000ECCF0E94783B6A94EFEF6E1609F403C1B8
:10071000D2016D917D912D01B1E0A80184E297E0B5
:10072000DB12EFCF0E94723BEECF0E94883B6A94AF
:10073000EFEF6E1609F4EFC0D2014D915D916D910E
:100740007D912D01B1E0980184E297E0DB12EDCFBD
:100750000E942D3BECCF0E94BB3C6CCFD11038C027
:100760006115710549F050E0D101ED91FC910280D5
:10077000F381E02DC1011995D101ED91FC91028029
:10078000F381E02DA501B201C1011995E114F10435
:1007900009F4C1C0492D50E0D101ED91FC910280D6
:1007A000F381E02DB701C1010F90DF91CF911F912F
:1007B0000F91FF90EF90DF90CF90BF90AF909F9000
:1007C0008F907F906F905F904F903F902F901994F3
:1007D000BF01C1010E94D23AB981B73008F09BC075
:1007E000EB2FF0E08827E850FC4F8F4F0C94563DDC
:1007F000160428043B04500464047604FF03AC2C64
:10080000B12CE1E06E1A710808F485C0D2014D9157
:100810005D916D917D912D01B1E09501C101DB12DA
:1008200077C00E94BA3CEDCF0E94AA3B6A94EFEFDA
:100830006E1609F470C0D2016D912D01B1E0A801CE
:10084000C101DB12F1CF0E94A43BF0CF0E94BF3B5D
:100850006A94EFEF6E1609F45EC0D2016D917D913E
:100860002D01B1E0A801C101DB12F0CF0E94BA3B1B
:10087000EFCF0E94CF3B6A94EFEF6E1609F44BC0A6
:10088000D2014D915D916D917D912D01B1E0980165
:10089000C101DB12EECF0E94983BEDCF0E94783B66
:1008A0006A94EFEF6E16B9F1D2016D912D01062E0B
:1008B000000C770BB1E0A801C101DB12EFCF0E9461
:1008C000723BEECF0E94783B6A94EFEF6E1619F1FF
:1008D000D2016D917D912D01B1E0A801C101DB1222
:1008E000F1CF0E94723BF0CF0E94883B6A94EFEFF9
:1008F0006E1689F0D2014D915D916D917D912D0122
:10090000B1E09801C101DB12EFCF0E942D3BEECF89
:100910000E94BB3C76CF0F90DF91CF911F910F913A
:10092000FF90EF90DF90CF90BF90AF909F908F900F
:100930007F906F905F904F903F902F90089590E040
:1009400080E008950F931F93009709F48AC0611502
:10095000710509F486C00091510210915202209154
:100960005302309154020E3F1F4F2F4F3F4F09F05B
:100970006AC0DB014D915D916D917C914093510274
:10098000509352026093530270935402409151026B
:10099000509152026091530270915402DC01129600
:1009A000ED91FC9180819181A281B3818093860435
:1009B00090938704A0938804B093890484819581DF
:1009C000A681B7818093820490938304A0938404CA
:1009D000B093850480859185A285B38580937E043C
:1009E00090937F04A0938004B093810484859585BF
:1009F000A685B78580937A0490937B04A0937C04AA
:100A0000B0937D04109276041092770410927804CB
:100A1000109279040E94D01485EF94E190932903F9
:100A20008093280390932B0380932A030E94BF1383
:100A3000009731F421E030E030938B0420938A0456
:100A40001F910F910895009151021091520220912F
:100A5000530230915402FB010083118322833383BC
:100A600095CF8FEF9FEFECCF8F929F92AF92BF9277
:100A7000CF92DF92EF92FF921F93CF93DF934B01C0
:100A80005C0110918D0482E090E090938B04809340
:100A90008A0481149104A104B10441F480918D046D
:100AA000811104C080918C04C1E08111C0E0C12C8F
:100AB000D12C760180918D04811106C080918C0427
:100AC000811102C0CC23D9F083E090E090938B0495
:100AD00080938A04CC2381F1CCE9DFEF111102C0AD
:100AE0000E945A18CE01DF91CF911F91FF90EF9095
:100AF000DF90CF90BF90AF909F908F9008956AE065
:100B000070E080E090E00E94A43680E1C80E87E2A9
:100B1000D81EE11CF11C8FEF88169806A806B806AF
:100B200031F0C1E08C149D04AE04BF0408F0C0E0B5
:100B300080E00E94F313BECFD0E0C0E0CFCFCF92D1
:100B4000DF92EF92FF920F931F93CF93DF938F3F2C
:100B5000910511F008F051C020918A0430918B0466
:100B60002330310539F020918A0430918B042130F3
:100B7000310531F424E030E030938B0420938A0473
:100B80006A017B01EC0182309105A8F011E0AE0111
:100B9000C701B6010E94BE13AB01BC01CE011123F7
:100BA000F9F0DF91CF911F910F91FF90EF90DF90BF
:100BB000CF900C947F1A8C01000F111F085D1C4F01
:100BC000D8018D919C91892B09F30E94891A029773
:100BD000E9F6D801ED91FC91CE011995182FD7CFE8
:100BE0000E94A11A90E080E0DF91CF911F910F91B8
:100BF000FF90EF90DF90CF9008958FEF9FEFF4CFAD
:100C000080E00C94F313CF93DF9386E090E0909311
:100C10008B0480938A040E944C14EC01E8E2F3E018
:100C200084E0DF011D928A95E9F70E94F217109285
:100C30008B0410928A04CE01DF91CF9108958091A8
:100C40008C04089580917504089560935102709307
:100C50005202809353029093540290E080E00895F2
:100C6000CF92DF92EF92FF926B017C010E94BB1248
:100C7000882379F0C090600AD090610AE090620AFF
:100C8000F090630AC701B601FF90EF90DF90CF901C
:100C90000895C701B6010E9476128111EBCF20E0C2
:100CA00030E0A901C701B6010E94D233882329F19F
:100CB00020E030E040E853E4C701B6010E94C634AA
:100CC0006B017C0120E030E0A9010E94D23388232F
:100CD000A1F020E030E0A901C701B6010E94D233A3
:100CE00087FFD0CF20E030E040E853E4C701B601F1
:100CF0000E945B336B017C01C5CFC12CD12C7601E6
:100D0000C1CF21E04091360450913704452B09F0C2
:100D100020E0FC01228321E0409138045091390405
:100D2000452B09F020E0FC0123830895CF92DF9248
:100D3000EF92FF926B017C019F7720E030E040E86A
:100D400059E50E94D23387FF2BC020E030E040E01D
:100D50005FE3C701B6010E94C23587FD0EC020E0E7
:100D600030E040E05FE3C701B6010E945B33FF90D3
:100D7000EF90DF90CF900C94AC3420E030E040E076
:100D80005FEBC701B6010E94C235181684F420E05B
:100D900030E0A901C701B6010E94C6356B017C0194
:100DA000C701B601FF90EF90DF90CF90089520E04B
:100DB00030E040E05FE3C701B6010E945A33FF9084
:100DC000EF90DF90CF900C94BF33E091D703F09178
:100DD000D803AAE9B9E054964D915D916D917C914B
:100DE0005797408351836283738350968D919D9171
:100DF0000D90BC91A02D84839583A683B78308951D
:100E00002F923F924F925F926F927F928F929F921A
:100E1000AF92BF92CF92DF92EF92FF920F931F9308
:100E2000CF93DF93CDB7DEB7A4970FB6F894DEBFAC
:100E30000FBECDBF2091440430914504388F2F8BD5
:100E400080914704909148049C8F8B8F213031050D
:100E500009F078C060911E0470911F0480912004F5
:100E6000909121046F5F7F4F8F4F9F4F0E946F348F
:100E700020912204309123044091240450912504B0
:100E80000E94C635609358037093590380935A03A8
:100E900090935B032091360430913704809138049D
:100EA000909139044091340450913504452B69F4F4
:100EB00041E02115310509F040E040933A0441E05A
:100EC000009709F040E040933B042F5F3F4F2A30EA
:100ED000310598F530933704209336040196883E07
:100EE000A3E09A0708F46DC51092390410923804F3
:100EF00080913A048823D9F18091F3099091F40903
:100F0000A091F509B091F60980939A0990939B09F5
:100F1000A0939C09B0939D098091F7099091F809DD
:100F2000A091F909B091FA0980939E0990939F09C5
:100F3000A093A009B093A1091AC01092370410928F
:100F40003604CCCFEF89F88DEF2B89F4E09188033C
:100F5000F09189030190F081E02D80819181A2813F
:100F6000B381EB8DFC8D80839183A283B383AB8DA2
:100F7000BC8DCD90DD90ED90FC90B091FB09B983D4
:100F8000E091FC09E9872090FD093090FE098090EE
:100F9000030AB090040AA090050A9090060AA701DF
:100FA00096016B2F7E2FC1010E94C235282D3B2D4B
:100FB0004A2D592D87FD1FC0C701B6010E94D233AB
:100FC00018160CF0CAC0282D3B2D4A2D592D6981C9
:100FD0007985C1010E94D23387FD14C04090070A71
:100FE0005090080A6090090A70900A0A782D6B2DBB
:100FF0009A2D892D1DC069817985C1010E94D23346
:1010000087FF0AC0282D3B2D4A2D592DC701B60157
:101010000E94C235181614F34090FF095090000A40
:101020006090010A7090020A79816985922D832D62
:10103000272F362F492F582FC701B6010E945A3348
:101040006D837E838F839887A301920160919E09AF
:1010500070919F098091A0099091A1090E945A3333
:101060002D813E814F8158850E94D63320912802E0
:101070003091290240912A0250912B020E94C635DC
:101080006F8F78A389A39AA32F89388D21303105DA
:1010900021F580913A04882301F180910B0A909107
:1010A0000C0AA0910D0AB0910E0A8093A2099093A8
:1010B000A309A093A409B093A50980910F0A909168
:1010C000100AA091110AB091120A8093A609909378
:1010D000A709A093A809B093A9093091130A3D83E9
:1010E0008091140A8D879091150A9B8BA091160A06
:1010F000AF87B0911B0ABBA300911C0A10911D0A77
:10110000E0911E0AECA3A70196016D81782F892F2B
:101110009A2F0E94C2352BA1302F412F5CA187FD51
:1011200020C0C701B6010E94D23318160CF085C149
:101130002BA1302F412F5CA16D817D858B899F85EF
:101140000E94D23387FD15C040901F0A5090200A9C
:101150006090210A7090220A24C060E070E0CB0108
:1011600085CF6D817D858B899F850E94D23387FFD6
:1011700055C12BA1302F412F5CA1C701B6010E94A0
:10118000C23518160CF34090170A5090180A609058
:10119000190A70901A0AFD81FBA30D851B892F8502
:1011A0002CA32BA1302F412F5CA1C701B6010E94B7
:1011B0005A336B017C01A30192016091A6097091E1
:1011C000A7098091A8099091A9090E945A33A70103
:1011D00096010E94D6336B017C012091C7093091A2
:1011E000C8094091C9095091CA0960911C027091C7
:1011F0001D0280911E0290911F020E94C63520910F
:101200009A0930919B0940919C0950919D090E9437
:101210005B332F8D38A149A15AA10E945B332B016A
:101220003C0120E030E0A9010E94C23587FD09C1E0
:1012300020E030E048EC53E4C301B2010E94D23315
:1012400018160CF402C120E030E048EC53E4C3016E
:10125000B2010E94D63320E030E04AEF54E40E940D
:10126000C63520E030E04AEF54E40E945B335EDD97
:101270002B013C012091CB093091CC094091CD0943
:101280005091CE0960913C0270913D0280913E02E6
:1012900090913F020E94C6352091A2093091A30986
:1012A0004091A4095091A5090E945B336D837E8310
:1012B0008F83988720913402309135024091360215
:1012C00050913702C701B6010E94C6359B01AC019F
:1012D0006D817E818F8198850E945B336B017C01DB
:1012E00020E030E0A9010E94C23587FDB5C020E0B2
:1012F00030E048EC53E4C701B6010E94D23318161F
:101300000CF4AEC020E030E048EC53E4C701B60175
:101310000E94D63320E030E04AEF54E40E94C63504
:1013200020E030E04AEF54E40E945B33FFDC6B01C5
:101330007C01AF89B88D119709F0F5C080913B040D
:101340008823D9F0C301B2010E9443342B01C701A5
:10135000B6010E94433450923B0A10923C0A552435
:1013600050923E0A40923D0A70933F0A1092400A02
:1013700077277093420A6093410A80913A04882348
:1013800001F18091230A9091240AA091250AB0913D
:10139000260A8093AA099093AB09A093AC09B09355
:1013A000AD098091270A9091280AA091290AB0914D
:1013B0002A0A8093AE099093AF09A093B009B09325
:1013C000B109C0905C0AD0905D0AE0905E0AF0908E
:1013D0005F0AAB8DBC8D4D905D906D907C90A701A8
:1013E000960169817985C1010E94D233882309F46D
:1013F00049C0282D3B2D4A2D592DC701B6010E9409
:10140000D233811134C04092030A5092040A609290
:10141000050A7092060AE7E0FAE03EC04090170A1B
:101420005090180A6090190A70901A0A3D813BA3E7
:101430000D851B898F858CA3B4CEC12CD12C760150
:10144000CCCE412C512C3201FECE412C512C98ECAB
:10145000692E93E4792EF7CEC12CD12C760152CF90
:10146000C12CD12C88ECE82E83E4F82E4BCF282D0C
:101470003B2D4A2D592D69817985C1010E94D233B6
:1014800087FFC1CF4092FB095092FC096092FD0991
:101490007092FE09EFEFF9E080919E0990919F090B
:1014A000A091A009B091A10980839183A283B38305
:1014B0008091130A9091140AA091150AB091160A0E
:1014C00089839A83AB83BC839C01AD01C701B601BC
:1014D0000E94D233AB8DBC8D8D909D90AD90BC9011
:1014E000811149C28092130A9092140AA092150A9F
:1014F000B092160AE7E1FAE08091A6099091A70957
:10150000A091A809B091A90980839183A283B38394
:101510004091260450912704609128047091290479
:1015200081E090E00CDB80914404909145040197A8
:1015300009F008C2E0918803F09189030190F081DD
:10154000E02D80819181A281B38189879A87AB87C1
:10155000BC878091580390915903A0915A03B09190
:101560005B038B8B9C8BAD8BBE8BE0915C03F0910E
:101570005D03C080D180E280F380E0918C03F09124
:101580008D0360807180E0915003F09151030081E0
:101590001181228033804480558096819D83A7816C
:1015A000AD87E0914E03F0914F031182108288E0E5
:1015B000F301D80101900D928A95E1F7E09186033D
:1015C000F09187033182208200DC20E030E040E0AF
:1015D0005FE3C701B6010E94C6354B015C01F10112
:1015E00020813181428153810E94C635D8012D91DD
:1015F0003D914D915C910E945B33F3016083718357
:1016000082839383D10114962D913D914D915C91EC
:101610001797C501B4010E94C635F80124813581B0
:10162000468157810E945B33D30114966D937D935D
:101630008D939C931797E0918803F0918903208103
:1016400031813A832983A501940169857A858B8547
:101650009C850E945B33A981BA816D937D938D93A4
:101660009C931397E0918603F09187035182408207
:10167000C7DBABDB20E030E0A901C701B6010E9467
:10168000C6354B015C0120E030E040E45FE3C70178
:10169000B6010E94C63569837A838B839C83F201ED
:1016A00020813181428153810E94C6356F87788BBA
:1016B000898B9A8BD1012D913D914D915C91C50102
:1016C000B4010E94C6359B01AC016F857889898978
:1016D0009A890E945B33F8012081318142815381D4
:1016E0000E945B33D3016D937D938D939C931397ED
:1016F000F1012481358146815781C501B4010E94E1
:10170000C6354B015C01D20114962D913D914D914E
:101710005C91179769817A818B819C810E94C63583
:101720009B01AC01C501B4010E945B33F801248127
:101730003581468157810E945B33D30114966D93A6
:101740007D938D939C931797E0918803F091890383
:1017500020813181388B2F8729813A814B815C81AF
:1017600069857A858B859C850E945B33AF85B889B6
:101770006D937D938D939C931397E0918603F091E5
:101780008703BD81B0832D8521833ADB1EDB29E3EE
:101790003EE843E65EE3C701B6010E94C6356F87A7
:1017A000788B898B9A8B2BEA3AEA4AEA5EE3C70187
:1017B000B6010E94C6356F8B788F898F9A8F29E387
:1017C0003EE843EE5EE3C701B6010E94C6356B8F6B
:1017D0007C8F8D8F9E8F18A30F8F5A8649863D81EF
:1017E00039838D858A838301AF8DB8A11896BE8712
:1017F000AD87EF8DF8A181919191A191B191F8A35D
:10180000EF8F8D839E83AF83B887D1016D917D91DA
:101810008D919D911D01E985FA85419051906190CE
:101820007190FA87E987A981BA81CD90DD90ED901A
:10183000FD90BA83A9832F85388949895A890E94E6
:10184000C6354B015C012F89388D498D5A8DC301F6
:10185000B2010E94C6359B01AC01C501B4010E94D2
:101860005B334B015C012B8D3C8D4D8D5E8DC70133
:10187000B6010E94C6359B01AC01C501B4010E94AE
:101880005B332D813E814F8158850E945B33F80187
:1018900061937193819391938F012F8D38A18D85E1
:1018A0009E852817390709F0A4CFE0918803F091AD
:1018B00089030190F081E02D8B899C89AD89BE89D7
:1018C00080839183A283B383E0914E03F0914F0311
:1018D00081E090E09183808380911E0490911F04A9
:1018E000A0912004B09121040196A11DB11D809307
:1018F0001E0490931F04A0932004B09321048091B0
:10190000580390915903A0915A03B0915B03E09161
:101910004704F091480480839183A283B38380912C
:10192000260490912704A0912804B09129040196DF
:10193000A11DB11D8093260490932704A093280431
:10194000B0932904A4960FB6F894DEBF0FBECDBFA6
:10195000DF91CF911F910F91FF90EF90DF90CF908B
:10196000BF90AF909F908F907F906F905F904F90BF
:101970003F902F90089540901B0A50901C0A609051
:101980001D0A70901E0AA3019201C701B6010E94B0
:10199000D23381110BC080921B0A90921C0AA09234
:1019A0001D0AB0921E0AEFE1FAE0A6CDA301920152
:1019B00069817A818B819C810E94D23387FFEBCF32
:1019C00091CD909339048093380492CA4F925F92DC
:1019D0006F927F928F929F92AF92BF92CF92DF923F
:1019E000EF92FF920F931F93CF93DF93CDB7DEB7A4
:1019F0002E970FB6F894DEBF0FBECDBFA12CD12C11
:101A0000C12CE12C10E000E02FEB39E04EEB59E067
:101A100061E070E081E00E940D011092C6098E0124
:101A20000F5F1F4FCE010B967801D7011D927D01EC
:101A30008A179B07D1F78091BF09813009F0C0C197
:101A4000D090BE099091530A91116AC1BAEADB1293
:101A500010C0D092480A40E050E060E87FE3409335
:101A6000370A5093380A6093390A70933A0A809380
:101A7000530A8091C609882309F466C081E08093E7
:101A8000520A89818093440A6B8170E090E080E083
:101A90000E946F3420E030E048EC52E40E94D633DC
:101AA0006B017C016A8170E090E080E00E946F34FD
:101AB0009B01AC01C701B6010E945B3360932B0A06
:101AC00070932C0A80932D0A90932E0A6D8170E0FA
:101AD00090E080E00E946F3420E030E048EC52E477
:101AE0000E94D6336B017C016C8170E090E080E055
:101AF0000E946F349B01AC01C701B6010E945B33A9
:101B000060932F0A7093300A8093310A9093320ABF
:101B10006F8170E090E080E00E946F346093330A40
:101B20007093340A8093350A9093360A8E8180939D
:101B3000450A888587FD8FE78093430A89858093CE
:101B4000460A8A858093470A8091520A8093C50984
:101B500080902B0A90902C0AA0902D0AB0902E0A0B
:101B60008092B2099092B309A092B409B092B509DB
:101B700080912F0A9091300AA091310AB091320AD7
:101B80008B879C87AD87BE878093B6099093B709F2
:101B9000A093B809B093B909C090330AD090340A21
:101BA000E090350AF090360AC092BA09D092BB098B
:101BB000E092BC09F092BD098091450A8093C10969
:101BC0002091430A2093C4098091460A8093C20958
:101BD0008091470A8093C3098091440A8093C00989
:101BE000A0915002022E000C330B0A2E000CBB0BEE
:101BF0000E945E3D0E94713420E030E040E85DE3E9
:101C00000E94C6352B013C01AC019B01C701B60106
:101C10000E945B33A50194010E945A334B015C0181
:101C2000AC019B01609148027091490280914A0287
:101C300090914B020E94C6356093F3097093F409AA
:101C40008093F5099093F6098092270A9092280ACA
:101C5000A092290AB0922A0A8092F7099092F80974
:101C6000A092F909B092FA09A3019201C701B60145
:101C70000E945A332B853C854D855E850E945A33E0
:101C80006B017C01AC019B0160914C0270914D0293
:101C900080914E0290914F020E94C63560930B0ACC
:101CA00070930C0A80930D0A90930E0AC0920F0A4B
:101CB000D092100AE092110AF092120AC092230AFE
:101CC000D092240AE092250AF092260A80912A04F2
:101CD00090912B04A0912C04B0912D040196A11D8C
:101CE000B11D80932A0490932B04A0932C04B093ED
:101CF0002D042E960FB6F894DEBF0FBECDBFDF9138
:101D0000CF911F910F91FF90EF90DF90CF90BF90F8
:101D1000AF909F908F907F906F905F904F900895BD
:101D2000EAEADE120CC080E090E0A0E8BFE3809316
:101D3000370A9093380AA093390AB0933A0A20E000
:101D400030E040E85FE36091370A7091380A809193
:101D5000390A90913A0A0E945B334B015C018092F0
:101D6000370A9092380AA092390AB0923A0A0E9431
:101D70003E346153764F68587F4FDB01DC9220E0A0
:101D800030E040E251E4C501B4010E94D233811138
:101D900070CEE8E4FAE08191D8018D938D01EA16C6
:101DA000FB06C9F781E08093C6091092370A1092AA
:101DB000380A1092390A10923A0A1092530A59CEF0
:101DC000E8E4FAE082E59AE011928E179F07E1F7C6
:101DD000ECCF8F929F92AF92CF92DF92EF92FF92D1
:101DE0000F93CF93DF9300D000D01F92CDB7DEB713
:101DF00085E58E838AEA8F83E0913B0AF0913C0A65
:101E00008E2FEF3FF10511F008F08FEF898360917D
:101E10003D0A70913E0A862F6F3F710511F008F060
:101E20008FEF8A8340913F0A5091400A842F4F3FA1
:101E3000510511F008F08FEF8B832091410A30910A
:101E4000420A822F2F3F310511F008F08FEF8C836B
:101E500090E080E06E0F7F1F811D911D640F751F44
:101E6000811D911D620F731F811D911D0E94713490
:101E70000E9430069B01AC0160E070E080E893E4D2
:101E80000E945A330E9430060E9496066B017C0124
:101E900020E030E040E857E40E94D23387FF12C0D0
:101EA00020E030E0A901C701B6010E94C23560E020
:101EB00087FD0AC0C701B6010E9443346F3F710518
:101EC00019F010F06FEF70E06D836091E50970918B
:101ED000E6098091E7099091E8090E944334C62EF3
:101EE0006091DD097091DE098091DF099091E00930
:101EF0000E944334E62E6091E1097091E2098091DD
:101F0000E3099091E4090E944334062F6091D909B6
:101F10007091DA098091DB099091DC090E944334C9
:101F2000F62E6091D5097091D6098091D7099091CC
:101F3000D8090E944334862F91E09F939E01295F28
:101F40003F4F3F932F939F93215031093F932F93FE
:101F5000912C812C92E0A92E2F2D45E050E0BE015E
:101F60006F5F7F4F0E947B0280912E0490912F041F
:101F7000A0913004B09131040196A11DB11D809350
:101F80002E0490932F04A0933004B09331040F904B
:101F90000F900F900F900F900F9027960FB6F89418
:101FA000DEBF0FBECDBFDF91CF910F91FF90EF90BD
:101FB000DF90CF90AF909F908F9008952F923F9297
:101FC0004F925F926F927F928F929F92AF92BF9249
:101FD000CF92DF92EF92FF920F931F93CF93DF93F5
:101FE00000D000D01F921F92CDB7DEB784E090E002
:101FF00046D2E8E4F3E084E494E09783868307E440
:1020000014E0109389030093880322E2E22E24E077
:10201000F22EF58AE48A27ED33E037AF26AF41EDA3
:1020200053E050938D0340938C0326E134E03093CA
:102030008B0320938A0328E134E030938F032093AD
:102040008E0323ED33E0309391032093900325ED2D
:1020500033E0309393032093920329ED33E03093E0
:10206000CF032093CE03F093B303E093B203F58341
:10207000E48361E070E0DC016D937C931092C9030E
:102080001092D0038EEF93E06EED73E0DC016D9360
:102090007C9366EE73E070930104609300046EEE2F
:1020A00073E0709303046093020466EF73E070932F
:1020B00005046093040467EC262E69E0362EDA01ED
:1020C0002D923C9248E959E0D9014D935C931092CE
:1020D0003C0410923D0410923E0410923F049187FC
:1020E00080878AE792E09387828789E494E0D80129
:1020F0008D939C9340E050E066E973E44093400484
:1021000050934104609342047093430447E157EBBA
:1021100061ED78E3D7014D935D936D937C931397B5
:1021200026E034E045E45FE46AE974ECD9014D93BC
:102130005D936D937C93139785E59FEEA5E4BBEFCC
:1021400080930A0490930B04A0930C04B0930D04A5
:1021500089E297EFA0E8B5E180930E0490930F0415
:10216000A0931004B093110482EE9EECA3EFB8E4A8
:102170008093120490931304A0931404B093150455
:10218000ACE3B3E0B383A283ECE2F3E01196FC93FB
:10219000EE938FE792E0918380839383828395838C
:1021A00084839783868391878087938782879587A7
:1021B0008487978786878CE194E015969C938E930D
:1021C000149713963C932E93129740EC56EC6DE2C5
:1021D00070E018964D935D936D937C931B97E8E1A7
:1021E000F2E04084518462847384AAE9B9E04D929C
:1021F0005D926D927C92139784849584A684B784B3
:1022000014968D929D92AD92BC921797C488D588F2
:10221000E688F7881896CD92DD92ED92FC921B9796
:10222000008D118D228D338D1C960D931D932D9352
:102230003C931F9740A551A562A573A54D835E836E
:102240006F83788750964D935D936D937C935397EE
:1022500064A575A586A597A569837A838B839C83DE
:1022600054966D937D938D939C93579740815181A4
:1022700062817381D1014D935D936D937C9313972C
:102280004092F3095092F4096092F5097092F609B0
:102290008092F7099092F809A092F909B092FA0990
:1022A00080915C0A90915D0AA0915E0AB0915F0AEC
:1022B0008093FB099093FC09A093FD09B093FE095C
:1022C0008093030A9093040AA093050AB093060A28
:1022D000C0920B0AD0920C0AE0920D0AF0920E0AFC
:1022E00000930F0A1093100A2093110A3093120AD8
:1022F0008093130A9093140AA093150AB093160AB8
:1023000080931B0A90931C0AA0931D0AB0931E0A87
:1023100080A191A1A2A1B3A1F10184839583A68399
:10232000B7832D813E814F8158852093230A3093B6
:10233000240A4093250A5093260A49815A816B81C9
:102340007C814093270A5093280A6093290A70934E
:102350002A0AAFECB9E01C92C12CD12C7601C394AF
:10236000C092D009D092D109E092D209F092D3095B
:1023700080E090E0A0E8BFE38093D5099093D60970
:10238000A093D709B093D8098093D9099093DA091B
:10239000A093DB09B093DC091092DD091092DE09ED
:1023A0001092DF091092E0091092E1091092E209FF
:1023B0001092E3091092E4091092E5091092E609DF
:1023C0001092E7091092E80981E00E94560211E09C
:1023D0001093D4091092EB09C092EC09D092ED0948
:1023E000E092EE09F092EF0981E00E94560210930C
:1023F000F00928960FB6F894DEBF0FBECDBFDF916F
:10240000CF911F910F91FF90EF90DF90CF90BF90F1
:10241000AF909F908F907F906F905F904F903F9084
:102420002F9008958091EB09811103C081E0809382
:10243000EB098091CF09811103C081E08093CF091E
:10244000089560E070E080E89FE7089560E070E044
:1024500080E89FE7089560E070E080E89FEF0895CE
:1024600060E070E080E89FEF089560E070E080EC4D
:102470009FEF089560E070E080EC9FEF0895F5DF36
:102480006093600A7093610A8093620A9093630A72
:10249000F1DF6093540A7093550A8093560A909323
:1024A000570ACFDF60935C0A70935D0A80935E0ADF
:1024B00090935F0ACBDF6093580A7093590A809318
:1024C0005A0A90935B0AC7DF6093640A7093650AA7
:1024D0008093660A9093670AC3DF6093680A7093DB
:1024E000690A80936A0A90936B0A0895CF92DF92EB
:1024F000EF92FF92CF936B017C01AC019B01609145
:102500005C0A70915D0A80915E0A90915F0A0E9458
:10251000D233C1E0882371F0A70196016091640A6B
:102520007091650A8091660A9091670A0E94D23381
:102530008111C0E08C2FCF91FF90EF90DF90CF9072
:1025400008950F931F938B019C010027112720787A
:102550003F770115110520483F4749F4AB01BC0105
:102560006F77772781E0452B462B472B09F480E0D6
:102570001F910F910895E5CF4F925F926F927F92D6
:102580008F929F92AF92BF92CF92DF92EF92FF9283
:102590000F931F93F89440906504509066046090E8
:1025A000670470906804C0905904D0905A04E09079
:1025B0005B04F0905C044130510509F0A4C09B011C
:1025C000AC01241935094609570929013A0100913E
:1025D0006104109162042091630430916404480105
:1025E0005901840C951CA61CB71C80169106A206E6
:1025F000B306A0F400915D0410915E0420915F0485
:10260000309160040F5F1F4F2F4F3F4F00935D04C9
:1026100010935E0420935F04309360048092610401
:1026200090926204A0926304B092640400915D04ED
:1026300010915E0420915F043091600480926904DF
:1026400090926A04A0926B04B0926C0400936D04A3
:1026500010936E0420936F043093700460936504AC
:10266000709366048093670490936804A4E6B0E0D6
:10267000A30192010E94793D6C0D7D1D8E1D9F1D51
:102680006093590470935A0480935B0490935C04A4
:102690000091510210915202209153023091540244
:1026A0000F3F1F4F2F4F3F4FF1F0009151021091FC
:1026B000520220915302309154020E3F1F4F2F4F70
:1026C0003F4F89F0C0905102D0905202E0905302E7
:1026D000F090540221E08C149D04AE04BF0408F471
:1026E00020E02093750478941F910F91FF90EF9054
:1026F000DF90CF90BF90AF909F908F907F906F9022
:102700005F904F9008954B015C0184189508A608CE
:10271000B708A3019201261B370B480B590B641510
:10272000750586059705D0F082169306A406B506B2
:1027300040F420E030E0A90181149104A104B10427
:1027400091F4A4E6B0E00E94793DA7019601261B12
:10275000370B480B590BCA01B901C5CF8216930636
:10276000A406B50670F7A4E6B0E0A50194010E94A6
:10277000793D6C0D7D1D8E1D9F1DB5CFFDCECF9378
:10278000DF9300D01F92CDB7DEB71C821B821A8266
:1027900019821092710410927204109273041092B4
:1027A0007404BE016F5F7F4FCE0103960E94C0305C
:1027B00069817A818B819C810E94AE29009761F4A6
:1027C000BE016F5F7F4FCE0103960E94CC306981BE
:1027D0007A818B819C812BD50F900F900F900F9059
:1027E000DF91CF910895FF920F931F93CF93DF93C3
:1027F000082F60E070E0CB010E94A436FF24F39420
:102800000E949728EC01892B89F010E0CE3F8FEFD2
:10281000D80769F0002361F160E070E0CB010E940D
:10282000A43681E090E0892B59F322C011E022D533
:10283000EC01892B21F0CE3F8FEFD80759F711110A
:102840001EC011E0229609F410E00E944728EC0116
:10285000892B21F0CE3F8FEFD807E1F6111111C07F
:1028600011E0CE3F8FEFD80709F410E001110BC043
:10287000CE01DF91CF911F910F91FF90089511E04C
:10288000E4CF11E0F3CF60E070E0CB010E94A4360A
:102890001F25812F90E0C7CFCF93DF9380917504E0
:1028A000882321F060E070E0CB0149D632D6D0E039
:1028B000C0E0892B71F06AE070E080E090E00E9457
:1028C000A43681E090DF25D62196C03D27E0D207CF
:1028D00081F724D60E94022A10928D0410928C0453
:1028E0001092860410928704109288041092890432
:1028F0001092820410928304109284041092850432
:1029000010927E0410927F04109280041092810431
:1029100010927A0410927B0410927C0410927D0431
:102920001092760410927704109278041092790431
:102930004EEF5FEF6FEF7FEF4093510250935202E3
:10294000609353027093540210927504E9E6F4E028
:1029500028E0DF011D922A95E9F710926504109294
:102960006604109267041092680410926104109239
:102970006204109263041092640410925D04109239
:102980005E0410925F041092600410925904109239
:102990005A0410925B0410925C04DF91CF91089569
:1029A0001092990410929A0410929B0410929C0425
:1029B000109298048091A1049091A204909397049E
:1029C00080939604109295041092940410929004AF
:1029D00010929104109292041092930410929E040B
:1029E00010929D0490E080E00895CF92DF92EF92E4
:1029F000FF920F931F93CF938C01019709F055C05D
:102A00002091A1043091A2048091960490919704A2
:102A10004091A1045091A2045093970440939604CE
:102A20002817390781F0109295041092940410929F
:102A300090041092910410929204109293041092B8
:102A40009E0410929D048091A1049091A20401978C
:102A500061F580919D0490919E04892B21F48091D1
:102A60005502811112C080919D0490919E0401979E
:102A7000E1F48091900490919104A0919204B0911E
:102A800093040197A105B10581F41092900410926E
:102A9000910410929204109293041092550282E0D5
:102AA00090E090939E0480939D048091A104909166
:102AB000A204019709F01CC18091B7049091B80459
:102AC0008017910709F014C18091B3049091B40468
:102AD000A091B504B091B604009709F409C1209102
:102AE000B20421110DC04091B3045091B40460911F
:102AF000B5047091B604452B462B472B09F4F8C05A
:102B000020919D0430919E042230310509F0F0C0DF
:102B1000209194042111ECC0FC01C080D180E2809E
:102B2000F38080919804882309F4D3C08091A40491
:102B30009091A504892B09F4FEC02091A404309142
:102B4000A50481E02230310509F080E02091A40441
:102B50003091A504C1E02130310549F02091A40451
:102B60003091A504C1E02230310509F0C0E088238E
:102B700009F456C02091AE043091AF044091B004E6
:102B80005091B104C701B6010E94C23587FD14C03F
:102B90002091AE043091AF044091B0045091B10443
:102BA0006091990470919A0480919B0490919C0487
:102BB0000E94D23387FD22C02091AE043091AF0431
:102BC0004091B0045091B104C701B6010E94C235D2
:102BD000181634F52091AE043091AF044091B00442
:102BE0005091B1046091990470919A0480919B0472
:102BF00090919C040E94D233811112C08091A6044E
:102C00009091A704A091A804B091A904892B8A2BC4
:102C10008B2B19F481E08093950481E080939404D8
:102C2000CC2309F456C02091AE043091AF044091FA
:102C3000B0045091B104C701B6010E94D23387FF9E
:102C400014C02091AE043091AF044091B004509173
:102C5000B1046091990470919A0480919B049091C1
:102C60009C040E94C23587FF22C02091AE0430919F
:102C7000AF044091B0045091B104C701B6010E9465
:102C8000D233811126C02091AE043091AF0440911F
:102C9000B0045091B1046091990470919A048091AC
:102CA0009B0490919C040E94C235181694F4809164
:102CB000A6049091A704A091A804B091A904892B1F
:102CC0008A2B8B2B19F481E08093950481E080930B
:102CD000940481E090919404911180E08093980491
:102CE000C0929904D0929A04E0929B04F0929C04C2
:102CF0000130110509F067C180919D0490919E04F7
:102D0000892BD9F41092A304109294048091550257
:102D1000882379F082E090E090939E0480939D0454
:102D2000109255022091A1043091A20481E0232B3E
:102D3000E9F080E01BC081E009CF1092550280913C
:102D4000A304882349F01092950410929E041092D7
:102D50009D041092A304EDCF8091A1049091A20450
:102D6000892BE1F0809194041092940420919D04A9
:102D700030919E042230310509F45EC088F421159B
:102D8000310509F448C02130310509F4F3C010922F
:102D90009504109294041092A30438C081E0E6CF09
:102DA0002330310509F4B1C02430310581F7409159
:102DB0009004509191046091920470919304411594
:102DC00051056105710561F04150510961097109B1
:102DD00040939004509391046093920470939304F1
:102DE00040919004509191046091920470919304E9
:102DF000452B462B472BD9F420919F043091A004FA
:102E00002130310509F046C01092950410929E04BD
:102E100010929D040CC080915502882341F082E0FD
:102E200090E090939E0480939D041092550210921E
:102E30008E0480919504CEC08823C9F38091A604A6
:102E40009091A704A091A804B091A904181619069E
:102E50001A061B060CF07DC08091A1049091A2047B
:102E6000019709F076C08091A6049091A704A091E3
:102E7000A804B091A9048093900490939104A09326
:102E80009204B093930483E090E090939E04809327
:102E90009D04CDCF4091AA045091AB046091AC0445
:102EA0007091AD04452B462B472BA9F01092950449
:102EB0008091AA049091AB04A091AC04B091AD04B0
:102EC0008093900490939104A0939204B093930400
:102ED00081E090E0DACF882399F0809156029091BA
:102EE0005702A0915802B091590280939004909398
:102EF0009104A0939204B093930484E090E0C5CF32
:102F00001092950482E090E0C0CF8091900490915F
:102F10009104A0919204B09193040097A105B1058A
:102F200059F00197A109B1098093900490939104FD
:102F3000A0939204B0939304809190049091910493
:102F4000A0919204B0919304892B8A2B8B2B09F0CA
:102F50006ECF8091560290915702A0915802B09185
:102F60005902892B8A2B8B2B09F44ECF81E0809359
:102F70009504B3CF409190045091910460919204D4
:102F800070919304411551056105710561F041503F
:102F90005109610971094093900450939104609321
:102FA0009204709393044091900450919104609125
:102FB000920470919304452B462B472B09F037CF91
:102FC0008111C7CF9FCF80918E04882309F431CF20
:102FD00080918F04CF911F910F91FF90EF90DF9020
:102FE000CF9008951092990410929A0410929B0425
:102FF00010929C041092980410929E0410929D04CA
:1030000010929704109296041092B8041092B7048C
:1030100010929504109294041092900410929104CE
:10302000109292041092930410928F0410928E04C6
:103030001092B3041092B4041092B5041092B60426
:103040001092B2041092AE041092AF041092B00429
:103050001092B10488EE93E0A0E0B0E080935602B5
:1030600090935702A0935802B09359021092AA0469
:103070001092AB041092AC041092AD041092A6040E
:103080001092A7041092A8041092A9041092A5040B
:103090001092A40481E0809355021092A304109230
:1030A000A2041092A1041092A00410929F0490E038
:1030B00080E008958091A1049091A204892BE1F40D
:1030C00080915502882351F08091A304811106C09C
:1030D00081E080938F0480938E0408958091A304EF
:1030E000882341F080915502811104C010928F0411
:1030F00081E0F1CF10928E04089582E090E0FA0111
:10310000918380838FEF9FEF0895CF93DF93EA0140
:10311000009711F00E94222B1982188290E080E023
:10312000DF91CF910895DB01009719F48FEF8C9315
:1031300008952EEF2C93FC017096E031F10508F014
:1031400037C08827E955F74E8F4F0C94563DD61857
:10315000D418D218D018CE18CC18C818CA18C61847
:10316000C418C218BF18BB18B718BD18D81880E308
:1031700011968C93089589E2FBCF82E2F9CF1196E4
:103180001C92089583E2F4CF81E2F2CF81E1F0CF87
:1031900087E2EECF8AE2ECCF80E1EACF84E2E8CFAB
:1031A00088E2E6CF86E2E4CF81E3E2CF83E3E0CFBB
:1031B00080E2DECF8091C5049091C604089590937B
:1031C000C6048093C50408958091C4040895909125
:1031D000C404892B8093C4040895982F90958091FE
:1031E000C40489238093C40408958091C30408957E
:1031F0008091C1049091C20408956115710559F040
:10320000FB0130E020E070E060E02417350719F0A2
:103210006115710511F0CB010895A081B181A81746
:10322000B90709F4BF012F5F3F4F3696EECF80916B
:10323000C70481111CC060D266D29093BA048093F7
:10324000B9040E9420230E9432239093BE048093ED
:10325000BD040E94AF270E94B6279093BC048093C0
:10326000BB0481E08093C70490E080E0089584EF80
:103270009FEF08958F929F92AF92BF92CF92DF926D
:10328000EF92FF920F931F93CF93DF9300D000D064
:1032900000D01F92CDB7DEB71A86198618861F8216
:1032A0001E821D821C821B821A8219828091C70491
:1032B00007EF1FEF882309F49CC08E010D5F1F4F9D
:1032C0009E012B5F3F4FAE01495F5F4FBE01675FBD
:1032D0007F4F90E080E00E9433298C01009721F01D
:1032E0000596029708F0DBC029853A85211531053E
:1032F00009F402C1ED80FE804B815C81B701640F4F
:10330000751F8F8198858617970708F4F5C0E20E20
:10331000F31ED7019C91903C09F07FC042305105CB
:1033200008F47BC011968C914091C5045091C6045D
:10333000452B09F49CC0913F08F071C02CE1290F86
:103340002D3008F48BC02DE2290F203108F489C0FC
:10335000903C21F48150823008F483C088E3890FC7
:103360008B3008F481C093E9C92E98E1D92EEDE79E
:10337000F8E16D817E81AE014F5F5F4F89859A854F
:1033800019955C01C114D104A1F189809A8081143E
:10339000910479F18B819C818815990508F487C087
:1033A00010E000E04B815C8170E060E0C7010E94AA
:1033B000913D01151105E9F449815A8169857A85A4
:1033C0008D819E81680F791FC501F6011995E980ED
:1033D000FA800D811E812F81388549855A856FEFCE
:1033E0007FEF81E090E00E94CE288C01892B09F0CC
:1033F00056C0C8012A960FB6F894DEBF0FBECDBFE7
:10340000DF91CF911F910F91FF90EF90DF90CF90C0
:10341000BF90AF909F908F90089580E085CF30E06F
:1034200020E0220F331FF901E754FB4F0190F08198
:10343000E02D309709F497CF892F90E019950097E8
:1034400009F491CFDC011296ED91FC91139714963B
:10345000CD90DC90309709F08CCF1FC021E030E098
:10346000E0CF22E030E0DDCF23E030E0DACFD12C36
:10347000C12CE5E8F8E19F3F09F07BCFE091B9046A
:10348000F091BA04309721F4C90104EF1FEF0CC08A
:103490008FEF90E019950097A9F604EF1FEF89854B
:1034A0009A85009709F4A5CF0E94222BA2CF0E94F3
:1034B000FD298C0189859A850E94222B70E060E0AD
:1034C000C4010E94962998878F830E94CB289E83EF
:1034D0008D836F8178856115710559F0C8010E944F
:1034E000AE2C9A87898706EF1FEF892B09F058CFFA
:1034F00059CF08EF1FEF56CF08EF1FEFD0CF209125
:10350000C704222319F020E00C94372387EF9FEFA4
:1035100008958091C5049091C60408950E94BB2728
:103520000E941527F5D0E9EBF4E088E0DF011D9259
:103530008A95E9F71092C70490E080E008950C9412
:10354000732521E040E050E0BA010C94372386E077
:1035500090E0FA019183808390E080E0089547E055
:1035600050E062E872E049CEDF92EF92FF920F9353
:103570001F93CF93DF938A01EC01C60FD71FE09012
:10358000CB04F090CC04D9800E94E529D816190606
:1035900078F082E090E0F801918380838EEF9FEFD6
:1035A000DF91CF911F910F91FF90EF90DF900895E1
:1035B000EF2841F482E090E0F8019183808384EF6A
:1035C0009FEFEECF89818093CA0490E00196F801C5
:1035D0009183808390E080E0E3CFCF93DF93EA0193
:1035E0000E942426882321F00E94F2290E94252689
:1035F00082E090E0998388838BEF9FEFDF91CF91FA
:103600000895CF93DF93EB0186E0FB0111928A9539
:10361000E9F78FEF8883D8DD8983E7DD8A83E8DDEA
:103620009D838C83DF91CF910895CF93DF93EA013F
:103630000E942726811109C082E090E09983888347
:1036400085EF9FEFDF91CF91089590E080E0B7DDA7
:1036500081E090E09983888390E080E0F3CF0F933E
:103660001F93CF93DF93EA018C01060F171F0E946F
:10367000272681110BC082E090E09983888385EF33
:103680009FEFDF91CF911F910F910895F8018181F4
:10369000823038F082E090E0998388838EEF9FEF4C
:1036A000F0CF81E090E08BDD88E090E09983888323
:1036B00090E080E0E6CFCF93DF930097D1F4EB0169
:1036C000FB01329686E0DF011D928A95E9F78FEFC4
:1036D000888385E089831A820E94E5298B830E9472
:1036E000E4299D838C8381E08E838F83DF91CF914A
:1036F0000895DF91CF9117CD8FEA9AE19093C90495
:103700008093C80408958091C8049091C9040895D5
:103710001092C9041092C80408958091CB0490912E
:10372000CC040895411105C061157105810591050D
:1037300061F06093CB047093CC048093CD0490939C
:10374000CE044093CF0481E0089580E00895FF9275
:103750000F931F93CF93DF938A01EC01C60FD71FFE
:10376000F9800E94E529F816190668F082E090E0D9
:10377000F801918380838EEF9FEFDF91CF911F91AE
:103780000F91FF9008956C817D818E819F814B8187
:10379000C9DF811108C082E090E0F8019183808345
:1037A00084EF9FEFEACF89818093CA0490E001966D
:1037B000F8019183808390E080E0DFCFCF93DF93A7
:1037C000EA01FC01E60FF71F64817581868197810C
:1037D0004381A8DF811109C082E090E0998388834A
:1037E00084EF9FEFDF91CF91089581E090E099837E
:1037F000888390E080E0F6CFEBECF4E040815181EB
:1038000062817381480F511D611D711D4083518379
:10381000628373830895CF93C091CA044C2F50E004
:103820006091CB047091CC0401960E94883D8C2F4E
:10383000E3DF1092CA04CF910895009799F4809124
:10384000CB049091CC042FEFFB012083892B59F0FE
:103850002091CA0430E02F5F3F4F2417350719F439
:10386000CB01D9CF60CC0895009799F48091CB0417
:103870009091CC042FEFFB012083892B59F02091EC
:10388000CA0430E02F5F3F4F2417350719F4CB01EE
:10389000C2CF49CC089523E1AC01249FC001259FEC
:1038A000900D1124E091D404F091D504E80FF91F94
:1038B000238134812250310981E02230310508F022
:1038C00080E008950F931F93CF93DF930091D60468
:1038D0001091D704D0E0C0E080E00C171D0749F438
:1038E00091E0811190E0892FDF91CF911F910F918D
:1038F00008958111F5CFCE01CEDF2196EECFA091B4
:10390000D404B091D504109729F12091D6043091B8
:10391000D70482179307F0F453E1589F9001599F01
:10392000300D1124A20FB31FED91FC911197309728
:1039300089F012968C91681768F48DE0689FE00D0D
:10394000F11D112480819181892B21F081E09281E8
:10395000491708F080E008959C0143E1429FC001AF
:10396000439F900D1124E091D404F091D504E80F09
:10397000F91F8385823091F481E090E06581768142
:1039800040915A0250915B026417750711F490E060
:1039900080E0892B19F081E0232B09F080E0089565
:1039A000FC01A081B1818DE0689FA00DB11D1124A3
:1039B00013964D915C9185859685489F9001499F0E
:1039C000300D589F300D1124C9010196611103C0BB
:1039D000478144FD04960895EF92FF920F931F9341
:1039E000CF93DF93EA01FC01E60FF71F02811381F9
:1039F000E480F5804F2D6E2DC80181DF81110DC04F
:103A000082E090E0998388838EEF9FEFDF91CF91E2
:103A10001F910F91FF90EF900895C8013CDF88231C
:103A200039F082E090E09983888388EF9FEFEECFB2
:103A30001093610200936002E0926202F0926302CE
:103A400081E090E09983888390E080E0DFCFCF929F
:103A5000DF92EF92FF920F931F93CF93DF937A0140
:103A6000EC01C60FD71FC0906002D0906102009198
:103A7000620210916302412F602FC60140DF811165
:103A800010C082E090E0F701918380838AEF9FEF7E
:103A9000DF91CF911F910F91FF90EF90DF90CF902A
:103AA0000895C601F8DE882341F082E090E0F70136
:103AB0009183808388EF9FEFEBCF4C815D816E8196
:103AC0007F819A8189818F3F41F082E090E0F70108
:103AD000918380838EEF9FEFDBCFE3E1EC9D90013C
:103AE000ED9D300D1124E091D404F091D504E20F46
:103AF000F31F0190F081E02D2DE0029FE00DF11DFC
:103B000011240190F081E02D27E0129FE00DF11DBE
:103B10001124808391838B818283438354836583C3
:103B200076831F5F1093630281E090E0F701918339
:103B3000808390E080E0ACCFEF92FF920F931F93D1
:103B4000CF93DF937A018C01060F171FC091D40425
:103B5000D091D504209781F021E030E0F8018281F6
:103B600093814091D6045091D7048417950710F0A3
:103B700030E020E0232B71F482E090E0F7019183A4
:103B800080838EEF9FEFDF91CF911F910F91FF9078
:103B9000EF90089543E1489F9001499F300D112413
:103BA000C20FD31F78DE882341F082E090E0F70156
:103BB0009183808388EF9FEFE6CFF80124813581E0
:103BC00020383105C8F687818111D6CF4181842FF5
:103BD00090E08F7E009741F082E090E0F7019183C2
:103BE000808386EF9FEFCFCF4F833E832D83268147
:103BF00028871986223010F421E0288721E030E060
:103C0000F70131832083BFCF88E090E0FA019183F0
:103C1000808390E080E00895FB018FEF808381E155
:103C200081838FEF9FEF9383828380E890E0958379
:103C30008483168217820895FB018FEF808391E0C1
:103C4000918382839383848384E3858381E090E0FE
:103C500097838683089582E090E0FA0191838083C0
:103C600080EF9FEF0895DF92EF92FF920F931F93E3
:103C7000CF93DF93EA01FC01E60FF71F81818130CA
:103C800071F082E090E0998388838FEF9FEFDF915E
:103C9000CF911F910F91FF90EF90DF900895828157
:103CA0009381D4802581E680F7800091D40410911F
:103CB000D5040115110539F482E090E099838883D9
:103CC0008CEF9FEFE4CF4091D6045091D704841736
:103CD000950738F082E090E0998388838EEF9FEF1C
:103CE000D6CF892B39F082E090E09983888386EFE4
:103CF0009FEFCDCF8D2D8D7FB1F72130A1F781E0E2
:103D0000D11006C091E0E916F10431F080E004C062
:103D1000E2E0EE16F104D0F3882329F390E080E08E
:103D2000BADD882339F082E090E09983888388EFB8
:103D30009FEFADCFF801D38681E08487F686E586D4
:103D4000108A178681E090E09983888390E080E074
:103D50009ECF4DE050E06CEA72E04FCA8F929F9286
:103D6000BF92CF92DF92EF92FF920F931F93CF9368
:103D7000DF93EA01FC01E60FF71F82819381048142
:103D8000B580E091D404F091D504309791F482E0AD
:103D900090E0998388838CEF9FEFDF91CF911F9103
:103DA0000F91FF90EF90DF90CF90BF909F908F90FA
:103DB00008952091D6043091D7048217930738F0E4
:103DC00082E090E0998388838EEF9FEFE6CF23E136
:103DD000289F6001299FD00C1124EC0DFD1DE0806F
:103DE000F180E114F10499F28281081748F78DE01F
:103DF000089F80011124E00EF11EF701808191815E
:103E0000892B29F6BB20E1F2F7E0BF9E4001112487
:103E1000C4010E94E92AF70191838083E091D404D0
:103E2000F091D504EC0DFD1D0190F081E02DE00F27
:103E3000F11F80819181009739F482E090E09983AD
:103E400088838DEF9FEFA9CFA40170E060E00E940E
:103E5000913D8091D4049091D504C80ED91EF601ED
:103E600080819181080F191FF801B28281E090E0F2
:103E70009983888390E080E090CFAF92BF92CF92F9
:103E8000DF92FF920F931F93CF93DF93EA01FC0120
:103E9000E60FF71F82819381F4800091D404109182
:103EA000D5040115110581F482E090E0998388839F
:103EB0008CEF9FEFDF91CF911F910F91FF90DF90DB
:103EC000CF90BF90AF9008952091D6043091D70441
:103ED0008217930738F082E090E0998388838EEF11
:103EE0009FEFE8CF2FEF2F0D2C3FA8F723E1289F5E
:103EF0006001299FD00C11240C0D1D1DF80180813B
:103F00009181892B89F6FDE0FF9E50011124C501A6
:103F10000E94E92AF80191838083E091D404F09112
:103F2000D504EC0DFD1D80819181009739F482E06C
:103F300090E0998388838DEF9FEFBCCFA50170E05F
:103F400060E00E94913DE091D404F091D504EC0D25
:103F5000FD1DF28281E090E09983888390E080E00B
:103F6000A9CFCF92DF92EF92FF920F931F93CF933F
:103F7000DF93860F971FFC01028113818091D40487
:103F80009091D504892B81F082E090E0FA01918331
:103F900080838CEF9FEFDF91CF911F910F91FF9066
:103FA000EF90DF90CF900895C801B0E0A0E00197B6
:103FB000A109B1098F3F9F4FA105B10540F082E0F3
:103FC00090E0FA01918380838EEF9FEFE4CF7A0136
:103FD00083E1809F6001819FD00C1124C6010E9463
:103FE000E92AEC01009741F482E090E0F701918327
:103FF00080838DEF9FEFCFCFA60170E060E00E943D
:10400000913DD093D504C093D4041093D70400936A
:10401000D60490E080E02FEF3FEF41E061E070E0F8
:104020008017910741F481E090E0F701918380834C
:1040300090E080E0B0CF3A8B298B1B864C877E873F
:104040006D87188A1F8601966396EACFEF92FF92DA
:104050001F93CF93DF93EC0110E0F12CE12C6A81E8
:104060001617B0F083E0689FB0011124AE014F5ED7
:104070005F4FC7010E944E2B009721F02FEF3FEFBB
:104080003A8B298BDF91CF911F91FF90EF9008958C
:10409000612FCE0185DC61E070E00E949629E81670
:1040A000F90608F47C011F5FDACFF8942091D2045E
:1040B0003091D30481E02115310509F080E0232BF4
:1040C00009F0789408952F923F924F925F926F92E9
:1040D0007F928F929F92AF92BF92CF92DF92EF9298
:1040E000FF920F931F93CF93DF933C01660E771ED1
:1040F000F301828193814C01B12CA12CC091D40495
:10410000D091D504209769F021E030E06091D60489
:104110007091D7048617970710F030E020E0232B2A
:10412000D1F482E090E0FA01918380838EEF9FEFDB
:10413000DF91CF911F910F91FF90EF90DF90CF9083
:10414000BF90AF909F908F907F906F905F904F90B7
:104150003F902F9008958092640290926502A09201
:104160006602B092670263E1689F9001699F300D1B
:104170001124C20FD31FF3018181833040F082E00C
:1041800090E0FA019183808386EF9FEFD1CF2A01DF
:104190002B813C81232BF1F4288139819F8191FF70
:1041A0002EC0232B09F46FC02091D9049A81422F8D
:1041B000490F5527551FBA0141E050E0613871059C
:1041C00014F050E040E0452B09F45DC02A87920FBF
:1041D0009093D9048150823008F481C066DF88232F
:1041E00009F4D8C0F3018181813009F48DC008F44D
:1041F0007BC0823009F4C6C090E080E0ADC0232BC4
:1042000009F441C02091D8049A81E22FE90FFF27D9
:10421000FF1F41E050E0ED3FF10514F050E040E0B9
:10422000452B89F12A87920F9093D804D3CFA08190
:10423000B181A20FB31F11966C91060F111D01964B
:10424000295F3F4F8417950794F38D859E85089FBE
:104250001001099F300C189F300C1124C114D10497
:10426000D1F48F8184FF17C00E94E429F5E02F0E5E
:10427000311C21E08215930508F420E0A701435F7B
:104280005F4F21110EC082E090E0F20191838083A4
:1042900087EF9FEF4DCF0E94E4292FEF221A320AB9
:1042A000E8CF88819981E80EF91EF7011483038312
:1042B000FFEFCF1ADF0A7A018A818C151D0409F0FD
:1042C0000CF48CCFE881F981EE0DFF1D428150E0A6
:1042D00030E020E010E000E090E080E0B3CFF12C8F
:1042E000E12CD12CC12CE8CF81E090E09C838B8322
:1042F000E9DA882309F480CF81E090E00E94DF189A
:1043000080E40E94ED1878CF89899A89019661F03E
:1043100083E090E09C838B8382E090E00E94DF1832
:1043200080E40E94E71868CF8D819E8120915A0217
:1043300030915B0282179307D1F460915E02709115
:104340005F02AE014F5E5F4F80915C0290915D0213
:104350000E946D2C0097E1F2789422E030E0F201A7
:1043600031832083892B99F08DEF9FEFE1CE89284F
:104370008A288B2869F6049758F6CE0167DE188ADA
:104380001F86E8CF82E090E09C838B8335CF90E05E
:1043900080E0CECE82E090E0F2019183808385EFD1
:1043A0009FEFC6CE8F929F92AF92BF92CF92DF9235
:1043B000EF92FF920F931F93CF93DF93EA018C014B
:1043C000060F171FF8018181833098F082E090E09A
:1043D0009983888386EF9FEFDF91CF911F910F9193
:1043E000FF90EF90DF90CF90BF90AF909F908F9015
:1043F00008958091D4049091D504892B61F081E0D7
:1044000090E02091D6043091D704232B11F490E052
:1044100080E0892B39F482E090E0998388838EEFE5
:104420009FEFDACF42DE882309F4E0C0F8018181F2
:10443000813009F496C0E8F0823099F42091D604D6
:104440003091D704E091D404F091D50490E080E05D
:1044500041E050E02817390709F0BEC033DA811176
:1044600017C0789481E090E09983888390E080E0A1
:10447000B3CF2091D6043091D704E091D404F091C9
:10448000D50490E080E041E050E02817390741F47E
:1044900081E090E00E94DF1880E40E94ED18E1CFF7
:1044A00063817481672B11F0548343830196739663
:1044B000ECCFE091D404F091D504E00FF11F2381FB
:1044C000348122303105D9F4218932892F3F3F4F81
:1044D000B1F42581368140915A0250915B02241734
:1044E000350761F5AF014F5E5F4F60915E027091DD
:1044F0005F0280915C0290915D020E946D2CEFEF53
:10450000CE1ADE0AEE0AFE0A0D5E1F4F4091D60457
:104510005091D70470E060E0C416D506E606F706B1
:1045200044F5009731F27894892B09F49BCF82E00F
:1045300090E0998388838DEF9FEF4ECFC114D10413
:10454000E104F104E1F624303105C8F6CF017EDD47
:10455000E091D404F091D504E00FF11F108A178682
:10456000CECF10E000E090E080E0C12CD12C7601AD
:10457000CDCF0097C1F610E000E0812C912C5401C2
:1045800083E0E82EF12C1AC0E091D404F091D50418
:10459000E00FF11F83819481029749F4F482E38252
:1045A00082E090E00E94DF1880E40E94E718FFEFAD
:1045B0008F1A9F0AAF0ABF0A0D5E1F4F8091D60463
:1045C0009091D704B0E0A0E088169906AA06BB0631
:1045D000DCF290E080E0A7CF6381748162307105E6
:1045E00011F4548343830196739634CF82E090E0B4
:1045F0009983888385EF9FEFEFCE0097B9F48FEF13
:10460000FB018083209164023091650243E1429F67
:10461000C001439F900D1124E091D404F091D50482
:10462000E80FF91F8285FB01818308950C9493188C
:1046300088E090E0FA019183808390E080E0089523
:104640001092D3041092D204E4EDF4E086E0DF018E
:104650001D928A95E9F789EA9EE19093D1048093AF
:10466000D00408958091D0049091D10408952F92A0
:104670003F924F925F926F927F928F929F92AF92F2
:10468000BF92CF92DF92EF92FF920F931F93CF933F
:10469000DF93CDB7DEB72F970FB6F894DEBF0FBE0E
:1046A000CDBFF894E091D204F091D3043196F09309
:1046B000D304E093D20478944090D4045090D5046D
:1046C0004114510409F40CC2E091D604F091D704CE
:1046D000EF2B09F405C22D8749875A876B877C87A2
:1046E00098878F831201B12CA12C10E000E08091FB
:1046F000D6049091D704A816B90618F4011511052F
:1047000029F1F8948091D2049091D3040197909369
:10471000D3048093D2047894C8012F960FB6F894EE
:10472000DEBF0FBECDBFDF91CF911F910F91FF90E4
:10473000EF90DF90CF90BF90AF909F908F907F9041
:104740006F905F904F903F902F9008957101E41803
:10475000F508D10117968C91179781FD54C01396D7
:104760008D919C911497039709F04DC015968D91EA
:104770009C91EF81F8858E179F0709F044C0B50121
:1047800090E080E07FD48A832091D4043091D504D6
:104790003D832C833D85332309F44CC04C815D81DE
:1047A000452B09F49AC18091D6049091D704A8169C
:1047B000B90608F092C1C501CFD88823E9F06C8111
:1047C0007D816E0D7F1D7D836C83DB011F968D9136
:1047D0009C91892B89F0D12CC12CF12CE12CAC813E
:1047E000BD8112968C9112978E151F0409F094F4D6
:1047F00050961C921E921F972A81222321F0B50108
:1048000090E080E041D43FEFA31AB30A43E1240EC5
:10481000311C6DCFAC81BD81ED91FC91EC0DFD1D86
:10482000858196810FD7BFEFEB1AFB0AEDE0CE0E24
:10483000D11CD5CFEC81FD81309709F44EC1809118
:10484000D6049091D704A816B90608F046C1EE0D1B
:10485000FF1DFF87EE87C5017FD88B83882339F141
:10486000AE85BF851F968D919C915097019621E052
:104870001D964D915C918417950709F020E02E83D9
:104880001982712C10E000E0AE85BF8512968C91E4
:10489000781608F45DC0EE85FF85878590890196BE
:1048A000658576850E94203D908B8787A5CFB1E0F6
:1048B000BE83E6CF992493946BC08BD6F601968382
:1048C000858382C0D601ED90FC90B7E06B9EE00C32
:1048D000F11C1124F7016381748180818F3F61F1A4
:1048E00021E030E002C0220F331F8A95E2F7C901B0
:1048F000092E000CAA0BBB0BFB0140815181628188
:10490000738184239523A623B72321E0892B8A2B47
:104910008B2B09F420E0D4012C93D70111968C91B4
:10492000F60123853485820F932F911D880E991EE1
:104930001486138663949BC0418150E0C4010E9499
:10494000883DEBCF998206EF1FEFC5C01982C3C027
:10495000F981F111A0CFEDE07E9E70011124AE85AA
:10496000BF85CD90DC90CE0CDF1C15D49D838C834D
:10497000BB81BB2309F49ECF81E0EE85FF852785AF
:104980003089232B09F080E0982E882309F458C041
:10499000672D8E859F8504D8D60118969C938E939B
:1049A000179761E070E0C2D4EE85FF8521893289D6
:1049B0002F3F320709F481CFBC01C901CFD7D601FF
:1049C00016969C938E931597D60115968D919C9172
:1049D0001697009709F4B6CFEC81FD818E0F9F1FCB
:1049E0001A969C938E931997AE85BF85ED91FC9195
:1049F0001197EE0EFF1EF70121853285148613866E
:104A00001A968C91870DD9018D93711016C0EE8581
:104A1000FF85878184FF11C049855A856B857C8518
:104A2000F9014183528363837483F70183859485FD
:104A30000496A80FB91F14861386F701B287A187C1
:104A4000D60115968D919C911697892B09F443C038
:104A5000EE85FF852581368180915A0290915B0217
:104A60002817390779F019968D909C90612CD60102
:104A700012968C911297681608F424CF1A969C927D
:104A80008E921997BE81BB2309F460CF61E070E07C
:104A9000F601878190854AD4D6011796ED90FC9057
:104AA000189715964D915C91E1E0F0E0BA81BB2337
:104AB00011F0F0E0E0E00C811D819C01B501882738
:104AC00099278E1B9F0B6AD38C01892B21F0F6014D
:104AD00085819681B7D57394D7CE0FEF1FEF8CCE1B
:104AE00010E000E00ECE2F923F924F925F926F92B5
:104AF0007F928F929F92AF92BF92CF92DF92EF926E
:104B0000FF920F931F93CF93DF938091D4049091E2
:104B1000D50410E000E0892BA9F0C7DA0AEF1FEFF7
:104B2000882381F02090D6043090D704C091D4041B
:104B3000D091D504D12CC12C10E000E02C143D0400
:104B4000A9F47894C801DF91CF911F910F91FF9044
:104B5000EF90DF90CF90BF90AF909F908F907F901D
:104B60006F905F904F903F902F900895C6010E94E4
:104B7000AC1C882309F18B819C810397E9F48F8514
:104B80009889892BC9F0B60190E080E07BD221E0C2
:104B900030E0882311F030E020E044245524421A0C
:104BA000530AB12CA12C912C812C8A8188151904CF
:104BB00009F038F4188A1F864FEFC41AD40A639696
:104BC000BDCFE881F981EA0DFB1D85819681892B96
:104BD000A1F161E070E087819085A8D33C01DBD230
:104BE0008C01E881F981EA0DFB1D81859285258183
:104BF0003681200F311FAC01421B530B9A014781B4
:104C00005085421B530B70E060E00E94913DE881AB
:104C1000F981EA0DFB1DE780F084458156819301FF
:104C2000B601C201BBD28C01892B39F0E881F98130
:104C3000EA0DFB1D8581968105D55FEF851A950AE2
:104C40008DE0A80EB11CB1CF30CA789408952F9290
:104C50003F924F925F926F927F929F92AF92BF92DC
:104C6000CF92DF92EF92FF920F931F93CF93DF9338
:104C700000D000D0CDB7DEB70091D4041091D50498
:104C8000992493940115110509F43EC0A090D6040F
:104C9000B090D7040ADA982E8823B1F11092D50487
:104CA0001092D4041092D7041092D6041092D80413
:104CB0001092D9048FEF9FEFDC01809364029093F0
:104CC0006502A0936602B093670278947FD31E8337
:104CD0000D83C12CD12C7601C501B0E0A0E0898301
:104CE0009A83AB83BC8322242A94322C89819A81B3
:104CF000AB81BC81C816D906EA06FB06F4F0C801F0
:104D0000A1D480E40E94ED18892D26960FB6F89460
:104D1000DEBF0FBECDBFDF91CF911F910F91FF90EE
:104D2000EF90DF90CF90BF90AF909F907F906F906B
:104D30005F904F903F902F900895AD81BE81159662
:104D40008D919C91169720915A0230915B028217A7
:104D50009307D1F451968D919C91EED5ED81FE8112
:104D600080819181B12CA12C412C512C3201892BB5
:104D700089F5BFEFCB1ADB0AEB0AFB0AED81FE8156
:104D80007396FE83ED83B2CFC114D104E104F10424
:104D900029F7049718F7ED81FE81818992898F3F69
:104DA000980709F029D5AD81BE8152963C922E928A
:104DB0005197D4CF8A0D9B1DDC018D919C9100975A
:104DC00009F040D4BFEF4B1A5B0A6B0A7B0AEDE097
:104DD000AE0EB11CAD81BE818D919C911197129642
:104DE0004C9150E070E060E0441655066606770688
:104DF0000CF328D4BECFCF93DF93EA0128DF8111D3
:104E000009C082E090E09983888385EF9FEFDF916E
:104E1000CF91089581E090E00E94DF1881E090E05A
:104E20009983888390E080E0F2CF11DF1092D10463
:104E30001092D004089542E050E06AEF72E00C94C2
:104E4000FD18FF920F931F93CF93DF938A01EC011C
:104E5000C60FD71FF980B9D20897F816190671F056
:104E600068F082E090E0F801918380838EEF9FEFFD
:104E7000DF91CF911F910F91FF9008956C817D81FB
:104E80008E819F814B810E94921B811108C082E01C
:104E900090E0F8019183808384EF9FEFE9CFF98060
:104EA0000E948D1B4F2D50E0BE01685F7F4F0E9416
:104EB000883D89810E94FC1B81E090E0F80191838C
:104EC000808390E080E0D4CFDF92EF92FF920F9347
:104ED0001F93CF93DF938A01EC01C60FD71F0E9467
:104EE0008D1B7C01D98071D2DD2059F0029721E021
:104EF00030E0D816190619F010F030E020E0232B2E
:104F000079F482E090E0F801918380838EEF9FEF47
:104F1000DF91CF911F910F91FF90EF90DF90089557
:104F2000EF2841F482E090E0F8019183808384EFE0
:104F30009FEFEECFF9800E948D1B4F2D50E0BE01F8
:104F40006E5F7F4F0E94883D89810E94FC1B81E03B
:104F500090E0F8019183808390E080E0D9CF8BE1ED
:104F600097E29093DB048093DA0408958091DA0449
:104F70009091DB0408950895FC01118210829383BF
:104F800082830895DB011D921C92DC011296ED9143
:104F9000FC9113977183608313967C936E931297A1
:104FA0000895FC0180819181DB018D939C93A08108
:104FB000B181109741F08D919C9191838083892BD1
:104FC00011F4F383E2830895FC0180819181DB0178
:104FD0008D939C93892B11F4738362837183608317
:104FE0000895FC0111821082938382830895CF93E8
:104FF000DF931F921F92CDB7DEB71A821982F89401
:10500000BE016F5F7F4F81EE94E0CBDF89819A8193
:10501000009709F017D389819A81892B89F7BE01FE
:105020006F5F7F4F85EE94E0BCDF89819A810097A6
:1050300009F008D389819A81892B89F778940F9098
:105040000F90DF91CF910895CF93DF931F921F921E
:10505000CDB7DEB71A821982F894BE016F5F7F4F19
:105060008DED94E09EDF89819A81009709F0EAD264
:1050700089819A81892B89F778940F900F90DF911D
:10508000CF91089581E0089590E080E00895EF9237
:10509000FF920F931F93CF93DF931F921F92CDB771
:1050A000DEB71A8219828091DC0407EF1FEF882394
:1050B000A1F1F894BE016F5F7F4F85EE94E071DF40
:1050C000789489819A81EE24E394F12C892B51F410
:1050D000F894BE016F5F7F4F81EE94E062DF7894B9
:1050E000F12CE12C89819A810EEF1FEF0097A9F036
:1050F000FC014281538164E070E076D68C01892BFB
:1051000061F0F89469817A81C701880F991F880F2F
:10511000991F8F519B4F58DF7894C8010F900F90C3
:10512000DF91CF911F910F91FF90EF9008950F9312
:105130001F93CF93DF9300D01F92CDB7DEB71C82B1
:105140001B821A8219828091DC0407EF1FEF8823EB
:10515000C1F0AE014D5F5F4F64E070E0CE0101969B
:10516000B6D68C01892B69F4E981FA818B819C8107
:1051700093838283F89469817A818DED94E002DFD4
:105180007894C8010F900F900F900F90DF91CF91FE
:105190001F910F910895BBD7049608958F929F9207
:1051A000AF92BF92CF92DF92EF92FF920F931F9335
:1051B000CF93DF931F921F92CDB7DEB71A82198269
:1051C000BC016F5F7F4F6330710598F0AA24AA94E9
:1051D000BA2CC5010F900F90DF91CF911F910F91C5
:1051E000FF90EF90DF90CF90BF90AF909F908F9007
:1051F00008954115510551F3480159018A016C0187
:10520000CADF8815990511F7E114F104F9F28E0D42
:105210009F1DA816B906D0F28091DC048823F1F016
:10522000F894B501645071099701AE014F5F5F4F6B
:10523000C8010496E1D65C01892B71F489819A81B9
:10524000F80193838283C601880F991F880F991FE5
:10525000B8018F519B4F96DE7894BBCF87EFA82E75
:10526000BB24BA94B6CFAF92BF92CF92DF92EF92A7
:10527000FF920F931F93CF93DF931F921F92CDB78F
:10528000DEB71A821982892B09F047C061157105B2
:1052900009F443C04115510509F43FC021153105FA
:1052A00009F43BC001151105C1F18091DC0488238C
:1052B000B9F179016A015B01F894BE016F5F7F4F1C
:1052C0008DED94E06EDE789489819A81009759F192
:1052D000DC0112966D917C91A8010496A6D68C01F2
:1052E000E981FA81D501ED93FC9382819381049643
:1052F000F601918380834FDFD7018D939C93C80182
:105300000F900F90DF91CF911F910F91FF90EF9031
:10531000DF90CF90BF90AF9008950FEF1FEFEFCFCA
:1053200007EF1FEFECCF0EEF1FEFE9CFCF93DF9327
:10533000EC01672B71F4F4D68C179D0760F0E7D66B
:105340002496C80FD91FE6D68C0F9D1FDF91CF91F1
:105350000895E3D6F1CF90E080E0F8CF0F931F934C
:10536000CF93DF932091DC0421112BC08B01EC0142
:1053700081EE94E001DE85EE94E0FEDD8DED94E0BB
:10538000FBDD97D00097C1F4CBD670E060E0CEDFB4
:1053900048E652E062E070E081D1009769F48091C4
:1053A000680290916902CED6B801CE0103D500976C
:1053B00019F421E02093DC04DF91CF911F910F912C
:1053C000089584EF9FEFF8CFA8C6AAC6CF93DF93C6
:1053D000AAD6EC01892B11F40ADE36DECE01DF916C
:1053E000CF910895CF93DF939ED6EC01892B09F4DA
:1053F000FEDDCE01DF91CF910895809168029091FA
:1054000069020895CF93DF938091DC04D0E0C0E07F
:105410008823D1F09CD6EC01892BB1F4E8DD14DEB1
:105420008091680290916902E7D1E8D2EC01892B62
:1054300059F481EE94E0D5DD85EE94E0D2DD8DED7A
:1054400094E0CFDD1092DC04CE01DF91CF9108957E
:10545000EF92FF920F931F93CF93DF93EC017A01AA
:105460008B010F5F1F4F0E9DA0010F9D500D1E9DC4
:10547000500D112470E060E00E94913D90E080E0CA
:10548000F0E0E0E02FEFE816F90639F4DF91CF9174
:105490001F910F91FF90EF9008951A82198228832F
:1054A000309711F0D283C1830196FE01C00FD11F46
:1054B000EACFCF92DF92EF92FF920F931F93CF9399
:1054C000DF9305E116E00C7F43E050E06AE672E00E
:1054D00080E792E01CD48AE6E82E82E0F82E90E77E
:1054E000C92E92E0D92EC4EDD6E0D7014D915D9141
:1054F0007D01F601619171916F01198308835D83CC
:105500004C835B834A837F836E839B012F5F3F4F76
:10551000249FC001259F900D349F900D11249987E1
:1055200088870115110511F0C80192DF88859985DA
:10553000080F191F2A96F0E7EF16F2E0FF06A9F60A
:10554000EBEEF4E087E291E0DF019C011D92215037
:105550003040E1F71092EA041092E9041092F30649
:105560001092F2061092F7061092F6061092F506C7
:105570001092F4061092F9061092F8061092FB06AB
:105580001092FA061092FD061092FC061092010786
:10559000109200071092FF061092FE061092030769
:1055A0001092020710920507109204071092D1067C
:1055B0001092D0061092D3061092D20690E080E0AE
:1055C000DF91CF911F910F91FF90EF90DF90CF90DF
:1055D00008950097F1F0F894A0E7B2E0E4EDF6E06A
:1055E00030E020E04D915D9148175907A8F04281C5
:1055F00053814115510581F08AE0829FF001839F1C
:10560000F00D1124EC52F94F80819181009759F4EB
:10561000789490E080E008952F5F3F4F3A962330D2
:10562000310501F7F5CFDC0111966D917C91718305
:1056300060834150510953834283FC012193CF0180
:1056400078940895009749F1DC018E91853041F4FA
:10565000E091D206F091D3063097F9F0CD0119947C
:105660008530D8F4282F30E0F8948FEF8C938AE0BF
:10567000829FF001839FF00D1124EC52F94F80813D
:10568000918112969C938E931197B183A08382810E
:10569000938101969383828378940895CF92DF92C9
:1056A000EF92FF920F931F93CF93DF939C018EEEA7
:1056B00094E08C7F4115510509F49BC021153105FB
:1056C00009F497C06115710509F493C07A01AB0123
:1056D000B9016D5F7F4F6C7F9B012F5F3F4F249F10
:1056E0008001259F100D349F100D1124F8942091F6
:1056F000F2063091F306232B59F42091FA063091EB
:10570000FB062115310569F12017310708F058C053
:105710002091FC063091FD06232B91F42091FA068E
:105720003091FB06820F931F2091040730910507EB
:105730002115310509F441C02017310708F056C082
:105740007894CFEFDFEF86EF9FEFF701D183C0832F
:10575000DF91CF911F910F91FF90EF90DF90CF904D
:105760000895C3E0D0E0C090E904D090EA0424E2B8
:1057700031E02C193D092017310710F32AE02C9F46
:10578000F0012D9FF00D1124EC52F94F918380838D
:1057900055834483538342837783668311870087CD
:1057A000009709F055DE0C0D1D1D1093EA040093BF
:1057B000E904789490E080E0C8CFC4E0D0E0D3CF93
:1057C000C3E0D0E02AE02C9FF0012D9FF00D1124C2
:1057D000EC52F94F918380835583448353834283F2
:1057E00077836683009729F333DEE3CFC4E0D0E00C
:1057F000E9CF8FEF9FEFACCF9C010397029708F0A2
:1058000069C0F89484E09AE0482F50E024173507E7
:105810000CF44DC091E08AE0829FF001839FF00D6F
:105820001124EC52F94F11821082158214821382D6
:105830001282178216829923B1F18091F20690911B
:10584000F306892BA9F42091FA063091FB06211565
:10585000310571F08091E9049091EA04821B930B69
:105860009093EA048093E9041092FB061092FA06E2
:105870008091FC069091FD06892BA9F420910407E4
:10588000309105072115310571F08091E90490915F
:10589000EA04821B930B9093EA048093E90410922C
:1058A000050710920407789490E080E00895949F93
:1058B000F001959FF00D1124EC52F94F4081518178
:1058C000452B31F440855185452B11F481509CCFF7
:1058D00090E0A1CF8FEF9FEF08954115510549F159
:1058E000009739F16115710521F1F8942091D006E6
:1058F0003091D106232BB9F42091D2063091D306F2
:10590000232B89F49093D1068093D0067093D3060D
:105910006093D206789425E030E090E080E0FA01D0
:1059200031832083089578942FEF3FEF86EF9FEF28
:10593000F6CF8FEF9FEF0895059769F4F8941092D2
:10594000D1061092D0061092D3061092D206789407
:1059500090E080E008958FEF9FEF08956115710545
:1059600019F4F0E0E0E011C08530910581F4E09198
:10597000D006F091D1063097A1F3CB01019619958D
:10598000009779F3FC0185E08193CF0108959C0194
:10599000235031092230310520F72AE0289FD00119
:1059A000299FB00D1124AC52B94F2D913C91119704
:1059B000232BB9F216962D913C911797261737078E
:1059C00080F2F89412962D913C9113972115310590
:1059D00029F0ED91FC911197309711F47894C1CF93
:1059E0004181528111965C934E9321503109139657
:1059F0003C932E93129781937894C7CFE2E1F6E01F
:105A00008EEBDF011D928A95E9F7EBEEF4E087E279
:105A100091E0DF019C011D9221503040E1F710928E
:105A2000EA041092E904E4EDF6E082E3DF011D925E
:105A30008A95E9F7E0EDF6E084E0DF011D928A95B2
:105A4000E9F790E080E00895CF93DF93C09176026C
:105A5000D0917702CF3FDC0759F45ED49093770260
:105A60008093760297FF09C0D0937702C0937602A5
:105A700084EF9FEFDF91CF91089590E080E0FACF1F
:105A80008230910528F48093060790E080E0089525
:105A90008FEF9FEF08954F925F926F927F92AF9238
:105AA000BF92CF92DF92EF92FF920F931F93CF930B
:105AB000DF931F921F92CDB7DEB71A82198200972B
:105AC00009F479C06115710509F475C02091760259
:105AD0003091770207EF1FEF2F3F3F4F09F445C08A
