:1000000005C1000034C1000032C1000030C1000051
:100010002EC100002CC100002AC1000028C1000030
:1000200026C1000024C1000022C1000020C1000040
:100030001EC100001CC100001AC1000018C1000050
:1000400016C1000014C1000012C1000010C1000060
:100050000EC100000CC100000AC100000C94F7564C
:1000600006C100000C9468610C94986100C1000006
:10007000FEC00000FCC00000FAC00000F8C0000094
:10008000F6C00000F4C00000F2C00000F0C00000A4
:100090000C940F620C943F62EAC00000E8C00000BC
:1000A000E6C00000E4C00000E2C00000E0C00000C4
:1000B000DEC00000DCC00000DAC00000D8C00000D4
:1000C000D6C00000D4C00000D2C000000C94B662BC
:1000D0000C94E662CCC000000C945D630C948D63BC
:1000E000C6C0000000002100240027002A002D00C7
:1000F0003000330001010000040107010A01000083
:100100002200250028002B002E00310034000201BF
:100110000000050108010B0100002000230026005B
:1001200029002C002F00320000010000030106010D
:10013000090105050505070508080808020202026D
:100140000A0A080804040404010101010101010173
:100150000303030303030303040707070C0C0C0C3E
:100160000C0C0C0C02020202060606060606060627
:100170000B0B0B0B0B0B0B0B0102102020080810B4
:100180002040102040800201020108040201010207
:1001900004081020408080402010080402018004E0
:1001A000020180402010080402010804020101023B
:1001B0000408102040800102040810204080000044
:1001C0000A0B02090C0D0E080703040100000000D1
:1001D000000000000000000000000000000000001F
:1001E00000000000000000000000121110000000DC
:1001F00000000000000000000000000000000000FF
:10020000000000000362AA625163FA6311241FBE5A
:10021000CFEFD1E2DEBFCDBF00E00CBF13E0A0E026
:10022000B2E0E6E9F9EC00E00BBF02C007900D92E6
:10023000AA33B107D9F72AE0AAE3B3E001C01D92BF
:10024000AA3FB207E1F711E0C6E0D1E000E006C046
:1002500021970109802FFE010E949464C230D107CA
:1002600080E00807A9F70E946B540C94C964C8CEBB
:10027000EF92FF920F931F93CF93DF93CDB7DEB72B
:100280002C970FB6F894DEBF0FBECDBF69837A837B
:100290008B839C832D833E834F835887E986FA8620
:1002A0000B871C87898161E00E94845A89819A8129
:1002B00001969C0189819A81AB81BC81A901BC0115
:1002C000CD01FDD020E030E0A90169857A858B85DC
:1002D0009C850E9490561816F4F489819A81865C58
:1002E0009C4F21E0FC01208369857A858B859C8564
:1002F0000E94B255DC01CB018C016D817E818F8122
:1003000098850E94B255DC01CB019C0189819A81BC
:10031000A801B90153D189819A8101962C960FB613
:10032000F894DEBF0FBECDBFDF91CF911F910F912B
:10033000FF90EF900895CF93DF9300D000D01F92ED
:10034000CDB7DEB79B838A834C835D836E837F83C7
:10035000CE010296FC0180818823A9F1CE0102968C
:10036000FC018081815089838981882F90E0865C9F
:100370009C4FFC0180818130D1F48C819D81AE81C4
:10038000BF81B0588C839D83AE83BF836C817D8198
:100390008E819F810E94B2559B01AC018981882F7B
:1003A00090E0A0E0B0E0BC01CD01E7D00CC06C81D2
:1003B0007D818E819F810E94AD55DC01CB01BC0106
:1003C00089810E940A59000027960FB6F894DEBF73
:1003D0000FBECDBFDF91CF910895CF93DF9300D0B3
:1003E000CDB7DEB79B838A83CE010296FC01808164
:1003F000882389F01982CE010296FC018081815008
:1004000089838981882F90E0A0E0B0E040E050E04F
:10041000BC01CD0154D000000F900F900F90DF91E0
:10042000CF910895CF93DF9300D000D000D0CDB707
:10043000DEB76E837F83888799871C821B821A822E
:1004400019821D828E819F81A885B985689412F8D2
:10045000B695A795979587951694D1F79C838B832E
:100460008E8187708D838B819C8180589C4FFC018D
:1004700040818D81282F30E081E090E002C0880F1C
:10048000991F2A95E2F78423882F90E09A83898325
:1004900089819A81892B31F08E819F8101969A837F
:1004A000898302C01A82198289819A8129960FB69E
:1004B000F894DEBF0FBECDBFDF91CF910895CF93EB
:1004C000DF9300D000D000D01F92CDB7DEB76D8390
:1004D0007E838F8398875A8749871A8219821B8265
:1004E0001C828D819E81AF81B885689412F8B69583
:1004F000A795979587951694D1F79A8389838D81CF
:1005000087708B838B81282F30E081E090E002C0E0
:10051000880F991F2A95E2F78C8389859A85892B04
:1005200099F48C8180958C8389819A8180589C4F25
:10053000FC0190818C81292F282389819A81805800
:100540009C4FFC0120830FC089819A8180589C4F69
:10055000FC0190818C81292F282B89819A818058D8
:100560009C4FFC01208300002A960FB6F894DEBF52
:100570000FBECDBFDF91CF910895CF93DF9300D011
:1005800000D01F921F92CDB7DEB769837A838B8329
:100590009C832D833E834F8358878D819E81298143
:1005A000BC01822F0E940A59000028960FB6F894C9
:1005B000DEBF0FBECDBFDF91CF910895CF93DF9304
:1005C00000D000D000D0CDB7DEB79D838C837F8371
:1005D0006E83598748878C819D8182549E4F9A8370
:1005E000898389819A81FC0184918B838B81882FF7
:1005F00090E0092E000CAA0BBB0B0197A109B109D1
:1006000082319105A105B10508F051C2FC0188278E
:10061000E35FFC4F8F4F0C9494641F032903330353
:100620005D0387035705B103C703DD0307043104E6
:100630005B048504AF045705D90403052D0584E444
:1006400090E0FC01208184E490E02068FC0120839C
:100650002EC284E490E0FC01208184E490E02062DA
:10066000FC01208324C280E890E0FC018081282FD7
:100670002C7F80E890E02260FC01208381E890E0FC
:10068000FC018081982F907E8E81292F282B81E874
:1006900090E02061FC01208386E890E02885398580
:1006A000FC013183208380E890E0FC01208180E818
:1006B00090E02068FC012083FAC180E890E0FC0112
:1006C0008081282F2C7F80E890E02260FC0120832D
:1006D00081E890E0FC018081982F907E8E81292F07
:1006E000282B81E890E02061FC01208386E890E0DF
:1006F00028853985FC013183208380E890E0FC0166
:10070000208180E890E02062FC012083D0C180E855
:1007100090E0FC018081282F2C7F80E890E022600F
:10072000FC01208381E890E0FC018081982F907E7D
:100730008E81292F282B81E890E02061FC01208305
:1007400086E890E028853985FC013183208380E8A4
:1007500090E0FC01208180E890E02860FC0120838B
:10076000A6C180EB90E0FC01208180EB90E0206846
:10077000FC01208381EB90E0FC018081382F387FE1
:100780002E8181EB90E0232BFC01208390C180EB34
:1007900090E0FC01208180EB90E02062FC0120834E
:1007A00081EB90E0FC018081382F387F2E8181EB36
:1007B00090E0232BFC0120837AC180E990E0FC01CA
:1007C0008081282F2C7F80E990E02260FC0120832B
:1007D00081E990E0FC018081982F907E8E81292F05
:1007E000282B81E990E02061FC01208386E990E0DC
:1007F00028853985FC013183208380E990E0FC0164
:10080000208180E990E02068FC01208350C180E9CC
:1008100090E0FC018081282F2C7F80E990E022600D
:10082000FC01208381E990E0FC018081982F907E7B
:100830008E81292F282B81E990E02061FC01208303
:1008400086E990E028853985FC013183208380E9A1
:1008500090E0FC01208180E990E02062FC0120838F
:1008600026C180E990E0FC018081282F2C7F80E95F
:1008700090E02260FC01208381E990E0FC0180810E
:10088000982F907E8E81292F282B81E990E020617E
:10089000FC01208386E990E028853985FC013183BD
:1008A000208380E990E0FC01208180E990E02860CD
:1008B000FC012083FCC080EA90E0FC018081282FAD
:1008C0002C7F80EA90E02260FC01208381EA90E0A6
:1008D000FC018081982F907E8E81292F282B81EA20
:1008E00090E02061FC01208386EA90E0288539852C
:1008F000FC013183208380EA90E0FC01208180EAC2
:1009000090E02068FC012083D2C080EA90E0FC01E6
:100910008081282F2C7F80EA90E02260FC012083D8
:1009200081EA90E0FC018081982F907E8E81292FB2
:10093000282B81EA90E02061FC01208386EA90E088
:1009400028853985FC013183208380EA90E0FC0111
:10095000208180EA90E02062FC012083A8C080EA28
:1009600090E0FC018081282F2C7F80EA90E02260BB
:10097000FC01208381EA90E0FC018081982F907E29
:100980008E81292F282B81EA90E02061FC012083B1
:1009900086EA90E028853985FC013183208380EA4E
:1009A00090E0FC01208180EA90E02860FC01208337
:1009B0007EC080E291E0FC018081282F2C7F80E2C4
:1009C00091E02260FC01208381E291E0FC018081C2
:1009D000982F907E8E81292F282B81E291E0206133
:1009E000FC01208386E291E028853985FC01318372
:1009F000208380E291E0FC01208180E291E0206888
:100A0000FC01208354C080E291E0FC018081282F0A
:100A10002C7F80E291E02260FC01208381E291E062
:100A2000FC018081982F907E8E81292F282B81E2D6
:100A300091E02061FC01208386E291E028853985E0
:100A4000FC013183208380E291E0FC01208180E27F
:100A500091E02062FC0120832AC080E291E0FC0149
:100A60008081282F2C7F80E291E02260FC0120838E
:100A700081E291E0FC018081982F907E8E81292F68
:100A8000282B81E291E02061FC01208386E291E045
:100A900028853985FC013183208380E291E0FC01C7
:100AA000208180E291E02860FC01208300008C819D
:100AB00060E00E94235C000029960FB6F894DEBF28
:100AC0000FBECDBFDF91CF910895CF93DF931F92DB
:100AD0001F92CDB7DEB789836A838A81882329F480
:100AE00060E089810E94845A0CC08A81813029F497
:100AF00061E089810E94845A04C062E089810E9479
:100B0000845A00000F900F90DF91CF910895CF93FA
:100B1000DF931F921F92CDB7DEB78A838A810E942E
:100B2000AB5C019711F481E001C080E08983898189
:100B30000F900F90DF91CF910895CF93DF9300D066
:100B400000D0CDB7DEB79C838B837E836D831A8202
:100B5000198289819A8126960FB6F894DEBF0FBE5E
:100B6000CDBFDF91CF910895CF93DF9300D000D018
:100B70001F921F92CDB7DEB79E838D8378876F83D8
:100B80001C821B828D819E81892B19F48FEF9FEF30
:100B9000B6C08F819885892B19F48FEF9FEFAFC076
:100BA0008091200290912102A0912202B091230213
:100BB0008E3F9F4FAF4FBF4F81F48F819885FC01CF
:100BC00080819181A281B381809320029093210240
:100BD000A0932202B09323020FC080912002909133
:100BE0002102A0912202B09123022F813885F901C0
:100BF00080839183A283B38380912002909121020C
:100C0000A0912202B09123028D819E81FC018281FC
:100C10009381FC0180819181A281B3818093AD0495
:100C20009093AE04A093AF04B093B0048D819E81E5
:100C3000FC0182819381FC0184819581A681B78129
:100C40008093B1049093B204A093B304B093B4041E
:100C50008D819E81FC0182819381FC01808591853B
:100C6000A285B3858093B5049093B604A093B7048E
:100C7000B093B8048D819E81FC0182819381FC0137
:100C800084859585A685B7858093B9049093BA0429
:100C9000A093BB04B093BC041092BD041092BE0498
:100CA0001092BF041092C0040E94C4181A821982C4
:100CB0001A82198210C089819A81880F991F8757DB
:100CC0009C4F2FEE38E1FC013183208389819A818A
:100CD00001969A83898389819A81039760F30E94A0
:100CE000CB139C838B838B819C81892B31F481E096
:100CF00090E09093AC048093AB048B819C81289608
:100D00000FB6F894DEBF0FBECDBFDF91CF9108952F
:100D1000CF93DF93CDB7DEB72C970FB6F894DEBF35
:100D20000FBECDBF69877A878B879C871A8219820D
:100D30001B821C821D821E821F829091A90481E069
:100D4000992309F080E0888782E090E09093AC04DA
:100D50008093AB0489859A85AB85BC85892B8A2BCA
:100D60008B2B59F48091A904882339F48091AA042B
:100D7000882319F481E090E002C080E090E08F8346
:100D800031C06AE070E080E090E00E94C6578B813D
:100D90009C81AD81BE81805F984DAF4FBF4F8B83EB
:100DA0009C83AD83BE8389859A85AB85BC858F3F47
:100DB0009F4FAF4FBF4F81F02B813C814D815E81B2
:100DC00089859A85AB85BC8582179307A407B507EB
:100DD00018F481E090E002C080E090E08F8380E032
:100DE0000E9413148091A904882339F48091AA04E5
:100DF000882319F48F81882321F283E090E0909377
:100E0000AC048093AB048F81882321F08CE99FEFA1
:100E10009A8389838885882311F00E94EB19898140
:100E20009A812C960FB6F894DEBF0FBECDBFDF912E
:100E3000CF910895CF93DF93CDB7DEB761970FB60B
:100E4000F894DEBF0FBECDBF9D878C874E875F872E
:100E5000688B798B1A82198281E08B838C859D85C2
:100E60008F3F910521F018F08FEF9FEF63C08091C5
:100E7000AB049091AC04039731F08091AB04909156
:100E8000AC04019731F484E090E09093AC0480933B
:100E9000AB048C859D85039708F58C859D85880F0F
:100EA000991F87579C4FFC0180819181892BB1F05C
:100EB0000E94A51E9D838C838C819D81029771F475
:100EC0008C859D85880F991F87579C4FFC01208139
:100ED00031818C859D85F90119958B838C859D8544
:100EE0009F838E832C853D858E859F85A889B989B2
:100EF000A901BC01CD010E94A813DC01CB018887A8
:100F00009987AA87BB878B81882371F0888599850B
:100F1000AA85BB852E813F81AC01BD01C9010E941C
:100F2000751E9A83898304C08E819F810E94E71E6B
:100F300089819A8161960FB6F894DEBF0FBECDBF4E
:100F4000DF91CF910895CF93DF931F921F92CDB77A
:100F5000DEB71A82198280E00E9413149A83898373
:100F600089819A810F900F90DF91CF910895CF934F
:100F7000DF931F921F92CDB7DEB71A82198286E0E7
:100F800090E09093AC048093AB040E94A3149A83E6
:100F9000898346E050E060E070E089E893E00E94D9
:100FA000C2640E947D191092AC041092AB04898136
:100FB0009A810F900F90DF91CF910895CF93DF9397
:100FC000CDB7DEB78091AA04DF91CF910895CF937A
:100FD000DF93CDB7DEB78091C104DF91CF91089543
:100FE000CF93DF9300D01F92CDB7DEB769837A83AA
:100FF0008B839C8389819A81AB81BC818093200201
:1010000090932102A0932202B093230280E090E00B
:101010000F900F900F900F90DF91CF910895CF9385
:10102000DF93CDB7DEB78FE893E09C0128513F4FA7
:10103000F90120812F5F88519F4FFC0120838FE8A9
:1010400093E088519F4FFC0180818A3030F08FE817
:1010500093E088519F4FFC0110820000DF91CF91F7
:1010600008958F929F92AF92BF92CF92DF92EF92AC
:10107000FF920F931F93CF93DF93CDB7DEB7AA975D
:101080000FB6F894DEBF0FBECDBF9AA789A789A57A
:101090009AA5FC0184AD95ADFC0180819181FC0194
:1010A00080819181A281B3818B839C83AD83BE8338
:1010B00089A59AA5FC0184859585A685B7858F832A
:1010C0009887A987BA8789A59AA5FC018089918903
:1010D000FC0180819181A281B3818B879C87AD8740
:1010E000BE8789A59AA5805C9F4FFC018081918174
:1010F000FC0180819181988B8F8789A59AA5FC013D
:10110000848195819A8B898B89899A89FC01808158
:1011100091819C8B8B8B89899A89FC018281938137
:101120009E8B8D8B89899A89FC0184819581988F0A
:101130008F8B89899A89FC01868197819A8F898F03
:1011400082E090E09C8F8B8F89A59AA5FC0182811B
:101150009381FC01118210828B8D9C8DAC01440F18
:10116000551F440F551F2F8538898B899C89B901DC
:101170000E94B96489A59AA5FC0182AD93AD2D8921
:101180003E89FC013183208387D580915402909160
:101190005502A0915602B09157022B853C854D8592
:1011A0005E85BC01CD010E949456DC01CB018D8F80
:1011B0009E8FAF8FB8A31A82198247C089819A8106
:1011C000880F991F880F991F2B893C89820F931FC5
:1011D000FC01C080D180E280F38089819A81880FF0
:1011E000991F880F991F2D893E89820F931FFC013B
:1011F00080819181A281B3812D8D3E8D4F8D58A12B
:10120000BC01CD010E949456DC01CB01AC01BD01B3
:1012100089819A81880F991F880F991F2F85388996
:101220008901080F191F9A01AB01C701B6010E947D
:101230004555DC01CB01F80180839183A283B38300
:1012400089819A8101969A83898329813A818B8D3C
:101250009C8D281739070CF4B1CF809178029091BA
:101260007902A0917A02B0917B022B853C854D8555
:101270005E85BC01CD010E949456DC01CB016C015E
:101280007D0189A59AA5FC0184AD95ADFC01008185
:1012900011812B813C814D815E81C701B6010E9485
:1012A0004555DC01CB01F80180839183A283B38390
:1012B00089A59AA5FC0182AD93AD2F89388DFC01DB
:1012C00031832083E0D1E8D41A8219822FC089812A
:1012D0009A810396880F991F880F991F8C5A9D4FEA
:1012E000FC0180819181A281B3812B853C854D8554
:1012F0005E85BC01CD010E949456DC01CB012981A1
:101300003A81220F331F220F331FAE014F5F5F4F11
:10131000240F351F245E3F4FF90180839183A28300
:10132000B38389819A8101969A83898389819A817D
:1013300002976CF21A8219826AC089819A81880F99
:10134000991F880F991F2B893C89820F931FFC01DD
:10135000C080D180E280F38089819A81880F991FB3
:10136000880F991F2D893E89820F931FFC01808170
:101370009181A281B3812D8D3E8D4F8D58A1BC01ED
:10138000CD010E949456DC01CB014C015D018981A5
:101390009A81880F991F880F991F2F89388D820F86
:1013A000931FFC0180819181A281B38129A13AA17F
:1013B0004BA15CA1BC01CD010E949456DC01CB0184
:1013C0009C01AD01C501B4010E944555DC01CB0172
:1013D000AC01BD0189819A81880F991F880F991FDF
:1013E0002F8538898901080F191F9A01AB01C701A0
:1013F000B6010E944555DC01CB01F8018083918341
:10140000A283B38389819A8101969A8389832981F2
:101410003A818B8D9C8D281739070CF48ECF8091E3
:101420007C0290917D02A0917E02B0917F022B857B
:101430003C854D855E85BC01CD010E949456DC0142
:10144000CB016C017D0189A59AA5FC0184AD95AD08
:10145000FC01008111812B813C814D815E81C7019E
:10146000B6010E944555DC01CB01F80180839183D0
:10147000A283B38389A59AA5FC0182AD93AD298D82
:101480003A8DFC0131832083FED006D41A82198262
:101490002FC089819A810696880F991F880F991FFE
:1014A0008C5A9D4FFC0180819181A281B3812B8553
:1014B0003C854D855E85BC01CD010E949456DC01C2
:1014C000CB0129813A81220F331F220F331FAE0136
:1014D0004F5F5F4F240F351F245E3F4FF90180831C
:1014E0009183A283B38389819A8101969A838983A8
:1014F00089819A8103976CF21A8219828DC0898141
:101500009A81880F991F880F991F2B893C89820F18
:10151000931FFC01C080D180E280F38089819A8191
:10152000880F991F880F991F2D893E89820F931F5D
:10153000FC0180819181A281B3812D8D3E8D4F8DE3
:1015400058A1BC01CD010E949456DC01CB014C0195
:101550005D0189819A81880F991F880F991F2F89B2
:10156000388D820F931FFC0180819181A281B3810C
:1015700029A13AA14BA15CA1BC01CD010E949456C6
:10158000DC01CB019C01AD01C501B4010E944555B0
:10159000DC01CB014C015D0189819A81880F991F83
:1015A000880F991F298D3A8D820F931FFC0180812E
:1015B0009181A281B3812DA13EA14FA158A5BC016B
:1015C000CD010E949456DC01CB019C01AD01C50107
:1015D000B4010E944555DC01CB01AC01BD018981FC
:1015E0009A81880F991F880F991F2F853889890143
:1015F000080F191F9A01AB01C701B6010E9445559A
:10160000DC01CB01F80180839183A283B3838981BC
:101610009A8101969A83898329813A818B8D9C8D49
:10162000281739070CF46BCF89A59AA5FC0184AD66
:1016300095ADFC01208131818F819885A985BA857E
:10164000F90180839183A283B38389A59AA5FC01C4
:101650008281938121E030E0FC013183208300000E
:10166000AA960FB6F894DEBF0FBECDBFDF91CF9123
:101670001F910F91FF90EF90DF90CF90BF90AF90B0
:101680009F908F900895CF92DF92EF92FF920F93E9
:101690001F93CF93DF93CDB7DEB764970FB6F8945F
:1016A000DEBF0FBECDBF8FE893E08F509F4FFC0190
:1016B00080819181019751F58FE893E08A529F4F85
:1016C000FC0180819181A281B3810196A11DB11D90
:1016D000BC01CD010E94DE556B017C018FE893E0D7
:1016E00086529F4FFC0180819181A281B3810FE8D6
:1016F00013E09C01AD01C701B6010E949456DC01C4
:10170000CB01F801808B918BA28BB38B8FE893E098
:101710008F509F4FFC0180819181892BD9F48FE8F4
:1017200093E0805C9F4FFC0180819181FC0180816E
:1017300091812FE833E02C503F4FF9012081318116
:10174000FC0180819181A281B381F9018083918321
:10175000A283B3838FE893E08F509F4FFC01808179
:101760009181019759F48FE893E089519F4FFC01D3
:101770008081882319F481E090E002C080E090E04D
:101780008D831092A50A1092A60A1092A70A1092B1
:10179000A80AC090A50AD090A60AE090A70AF090E7
:1017A000A80A80910A0290910B02A0910C02B091BC
:1017B0000D022091F00A3091F10A4091F20A509105
:1017C000F30ABC01CD010E949456DC01CB019C01BF
:1017D000AD01C701B6010E944555DC01CB018093E4
:1017E000A50A9093A60AA093A70AB093A80A8D8190
:1017F000882381F08091020290910302A09104025B
:10180000B09105028093A10A9093A20AA093A30A23
:10181000B093A40A8091A10A9091A20AA091A30A70
:10182000B091A40A2091A50A3091A60A4091A70A76
:101830005091A80ABC01CD010E944455DC01CB01A6
:101840008093A90A9093AA0AA093AB0AB093AC0A1A
:101850008FE893E08F509F4FFC0180819181019729
:1018600009F0B1C08FE893E088519F4FFC0180815F
:10187000882309F0A8C084E04AD98E8390911E0283
:1018800081E02E81291708F080E08F839091ED0A86
:1018900081E02F81921708F080E0888790911F02E5
:1018A00081E02E81921708F080E08E838091EE0A0D
:1018B0008093ED0A8885882329F48091ED0A9E8122
:1018C000891718F481E090E002C080E090E08093F6
:1018D000B90A82E01CD98093BA0A9091B90A809122
:1018E000EF0A9817D1F08091D70A9091D80AA09169
:1018F000D90AB091DA0A20E030E040E85FE3BC01A9
:10190000CD010E944555DC01CB018093D70A90930D
:10191000D80AA093D90AB093DA0A8091B90A8093C1
:10192000EF0A8091D70A9091D80AA091D90AB09174
:10193000DA0A8093B50A9093B60AA093B70AB093D7
:10194000B80A8F818093ED0A8E818093EE0A809190
:10195000B50A9091B60AA091B70AB091B80A209141
:10196000D30A3091D40A4091D50A5091D60ABC01CD
:10197000CD010E944455DC01CB018093AD0A9093C8
:10198000AE0AA093AF0AB093B00A80911202909170
:101990001302A0911402B09115022091AD0A30916A
:1019A000AE0A4091AF0A5091B00ABC01CD010E942D
:1019B0009456DC01CB018093B10A9093B20AA093B4
:1019C000B30AB093B40A8D81882309F453C063E04D
:1019D00070E080E090E00E9412029093C20A80932F
:1019E000C10A80911A0290911B02A0911C02B09131
:1019F0001D0220E030E04FE753E4BC01CD010E941E
:101A0000A95518166CF080911A0290911B02A091B2
:101A10001C02B0911D0289839A83AB83BC8308C0EA
:101A200080E090E0AFE7B3E489839A83AB83BC8323
:101A300011E020E030E0A90169817A818B819C81ED
:101A40000E94905688230CF410E081E081278823BF
:101A500021F019821A821B821C822091C10A3091C6
:101A6000C20A89819A81AB81BC81AC01BD01C901E7
:101A70000E949B018FE893E08F509F4FFC01808173
:101A80009181019709F089C08FE893E08F509F4FB3
:101A9000FC01808191810197C1F48FE893E0885126
:101AA0009F4FFC018081882381F48091B50A909139
:101AB000B60AA091B70AB091B80A8093D30A90935E
:101AC000D40AA093D50AB093D60A8FE893E08F503A
:101AD0009F4FFC0180819181019711F58FE893E080
:101AE00089519F4FFC0180818823D1F41A86198681
:101AF0008FE893E082529F4FFC0180819181A28107
:101B0000B3818B879C87AD87BE878B859C85AD8590
:101B1000BE85AC01BD0181E090E08CD99A878987B0
:101B20008FE893E08F509F4FFC0180819181019756
:101B3000A1F58FE893E088519F4FFC0180818823B5
:101B400061F5188A1F868FE893E08E519F4FFC0144
:101B50002081318142815381DA01C901880F991FA7
:101B6000AA1FBB1F880F991FAA1FBB1F820F931F9D
:101B7000A41FB51F880F991FAA1FBB1F898B9A8BA3
:101B8000AB8BBC8B89899A89AB89BC89AC01BD01BF
:101B900082E090E04FD9988B8F878FE893E08F5049
:101BA0009F4FFC0180819181019709F065C08FE80A
:101BB00093E0049656DA2FE833E0C9018A529F4F2A
:101BC000FC0180819181A281B3810196A11DB11D8B
:101BD0002A523F4FF90180839183A283B3838FE818
:101BE00093E02FE833E02C503F4FF9012081318101
:101BF000FC0180899189A289B389F901808391834D
:101C0000A283B3832FE833E0C90182529F4FFC01C6
:101C100080819181A281B3810196A11DB11D2252C3
:101C20003F4FF90180839183A283B3838FE893E0D0
:101C30008F509F4FFC01808191810197E1F48FE8E3
:101C400093E088519F4FFC0180818823A1F42FE805
:101C500033E0C9018E519F4FFC0180819181A281A7
:101C6000B3810196A11DB11D2E513F4FF901808313
:101C70009183A283B383D3D9000064960FB6F894FE
:101C8000DEBF0FBECDBFDF91CF911F910F91FF90AF
:101C9000EF90DF90CF900895CF93DF931F921F9224
:101CA000CDB7DEB78FE893E081579F4FFC0180816D
:101CB00091819A8389838091060290910702A09175
:101CC0000802B09109022091F00A3091F10A409186
:101CD000F20A5091F30ABC01CD010E949456DC0136
:101CE000CB0129813A81F90180839183A283B38357
:101CF00089819A81FC0180819181A281B3812091A7
:101D0000B10A3091B20A4091B30A5091B40ABC01B1
:101D1000CD010E944555DC01CB0129813A81F901B1
:101D200080839183A283B3838091A90A9091AA0AA8
:101D3000A091AB0AB091AC0A29813A81F901848360
:101D40009583A683B78300000F900F90DF91CF910A
:101D50000895EF92FF920F931F93CF93DF93CDB728
:101D6000DEB72FE833E08FE893E02F503F4FFC01C0
:101D7000378326832FE833E08FE893E02C503F4FE2
:101D8000805C9F4FFC01318320832FE833E08FE894
:101D900093E026523F4FFC01358B248B2FE833E034
:101DA0008FE893E021573F4FFC0137AF26AF2FE874
:101DB00033E08FE893E027573F4F8C5B9F4FFC0148
:101DC000318320832FE833E08FE893E022533F4FA5
:101DD0008E5B9F4FFC01318320832FE833E08FE837
:101DE00093E020533F4F8A5B9F4FFC013183208358
:101DF0002FE833E08FE893E025573F4F885B9F4FF4
:101E0000FC01318320832FE833E08FE893E02357F0
:101E10003F4F865B9F4FFC01318320832FE833E0E7
:101E20008FE893E02F563F4F8A579F4FFC01318335
:101E300020832FE833E08FE893E086599F4FFC0121
:101E4000318320838FE893E02FE833E0FC01358372
:101E500024838FE893E0FC018681978121E030E0C4
:101E6000FC01318320838FE893E08F579F4FFC0163
:101E700010828FE893E088579F4FFC0110822FE873
:101E800033E08FE893E02A563F4F8A549F4FFC017E
:101E9000318320832FE833E08FE893E022563F4FD1
:101EA00088549F4FFC01318320832FE833E08FE873
:101EB00093E02A553F4F86549F4FFC013183208386
:101EC0002FE833E08FE893E022553F4F84549F4F33
:101ED000FC01318320838FE893E087579F4F20EFE9
:101EE0003AE0FC01318320838FE893E08F569F4FC7
:101EF0002FE93AE0FC01318320838FE893E087519A
:101F00009F4FFC0110821182128213822FE833E06E
:101F10008FE893E02A543F4FFC01318720878FE8F8
:101F200093E02DE432E0FC01338722872FE833E091
:101F30008FE893E02A503F4F8C509F4FFC01318334
:101F400020838FE893E09C0123513F4F80E090E095
:101F5000A4E3B3E4F90180839183A283B3838FE880
:101F600093E09C0126523F4F8AE097EDA3E2BCE349
:101F7000F90180839183A283B3838FE893E09C016E
:101F800022543F4F8BE49EE2A9E9BEE2F90180832F
:101F90009183A283B3838FE893E09C012E533F4F3C
:101FA00082E591E6A7E8BEE2F90180839183A283EE
:101FB000B3838FE893E09C012A533F4F85EF93E76B
:101FC000ABE9BFE1F90180839183A283B3838FE8FA
:101FD00093E09C0126533F4F82E890EDA9E4B2E8DC
:101FE000F90180839183A283B3838FE893E021E991
:101FF00034E0FC01338322838DE994E090939204D2
:102000008093910484E892E090939E0480939D04D1
:1020100084E892E09093A00480939F0484E892E087
:102020009093A2048093A10484E892E09093A40486
:102030008093A30484E892E09093A6048093A5047F
:1020400084E892E09093A8048093A7042FE833E0FB
:102050008FE893E0FC01828193812C523F4FFC0179
:10206000358324832FE833E08FE893E0FC018281FD
:10207000938122543F4FFC01338322838FE893E006
:10208000FC012281338180E596E4A0E0B0E0F90113
:1020900080879187A287B3871092F00A1092F10A85
:1020A0001092F20A1092F30A80910E0290910F02A0
:1020B000A0911002B09111028093D30A9093D40A98
:1020C000A093D50AB093D60A809116029091170278
:1020D000A0911802B09119028093F40A9093F50A26
:1020E000A093F60AB093F70A809100028093ED0A5C
:1020F000809101028093EE0A1092C30A81E090E081
:10210000A0E0B0E08093C40A9093C50AA093C60AE9
:10211000B093C70A60E084E00E94650581E0809387
:10212000C80A1092CB0A81E090E0A0E0B0E0809372
:10213000CC0A9093CD0AA093CE0AB093CF0A60E068
:1021400082E00E94650581E08093D00A1092BB0A6C
:1021500081E090E0A0E0B0E08093BC0A9093BD0ADB
:10216000A093BE0AB093BF0AE12CF12C870120E0B6
:1021700030E0A90163E070E080E090E00E94380167
:102180009093C20A8093C10A81E08093C00A000044
:10219000DF91CF911F910F91FF90EF900895CF9312
:1021A000DF93CDB7DEB78091C30A882319F481E0AD
:1021B0008093C30A8091CB0A882319F481E080932D
:1021C000CB0A8091BB0A8823B1F581E08093BB0ADA
:1021D0008091BC0A9091BD0AA091BE0AB091BF0A3D
:1021E0000197A105B10539F58091C00A882319F13D
:1021F00063E070E080E090E00E9412029093C20AD7
:102200008093C10A8091C10A9091C20A40E050E0D7
:10221000BA010E949B0163E070E080E090E00E94C0
:1022200012029093C20A8093C10A8091C10A9091D0
:10223000C20A0E94ED010000DF91CF9108950F9333
:102240001F93CF93DF9300D000D000D01F92CDB763
:10225000DEB79A8389834B835C836D837E830F8390
:10226000188729873A8729813A818B819C81AD81A2
:10227000BE81F90180839183A283B38389819A818E
:102280009C012C5F3F4F8F819885A985BA85F90104
:1022900080839183A283B38300002A960FB6F894BB
:1022A000DEBF0FBECDBFDF91CF911F910F9108957B
:1022B000EF92FF920F931F93CF93DF93CDB7DEB7CB
:1022C0006A970FB6F894DEBF0FBECDBF6D8B7E8BC5
:1022D0008F8B988F5A8F498F19821A821B821C828A
:1022E000F894898D9A8D019709F00BC18091CE04E5
:1022F0009091CF04A091D004B091D1042D893E8952
:102300004F89588D281739074A075B07C8F0809115
:10231000CE049091CF04A091D004B091D1042D8926
:102320003E894F89588D79018A01E81AF90A0A0B0A
:102330001B0BD801C7018D839E83AF83B88718C05C
:102340008091CE049091CF04A091D004B091D1049B
:102350002D893E894F89588D79018A01E81AF90A39
:102360000A0B1B0BD801C7018D839E83AF83B887EF
:102370008091D2049091D304A091D404B091D5045B
:102380002D813E814F815885820F931FA41FB51F59
:10239000898B9A8BAB8BBC8B8091D2049091D304A8
:1023A000A091D404B091D50429893A894B895C89DC
:1023B000281739074A075B0798F48091D604909153
:1023C000D704A091D804B091D9040196A11DB11DE4
:1023D0008093D6049093D704A093D804B093D904E3
:1023E00089899A89AB89BC898093D2049093D3045C
:1023F000A093D404B093D5042091D6043091D7048F
:102400004091D8045091D9048091D2049091D30482
:10241000A091D404B091D50489019A01AC01BD0109
:1024200086EC94E00CDF8D899E89AF89B88D80930E
:10243000CE049093CF04A093D004B093D1042D8107
:102440003E814F81588580E197E2DC010E949C64C7
:102450009B01AC018091DA049091DB04A091DC0433
:10246000B091DD04820F931FA41FB51F8093DA047F
:102470009093DB04A093DC04B093DD048091DA0434
:102480009091DB04A091DC04B091DD0489839A83F0
:10249000AB83BC838091200290912102A091220203
:1024A000B09123028F3F9F4FAF4FBF4F09F43CC104
:1024B0008091200290912102A0912202B0912302EA
:1024C0008E3F9F4FAF4FBF4F09F42EC12091D204D2
:1024D0003091D3044091D4045091D50480912002CE
:1024E00090912102A0912202B091230261E028176D
:1024F00039074A075B0708F460E0862F8093C10420
:1025000013C119861A861B861C861D861E861F8689
:10251000188A8091240290912502A0912602B09100
:1025200027028F3F9F4FAF4FBF4FE1F080912402B2
:1025300090912502A0912602B09127029C01AD0145
:102540002F5F3F4F4F4F5F4F8D899E89AF89B88D69
:10255000BC01CD010E947264DC01CB018D8B9E8B8E
:10256000AF8BB88F8091CE049091CF04A091D0040E
:10257000B091D1042D893E894F89588D281739078C
:102580004A075B0708F447C08091CE049091CF04BE
:10259000A091D004B091D1042D893E894F89588DE6
:1025A00079018A01E81AF90A0A0B1B0BD801C70145
:1025B00089879A87AB87BC872091CE043091CF045E
:1025C0004091D0045091D1048D899E89AF89B88DF6
:1025D00079018A01E81AF90A0A0B1B0BD801C70115
:1025E0008D879E87AF87B88B2D853E854F8558890F
:1025F00089859A85AB85BC8582179307A407B507A3
:1026000028F019861A861B861C864BC01D861E86DE
:102610001F86188A46C08091CE049091CF04A09165
:10262000D004B091D1042D893E894F89588D79010C
:102630008A01E81AF90A0A0B1B0BD801C70189871E
:102640009A87AB87BC872091CE043091CF0440910C
:10265000D0045091D1048D899E89AF89B88D7901BC
:102660008A01E81AF90A0A0B1B0BD801C7018D87EA
:102670009E87AF87B88B2D853E854F855889898584
:102680009A85AB85BC8582179307A407B50728F008
:1026900019861A861B861C8604C01D861E861F8608
:1026A000188A89859A85AB85BC85892B8A2B8B2BCB
:1026B000E1F029853A854B855C8580E197E2DC0174
:1026C0000E949C649B01AC018091DA049091DB0430
:1026D000A091DC04B091DD04820F931FA41FB51FED
:1026E00089839A83AB83BC831FC0E090DA04F090A7
:1026F000DB040091DC041091DD042D853E854F85BF
:10270000588980E197E2DC010E949C64DC01CB01E6
:10271000A8019701281B390B4A0B5B0BDA01C90191
:1027200089839A83AB83BC83789489819A81AB81B6
:10273000BC81BC01CD016A960FB6F894DEBF0FBE16
:10274000CDBFDF91CF911F910F91FF90EF90089532
:10275000CF93DF9300D000D0CDB7DEB769837A8303
:102760008B839C835E834D832D813E8189819A81F9
:10277000AB81BC81A901BC01CD019ADDDC01CB019B
:10278000BC01CD0126960FB6F894DEBF0FBECDBFBB
:10279000DF91CF910895CF93DF9300D000D0CDB7D4
:1027A000DEB71C821B821E821D821A821982109241
:1027B000C2041092C3041092C4041092C5049E0176
:1027C0002B5F3F4FCE010396B9010E942D512D8101
:1027D0003E818B819C81B9010E94A33E9A838983AB
:1027E00089819A81892B19F089819A8113C09E0170
:1027F0002B5F3F4FCE010396B9010E9451512D81AD
:102800003E818B819C81B9010E94491D9A838983F5
:1028100089819A8126960FB6F894DEBF0FBECDBF90
:10282000DF91CF910895CF93DF9300D01F921F9235
:10283000CDB7DEB78D831A8219821B8260E070E00B
:10284000CB010E94C6571C820E946D409A838983E7
:1028500089819A81892B39F089819A81029619F0B0
:1028600081E08B830DC08C81882321F489819A813A
:10287000029619F081E090E002C080E090E08C8345
:102880008B818823E1F40E947C1D9A83898389814E
:102890009A81892B39F089819A81029619F081E019
:1028A0008B830DC08C81882321F489819A810296C3
:1028B00019F081E090E002C080E090E08C838B8191
:1028C0008823E1F40E94F83F9A83898389819A8161
:1028D000892B39F089819A81029619F081E08B83E6
:1028E0000DC08C81882321F489819A81029619F088
:1028F00081E090E002C080E090E08C838D818823AD
:1029000091F060E070E0CB010E94C6578B81882374
:1029100019F48C81882319F481E090E002C080E0F2
:1029200090E08B8302C081E08B838B81882309F444
:102930008ACF89819A810F900F900F900F900F90FE
:10294000DF91CF910895CF93DF9300D000D01F92F5
:102950001F92CDB7DEB718861F828091C1048823ED
:1029600029F060E070E0CB010E94C81E0E94A51E05
:102970009E838D8319821A821B821C8218C06AE092
:1029800070E080E090E00E94C65789819A81AB8117
:10299000BC81805F984DAF4FBF4F89839A83AB83D3
:1029A000BC8381E040DF0E94A51E9E838D838981C8
:1029B0009A81AB81BC8181159D42A143B14020F435
:1029C0008D819E81892BD9F60E94B01E98878F83B6
:1029D0000E94084298878F831092A9041092AA043B
:1029E0001092AD041092AE041092AF041092B00495
:1029F0001092B1041092B2041092B3041092B40475
:102A00001092B5041092B6041092B7041092B80454
:102A10001092B9041092BA041092BB041092BC0434
:102A20001092BD041092BE041092BF041092C00414
:102A30008EEF9FEFAFEFBFEF8093200290932102C4
:102A4000A0932202B09323021092C10448E050E008
:102A500060E070E086EC94E00E94C2641092CE04C4
:102A60001092CF041092D0041092D1041092D2048C
:102A70001092D3041092D4041092D5041092D6046C
:102A80001092D7041092D8041092D9041092DA044C
:102A90001092DB041092DC041092DD048F81988583
:102AA00028960FB6F894DEBF0FBECDBFDF91CF9151
:102AB0000895CF93DF9300D000D01F921F92CDB71F
:102AC000DEB78091E0049091E104A091E204B0911E
:102AD000E3049A83898389819A81892B09F431C11E
:102AE0008091E404882369F48091E0049091E104EA
:102AF000A091E204B091E304892B8A2B8B2B09F47B
:102B000020C18091F8049091F904029709F019C14D
:102B100080910205882309F014C189819A81FC0102
:102B200080819181A281B3818B839C83AD83BE839D
:102B30008091FE04882309F4F0C08091F104909103
:102B4000F204892B31F08091F1049091F204029704
:102B500019F481E090E002C080E090E08F838091E2
:102B6000F1049091F204019731F08091F104909179
:102B7000F204029719F481E090E002C080E090E056
:102B800088878F81882309F462C08091E504909141
:102B9000E604A091E704B091E8049C01AD016B81CB
:102BA0007C818D819E810E9490568823B4F0809113
:102BB000FA049091FB04A091FC04B091FD042091D3
:102BC000E5043091E6044091E7045091E804BC012B
:102BD000CD010E94A955882344F18091E50490918C
:102BE000E604A091E704B091E8049C01AD016B817B
:102BF0007C818D819E810E949056181644F58091AB
:102C0000FA049091FB04A091FC04B091FD04209182
:102C1000E5043091E6044091E7045091E804BC01DA
:102C2000CD010E94A955882391F48091ED049091E3
:102C3000EE04A091EF04B091F004892B8A2B8B2B2A
:102C400019F481E08093010581E080930205888575
:102C5000882309F462C08091E5049091E604A09174
:102C6000E704B091E8049C01AD016B817C818D810A
:102C70009E810E94A9558823B4F48091FA04909112
:102C8000FB04A091FC04B091FD042091E504309177
:102C9000E6044091E7045091E804BC01CD010E9494
:102CA0009056882344F58091E5049091E604A09124
:102CB000E704B091E8049C01AD016B817C818D81BA
:102CC0009E810E94A955882341F58091FA04909134
:102CD000FB04A091FC04B091FD042091E504309127
:102CE000E6044091E7045091E804BC01CD010E9444
:102CF0009056181694F48091ED049091EE04A091F2
:102D0000EF04B091F004892B8A2B8B2B19F481E00E
:102D10008093010581E0809302059091020581E096
:102D2000992309F080E08093FE048B819C81AD8122
:102D3000BE818093FA049093FB04A093FC04B093AB
:102D4000FD04000028960FB6F894DEBF0FBECDBF7D
:102D5000DF91CF910895CF93DF931F92CDB7DEB768
:102D600019828091F8049091F904892BC9F410928A
:102D7000F3041092020580912C02882371F182E005
:102D800090E09093F9048093F80410922C028091C3
:102D9000F4049091F504892B01F581E089831DC02D
:102DA00010922C028091F304882349F010920105BF
:102DB0001092F9041092F8041092F3040EC080915E
:102DC000F4049091F504892B19F481E0898305C0FE
:102DD000809102058983109202058091F8049091F8
:102DE000F90482309105F9F08330910530F40097B1
:102DF00061F0019709F44CC1AEC18330910509F42B
:102E0000EEC0049709F46AC0A6C180912C02882301
:102E100009F4ACC182E090E09093F9048093F80447
:102E200010922C02A3C18981882309F4A1C1809149
:102E3000ED049091EE04A091EF04B091F004181607
:102E400019061A061B06ECF48091F4049091F5041F
:102E50000197B9F48091ED049091EE04A091EF04F4
:102E6000B091F0048093030590930405A0930505A9
:102E7000B093060583E090E09093F9048093F80402
:102E800077C18091280290912902A0912A02B091E5
:102E90002B02892B8A2B8B2BD1F081E080930105AB
:102EA0008091280290912902A0912A02B0912B02D0
:102EB0008093030590930405A0930505B093060540
:102EC00084E090E09093F9048093F80451C110924B
:102ED00001051092F9041092F8044AC1809103058B
:102EE00090910405A0910505B0910605892B8A2BC8
:102EF0008B2B99F08091030590910405A091050515
:102F0000B09106050197A109B1098093030590933B
:102F10000405A0930505B0930605809103059091E3
:102F20000405A0910505B0910605892B8A2B8B2BF2
:102F300009F020C18091F6049091F704019739F4CB
:102F4000109201051092F9041092F80413C18091B7
:102F5000E9049091EA04A091EB04B091EC04892B70
:102F60008A2B8B2BC9F0109201058091E904909176
:102F7000EA04A091EB04B091EC04809303059093D4
:102F80000405A0930505B093060581E090E09093B9
:102F9000F9048093F804EEC089818823B9F0809108
:102FA000280290912902A0912A02B0912B028093CD
:102FB000030590930405A0930505B093060584E0EE
:102FC00090E09093F9048093F804D4C01092010526
:102FD00082E090E09093F9048093F804CBC0809154
:102FE000030590910405A0910505B0910605892B74
:102FF0008A2B8B2B99F08091030590910405A09169
:103000000505B09106050197A109B1098093030553
:1030100090930405A0930505B093060580910305E0
:1030200090910405A0910505B0910605892B8A2B86
:103030008B2B09F0A1C08091280290912902A091C8
:103040002A02B0912B02892B8A2B8B2BD1F081E0A5
:10305000809301058091280290912902A0912A0273
:10306000B0912B028093030590930405A09305056E
:10307000B093060584E090E09093F9048093F804FF
:103080007BC0109201051092F9041092F80474C0EC
:103090008091030590910405A0910505B091060566
:1030A000892B8A2B8B2B99F0809103059091040535
:1030B000A0910505B09106050197A109B10980937A
:1030C000030590930405A0930505B0930605809130
:1030D000030590910405A0910505B0910605892B83
:1030E0008A2B8B2B09F04AC08981882369F1809152
:1030F000280290912902A0912A02B0912B02892BDB
:103100008A2B8B2BD1F081E08093010580912802DE
:1031100090912902A0912A02B0912B02809303057D
:1031200090930405A0930505B093060584E090E014
:103130009093F9048093F80421C010920105109235
:10314000F9041092F8041AC082E090E09093F90418
:103150008093F80413C0109201051092020510929A
:10316000F3041092F9041092F80409C0000007C09B
:10317000000005C0000003C0000001C00000000006
:103180000F90DF91CF910895CF93DF93CDB7DEB746
:103190001092FA041092FB041092FC041092FD04A9
:1031A0001092FE048091F4049091F5049093000530
:1031B0008093FF04109201051092020510920305FE
:1031C0001092040510920505109206051092F9045C
:1031D0001092F80480E090E0DF91CF910895CF93B2
:1031E000DF9300D0CDB7DEB79B838A838A819B8132
:1031F000019709F05BC02091F4043091F5048091AF
:10320000FF049091000541E02817390709F440E0D8
:1032100049838091F4049091F50490930005809384
:10322000FF048981882381F0109201051092020524
:1032300010920305109204051092050510920605E0
:103240001092F9041092F8048091F4049091F5041E
:10325000019761F58091F8049091F904892B21F48C
:1032600080912C02882391F48091F8049091F904C4
:103270000197E1F48091030590910405A091050563
:10328000B09106050197A105B10581F410920305DF
:1032900010920405109205051092060510922C025A
:1032A00082E090E09093F9048093F8048091F40414
:1032B0009091F504019751F48091DE049091DF0420
:1032C0002A813B812817390709F4F3DB8A819B8126
:1032D000019721F440DD1092080507C08091080590
:1032E000882319F08091070502C0809101050F9095
:1032F0000F900F90DF91CF910895CF93DF93CDB7CB
:10330000DEB71092FA041092FB041092FC041092A3
:10331000FD041092FE041092F9041092F804109229
:1033200000051092FF041092DF041092DE04109248
:1033300001051092020510920305109204051092E7
:1033400005051092060510920705109208051092C7
:10335000E0041092E1041092E2041092E30410924F
:10336000E4041092E5041092E6041092E70410922F
:10337000E80488EE93E0A0E0B0E080932802909308
:103380002902A0932A02B0932B021092E904109212
:10339000EA041092EB041092EC041092ED041092E7
:1033A000EE041092EF041092F0041092F2041092C6
:1033B000F10481E080932C021092F3041092F50442
:1033C0001092F4041092F7041092F60480E090E05A
:1033D000DF91CF910895CF93DF93CDB7DEB7809182
:1033E000F4049091F504892B01F580912C02882337
:1033F00059F08091F304882339F481E08093070524
:1034000081E08093080511C08091F304882351F076
:1034100080912C02882331F41092070581E080937B
:10342000080503C01092080500C00000DF91CF918D
:103430000895CF93DF93CDB7DEB72C970FB6F894EE
:10344000DEBF0FBECDBF9E838D8378876F835A8783
:1034500049873C872B871A8219820E94FD419C83F1
:103460008B838D819E81FC01808191810E94DA4451
:103470008B859C8560E070E00E9466419C018F8195
:103480009885FC01318320830E944C419C018985F1
:103490009A85FC01318320838F819885FC0180818E
:1034A0009181892BE1F08F819885FC012081318108
:1034B0008B819C81B9010E9430499C018D819E8144
:1034C000FC01318320838D819E81FC01808191816B
:1034D000892B49F486EF9FEF9A83898304C088EF94
:1034E0009FEF9A83898389819A812C960FB6F894ED
:1034F000DEBF0FBECDBFDF91CF910895CF93DF9395
:1035000000D000D0CDB7DEB79A8389837C836B83EC
:103510005E834D8389819A81892B21F089819A81EB
:103520000E94DA448D819E81FC011182108280E02C
:1035300090E026960FB6F894DEBF0FBECDBFDF91A8
:10354000CF910895CF93DF9300D000D0CDB7DEB7F1
:103550009A8389837C836B835E834D838D819E8177
:1035600022E030E0FC01318320838FEF9FEF26962D
:103570000FB6F894DEBF0FBECDBFDF91CF91089597
:10358000CF93DF9300D01F92CDB7DEB78B836C83D0
:1035900085E090E09A8389838B81813F18F01A82BD
:1035A000198229C08B81843E40F08B81813F28F4B1
:1035B00081E090E09A8389831EC08B81833D18F05F
:1035C0008B81833E48F08B81803C59F48C81882329
:1035D00041F08C81833028F482E090E09A838983E3
:1035E0000AC08B81883C38F08B81833D20F483E0D6
:1035F00090E09A83898389819A810F900F900F9030
:103600000F90DF91CF910895CF93DF93CDB7DEB7C1
:1036100067970FB6F894DEBF0FBECDBF998B888B2E
:103620007B8B6A8B5D8B4C8B3F8B2E8B888999892A
:103630009C838B838B819C81FC0180818D8319828B
:103640008D81803C49F48A899B89029728F08B817F
:103650009C81FC018181898380910A0590910B05F1
:10366000892B09F455C069818D818ADF9B878A8700
:103670001A828A859B850597C1F18A859B85880F6B
:10368000991F805F9A4FFC01808191819D878C8773
:103690001F861E868C859D85892B39F18D81882F0B
:1036A00090E02C853D85F90119959F878E8721E053
:1036B0008E859F85892B09F420E02A838A818823BF
:1036C000A1F08E859F85FC01228133818C899D89A3
:1036D000FC01318320838E859F85FC012481358107
:1036E0008E899F89FC01318320838A81882309F098
:1036F00053C08C899D8922EA3AE1FC013183208301
:103700008E899F8925E33CE1FC013183208344C0FD
:103710008D818F3FA9F580911005909111059F83B0
:103720008E838C899D89FC01118210828E899F89EC
:10373000FC01118210828E819F81892B69F12E817B
:103740003F818FEF90E0F9011995998788878885E7
:103750009985892B09F188859985FC01228133811E
:103760008C899D89FC013183208388859985FC01A2
:10377000248135818E899F89FC01318320830CC08F
:103780008C899D892EE73AE1FC01318320838E8963
:103790009F89FC0111821082000067960FB6F89491
:1037A000DEBF0FBECDBFDF91CF910895CF93DF93E2
:1037B000CDB7DEB780910A0590910B05DF91CF91CF
:1037C0000895CF93DF931F921F92CDB7DEB79A83F0
:1037D000898389819A8190930B0580930A05000063
:1037E0000F900F90DF91CF910895CF93DF93CDB7D6
:1037F000DEB780910C05DF91CF910895CF93DF93D1
:103800001F92CDB7DEB7898390910C058981892BF2
:1038100080930C0500000F90DF91CF910895CF9316
:10382000DF931F92CDB7DEB7898389818095909110
:103830000C05892380930C0500000F90DF91CF9138
:103840000895CF93DF93CDB7DEB780910D05DF915B
:10385000CF910895CF93DF93CDB7DEB780910E055A
:1038600090910F05DF91CF910895CF93DF9300D012
:1038700000D000D01F92CDB7DEB79E838D837887AE
:103880006F835A8749878D819E81892B51F48F815F
:1038900098859C838B838B819C812FEFFC012083F7
:1038A00094C08F8198859A83898389819A812EEF2C
:1038B000FC0120838D819E81092E000CAA0BBB0B7D
:1038C0004096A11DB11D80319105A105B10508F0FB
:1038D00076C0FC018827E059F34E8F4F0C94946416
:1038E000D91CD31CCD1CC71CC11CBB1CAF1CB51CD8
:1038F000A91CA31C9D1C981C861C801C8C1C921C43
:1039000089819A8120E3FC0121835FC089819A81AA
:1039100029E2FC01218359C089819A8122E2FC01BC
:10392000218353C089819A8120E2FC0121834DC00B
:1039300089819A81FC01118248C089819A8123E2A0
:10394000FC01218342C089819A8121E2FC0121830B
:103950003CC089819A8121E1FC01218336C08981A3
:103960009A8127E2FC01218330C089819A812AE271
:10397000FC0121832AC089819A8120E1FC012183F5
:1039800024C089819A8124E2FC0121831EC089819F
:103990009A8128E2FC01218318C089819A8126E25C
:1039A000FC01218312C089819A8121E3FC012183DA
:1039B0000CC089819A8123E3FC01218306C089819F
:1039C0009A8120E2FC01218300C000002A960FB6F4
:1039D000F894DEBF0FBECDBFDF91CF910895CF9396
:1039E000DF9300D000D000D01F92CDB7DEB79E830A
:1039F0008D8378876F835A8749871A8219828F81CE
:103A00009885892BD9F11C821B821C821B822BC0BA
:103A10002B813C81C901880F991F820F931F880F4A
:103A2000991F9C018F819885820F931FFC018081D3
:103A300091812D813E812817390781F42B813C81AA
:103A4000C901880F991F820F931F880F991F9C012E
:103A50008F819885820F931F9A8389838B819C81A4
:103A600001969C838B832B813C8189859A852817BD
:103A7000390720F489819A81892B51F289819A81B1
:103A80002A960FB6F894DEBF0FBECDBFDF91CF915F
:103A90000895CF93DF9300D01F92CDB7DEB79A83FE
:103AA00089837C836B8380910905882319F084EFD7
:103AB0009FEF1BC049D554D59093110580931005F5
:103AC0000E9456340E946E3490931505809314051D
:103AD0000E943E3D0E94493D90931305809312053C
:103AE00081E08093090580E090E00F900F900F90A7
:103AF0000F90DF91CF910895EF92FF920F931F9354
:103B0000CF93DF93CDB7DEB764970FB6F894DEBFDF
:103B10000FBECDBF1A8219821C821B8218861F829B
:103B20001A8619861C861B861E861D86188A1F8685
:103B30001E821D821A8A198A1C8A1B8A8091090595
:103B4000882319F487EF9FEFC3C0BE01635F7F4FE7
:103B50009E01255F3F4FAE01475F5F4FCE01079645
:103B60008B01BC0180E090E00E94AA409A83898387
:103B700089819A81892B49F089819A81049629F05B
:103B800089819A81059609F096C08F819885892B45
:103B900059F02B853C858D859E85280F391F898599
:103BA0009A858217930728F488EF9FEF9A83898379
:103BB00085C02F8138858B859C85820F931F9E83BE
:103BC0008D836D857E859E012D5E3F4FAE014F5EDC
:103BD0005F4F8D819E8118DD89899A89892B29F40F
:103BE00084EF9FEF9A83898369C029893A896B851D
:103BF0007C858F819885AE01415F5F4FF9011995F2
:103C00009C838B838B899C89892B09F451C08F8578
:103C10009889892B09F44CC01A8219822D853E851A
:103C20008F8598892817390768F42F853889AE0160
:103C3000455F5F4FBE01675F7F4FCE010796F9DB9F
:103C40009A8389832D853E858D819E81A90160E0BF
:103C500070E00E94C26489819A81892B49F52F8185
:103C600038858B859C85820F931F9E838D832B893E
:103C70003C894F8558896D817E818B819C81F901BA
:103C800019956F8578894B855C8529853A858F8163
:103C900098857B018A01AC016FEF7FEF81E090E0B6
:103CA0000E94533F9A83898389819A81892B29F4C1
:103CB00089819A810DC0000001C000008F81988524
:103CC000892B21F08F8198850E94DA4489819A811D
:103CD00064960FB6F894DEBF0FBECDBFDF91CF91D3
:103CE0001F910F91FF90EF900895CF93DF9300D035
:103CF00000D01F921F92CDB7DEB79C838B834D837C
:103D00005E836F8378871A821982809109058823E0
:103D100019F487EF9FEF10C08D819E81AF81B88528
:103D2000EB81FC8120E0AC01BD01CF010E948A370C
:103D30009A83898389819A8128960FB6F894DEBF89
:103D40000FBECDBFDF91CF910895CF93DF93CDB755
:103D5000DEB780910A0590910B05DF91CF91089510
:103D6000CF93DF93CDB7DEB70E94683D0E94BA3B88
:103D700016D448E050E060E070E080E195E00E94F9
:103D8000C2641092090580E090E0DF91CF91089520
:103D9000CF93DF9300D000D0CDB7DEB76B837C83A9
:103DA0008D839E838B819C81AD81BE81BC01CD01C1
:103DB0000E9448389A83898389819A8126960FB612
:103DC000F894DEBF0FBECDBFDF91CF910895CF93A2
:103DD000DF9300D01F921F92CDB7DEB79D838C83F7
:103DE00081E089838C819D81298140E050E0BA0186
:103DF0000E948A379B838A838A819B810F900F90D0
:103E00000F900F900F90DF91CF910895CF93DF9394
:103E100000D01F921F92CDB7DEB78D8381E090E076
:103E20009A8389830E94BD419C838B838D81282F37
:103E300030E08B819C8149815A81BA010E945E6485
:103E4000CB0141E02817390708F040E0842F0F909C
:103E50000F900F900F900F90DF91CF910895CF9317
:103E6000DF9300D01F921F92CDB7DEB79C838B8368
:103E70006D83A1D39A83898380911D05482F50E0DB
:103E800029813A818B819C81B9010E94B96400002B
:103E90000F900F900F900F900F90DF91CF9108959A
:103EA000CF93DF93CDB7DEB72D970FB6F894DEBF73
:103EB0000FBECDBF998788877B876A875D874C87D0
:103EC0001A821982288539858A859B85820F931FDE
:103ED0009C838B838B819C819E838D831F820E9418
:103EE000663A8F838F81882351F48C859D8522E0EB
:103EF00030E0FC013183208385EF9FEF2DC08D8161
:103F00009E81FC018181882331F08D819E81FC019D
:103F10008181813019F481E090E002C080E090E07E
:103F20008F838F81882351F48C859D8522E030E03A
:103F3000FC01318320838EEF9FEF0EC081E090E083
:103F400040DC1A8219828C859D8528E030E0FC01D6
:103F50003183208389819A812D960FB6F894DEBF34
:103F60000FBECDBFDF91CF910895CF93DF9300D0E7
:103F700000D01F921F92CDB7DEB79C838B837E83C8
:103F80006D8358874F838B819C81892BA9F58D8107
:103F90009E819A83898389819A8148E050E060E01C
:103FA00070E00E94C26489819A812FEFFC01208316
:103FB00025E089819A81FC01218320E089819A8111
:103FC000FC0122830E94BD41282F89819A81FC0136
:103FD00023830E94B4419C0189819A81FC0135832D
:103FE000248389819A8121E0FC01268389819A8139
:103FF00021E0FC01278308C04F8158852D813E8137
:104000008B819C81B90131DC000028960FB6F894B1
:10401000DEBF0FBECDBFDF91CF910895CF93DF9369
:1040200000D000D01F92CDB7DEB79B838A837D83FB
:104030006C835F834E8381E089830E94663A898323
:104040008981882351F48E819F8122E030E0FC0138
:104050003183208385EF9FEF0CC080E090E0B1DBDF
:104060008E819F8121E030E0FC013183208380E05C
:1040700090E027960FB6F894DEBF0FBECDBFDF915C
:10408000CF910895CF93DF9300D000D0CDB7DEB7A6
:104090009A8389837C836B835E834D838D819E812C
:1040A00026E030E0FC013183208380E090E026961A
:1040B0000FB6F894DEBF0FBECDBFDF91CF9108954C
:1040C000CF93DF9300D000D01F921F92CDB7DEB701
:1040D0009C838B837E836D8358874F838D819E81E4
:1040E0009A83898389819A8146E050E060E070E09C
:1040F0000E94C26489819A812FEFFC01208375DBC5
:10410000282F89819A81FC0121839BDB282F8981BB
:104110009A81FC0122839EDB9C0189819A81FC01AA
:1041200035832483000028960FB6F894DEBF0FBEB7
:10413000CDBFDF91CF910895CF93DF9300D000D012
:104140001F92CDB7DEB79B838A837D836C835F83A9
:104150004E8319820E94493A89838981882321F0FC
:104160000E94E2410E945A3A8E819F8122E030E013
:10417000FC01318320838BEF9FEF27960FB6F894D5
:10418000DEBF0FBECDBFDF91CF910895CF93DF93F8
:10419000CDB7DEB72D970FB6F894DEBF0FBECDBFFB
:1041A000998788877B876A875D874C871A821982FF
:1041B000288539858A859B85820F931F9C838B83F5
:1041C0008B819C819E838D831F828D819E81FC01CA
:1041D00023818D819E81FC0184819581A681B78197
:1041E000422FBC01CD01F6D18F838F81882351F4FA
:1041F0008C859D8522E030E0FC013183208384EFB3
:104200009FEF09C08C859D8521E030E0FC01318362
:10421000208389819A812D960FB6F894DEBF0FBE58
:10422000CDBFDF91CF910895CF93DF93CDB7DEB7A8
:104230002F970FB6F894DEBF0FBECDBF9B878A873E
:104240007D876C875F874E871A8219822A853B8516
:104250008C859D85820F931F9C838B838B819C8192
:104260009E838D831F82A7D1998788878D819E81A8
:10427000FC018181CBDD8F838F81882351F48E8572
:104280009F8522E030E0FC01318320838EEF9FEF99
:1042900022C088859985892B51F48E859F8522E0DF
:1042A00030E0FC013183208384EF9FEF14C08D81C7
:1042B0009E81FC01818180931D0580911D05882FC1
:1042C00090E09C012F5F3F4F8E859F85FC013183DD
:1042D000208389819A812F960FB6F894DEBF0FBE96
:1042E000CDBFDF91CF910895CF93DF93CDB7DEB7E8
:1042F0002D970FB6F894DEBF0FBECDBF9987888784
:104300007B876A875D874C8788859985892B91F59E
:1043100052D19A8389838A859B859C838B838B81E9
:104320009C8141E050E060E070E00E94C2648B81BB
:104330009C812FEFFC01208389819A81892B11F1C7
:1043400080911D05882F90E001962C853D852817CA
:104350003907C1F48A859B8501969E838D831F82D0
:104360008D819E816F817BDD80911D0564D11092CE
:104370001D0508C04C855D852A853B858885998506
:10438000B90173DA00002D960FB6F894DEBF0FBEA8
:10439000CDBFDF91CF910895CF93DF93CDB7DEB737
:1043A0002D970FB6F894DEBF0FBECDBF99878887D3
:1043B0007B876A875D874C871A82198228853985B1
:1043C0008A859B85820F931F9C838B838B819C8125
:1043D0009E838D831F828D819E81FC01818116DDEC
:1043E0008F838F81882351F48C859D8522E030E076
:1043F000FC01318320838EEF9FEF31C08D819E8140
:10440000FC0123818D819E81FC0184819581A6819F
:10441000B781422FBC01CD01DDD08F838F818823EE
:1044200051F48C859D8522E030E0FC0131832083AE
:1044300084EF9FEF14C08D819E81FC018181809368
:104440001D0580911D05882F90E09C012F5F3F4F37
:104450008C859D85FC013183208389819A812D96ED
:104460000FB6F894DEBF0FBECDBFDF91CF91089598
:10447000CF93DF93CDB7DEB72D970FB6F894DEBF9D
:104480000FBECDBF998788877B876A875D874C87FA
:1044900088859985892B91F58ED09A8389838A8521
:1044A0009B859C838B838B819C8141E050E060E005
:1044B00070E00E94C2648B819C812FEFFC012083FD
:1044C00089819A81892B11F180911D05882F90E0B7
:1044D00001962C853D8528173907C1F48A859B856F
:1044E00001969E838D831F828D819E816F81B7DCB3
:1044F00080911D05A0D010921D0508C04C855D85DA
:104500002A853B8588859985B901AFD900002D960C
:104510000FB6F894DEBF0FBECDBFDF91CF910895E7
:10452000CF93DF931F921F92CDB7DEB79A83898313
:1045300089819A8147E050E065E872E050DA0F9097
:104540000F90DF91CF910895CF93DF93CDB7DEB772
:1045500080E992E210D093D00000DF91CF910895CE
:10456000CF93DF93CDB7DEB780911E0590911F05E5
:10457000DF91CF910895CF93DF931F921F92CDB714
:10458000DEB79A83898389819A8190931F058093EE
:104590001E0500000F900F90DF91CF910895CF93EB
:1045A000DF93CDB7DEB773D080E090E0E4DF0000AA
:1045B000DF91CF910895CF93DF93CDB7DEB7809190
:1045C000180590911905A0911A05B0911B05DF916E
:1045D000CF910895CF93DF9300D01F921F92CDB754
:1045E000DEB769837A838B839C834D838D81882397
:1045F00051F489819A81AB81BC81892B8A2B8B2BC9
:1046000011F480E010C089819A81AB81BC818093D4
:10461000180590931905A0931A05B0931B058D8179
:1046200080931C0581E00F900F900F900F900F90DA
:10463000DF91CF910895CF93DF931F92CDB7DEB76F
:104640008983209118053091190540911A055091E0
:104650001B058981882F90E0A0E0B0E0820F931FB6
:10466000A41FB51F8093180590931905A0931A05F0
:10467000B0931B0500000F90DF91CF910895CF9369
:10468000DF93CDB7DEB70000DF91CF910895CF93D0
:10469000DF93CDB7DEB70000DF91CF910895CF93C0
:1046A000DF9300D0CDB7DEB79B838A831982F8945D
:1046B000809126059091270521E0892B09F020E0C3
:1046C00029838981882309F4789489810F900F9038
:1046D0000F90DF91CF910895CF93DF931F921F9298
:1046E000CDB7DEB79A838983789400000F900F903E
:1046F000DF91CF910895CF93DF931F921F92CDB793
:10470000DEB79A838983F8948091260590912705D6
:1047100001969093270580932605789400000F90CA
:104720000F90DF91CF910895CF93DF931F921F9247
:10473000CDB7DEB79A838983F8948091260590914E
:10474000270501979093270580932605789400000C
:104750000F900F90DF91CF910895CF93DF931F9229
:104760001F92CDB7DEB79A838983209120053091BF
:10477000210549815A8163E1649FC001659F900DC5
:104780001124820F931FFC0183819481029799F079
:10479000209120053091210549815A8163E1649F70
:1047A000C001659F900D1124820F931FFC0183812E
:1047B0009481039719F481E090E002C080E090E0DA
:1047C0000F900F90DF91CF910895CF93DF9300D09A
:1047D000CDB7DEB719821B821A821B821A8209C0EA
:1047E0008A819B81BADF89838A819B8101969B8321
:1047F0008A8380912205909123052A813B81281785
:10480000390718F48981882359F381E09981992324
:1048100009F080E00F900F900F90DF91CF910895F5
:10482000CF93DF9300D01F921F92CDB7DEB79B834B
:104830008A836C834D838091200590912105892B7B
:1048400009F477C080912205909123052A813B814C
:104850002817390708F06DC02091200530912105F7
:104860004A815B8163E1649FC001659F900D1124C3
:10487000820F931FFC0180819181892B09F459C01B
:1048800020912005309121054A815B8163E1649F7D
:10489000C001659F900D1124820F931FFC0182813E
:1048A0009C81981708F045C0209120053091210582
:1048B0004A815B8163E1649FC001659F900D112473
:1048C000820F931FFC01208131818C81482F50E0A1
:1048D0006DE0649FC001659F900D1124820F931FAE
:1048E000FC0180819181892B21F12091200530915B
:1048F00021054A815B8163E1649FC001659F900D42
:104900001124820F931FFC01208131818C81482F5B
:1049100050E06DE0649FC001659F900D1124820FEF
:10492000931FFC0182819D81981718F481E090E02B
:1049300002C080E090E0898389810F900F900F90F2
:104940000F900F90DF91CF910895CF93DF9300D018
:1049500000D000D0CDB7DEB78C836D832E833F832C
:104960004887598719828D81882F90E09B838A839D
:104970008C818F3F41F48A819B818F3F910509F0A3
:1049800010F481E08983898129960FB6F894DEBFFF
:104990000FBECDBFDF91CF910895CF93DF931F92CC
:1049A000CDB7DEB789838981882F90E08F7E21E0A3
:1049B000892B09F020E0822F0F90DF91CF9108958D
:1049C000CF93DF931F921F92CDB7DEB78A831982F0
:1049D0008A81882331F08A81813019F08A8182307E
:1049E00011F481E0898389810F900F90DF91CF913D
:1049F0000895CF93DF931F921F92CDB7DEB78A83BE
:104A000019828A81882331F08A81813019F08A8164
:104A1000823011F481E0898389810F900F90DF91BA
:104A2000CF910895CF93DF93CDB7DEB781E0DF91CB
:104A3000CF910895CF93DF9300D0CDB7DEB79B839E
:104A40008A8320912005309121054A815B8163E1B1
:104A5000649FC001659F900D1124820F931FFC017C
:104A600083858230D9F420912005309121054A8137
:104A70005B8163E1649FC001659F900D1124820FEB
:104A8000931FFC0125813681809135029091360279
:104A90002817390719F081E090E002C080E090E02B
:104AA00089838981882339F08A819B81029718F450
:104AB00081E090E002C080E090E0898389810F90DE
:104AC0000F900F90DF91CF910895CF93DF9300D097
:104AD00000D01F92CDB7DEB79E838D836F838D810B
:104AE0009E81FC01208131818F81482F50E06DE053
:104AF000649FC001659F900D1124820F931F9C83BA
:104B00008B838B819C81FC01438154818D819E81AB
:104B1000FC0125853685429FC001439F900D529F21
:104B2000900D112401969A8389838F81882379F4CB
:104B30008D819E81FC018781882F90E0807199276B
:104B4000892B29F089819A8104969A8389838981A6
:104B50009A8127960FB6F894DEBF0FBECDBFDF91C6
:104B6000CF910895CF93DF9300D000D000D01F9253
:104B70001F92CDB7DEB79B878A871D821C821A825F
:104B800019821B821B821EC08A859B856B819DDFDB
:104B90009F838E83198618868E819F8161E070E0E5
:104BA0000E946641998788872885398589819A81FD
:104BB0008217930720F4888599859A8389838B814E
:104BC0008F5F8B838A859B85FC0182819B819817EF
:104BD000D8F28A859B85AC014F5E5F4F8A859B85A5
:104BE000FC018281282F30E0C901880F991F280F0E
:104BF000391F89819A81B9010E94D9459D838C838F
:104C00008C819D81892B39F08A859B852FEF3FEF21
:104C1000FC01328B218B8C819D812B960FB6F894F1
:104C2000DEBF0FBECDBFDF91CF910895CF93DF934D
:104C30001F921F92CDB7DEB79A83898389819A81AB
:104C4000FC0181899289019639F089819A81FC0160
:104C5000818992890E947B4789819A812FEF3FEF5A
:104C6000FC01328B218B00000F900F90DF91CF91D0
:104C70000895CF93DF93CDB7DEB761970FB6F89461
:104C8000DEBF0FBECDBF9D878C877F876E87598B18
:104C9000488B1A8219822C853D858E859F85820FCF
:104CA000931F9C838B838B819C819E838D838D81BD
:104CB0009E81FC018281938198878F838D819E8163
:104CC000FC01848189878D819E81FC0185818A8791
:104CD0001B868F8198854A856985A2DD8B878B85A8
:104CE000882351F48889998922E030E0FC013183DE
:104CF00020838EEF9FEF2BC08F8198852EDD982F1C
:104D000081E0992309F080E08B878B85882351F41B
:104D10008889998922E030E0FC013183208388EF83
:104D20009FEF15C08F819885909332028093310256
:104D30008985809333028A85809334028889998992
:104D400021E030E0FC013183208389819A816196E2
:104D50000FB6F894DEBF0FBECDBFDF91CF9108959F
:104D6000CF93DF93CDB7DEB763970FB6F894DEBF6E
:104D70000FBECDBF9F878E87798B688B5B8B4A8BED
:104D80001A8219822E853F8588899989820F931FFF
:104D90009C838B838B819C819E838D838091310248
:104DA0009091320298878F83809133028987809116
:104DB00034028A871C861B861D868F8198854A85CA
:104DC00069852EDD8D878D85882351F48A899B899D
:104DD00022E030E0FC01318320838AEF9FEF9AC00C
:104DE0008F819885BADC982F81E0992309F080E0C3
:104DF0008D878D85882351F48A899B8922E030E054
:104E0000FC013183208388EF9FEF84C08D819E81D8
:104E1000FC0184819581A681B7812D813E81F901B4
:104E200062812D813E81F90171819C01AD01872F45
:104E30008CDD8D878D85882351F48A899B8922E0BA
:104E400030E0FC01318320838EEF9FEF63C020911F
:104E50002005309121054F81588563E1649FC00191
:104E6000659F900D1124820F931FFC0120813181D9
:104E70008985482F50E06DE0649FC001659F900DCB
:104E80001124820F931FFC01408151818A85282FB4
:104E900030E0C901880F991F880F991F880F991F4B
:104EA000821B930B840F951F9C878B878D819E811E
:104EB000FC0121818B859C85FC0120838D819E8155
:104EC000FC0122818B859C85FC0121838D819E8143
:104ED000FC0123818B859C85FC0122838D819E8131
:104EE000FC0184819581A681B7812B853C85F901E0
:104EF00083839483A583B683809134028F5F8093EC
:104F000034028A899B8921E030E0FC0131832083CF
:104F100089819A8163960FB6F894DEBF0FBECDBF2C
:104F2000DF91CF910895CF93DF93CDB7DEB72F9761
:104F30000FB6F894DEBF0FBECDBF9B878A877D87F3
:104F40006C875F874E871A8219822A853B858C85FC
:104F50009D85820F931F9C838B838B819C819E8375
:104F60008D8318861F8219868091200590912105D6
:104F7000892B79F08D819E81FC0122813381809182
:104F80002205909123052817390718F481E090E055
:104F900002C080E090E089878985882351F48E855E
:104FA0009F8522E030E0FC01318320838EEF9FEF6C
:104FB000A3C020912005309121058D819E81FC01A7
:104FC0004281538163E1649FC001659F900D11246C
:104FD000820F931F98878F838D819E81FC01828130
:104FE0009381BBDB982F81E0992309F080E08987CA
:104FF0008985882351F48E859F8522E030E0FC016D
:105000003183208388EF9FEF77C08D819E81FC01E3
:105010008481958121E08038910508F020E029877E
:105020008985882351F48E859F8522E030E0FC013C
:10503000318320838EEF9FEF5FC08D819E81FC01C5
:10504000978181E0992309F080E089878985882309
:1050500051F48E859F8522E030E0FC01318320836E
:105060008EEF9FEF49C08D819E81FC01818195DC8F
:1050700089878985882351F48E859F8522E030E0D9
:10508000FC013183208386EF9FEF36C08D819E81A6
:10509000FC0121818F819885FC0127838D819E8170
:1050A000FC01248135818F819885FC01368325831D
:1050B0008D819E81FC0126818F819885FC0120874E
:1050C0008D819E81FC0127818F819885FC0121873C
:1050D0008F819885FC018085823028F48F819885A6
:1050E00021E0FC0120878E859F8521E030E0FC01D6
:1050F0003183208389819A812F960FB6F894DEBF81
:105100000FBECDBFDF91CF9108950F931F93CF9323
:10511000DF93CDB7DEB76C970FB6F894DEBF0FBE46
:10512000CDBF988F8F8B7A8F698F5C8F4B8F1B864B
:105130001A862F89388D898D9A8D820F931F9D87AE
:105140008C878C859D859F878E87198A188A8E8586
:105150009F85FC0182819381CC01A0E0B0E08A8B25
:105160009B8BAC8BBD8B19821E8A80912005909100
:105170002105892B99F08091220590912305CC017E
:10518000A0E0B0E02A893B894C895D89281739075E
:105190004A075B071CF481E090E002C080E090E0E9
:1051A00089838981882351F48B8D9C8D22E030E0A6
:1051B000FC01318320838EEF9FEF3FC28A899B8958
:1051C000AC89BD8980932D0290932E02A0932F026B
:1051D000B093300220912005309121054A895B89E6
:1051E00063E1649FC001659F900D1124820F931F9E
:1051F000998B888B8E859F85FC018181E1DB89837A
:105200008981882351F48B8D9C8D22E030E0FC0154
:105210003183208386EF9FEF10C204DC882309F4DA
:105220007DC088899989FC0183819481892B09F04B
:1052300075C088899989FC018781882F90E08270E8
:105240009927892B81F188899989FC018081918135
:10525000892B91F080912505282F30E08889998944
:10526000FC018281882F90E0820F931F8138910585
:105270001CF481E090E002C080E090E089838981A5
:10528000882309F43EC02091250588899989FC016D
:1052900022872091250588899989FC018281820FC6
:1052A000809325052EC088899989FC018081918190
:1052B000892B91F080912405282F30E088899989E5
:1052C000FC018281882F90E0820F931F8D3F910512
:1052D0001CF481E090E002C080E090E08983898145
:1052E000882379F02091240588899989FC012287F7
:1052F0002091240588899989FC018281820F8093FD
:1053000024058981882351F48B8D9C8D22E030E027
:10531000FC013183208387EF9FEF8FC18E859F85AE
:10532000FC018181813039F08E859F85FC0181816E
:10533000823009F0CBC01B821A8281E089831B82F4
:105340001A82B5C01D821C821F821E821D821C8291
:105350002EC088899989FC01208131814A815B8135
:105360006DE0649FC001659F900D1124820F931F13
:10537000FC01408151812C813D81C901880F991F19
:10538000880F991F880F991F821B930B840F951FFD
:10539000FC018181882F90E02E813F81820F931F35
:1053A0009F838E838C819D8101969D838C838889C8
:1053B0009989FC01208131814A815B816DE0649F84
:1053C000C001659F900D1124820F931FFC01828103
:1053D000882F90E02C813D81281739070CF4B9CF34
:1053E0008A819B81892B21F588899989FC01878194
:1053F000882F90E080719927892BD1F0888999892D
:10540000FC01458556852E813F81429FC001439F07
:10541000900D529F900D11248C010B5F1F4F0E9425
:10542000B44121E08017910708F420E0298319C0D6
:1054300088899989FC01458556852E813F81429F47
:10544000C001439F900D529F900D11248C010F5F5E
:105450001F4F0E94B44121E08017910708F420E01B
:1054600029838981882351F48B8D9C8D22E030E043
:10547000FC013183208387EF9FEFDFC08889998902
:10548000FC01208131814A815B816DE0649FC00114
:10549000659F900D1124820F931F2E813F81FC0187
:1054A000348323838A819B8101969B838A838889A5
:1054B0009989FC018281882F90E02A813B812817FD
:1054C000390724F48981882309F03CCF8889998998
:1054D000FC0185819681E3D88E8B8E89882309F41F
:1054E0009DC0198618868E859F85FC018181882F35
:1054F00090E081309105D1F08230910509F468C0C7
:10550000892B09F070C08889998921E030E0FC017D
:10551000348323835AD9882309F462C081E090E060
:105520000E94E11B80E40E940F1C5AC0888999895F
:10553000FC01818992890196C1F588899989FC01CC
:1055400025813681809135029091360228173907DE
:1055500099F488899989AC014F5E5F4F2091390297
:1055600030913A028091370290913802B9010E943D
:1055700074489987888719C08A899B89AC89BD89B5
:105580000297A105B1058CF488899989FC01858170
:105590009681039750F488899989E4DA99878887F6
:1055A00088899989FC01108A178688859985892BB5
:1055B000C9F48889998923E030E0FC01348323838E
:1055C00082E090E00E94E11B80E40E94FE1B0AC082
:1055D0008889998922E030E0FC013483238303C069
:1055E000000001C0000088899989FC0185819681AD
:1055F00073D88B8D9C8D22E030E0FC0131832083B9
:1056000088859985892B51F08B8D9C8D22E030E027
:10561000FC01318320838DEF9FEF0FC08E8988239B
:1056200051F48B8D9C8D22E030E0FC01318320838E
:1056300085EF9FEF02C08A859B856C960FB6F89424
:10564000DEBF0FBECDBFDF91CF911F910F910895A7
:10565000CF93DF9300D000D01F921F92CDB7DEB75B
:105660009C838B837E836D8358874F838B819C8142
:10567000892B29F58D819E819A83898389819A81DD
:105680002FEFFC012083209120053091210580918E
:105690002D0290912E02A0912F02B0913002AC0108
:1056A00063E1649FC001659F900D1124820F931FD9
:1056B000FC01228589819A81FC01218309C04F81E7
:1056C00058852D813E818B819C81B9010E94351CBA
:1056D000000028960FB6F894DEBF0FBECDBFDF9155
:1056E000CF910895CF93DF93CDB7DEB766970FB60E
:1056F000F894DEBF0FBECDBF9A8B898B7C8B6B8BF2
:105700005E8B4D8B18861F8229893A898B899C89EB
:10571000820F931F9A87898789859A859C878B87B3
:105720001D861E8619821A821B821C828B859C858F
:10573000FC0181815ED98D878D85882351F48D8907
:105740009E8922E030E0FC013183208386EF9FEFC9
:105750001FC28091200590912105892B49F08091ED
:10576000220590912305892B19F081E090E002C079
:1057700080E090E08D878D85882351F48D899E8906
:1057800022E030E0FC01318320838EEF9FEF00C2E6
:105790000E94493A8E878E85882309F4EAC11E82C9
:1057A0001D82188A1F868B859C85FC018181882F2C
:1057B00090E08130910509F456C08230910509F4DA
:1057C0006BC1892B09F0BEC119821A821B821C820F
:1057D00031C0209120053091210549815A8163E132
:1057E000649FC001659F900D1124820F931FFC01DF
:1057F00083819481892B99F0209120053091210596
:1058000049815A8163E1649FC001659F900D112415
:10581000820F931F21E030E0FC01348323838981D0
:105820009A81AB81BC810196A11DB11D89839A83A8
:10583000AB83BC838091220590912305CC01A0E02D
:10584000B0E029813A814B815C81281739074A07EA
:105850005B070CF4BECF81E090E00E94E11B80E486
:105860000E940F1C6FC119821A821B821C82ABC05E
:10587000209120053091210549815A8163E1649F7F
:10588000C001659F900D1124820F931FFC0183813D
:105890009481029709F08CC0209120053091210558
:1058A00049815A8163E1649FC001659F900D112475
:1058B000820F931FFC0181899289019609F078C0BB
:1058C000209120053091210549815A8163E1649F2F
:1058D000C001659F900D1124820F931FFC0125814B
:1058E0003681809135029091360228173907F9F4F4
:1058F000209120053091210549815A8163E1649FFF
:10590000C001659F900D1124820F931FAC014F5E63
:105910005F4F2091390230913A0280913702909185
:105920003802B9010E9474489E838D8341C08981E9
:105930009A81AB81BC810297A105B105CCF520917C
:1059400020053091210549815A8163E1649FC0019E
:10595000659F900D1124820F931FFC018581968114
:10596000039730F5209120053091210549815A8116
:1059700063E1649FC001659F900D1124820F931F06
:10598000F1D89E838D832091200530912105498196
:105990005A8163E1649FC001659F900D1124820FBD
:1059A000931FFC01108A178689819A81988B8F87B3
:1059B00089819A81AB81BC810196A11DB11D89832A
:1059C0009A83AB83BC838091220590912305CC01FF
:1059D000A0E0B0E029813A814B815C81281739072A
:1059E0004A075B072CF48D819E81892B09F440CFF7
:1059F0008D819E81892B09F0A2C019821A821B8297
:105A00001C8238C0209120053091210549815A819E
:105A100063E1649FC001659F900D1124820F931F65
:105A2000FC01838194810297D1F42091200530916B
:105A3000210549815A8163E1649FC001659F900DF2
:105A40001124820F931F23E030E0FC013483238371
:105A500082E090E00E94E11B80E40E94FE1B8981AD
:105A60009A81AB81BC810196A11DB11D89839A8366
:105A7000AB83BC838091220590912305CC01A0E0EB
:105A8000B0E029813A814B815C81281739074A07A8
:105A90005B070CF4B7CF53C019821A821B821C8299
:105AA00031C0209120053091210549815A8163E15F
:105AB000649FC001659F900D1124820F931FFC010C
:105AC00083819481029799F42091200530912105DA
:105AD00049815A8163E1649FC001659F900D112443
