:1000000075C00000A4C00000A2C00000A0C0000095
:100010009EC000009CC000009AC0000098C0000074
:1000200096C0000094C0000092C0000090C0000084
:100030008EC000008CC000008AC0000088C0000094
:1000400086C0000084C0000082C0000080C00000A4
:100050007EC000007CC000007AC000000C94E23535
:1000600076C000000C941F380C94553870C0000006
:100070006EC000006CC000006AC0000068C00000D4
:1000800066C0000064C0000062C0000060C00000E4
:100090000C94AB380C94E1385AC0000058C00000F2
:1000A00056C0000054C0000052C0000050C0000004
:1000B0004EC000004CC000004AC0000048C0000014
:1000C00046C0000044C000000C9438310C9437390D
:1000D0000C946D393CC000000C94C3390C94F93970
:1000E00036C000007E380A399639223A11241FBEE4
:1000F000CFEFD1E2DEBFCDBF00E00CBF13E0A0E048
:10010000B2E0E0ECFAE700E00BBF02C007900D920E
:10011000AE32B107D9F72BE0AEE2B3E001C01D92D9
:10012000A938B207E1F710E0C6E7D0E000E006C06A
:1001300021970109802FFE010E94223DC237D1077D
:1001400080E00807A9F70E9482320C945E3D58CFE8
:10015000AB01BC018DE298E00C94B03CAB01BC015A
:100160008AEC98E00C94B03CAB01BC0187E699E0C6
:100170000C94B03CAB01BC0184E09AE00C94B03C20
:100180008F929F92AF92BF92CF92DF92EF92FF92A7
:100190000F931F93CF93DF93CDB7DEB77B014A0157
:1001A0005901CDB6DEB69B01220F331F4DB75EB7A6
:1001B000421B530B0FB6F8945EBF0FBE4DBF0DB779
:1001C0001EB70F5F1F4FE82FF0E0EE0FFF1FE05F3D
:1001D000FD4F0190F081E02DC8011995F801D4017F
:1001E000E00EF11EEE15FF0519F081918D93FACF07
:1001F00081E0F50180830FB6F894DEBE0FBECDBE60
:10020000DF91CF911F910F91FF90EF90DF90CF90F2
:10021000BF90AF909F908F9008952F923F924F92F2
:100220005F926F927F928F929F92AF92BF92CF9286
:10023000DF92EF92FF920F931F93CF93DF9300D043
:1002400000D000D01F92CDB7DEB7682E7A876987BD
:10025000742EB52E3C832B8348012A2C312C4E2C36
:10026000512C81E090E0012B11F490E080E0849D1E
:100270009001859D300D949D300D112449855A853E
:10028000420F531F5A834983062D10E0000F111FA0
:10029000F801E050FE4F0190F081E02D199541E00A
:1002A00050E0C114D10411F450E040E0429D9001AF
:1002B000439D300D529D300D1124A981BA812A0F22
:1002C0003B1F821793075CF5E72DFB2D29853A85A7
:1002D0002E0F3F1F3A83298349815A81E417F5077E
:1002E00011F01192F9CFAB81BC811C922A960FB606
:1002F000F894DEBF0FBECDBFDF91CF911F910F915C
:10030000FF90EF90DF90CF90BF90AF909F908F9035
:100310007F906F905F904F903F902F900895C11401
:10032000D10409F441C0F12CE12CF801E050FE4F5A
:10033000FE83ED839801285F3D4F38872F83AD8181
:10034000BE81ED91FC91E214F30474F51995892BAB
:1003500081F4E72DFB2D29853A852E0F3F1F3A8327
:10036000298349815A81E417F50709F4BCCF11921A
:10037000F8CFAF81B885ED91FC911995F601EE0D9E
:10038000FF1D9081981761F021E030E0F601908127
:10039000981302C030E020E0EE24FF24E21AF30AB2
:1003A000FFEFEF1AFF0ACBCF980120503E4F6901B3
:1003B000D901ED91FC911995E981FA818E179F077A
:1003C00084F4E72DFB2D29853A852E0F3F1F3A83B4
:1003D000298349815A81E417F50709F484CF1192E2
:1003E000F8CF2B813C81472D5B2D69857A85862D41
:1003F000C7DE8114910409F479CF7401085F1D4FA1
:10040000C70188199909841595050CF06FCFD6019D
:10041000ED91FC911995892B81F4E72DFB2D298510
:100420003A852E0F3F1F3A83298349815A81E41769
:10043000F50709F458CF1192F8CFD801ED91FC914E
:100440001995F70191917F019817D1F2E72DFB2DB6
:1004500029853A852E0F3F1F3A83298349815A8186
:10046000E417F50709F43FCF1192F8CF8DE298E039
:100470000C940F378AEC98E00C940F3787E699E0DC
:100480000C940F3784E09AE00C940F378DE298E0DB
:100490000C94F5368AEC98E00C94F53687E699E0F2
:1004A0000C94F53684E09AE00C94F536882311F12B
:1004B000823071F08330A9F08130E1F426E030E041
:1004C00040E052EC61E070E081E090E00C94E330B9
:1004D00026E030E040E052EC61E070E082E090E045
:1004E000F5CF26E030E040E052EC61E070E083E0E0
:1004F00090E0ECCF08952F923F924F925F926F92CF
:100500007F928F929F92AF92BF92CF92DF92EF92A3
:10051000FF920F931F93CF93DF931F92CDB7DEB758
:100520002B013A01D02EE9829C2DCA2CF401EF88D0
:10053000F88C998C6A8D7B8D4C8D843008F0EBC1E2
:10054000823051F0833009F456C0813049F43AECDE
:10055000232E38E0332E04C0A7E62A2EA9E03A2E37
:1005600030E02830310511F424E030E0269D5001C0
:10057000279DB00C369DB00C11240AE010E09923A1
:1005800051F000E110E0913031F008E010E09230DD
:1005900011F002E010E08111E1C0D11031C061150D
:1005A000710529F050E08DE298E00E944F3AA501D4
:1005B000B2018DE298E00E944F3AE114F10409F48F
:1005C000AAC1492D50E0B7018DE298E00F90DF916C
:1005D000CF911F910F91FF90EF90DF90CF90BF9040
:1005E000AF909F908F907F906F905F904F903F90D3
:1005F0002F900C944F3A54E0252E5AE0352EB0CF70
:10060000BF018DE298E00E948B3A8981873008F023
:1006100082C1E82FF0E08827EF5EFC4F8F4F0C94EB
:10062000223D3003430357036D03830397031803ED
:10063000AC2CB12CE1E06E1A710808F46CC1D20147
:100640004D915D916D917D912D01B1E095018DE20E
:1006500098E0DB1280C00E94733CECCF0E94633BA9
:100660006A94AFEF6A1609F456C1F20161912F0145
:10067000F1E0A8018DE298E0DF12F0CF0E945D3B2F
:10068000EFCF0E94783B6A948FEF681609F443C15C
:10069000D2016D917D912D01B1E0A8018DE298E02C
:1006A000DB12EFCF0E94733BEECF0E94883B6A942F
:1006B000EFEF6E1609F42FC1D2014D915D916D914E
:1006C0007D912D01B1E098018DE298E0DB12EDCF34
:1006D0000E94513BECCF0E94313B6A94EFEF6E16C3
:1006E00009F419C1D2016D912D01062E000C770B72
:1006F000B1E0A8018DE298E0DB12EDCF0E942B3B28
:10070000ECCF0E94313B6A94EFEF6E1609F403C1FF
:10071000D2016D917D912D01B1E0A8018DE298E0AB
:10072000DB12EFCF0E942B3BEECF0E94413B6A943D
:10073000EFEF6E1609F4EFC0D2014D915D916D910E
:100740007D912D01B1E098018DE298E0DB12EDCFB3
:100750000E94E63AECCF0E94743C6CCFD11038C0B6
:100760006115710549F050E0D101ED91FC910280D5
:10077000F381E02DC1011995D101ED91FC91028029
:10078000F381E02DA501B201C1011995E114F10435
:1007900009F4C1C0492D50E0D101ED91FC910280D6
:1007A000F381E02DB701C1010F90DF91CF911F912F
:1007B0000F91FF90EF90DF90CF90BF90AF909F9000
:1007C0008F907F906F905F904F903F902F901994F3
:1007D000BF01C1010E948B3AB981B73008F09BC0BC
:1007E000EB2FF0E08827E850FC4F8F4F0C94223D10
:1007F000160428043B04500464047604FF03AC2C64
:10080000B12CE1E06E1A710808F485C0D2014D9157
:100810005D916D917D912D01B1E09501C101DB12DA
:1008200077C00E94733CEDCF0E94633B6A94EFEF68
:100830006E1609F470C0D2016D912D01B1E0A801CE
:10084000C101DB12F1CF0E945D3BF0CF0E94783BEB
:100850006A94EFEF6E1609F45EC0D2016D917D913E
:100860002D01B1E0A801C101DB12F0CF0E94733B62
:10087000EFCF0E94883B6A94EFEF6E1609F44BC0ED
:10088000D2014D915D916D917D912D01B1E0980165
:10089000C101DB12EECF0E94513BEDCF0E94313BF4
:1008A0006A94EFEF6E16B9F1D2016D912D01062E0B
:1008B000000C770BB1E0A801C101DB12EFCF0E9461
:1008C0002B3BEECF0E94313B6A94EFEF6E1619F18D
:1008D000D2016D917D912D01B1E0A801C101DB1222
:1008E000F1CF0E942B3BF0CF0E94413B6A94EFEF87
:1008F0006E1689F0D2014D915D916D917D912D0122
:10090000B1E09801C101DB12EFCF0E94E63AEECFD1
:100910000E94743C76CF0F90DF91CF911F910F9181
:10092000FF90EF90DF90CF90BF90AF909F908F900F
:100930007F906F905F904F903F902F90089590E040
:1009400080E008950F931F93009709F48AC0611502
:10095000710509F486C00091580210915902209146
:100960005A0230915B020E3F1F4F2F4F3F4F09F04D
:100970006AC0DB014D915D916D917C91409358026D
:100980005093590260935A0270935B02409158024F
:100990005091590260915A0270915B02DC011296EB
:1009A000ED91FC9180819181A281B3818093A20419
:1009B0009093A304A093A404B093A504848195818B
:1009C000A681B78180939E0490939F04A093A00476
:1009D000B093A10480859185A285B38580939A0404
:1009E00090939B04A0939C04B0939D04848595856B
:1009F000A685B7858093960490939704A093980456
:100A0000B09399041092920410929304109294045B
:100A1000109295040E94DD1482E095E190932F03DB
:100A200080932E0390933103809330030E94CC1364
:100A3000009731F421E030E03093A7042093A6041E
:100A40001F910F9108950091580210915902209121
:100A50005A0230915B02FB010083118322833383AE
:100A600095CF8FEF9FEFECCF8F929F92AF92BF9277
:100A7000CF92DF92EF92FF921F93CF93DF934B01C0
:100A80005C011091A90482E090E09093A704809308
:100A9000A60481149104A104B10441F48091A90435
:100AA000811104C08091A804C1E08111C0E0C12C73
:100AB000D12C76018091A904811106C08091A804EF
:100AC000811102C0CC23D9F083E090E09093A70479
:100AD0008093A604CC2381F1CCE9DFEF111102C091
:100AE0000E946718CE01DF91CF911F91FF90EF9088
:100AF000DF90CF90BF90AF909F908F9008956AE065
:100B000070E080E090E00E945D3680E1C80E87E2F0
:100B1000D81EE11CF11C8FEF88169806A806B806AF
:100B200031F0C1E08C149D04AE04BF0408F0C0E0B5
:100B300080E00E940014BECFD0E0C0E0CFCFCF92C3
:100B4000DF92EF92FF920F931F93CF93DF938F3F2C
:100B5000910511F008F051C02091A6043091A7042E
:100B60002330310539F02091A6043091A7042130BB
:100B7000310531F424E030E03093A7042093A6043B
:100B80006A017B01EC0182309105A8F011E0AE0111
:100B9000C701B6010E94CB13AB01BC01CE011123EA
:100BA000F9F0DF91CF911F910F91FF90EF90DF90BF
:100BB000CF900C948C1A8C01000F111F025D1C4FFA
:100BC000D8018D919C91892B09F30E94961A029766
:100BD000E9F6D801ED91FC91CE011995182FD7CFE8
:100BE0000E94AE1A90E080E0DF91CF911F910F91AB
:100BF000FF90EF90DF90CF9008958FEF9FEFF4CFAD
:100C000080E00C940014CF93DF9386E090E0909303
:100C1000A7048093A6040E945914EC01EEE2F3E0CD
:100C200084E0DF011D928A95E9F70E94FF17109278
:100C3000A7041092A604CE01DF91CF910895809170
:100C4000A8040895809191040895609358027093C8
:100C5000590280935A0290935B0290E080E00895DD
:100C6000CF92DF92EF92FF926B017C010E94C8123B
:100C7000882379F0C0907B0BD0907C0BE0907D0BAB
:100C8000F0907E0BC701B601FF90EF90DF90CF9000
:100C90000895C701B6010E9483128111EBCF20E0B5
:100CA00030E0A901C701B6010E948B33882329F1E6
:100CB00020E030E040E853E4C701B6010E947F34F1
:100CC0006B017C0120E030E0A9010E948B33882376
:100CD000A1F020E030E0A901C701B6010E948B33EA
:100CE00087FFD0CF20E030E040E853E4C701B601F1
:100CF0000E9414336B017C01C5CFC12CD12C76012D
:100D0000C1CFCF93C82FE92FF62F472F991F9927CF
:100D1000991F872F881F8827881F30E020E09817A9
:100D200069F08C2F9E2F0E94ED3C21E030E0892B52
:100D300011F430E020E03195219531098C2F9E2F60
:100D40006F2F742F0E94ED3CCB01820F931FCF9128
:100D50000895FC0191E080915A04811190E0928302
:100D60000895CF92DF92EF92FF926B017C019F7703
:100D700020E030E040E859E50E948B3387FF2BC02C
:100D800020E030E040E05FE3C701B6010E947B3520
:100D900087FD0EC020E030E040E05FE3C701B60110
:100DA0000E941433FF90EF90DF90CF900C94653445
:100DB00020E030E040E05FEBC701B6010E947B35E8
:100DC000181684F420E030E0A901C701B6010E94A2
:100DD0007F356B017C01C701B601FF90EF90DF907A
:100DE000CF90089520E030E040E05FE3C701B60116
:100DF0000E941333FF90EF90DF90CF900C947833E4
:100E0000CF92DF92EF92FF920F931F93CF93DF93D6
:100E1000C091E103D091E2030AE21BE0F801808572
:100E20009185A285B38588839983AA83BB8388E152
:100E3000E82E82E0F82E96E1C92E9BE0D92EF6012D
:100E40002481358146815781F701648975898689B6
:100E500097890E947F35F80124A135A146A157A1A9
:100E60000E9414336C837D838E839F83F801848971
:100E70009589A689B78988879987AA87BB87F6014C
:100E80002485358546855785F70160A571A582A51E
:100E900093A50E947F35F80120A131A142A153A161
:100EA0000E9414336C877D878E879F87DF91CF9157
:100EB0001F910F91FF90EF90DF90CF9008952F92A8
:100EC0003F924F925F926F927F928F929F92AF92DA
:100ED000BF92CF92DF92EF92FF920F931F93CF9327
:100EE000DF93CDB7DEB7E9970FB6F894DEBF0FBE3C
:100EF000CDBF209064043090650421E022163104B7
:100F000009F023C1609148047091490480914A041A
:100F100090914B046F5F7F4F8F4F9F4F0E942834FB
:100F200020914C0430914D0440914E0450914F0457
:100F30000E947F3560936203709363038093640320
:100F40009093650380915A0490915904911105C0C2
:100F500091E0811190E090935B048F5F823308F4FD
:100F600092C710925A044E019BE0890E911CA12C4D
:100F7000D12CC12CE12C10E000E094014CE65BE0A8
:100F800061E070E081E049D98B858130C1F4109136
:100F90006C0B90910B0B9111CDC21A3A81F4109306
:100FA000000B40E050E060E87FE34093F50A509387
:100FB000F60A6093F70A7093F80A80930B0B8091FE
:100FC0000A0B80936E0BC090E50AD090E60AE09081
:100FD000E70AF090E80AC092520BD092530BE092CD
:100FE000540BF092550B8091E90A9091EA0AA09176
:100FF000EB0AB091EC0A8093560B9093570BA09399
:10100000580BB093590B0091FD0A1091FE0A1093F2
:10101000630B0093620B8090ED0A9090EE0AA09013
:10102000EF0AB090F00A80925A0B90925B0BA0925C
:101030005C0BB0925D0B6091F10A7091F20A8091A5
:10104000F30A9091F40A60935E0B70935F0B8093A8
:10105000600B9093610B2091FF0A20936D0B442449
:101060004A94542C32014092110B5092120B609210
:10107000130B7092140B0115110509F449C320E0FC
:1010800030E040E85FE32C873D874E875F87209103
:1010900018023091190240911A0250911B020E94CD
:1010A0007F352B013C0140922A0B50922B0B609212
:1010B0002C0B70922D0B20911C0230911D0240913F
:1010C0001E0250911F02C501B4010E947F354B01E1
:1010D0005C0180922E0B90922F0BA092300BB0925D
:1010E000310BB80190E080E00E942834A301920106
:1010F0000E941433A50194010E941433A7019601A4
:101100000E9413332C853D854E855F850E947F3577
:101110009B01AC012093320B3093330B4093340B83
:101120005093350B60912002709121028091220230
:10113000909123020E947F356093360B7093370B9A
:101140008093380B9093390B16C02114310499F415
:10115000E0919203F09193030190F081E02D808162
:101160009181A281B381E0916704F091680480834A
:101170009183A283B3832091160B3091170B40917A
:10118000180B5091190B60912802709129028091DF
:101190002A0290912B020E947F352091360B3091CC
:1011A000370B4091380B5091390B0E9414336B016F
:1011B0007C0120911A0B30911B0B40911C0B50911C
:1011C0001D0B60913002709131028091320290913A
:1011D00033020E947F359B01AC01C701B6010E941A
:1011E00014334B015C0180923A0B90923B0BA0921E
:1011F0003C0BB0923D0B31E02316310409F05DC089
:101200006091620B7091630B8FEF9FEFDC01809315
:101210000C0B90930D0BA0930E0BB0930F0BC12CE6
:10122000D12C80E8E82E8FE3F82E6115710519F4B2
:10123000C12CD12C760190E080E00E9428342091CE
:101240002A0B30912B0B40912C0B50912D0B0E94AF
:10125000133320912E0B30912F0B4091300B509176
:10126000310B0E9414332091560B3091570B409153
:10127000580B5091590B0E941333A70196010E94FD
:101280007F359B01AC0120933E0B30933F0B409385
:10129000400B5093410B6091340270913502809164
:1012A0003602909137020E947F356093420B709313
:1012B000430B8093440B9093450B20911E0B309170
:1012C0001F0B4091200B5091210B60913C027091BB
:1012D0003D0280913E0290913F020E947F35209115
:1012E000420B3091430B4091440B5091450B0E94AF
:1012F00014336B017C012091220B3091230B409120
:10130000240B5091250B609144027091450280910D
:101310004602909147020E947F359B01AC01C701B4
:10132000B6010E9414332B013C014092460B5092AF
:10133000470B6092480B7092490BC0904802D090C6
:101340004902E0904A02F0904B02A7019601609199
:101350004C0270914D0280914E0290914F020E947A
:1013600013336C877D878E879F87A7019601C50100
:10137000B4010E9413332C853D854E855F850E9404
:101380008F3320E030E04AEF54E40E947F3520E0C4
:1013900030E04AE754E40E941333E3DC4B015C0184
:1013A00020E030E040E057E40E948B330FEF1FE76E
:1013B00087FF11C020E030E040E057ECC501B401E8
:1013C0000E947B3500E010E887FD05C0C501B4012F
:1013D0000E94F7338B01A7019601C301B2010E945D
:1013E00013332C853D854E855F850E948F3320E029
:1013F00030E04AEF54E40E947F3520E030E04AE7D5
:1014000054E40E941333ADDC6B017C0120E030E03A
:1014100040E057E40E948B336FEF7FE787FF10C0F7
:1014200020E030E040E057ECC701B6010E947B3578
:1014300060E070E887FD04C0C701B6010E94F73381
:10144000C80199279093670B8093660B212F220F79
:10145000220B1093640B2093650BAB01552750931F
:101460006B0B40936A0B372F330F330B7093680B62
:101470003093690B2A94232861F430915B04332361
:1014800041F01093F90A2093FA0A9093FC0A809392
:10149000FB0A809167049091680499A788A7DC01F2
:1014A000CD90DD90ED90FC90B091C50ABC87E091A5
:1014B000C60AE88BF091C70AFC8B2091C80A2C8FD2
:1014C000A090CD0A1091CE0A0091CF0AB090D00A18
:1014D0002B2F3E2F4F2F5C8DC701B6010E948B33FF
:1014E0002A2D312F402F5B2D18160CF416C1C70181
:1014F000B6010E948B3320E030E0A90118160CF0F1
:101500004BC12A2D312F402F5B2D6C8578898C891A
:101510009C8D0E948B3387FD08C14090D10A50906A
:10152000D20A6090D30A7090D40A7A2D612F902F3E
:101530008B2D12C120E030E040E85FE36091F50AB6
:101540007091F60A8091F70A9091F80A0E9414337C
:101550006B017C01C092F50AD092F60AE092F70A7C
:10156000F092F80A0E94F7336F55754F625A7F4F19
:10157000DB011C9320E030E040E251E4C701B601FA
:101580000E948B3381111BCDA0E0BBE0FE013196A0
:101590008D9181938E169F06D9F71092F50A1092BD
:1015A000F60A1092F70A1092F80A10920B0B81E0DB
:1015B00080930A0B0A81002309F49BC00150110B90
:1015C0006B81662309F498C06150770B072E000CDD
:1015D000880B990B0E942A3420E030E048EC52E45A
:1015E0000E948F336B017C01B801110F880B990B9E
:1015F0000E942A349B01AC01C701B6010E9414333A
:1016000020E030E040E251E40E947F356093E50A3B
:101610007093E60A8093E70A9093E80A0C8100230E
:1016200009F46DC00150110B6D81662309F46AC085
:101630006150770B072E000C880B990B0E942A34FF
:1016400020E030E048EC52E40E948F336B017C01D3
:10165000B801110F880B990B0E942A349B01AC0131
:10166000C701B6010E94143320E030E040E251E4AB
:101670000E947F356093E90A7093EA0A8093EB0A2F
:101680009093EC0A8F81813009F41F828F81882327
:10169000E1F18150990B4AE0489F9001499F300D3C
:1016A00011243093FE0A2093FD0A6E816F3168F495
:1016B00070E090E080E00E9428346093ED0A70931F
:1016C000EE0A8093EF0A9093F00A68856F3168F410
:1016D00070E090E080E00E9428346093F10A7093FB
:1016E000F20A8093F30A9093F40A89858093FF0AA3
:1016F00066CC10E000E064CF70E060E067CF10E0FF
:1017000000E092CF70E060E095CF90E080E0C3CF42
:101710001C861D861E861F86BACC6C8578898C89AE
:101720009C8D0E948B3387FF0BC02A2D312F402FB9
:101730005B2DC701B6010E947B3518160CF4EDCE67
:101740004090C90A5090CA0A6090CB0A7090CC0AA7
:101750007C8568899C898C8D272F362F492F582F9F
:10176000C701B6010E9413336E8F7F8F88A399A3A0
:10177000A301920160913E0B70913F0B8091400B51
:101780009091410B0E9413332E8D3F8D48A159A19A
:101790000E948F339B01AC01609150027091510205
:1017A00080915202909153020E947F3560934A0BC0
:1017B00070934B0B80934C0B90934D0B3091D50A4B
:1017C0003E8F4091D60A4EA35091D70A5AA38091DA
:1017D000D80A888F9090DD0A8090DE0A7090DF0A28
:1017E0006090E00A232F342F452F582FC701B601F0
:1017F0000E948B33292D382D472D562D1816FCF0BD
:10180000C701B6010E948B3320E030E0A901181611
:101810000CF04FC0292D382D472D562D6E8D7EA1F1
:101820008AA1988D0E948B3387FD11C02090E10A18
:101830003090E20A4090E30A5090E40A1EC06E8D98
:101840007EA18AA1988D0E948B3387FF0AC0292D23
:10185000382D472D562DC701B6010E947B3518162D
:101860002CF32090D90A3090DA0A4090DB0A50908D
:10187000DC0A9E8C8EA07AA0688C292D382D472DED
:10188000562DC701B6010E9413336B017C01A201E2
:1018900091016091320B7091330B8091340B9091D8
:1018A000350B0E941333A70196010E948F339B01D1
:1018B000AC01609154027091550280915602909152
:1018C00057020E947F3560934E0B70934F0B8093AD
:1018D000500B9093510B8091640490916504019793
:1018E00009F067C0C090770BD090780BE090790B2F
:1018F000F0907A0BA8A5B9A54D905D906D907C9065
:10190000A70196016C8578898C899C8D0E948B3308
:10191000811171C24092C50A5092C60A6092C70AEC
:101920007092C80AE9ECFAE080913E0B90913F0B6F
:10193000A091400BB091410B80839183A283B3832C
:101940002091D50A3091D60A4091D70A5091D80AF1
:101950002C873D874E875F87C701B6010E948B3376
:10196000A8A5B9A58D909D90AD90BC90811165C240
:101970008092D50A9092D60AA092D70AB092D80A3D
:10198000E9EDFAE08091320B9091330BA091340B8A
:10199000B091350B80839183A283B383409150042F
:1019A00050915104609152047091530481E090E091
:1019B000C6D88091640490916504019709F002C231
:1019C000E0919203F09193030190F081E02D20814A
:1019D0003181428153812AA33BA34CA35DA3809113
:1019E000620390916303A0916403B09165038AAB95
:1019F0009BABACABBDABE0916603F091670380801D
:101A00009180A280B380E0919603F091970370805B
:101A10006180E0915A03F0915B0320803180528015
:101A200043809481988FA581A8A7B681B8AB278100
:101A300029ABE0915803F09159031182108280E1A3
:101A4000E72DF62DD10101900D928A95E1F7E091F5
:101A50009003F091910350824182D2D920E030E08E
:101A600040E05FE3C501B4010E947F356B017C015A
:101A70003FA22EA25E8E4F8E7C8E6D8E8101005F06
:101A80001F4F7C866D86588A498A3D8A2C8AEC894C
:101A9000FD8981919191A191B191FD8BEC8B8CA7E6
:101AA0009DA7AEA7BFA7A889B9892D913D914D915A
:101AB0005D91B98BA88BC701B6010E947F352CA51B
:101AC0003DA54EA55FA50E941433EC85FD8561936D
:101AD000719381939193FD87EC872C893D8902173F
:101AE0001307A9F6E0919203F0919303008111810D
:101AF000A70196016AA17BA18CA19DA10E9414332C
:101B0000D8016D937D938D939C931397E0919003EF
:101B1000F0919103B88DB08328A52183D0D970D9D5
:101B200020E030E0A901C501B4010E947F356CA717
:101B30007DA78EA79FA720E030E040E45FE3C501CA
:101B4000B4010E947F356B017C01388D3C8748A52C
:101B50004D87072D162D8C859D85998F888F588AE6
:101B6000498AD1012D913D914D915D911D0128A78B
:101B700039A74AA75BA7E889F98961917191819199
:101B80009191F98BE88BA88DB98D4D905D906D90FA
:101B90007D90B98FA88F2CA53DA54EA55FA50E946D
:101BA0007F356EAB7FAB88AF99AFA7019601C301BC
:101BB000B2010E947F359B01AC016EA97FA988AD5F
:101BC00099AD0E94143328A539A54AA55BA50E94AA
:101BD0001433F80161937193819391938F012C8950
:101BE0003D892215330509F0BCCFE0919203F091B5
:101BF000930300811181A70196016AA17BA18CA1A9
:101C00009DA10E941433D8016D937D938D939C9375
:101C10001397E0919003F0919103B8A9B08329A99B
:101C200021834DD9EDD829E33EE843E65EE3C501C3
:101C3000B4010E947F356C8B7D8B8E8B9F8B2BEA42
:101C40003AEA4AEA5EE3C501B4010E947F356AA31D
:101C50007BA38CA39DA329E33EE843EE5EE3C5018D
:101C6000B4010E947F35688F798F8A8F9B8F08A976
:101C700019A9EEA1FFA181919191A191B191FFA329
:101C8000EEA3888B998BAA8BBB8BAE8DBF8D6D918C
:101C90007D918D919D91BF8FAE8FEC85FD8541909B
:101CA000519061907190FD87EC87D801CD90DD90C7
:101CB000ED90FD908D012C893D894E895F890E94B0
:101CC0007F354B015C012AA13BA14CA15DA1C30161
:101CD000B2010E947F359B01AC01C501B4010E9495
:101CE00014334B015C01288D398D4A8D5B8DC70102
:101CF000B6010E947F359B01AC01C501B4010E9471
:101D00001433288939894A895B890E941433EC8D00
:101D1000FD8D6193719381939193FD8FEC8F2EA133
:101D20003FA12216330609F0A4CFE0919203F0916F
:101D300093030190F081E02D8AA99BA9ACA9BDA9CC
:101D400080839183A283B383E0915803F091590378
:101D500081E090E0918380838091480490914904D0
:101D6000A0914A04B0914B040196A11DB11D80932E
:101D7000480490934904A0934A04B0934B04809183
:101D8000620390916303A0916403B0916503E091B5
:101D90006704F091680480839183A283B383809168
:101DA000500490915104A0915204B09153040196B3
:101DB000A11DB11D8093500490935104A09352042F
:101DC000B0935304E9960FB6F894DEBF0FBECDBFB3
:101DD000DF91CF911F910F91FF90EF90DF90CF9007
:101DE000BF90AF909F908F907F906F905F904F903B
:101DF0003F902F9008952A2D312F402F5B2DC70142
:101E0000B6010E948B3381110BC04092CD0A5092D3
:101E1000CE0A6092CF0A7092D00AE1EDFAE084CD4A
:101E20002A2D312F402F5B2D6C8578898C899C8DD4
:101E30000E948B3387FFE9CF6DCD4090DD0A509033
:101E4000DE0A6090DF0A7090E00AA3019201C701E8
:101E5000B6010E948B3381110BC08092DD0A9092F3
:101E6000DE0AA092DF0AB092E00AE1EEFAE08ACD43
:101E7000A30192016C857D858E859F850E948B33A1
:101E800087FFEBCF75CD80935A046DC88F929F92D8
:101E9000AF92BF92CF92DF92EF92FF920F931F9378
:101EA000CF93DF9300D000D01F92CDB7DEB7A091C3
:101EB000F90AB091FA0A9A2F8B2FAF3FB10519F0AA
:101EC00014F09FEF80E0092F182F17FF02C010E0D9
:101ED00000E0098324E630E00E942A3D611520E8F5
:101EE00072072FEF8207920724F460E070E88FEF0B
:101EF0009FEF6B017C01C11440E8D406E104F104BA
:101F000034F0CC24CA944FE7D42EE12CF12C64E6B3
:101F100070E0C6010E9481062CE9AC012403C001D7
:101F2000259F900D1124C80ED91E5FEFC516D10450
:101F300021F01CF0CC24CA94D12CD7FE02C0D12CA5
:101F4000C12CCA82A091FB0AB091FC0A9A2F8B2F58
:101F5000AF3FB10519F014F09FEF80E0E92EF82EA5
:101F6000F7FE02C0F12CE12CEB8224E630E00E9467
:101F70002A3D611520E872072FEF8207920724F4AB
:101F800060E070E88FEF9FEF4B015C01811440E847
:101F90009406A104B10434F088248A942FE7922E89
:101FA000A12CB12C64E670E0C4010E9481062CE9EA
:101FB000AC012403C001259F900D1124880D991DAB
:101FC0008F3F910519F014F08FEF90E097FF02C05A
:101FD00090E080E08C83B8016C0D7D1D6E0D7F1D3F
:101FE000680F791F072E000C880B990B0E942A346A
:101FF0000E9430069B01AC0160E070E080E893E451
:102000000E9413330E9430060E94B1066B017C01CE
:1020100020E030E040E853E40E948B3387FF8FC01C
:1020200020E030E0A901C701B6010E947B3587FDA1
:1020300084C0C701B6010E94FC336D8385E58E83A1
:102040008AEA8F836091B70A7091B80A8091B90AC1
:102050009091BA0A0E94FC33C62E6091AF0A70912B
:10206000B00A8091B10A9091B20A0E94FC33E62E28
:102070006091B30A7091B40A8091B50A9091B60A42
:102080000E94FC33062F6091AB0A7091AC0A8091DC
:10209000AD0A9091AE0A0E94FC33162F6091A70AF8
:1020A0007091A80A8091A90A9091AA0A0E94FC3313
:1020B000862F91E09F939E01295F3F4F3F932F937F
:1020C0009F93215031093F932F93912C812C92E0C3
:1020D000A92E212F45E050E0BE016F5F7F4F0E9487
:1020E0007B028091540490915504A0915604B091C4
:1020F00057040196A11DB11D80935404909355047B
:10210000A0935604B09357040F900F900F900F9028
:102110000F900F9027960FB6F894DEBF0FBECDBF7D
:10212000DF91CF911F910F91FF90EF90DF90CF90B3
:10213000BF90AF909F908F9008951D827FCF8FEFBB
:102140008D837CCFCF92DF92EF92FF920F931F93FC
:10215000CF93DF9384E090E09FD1E2E5F3E0A4E643
:10216000B4E0B783A68387E694E0909393038093CB
:1021700092030CE414E0158B048B21EE33E037AFAF
:1021800026AF6BED73E0709397036093960320E4A2
:1021900034E0309395032093940322E434E03093A9
:1021A0009903209398032DED33E030939B03209304
:1021B0009A032FED33E030939D0320939C0343EE6D
:1021C00053E05093D9034093D803F093BD03E093B9
:1021D000BC03F583E48321E030E02D933C9310921F
:1021E000D3031092DA0328E234E0C8EED3E0D90139
:1021F000CD93DC93A8EFB3E0B0932B04A0932A0413
:10220000A8E0B4E0B0932D04A0932C04A8E1B4E0BE
:10221000B0932F04A0932E04A6E1BBE0EB01B98399
:10222000A88366E27BE0EA017983688310925C040C
:1022300010925D0410925E0410925F043187208733
:1022400021E832E03387228729E634E0EC01398344
:10225000288340E050E06AEF73E4409360045093B9
:10226000610460936204709363044FE652E163E893
:102270007AE3E801488359836A837B8320E334E06F
:102280004FEE57ED64EF7CEFE901488359836A8391
:102290007B8345EE5DE565E075EF40933404509334
:1022A000350460933604709337044BE256E267EAD4
:1022B00075E1409338045093390460933A04709365
:1022C0003B044CED52E16AE47FEE40933C045093B2
:1022D0003D0460933E0470933F04C6E4D3E0D3838F
:1022E000C283E2E3F3E0F983E88386E892E0918336
:1022F0008083938382839583848397838683918766
:102300008087938782879587848797878687918B35
:10231000808B938B828B86E494E09D838C833B83BC
:102320002A8340E251EA67E070E0488759876A876C
:102330007B87E8E1F2E044855585668577854D9396
:102340005D936D937C93139714961D921D921D922D
:102350001C92179740A151A162A173A118964D93A9
:102360005D936D937C931B971C961D921D921D92FD
:102370001C921F978091770B9091780BA091790B0D
:10238000B0917A0BC1EADAE08CA39DA3AEA3BFA300
:102390008CA79DA7AEA7BFA78CAB9DABAEABBFABC9
:1023A0008CAF9DAFAEAFBFAF1882C12CD12C7601E0
:1023B000C394C982DA82EB82FC8280E090E0A0E8DC
:1023C000BFE38E839F83A887B9878A879B87AC8763
:1023D000BD871E861F86188A198A1A8A1B8A1C8A3C
:1023E0001D8A1E8A1F8A188E198E81E00E9456024D
:1023F00011E01D838FEF9FEFDC018093110B909311
:10240000120BA093130BB093140B80930C0B9093AF
:102410000D0BA0930E0BB0930F0B1C8ECD8EDE8E8A
:10242000EF8EF8A281E00E94560219A3DF91CF91AE
:102430001F910F91FF90EF90DF90CF9008958091C2
:10244000BD0A811103C081E08093BD0A8091A10A79
:10245000811103C081E08093A10A089560E070E0DB
:1024600080E89FE7089560E070E080E89FE70895C6
:1024700060E070E080E89FEF089560E070E080E841
:102480009FEF089560E070E080EC9FEF089560E0BA
:1024900070E080EC9FEF0895F5DF60937B0B709305
:1024A0007C0B80937D0B90937E0BF1DF60936F0B21
:1024B0007093700B8093710B9093720BCFDF6093CE
:1024C000770B7093780B8093790B90937A0BCBDF1B
:1024D0006093730B7093740B8093750B9093760BD2
:1024E000C7DF60937F0B7093800B8093810B909379
:1024F000820BC3DF6093830B7093840B8093850BF7
:102500009093860B0895CF92DF92EF92FF92CF9334
:102510006B017C01AC019B016091770B7091780B92
:102520008091790B90917A0B0E948B33C1E08823C4
:1025300071F0A701960160917F0B7091800B8091E3
:10254000810B9091820B0E948B338111C0E08C2F04
:10255000CF91FF90EF90DF90CF9008950F931F934E
:102560008B019C010027112720783F770115110569
:1025700020483F4749F4AB01BC016F77772781E0E2
:10258000452B462B472B09F480E01F910F910895AE
:10259000E5CF4F925F926F927F928F929F92AF9210
:1025A000BF92CF92DF92EF92FF920F931F93F89416
:1025B0004090810450908204609083047090840461
:1025C000C0907504D0907604E0907704F090780481
:1025D0004130510509F0A4C09B01AC012419350913
:1025E0004609570929013A0100917D0410917E04A2
:1025F00020917F043091800448015901840C951C7E
:10260000A61CB71C80169106A206B306A0F4009182
:10261000790410917A0420917B0430917C040F5F3F
:102620001F4F2F4F3F4F0093790410937A0420934C
:102630007B0430937C0480927D0490927E04A0926F
:102640007F04B09280040091790410917A04209163
:102650007B0430917C048092850490928604A09241
:102660008704B09288040093890410938A0420930D
:102670008B0430938C046093810470938204809364
:10268000830490938404A8EEB3E0A30192010E9416
:10269000303D6C0D7D1D8E1D9F1D609375047093E4
:1026A00076048093770490937804009158021091F7
:1026B000590220915A0230915B020F3F1F4F2F4F5A
:1026C0003F4FF1F0009158021091590220915A02A7
:1026D00030915B020E3F1F4F2F4F3F4F89F0C0904C
:1026E0005802D0905902E0905A02F0905B0221E02B
:1026F0008C149D04AE04BF0408F420E020939104E0
:1027000078941F910F91FF90EF90DF90CF90BF9042
:10271000AF909F908F907F906F905F904F900895B3
:102720004B015C0184189508A608B708A301920123
:10273000261B370B480B590B641575058605970545
:10274000D0F082169306A406B50640F420E030E0EF
:10275000A90181149104A104B10491F4A8EEB3E09D
:102760000E94303DA7019601261B370B480B590BE1
:10277000CA01B901C5CF82169306A406B50670F743
:10278000A8EEB3E0A50194010E94303D6C0D7D1DC3
:102790008E1D9F1DB5CFFDCECF93DF9300D01F922E
:1027A000CDB7DEB71C821B821A82198210928D046B
:1027B00010928E0410928F0410929004BE016F5FED
:1027C0007F4FCE0103960E94CD3069817A818B8143
:1027D0009C810E94BB29009761F4BE016F5F7F4F0F
:1027E000CE0103960E94D93069817A818B819C81C8
:1027F0002BD50F900F900F900F90DF91CF910895F0
:10280000FF920F931F93CF93DF93082F60E070E048
:10281000CB010E945D36FF24F3940E94A428EC01B2
:10282000892B89F010E0CE3F8FEFD80769F00023A5
:1028300061F160E070E0CB010E945D3681E090E0E4
:10284000892B59F322C011E022D5EC01892B21F00C
:10285000CE3F8FEFD80759F711111EC011E0229615
:1028600009F410E00E945428EC01892B21F0CE3F9E
:102870008FEFD807E1F6111111C011E0CE3F8FEFB5
:10288000D80709F410E001110BC0CE01DF91CF9100
:102890001F910F91FF90089511E0E4CF11E0F3CF65
:1028A00060E070E0CB010E945D361F25812F90E033
:1028B000C7CFCF93DF9380919104882321F060E00C
:1028C00070E0CB0149D632D6D0E0C0E0892B71F060
:1028D0006AE070E080E090E00E945D3681E090DF89
:1028E00025D62196C03D27E0D20781F724D60E9445
:1028F0000F2A1092A9041092A8041092A204109218
:10290000A3041092A4041092A50410929E041092A5
:102910009F041092A0041092A10410929A041092A5
:102920009B0410929C0410929D04109296041092A5
:1029300097041092980410929904109292041092A5
:10294000930410929404109295044EEF5FEF6FEF92
:102950007FEF409358025093590260935A0270934C
:102960005B0210929104E5E8F4E028E0DF011D929B
:102970002A95E9F710928104109282041092830440
:102980001092840410927D0410927E0410927F04B1
:10299000109280041092790410927A0410927B04B1
:1029A00010927C04109275041092760410927704B1
:1029B00010927804DF91CF9108951092B50410928F
:1029C000B6041092B7041092B8041092B404809127
:1029D000BD049091BE049093B3048093B20410920E
:1029E000B1041092B0041092AC041092AD04109295
:1029F000AE041092AF041092BA041092B90490E0A1
:102A000080E00895CF92DF92EF92FF920F931F9391
:102A1000CF938C01019709F055C02091BD043091EE
:102A2000BE048091B2049091B3044091BD045091D2
:102A3000BE045093B3044093B2042817390781F0C1
:102A40001092B1041092B0041092AC041092AD0434
:102A50001092AE041092AF041092BA041092B9040E
:102A60008091BD049091BE04019761F58091B904F5
:102A70009091BA04892B21F480915C02811112C0DB
:102A80008091B9049091BA040197E1F48091AC046B
:102A90009091AD04A091AE04B091AF040197A1054F
:102AA000B10581F41092AC041092AD041092AE0402
:102AB0001092AF0410925C0282E090E09093BA040E
:102AC0008093B9048091BD049091BE04019709F0F0
:102AD0001CC18091D3049091D4048017910709F010
:102AE00014C18091CF049091D004A091D104B091F1
:102AF000D204009709F409C12091CE0421110DC020
:102B00004091CF045091D0046091D1047091D204CF
:102B1000452B462B472B09F4F8C02091B90430917E
:102B2000BA042230310509F0F0C02091B00421111F
:102B3000ECC0FC01C080D180E280F3808091B404BD
:102B4000882309F4D3C08091C0049091C104892BDB
:102B500009F4FEC02091C0043091C10481E022300C
:102B6000310509F080E02091C0043091C104C1E03A
:102B70002130310549F02091C0043091C104C1E0F9
:102B80002230310509F0C0E0882309F456C02091B5
:102B9000CA043091CB044091CC045091CD04C701BC
:102BA000B6010E947B3587FD14C02091CA04309184
:102BB000CB044091CC045091CD046091B504709148
:102BC000B6048091B7049091B8040E948B3387FDBE
:102BD00022C02091CA043091CB044091CC04509182
:102BE000CD04C701B6010E947B35181634F520913B
:102BF000CA043091CB044091CC045091CD04609133
:102C0000B5047091B6048091B7049091B8040E9405
:102C10008B33811112C08091C2049091C304A091A2
:102C2000C404B091C504892B8A2B8B2B19F481E045
:102C30008093B10481E08093B004CC2309F456C0A2
:102C40002091CA043091CB044091CC045091CD0422
:102C5000C701B6010E948B3387FF14C02091CA04BC
:102C60003091CB044091CC045091CD046091B504D7
:102C70007091B6048091B7049091B8040E947B359E
:102C800087FF22C02091CA043091CB044091CC042C
:102C90005091CD04C701B6010E948B33811126C02B
:102CA0002091CA043091CB044091CC045091CD04C2
:102CB0006091B5047091B6048091B7049091B80406
:102CC0000E947B35181694F48091C2049091C3043D
:102CD000A091C404B091C504892B8A2B8B2B19F4C5
:102CE00081E08093B10481E08093B00481E0909111
:102CF000B004911180E08093B404C092B504D092E6
:102D0000B604E092B704F092B8040130110509F05E
:102D100067C18091B9049091BA04892BD9F41092BB
:102D2000BF041092B00480915C02882379F082E0A5
:102D300090E09093BA048093B90410925C022091C1
:102D4000BD043091BE0481E0232BE9F080E01BC07C
:102D500081E009CF10925C028091BF04882349F082
:102D60001092B1041092BA041092B9041092BF04E8
:102D7000EDCF8091BD049091BE04892BE1F080914C
:102D8000B0041092B0042091B9043091BA042230FA
:102D9000310509F45EC088F42115310509F448C0F5
:102DA0002130310509F4F3C01092B1041092B0043F
:102DB0001092BF0438C081E0E6CF2330310509F41A
:102DC000B1C02430310581F74091AC045091AD047D
:102DD0006091AE047091AF04411551056105710514
:102DE00061F041505109610971094093AC0450935D
:102DF000AD046093AE047093AF044091AC04509165
:102E0000AD046091AE047091AF04452B462B472B67
:102E1000D9F42091BB043091BC042130310509F074
:102E200046C01092B1041092BA041092B9040CC0BA
:102E300080915C02882341F082E090E09093BA0494
:102E40008093B90410925C021092AA048091B1049C
:102E5000CEC08823C9F38091C2049091C304A0918D
:102E6000C404B091C504181619061A061B060CF006
:102E70007DC08091BD049091BE04019709F076C099
:102E80008091C2049091C304A091C404B091C50480
:102E90008093AC049093AD04A093AE04B093AF04C0
:102EA00083E090E09093BA048093B904CDCF409131
:102EB000C6045091C7046091C8047091C904452BA1
:102EC000462B472BA9F01092B1048091C604909133
:102ED000C704A091C804B091C9048093AC04909336
:102EE000AD04A093AE04B093AF0481E090E0DACFDC
:102EF000882399F080915D0290915E02A0915F021B
:102F0000B09160028093AC049093AD04A093AE04A2
:102F1000B093AF0484E090E0C5CF1092B10482E09A
:102F200090E0C0CF8091AC049091AD04A091AE042C
:102F3000B091AF040097A105B10559F00197A1091F
:102F4000B1098093AC049093AD04A093AE04B09308
:102F5000AF048091AC049091AD04A091AE04B09107
:102F6000AF04892B8A2B8B2B09F06ECF80915D02E9
:102F700090915E02A0915F02B0916002892B8A2B32
:102F80008B2B09F44ECF81E08093B104B3CF4091F5
:102F9000AC045091AD046091AE047091AF04411542
:102FA00051056105710561F04150510961097109CF
:102FB0004093AC045093AD046093AE047093AF049F
:102FC0004091AC045091AD046091AE047091AF0497
:102FD000452B462B472B09F037CF8111C7CF9FCF09
:102FE0008091AA04882309F431CF8091AB04CF915A
:102FF0001F910F91FF90EF90DF90CF900895109266
:10300000B5041092B6041092B7041092B80410924E
:10301000B4041092BA041092B9041092B30410923E
:10302000B2041092D4041092D3041092B1041092FE
:10303000B0041092AC041092AD041092AE04109241
:10304000AF041092AB041092AA041092CF04109215
:10305000D0041092D1041092D2041092CE04109297
:10306000CA041092CB041092CC041092CD0488EEC6
:1030700093E0A0E0B0E080935D0290935E02A093A5
:103080005F02B09360021092C6041092C7041092BF
:10309000C8041092C9041092C2041092C304109282
:1030A000C4041092C5041092C1041092C00481E0BF
:1030B00080935C021092BF041092BE041092BD0473
:1030C0001092BC041092BB0490E080E008958091BF
:1030D000BD049091BE04892BE1F480915C028823A9
:1030E00051F08091BF04811106C081E08093AB0450
:1030F0008093AA0408958091BF04882341F08091B1
:103100005C02811104C01092AB0481E0F1CF1092F7
:10311000AA04089582E090E0FA01918380838FEF02
:103120009FEF0895CF93DF93EA01009711F00E947B
:103130002F2B1982188290E080E0DF91CF910895C3
:10314000DB01009719F48FEF8C9308952EEF2C93E9
:10315000FC017096E031F10508F037C08827EC5487
:10316000F74E8F4F0C94223DE318E118DF18DD185D
:10317000DB18D918D518D718D318D118CF18CC18F0
:10318000C818C418CA18E51880E311968C930895DE
:1031900089E2FBCF82E2F9CF11961C92089583E277
:1031A000F4CF81E2F2CF81E1F0CF87E2EECF8AE285
:1031B000ECCF80E1EACF84E2E8CF88E2E6CF86E296
:1031C000E4CF81E3E2CF83E3E0CF80E2DECF809102
:1031D000E1049091E20408959093E2048093E10465
:1031E00008958091E00408959091E004892B8093E4
:1031F000E0040895982F90958091E00489238093AE
:10320000E00408958091DF0408958091DD04909199
:10321000DE0408956115710559F0FB0130E020E0EE
:1032200070E060E02417350719F06115710511F0A1
:10323000CB010895A081B181A817B90709F4BF0196
:103240002F5F3F4F3696EECF8091E30481111CC073
:1032500060D266D29093D6048093D5040E942D2329
:103260000E943F239093DA048093D9040E94BC27E4
:103270000E94C3279093D8048093D70481E0809361
:10328000E30490E080E0089584EF9FEF08958F922B
:103290009F92AF92BF92CF92DF92EF92FF920F93E5
:1032A0001F93CF93DF9300D000D000D01F92CDB7F3
:1032B000DEB71A86198618861F821E821D821C821E
:1032C0001B821A8219828091E30407EF1FEF882383
:1032D00009F49CC08E010D5F1F4F9E012B5F3F4F75
:1032E000AE01495F5F4FBE01675F7F4F90E080E0B6
:1032F0000E9440298C01009721F00596029708F062
:10330000DBC029853A852115310509F402C1ED801C
:10331000FE804B815C81B701640F751F8F8198859A
:103320008617970708F4F5C0E20EF31ED7019C91AB
:10333000903C09F07FC04230510508F47BC01196E3
:103340008C914091E1045091E204452B09F49CC01A
:10335000913F08F071C02CE1290F2D3008F48BC08B
:103360002DE2290F203108F489C0903C21F48150CE
:10337000823008F483C088E3890F8B3008F481C061
:1033800090EAC92E98E1D92EEAE8F8E16D817E81B4
:10339000AE014F5F5F4F89859A8519955C01C11415
:1033A000D104A1F189809A808114910479F18B81F3
:1033B0009C818815990508F487C010E000E04B81D6
:1033C0005C8170E060E0C7010E94573D0115110566
:1033D000E9F449815A8169857A858D819E81680FDA
:1033E000791FC501F6011995E980FA800D811E81CA
:1033F0002F81388549855A856FEF7FEF81E090E016
:103400000E94DB288C01892B09F056C0C8012A963E
:103410000FB6F894DEBF0FBECDBFDF91CF911F91E5
:103420000F91FF90EF90DF90CF90BF90AF909F9063
:103430008F90089580E085CF30E020E0220F331F89
:10344000F901EB52FB4F0190F081E02D309709F428
:1034500097CF892F90E01995009709F491CFDC015F
:103460001296ED91FC9113971496CD90DC903097C5
:1034700009F08CCF1FC021E030E0E0CF22E030E047
:10348000DDCF23E030E0DACFD12CC12CE2E9F8E146
:103490009F3F09F07BCFE091D504F091D60430979F
:1034A00021F4C90104EF1FEF0CC08FEF90E01995D4
:1034B0000097A9F604EF1FEF89859A85009709F414
:1034C000A5CF0E942F2BA2CF0E940A2A8C018985AA
:1034D0009A850E942F2B70E060E0C4010E94A3290E
:1034E00098878F830E94D8289E838D836F817885EB
:1034F0006115710559F0C8010E94BB2C9A87898714
:1035000006EF1FEF892B09F058CF59CF08EF1FEFB7
:1035100056CF08EF1FEFD0CF2091E304222319F0FC
:1035200020E00C94442387EF9FEF08958091E104FD
:103530009091E20408950E94C8270E942227F5D0A6
:10354000E5EDF4E088E0DF011D928A95E9F710923D
:10355000E30490E080E008950C94802521E040E0B1
:1035600050E0BA010C94442386E090E0FA01918384
:10357000808390E080E0089547E050E069E872E0E1
:1035800049CEDF92EF92FF920F931F93CF93DF9379
:103590008A01EC01C60FD71FE090E704F090E80421
:1035A000D9800E94F229D816190678F082E090E0BE
:1035B000F801918380838EEF9FEFDF91CF911F9170
:1035C0000F91FF90EF90DF900895EF2841F482E093
:1035D00090E0F8019183808384EF9FEFEECF8981A3
:1035E0008093E60490E00196F8019183808390E057
:1035F00080E0E3CFCF93DF93EA010E943126882356
:1036000021F00E94FF290E94322682E090E09983F7
:1036100088838BEF9FEFDF91CF910895CF93DF9356
:10362000EB0186E0FB0111928A95E9F78FEF888321
:10363000D8DD8983E7DD8A83E8DD9D838C83DF9194
:10364000CF910895CF93DF93EA010E943426811130
:1036500009C082E090E09983888385EF9FEFDF9136
:10366000CF91089590E080E0B7DD81E090E099830C
:10367000888390E080E0F3CF0F931F93CF93DF9385
:10368000EA018C01060F171F0E94342681110BC01E
:1036900082E090E09983888385EF9FEFDF91CF915F
:1036A0001F910F910895F8018181823038F082E0F6
:1036B00090E0998388838EEF9FEFF0CF81E090E0D8
:1036C0008BDD88E090E09983888390E080E0E6CF0E
:1036D000CF93DF930097D1F4EB01FB01329686E0A4
:1036E000DF011D928A95E9F78FEF888385E0898352
:1036F0001A820E94F2298B830E94F1299D838C8378
:1037000081E08E838F83DF91CF910895DF91CF91F8
:1037100017CD8CEB9AE19093E5048093E40408952F
:103720008091E4049091E50408951092E5041092CC
:10373000E40408958091E7049091E804089541110C
:1037400005C0611571058105910561F06093E7047D
:103750007093E8048093E9049093EA044093EB04A7
:1037600081E0089580E00895FF920F931F93CF9317
:10377000DF938A01EC01C60FD71FF9800E94F2295E
:10378000F816190668F082E090E0F80191838083D2
:103790008EEF9FEFDF91CF911F910F91FF900895D2
:1037A0006C817D818E819F814B81C9DF811108C031
:1037B00082E090E0F8019183808384EF9FEFEACF6D
:1037C00089818093E60490E00196F80191838083DB
:1037D00090E080E0DFCFCF93DF93EA01FC01E60FBA
:1037E000F71F64817581868197814381A8DF8111EC
:1037F00009C082E090E09983888384EF9FEFDF9196
:10380000CF91089581E090E09983888390E080E0F3
:10381000F6CFE7EEF4E04081518162817381480F79
:10382000511D611D711D408351836283738308950F
:10383000CF93C091E6044C2F50E06091E704709163
:10384000E80401960E944E3D8C2FE3DF1092E604BF
:10385000CF910895009799F48091E7049091E8043E
:103860002FEFFB012083892B59F02091E60430E0F3
:103870002F5F3F4F2417350719F4CB01D9CF60CC08
:103880000895009799F48091E7049091E8042FEF50
:10389000FB012083892B59F02091E60430E02F5F53
:1038A0003F4F2417350719F4CB01C2CF49CC0895F7
:1038B00023E1AC01249FC001259F900D1124E091CC
:1038C000F004F091F104E80FF91F238134812250B4
:1038D000310981E02230310508F080E008950F932E
:1038E0001F93CF93DF930091F2041091F304D0E083
:1038F000C0E080E00C171D0749F491E0811190E0D1
:10390000892FDF91CF911F910F9108958111F5CFEC
:10391000CE01CEDF2196EECFA091F004B091F1045C
:10392000109729F12091F2043091F3048217930744
:10393000F0F453E1589F9001599F300D1124A20FCC
:10394000B31FED91FC911197309789F012968C91ED
:10395000681768F48DE0689FE00DF11D11248081E7
:103960009181892B21F081E09281491708F080E054
:1039700008959C0143E1429FC001439F900D112493
:10398000E091F004F091F104E80FF91F8385823093
:1039900091F481E090E065817681409161025091DF
:1039A00062026417750711F490E080E0892B19F02A
:1039B00081E0232B09F080E00895FC01A081B18112
:1039C0008DE0689FA00DB11D112413964D915C915F
:1039D00085859685489F9001499F300D589F300DF1
:1039E0001124C9010196611103C0478144FD049669
:1039F0000895EF92FF920F931F93CF93DF93EA0105
:103A0000FC01E60FF71F02811381E480F5804F2D42
:103A10006E2DC80181DF81110DC082E090E0998395
:103A200088838EEF9FEFDF91CF911F910F91FF90D1
:103A3000EF900895C8013CDF882339F082E090E0E0
:103A40009983888388EF9FEFEECF109368020093ED
:103A50006702E0926902F0926A0281E090E0998345
:103A6000888390E080E0DFCFCF92DF92EF92FF92E9
:103A70000F931F93CF93DF937A01EC01C60FD71FEB
:103A8000C0906702D09068020091690210916A02AA
:103A9000412F602FC60140DF811110C082E090E00D
:103AA000F701918380838AEF9FEFDF91CF911F9180
:103AB0000F91FF90EF90DF90CF900895C601F8DE50
:103AC000882341F082E090E0F7019183808388EFC2
:103AD0009FEFEBCF4C815D816E817F819A818981DF
:103AE0008F3F41F082E090E0F701918380838EEF79
:103AF0009FEFDBCFE3E1EC9D9001ED9D300D1124B4
:103B0000E091F004F091F104E20FF31F0190F081D5
:103B1000E02D2DE0029FE00DF11D11240190F081B8
:103B2000E02D27E0129FE00DF11D11248083918389
:103B30008B81828343835483658376831F5F1093D5
:103B40006A0281E090E0F7019183808390E080E059
:103B5000ACCFEF92FF920F931F93CF93DF937A0135
:103B60008C01060F171FC091F004D091F10420972B
:103B700081F021E030E0F801828193814091F204EC
:103B80005091F3048417950710F030E020E0232BC8
:103B900071F482E090E0F701918380838EEF9FEFD4
:103BA000DF91CF911F910F91FF90EF90089543E126
:103BB000489F9001499F300D1124C20FD31F78DE1A
:103BC000882341F082E090E0F7019183808388EFC1
:103BD0009FEFE6CFF8012481358120383105C8F602
:103BE00087818111D6CF4181842F90E08F7E00970D
:103BF00041F082E090E0F7019183808386EF9FEFB0
:103C0000CFCF4F833E832D8326812887198622308C
:103C100010F421E0288721E030E0F7013183208390
:103C2000BFCF88E090E0FA019183808390E080E04C
:103C30000895FB018FEF808381E181838FEF9FEFF8
:103C40009383828380E890E0958384831682178231
:103C50000895FB018FEF808391E0918382839383AA
:103C6000848384E3858381E090E09783868308954D
:103C700082E090E0FA019183808380EF9FEF0895C6
:103C8000DF92EF92FF920F931F93CF93DF93EA019E
:103C9000FC01E60FF71F8181813071F082E090E036
:103CA000998388838FEF9FEFDF91CF911F910F91C1
:103CB000FF90EF90DF90089582819381D4802581D9
:103CC000E680F7800091F0041091F10401151105D0
:103CD00039F482E090E0998388838CEF9FEFE4CF02
:103CE0004091F2045091F3048417950738F082E074
:103CF00090E0998388838EEF9FEFD6CF892B39F0A0
:103D000082E090E09983888386EF9FEFCDCF8D2D61
:103D10008D7FB1F72130A1F781E0D11006C091E08D
:103D2000E916F10431F080E004C0E2E0EE16F1049F
:103D3000D0F3882329F390E080E0BADD882339F0BE
:103D400082E090E09983888388EF9FEFADCFF80100
:103D5000D38681E08487F686E586108A178681E01F
:103D600090E09983888390E080E09ECF4DE050E022
:103D700063EB72E04FCA8F929F92BF92CF92DF9215
:103D8000EF92FF920F931F93CF93DF93EA01FC0111
:103D9000E60FF71F828193810481B580E091F004E2
:103DA000F091F104309791F482E090E09983888358
:103DB0008CEF9FEFDF91CF911F910F91FF90EF90CC
:103DC000DF90CF90BF909F908F9008952091F20444
:103DD0003091F3048217930738F082E090E09983E2
:103DE00088838EEF9FEFE6CF23E1289F6001299F14
:103DF000D00C1124EC0DFD1DE080F180E114F104E4
:103E000099F28281081748F78DE0089F80011124FC
:103E1000E00EF11EF70180819181892B29F6BB20EC
:103E2000E1F2F7E0BF9E40011124C4010E94F62A8E
:103E3000F70191838083E091F004F091F104EC0D9F
:103E4000FD1D0190F081E02DE00FF11F8081918137
:103E5000009739F482E090E0998388838DEF9FEF9B
:103E6000A9CFA40170E060E00E94573D8091F0046A
:103E70009091F104C80ED91EF60180819181080F3E
:103E8000191FF801B28281E090E09983888390E065
:103E900080E090CFAF92BF92CF92DF92FF920F93CC
:103EA0001F93CF93DF93EA01FC01E60FF71F828196
:103EB0009381F4800091F0041091F1040115110533
:103EC00081F482E090E0998388838CEF9FEFDF910B
:103ED000CF911F910F91FF90DF90CF90BF90AF9047
:103EE00008952091F2043091F3048217930738F07B
:103EF00082E090E0998388838EEF9FEFE8CF2FEFE9
:103F00002F0D2C3FA8F723E1289F6001299FD00C9B
:103F100011240C0D1D1DF80180819181892B89F6DA
:103F2000FDE0FF9E50011124C5010E94F62AF80110
:103F300091838083E091F004F091F104EC0DFD1D7C
:103F400080819181009739F482E090E099838883A1
:103F50008DEF9FEFBCCFA50170E060E00E94573D60
:103F6000E091F004F091F104EC0DFD1DF28281E08E
:103F700090E09983888390E080E0A9CFCF92DF9290
:103F8000EF92FF920F931F93CF93DF93860F971FAC
:103F9000FC01028113818091F0049091F104892B3E
:103FA00081F082E090E0FA01918380838CEF9FEFB3
:103FB000DF91CF911F910F91FF90EF90DF90CF9005
:103FC0000895C801B0E0A0E00197A109B1098F3FB1
:103FD0009F4FA105B10540F082E090E0FA01918386
:103FE00080838EEF9FEFE4CF7A0183E1809F6001B1
:103FF000819FD00C1124C6010E94F62AEC01009783
:1040000041F482E090E0F701918380838DEF9FEF90
:10401000CFCFA60170E060E00E94573DD093F1043D
:10402000C093F0041093F3040093F20490E080E056
:104030002FEF3FEF41E061E070E08017910741F41E
:1040400081E090E0F7019183808390E080E0B0CF41
:104050003A8B298B1B864C877E876D87188A1F8633
:1040600001966396EACFEF92FF921F93CF93DF936F
:10407000EC0110E0F12CE12C6A811617B0F083E01E
:10408000689FB0011124AE014F5E5F4FC7010E94CF
:104090005B2B009721F02FEF3FEF3A8B298BDF91BD
:1040A000CF911F91FF90EF900895612FCE0185DC95
:1040B00061E070E00E94A329E816F90608F47C018B
:1040C0001F5FDACFF8942091EE043091EF0481E085
:1040D0002115310509F080E0232B09F0789408952B
:1040E0002F923F924F925F926F927F928F929F9208
:1040F000AF92BF92CF92DF92EF92FF920F931F93F6
:10410000CF93DF933C01660E771EF301828193818A
:104110004C01B12CA12CC091F004D091F104209756
:1041200069F021E030E06091F2047091F3048617A9
:10413000970710F030E020E0232BD1F482E090E0EC
:10414000FA01918380838EEF9FEFDF91CF911F91D2
:104150000F91FF90EF90DF90CF90BF90AF909F9026
:104160008F907F906F905F904F903F902F90089529
:1041700080926B0290926C02A0926D02B0926E02DD
:1041800063E1689F9001699F300D1124C20FD31F16
:10419000F3018181833040F082E090E0FA01918365
:1041A000808386EF9FEFD1CF2A012B813C81232B87
:1041B000F1F4288139819F8191FF2EC0232B09F4CE
:1041C0006FC02091F5049A81422F490F5527551F42
:1041D000BA0141E050E06138710514F050E040E070
:1041E000452B09F45DC02A87920F9093F504815006
:1041F000823008F481C066DF882309F4D8C0F30157
:104200008181813009F48DC008F47BC0823009F4CB
:10421000C6C090E080E0ADC0232B09F441C02091DE
:10422000F4049A81E22FE90FFF27FF1F41E050E0DD
:10423000ED3FF10514F050E040E0452B89F12A876D
:10424000920F9093F404D3CFA081B181A20FB31F3A
:1042500011966C91060F111D0196295F3F4F84172F
:10426000950794F38D859E85089F1001099F300C5A
:10427000189F300C1124C114D104D1F48F8184FF14
:1042800017C00E94F129F5E02F0E311C21E08215A4
:10429000930508F420E0A701435F5F4F21110EC092
:1042A00082E090E0F2019183808387EF9FEF4DCF12
:1042B0000E94F1292FEF221A320AE8CF88819981D2
:1042C000E80EF91EF70114830383FFEFCF1ADF0A0C
:1042D0007A018A818C151D0409F00CF48CCFE881D9
:1042E000F981EE0DFF1D428150E030E020E010E04A
:1042F00000E090E080E0B3CFF12CE12CD12CC12C78
:10430000E8CF81E090E09C838B83E9DA882309F48D
:1043100080CF81E090E00E94EC1880E40E94FA18BF
:1043200078CF89899A89019661F083E090E09C8337
:104330008B8382E090E00E94EC1880E40E94F418E5
:1043400068CF8D819E812091610230916202821737
:104350009307D1F46091650270916602AE014F5EE1
:104360005F4F80916302909164020E947A2C0097C3
:10437000E1F2789422E030E0F20131832083892B4E
:1043800099F08DEF9FEFE1CE89288A288B2869F676
:10439000039758F6CE0167DE188A1F86E8CF82E0C1
:1043A00090E09C838B8335CF90E080E0CECE82E09E
:1043B00090E0F2019183808385EF9FEFC6CE8F92CC
:1043C0009F92AF92BF92CF92DF92EF92FF920F93A4
:1043D0001F93CF93DF93EA018C01060F171FF8019B
:1043E0008181833098F082E090E09983888386EF22
:1043F0009FEFDF91CF911F910F91FF90EF90DF9092
:10440000CF90BF90AF909F908F9008958091F004CF
:104410009091F104892B61F081E090E02091F20409
:104420003091F304232B11F490E080E0892B39F4D0
:1044300082E090E0998388838EEF9FEFDACF42DEAF
:10444000882309F4E0C0F8018181813009F496C025
:10445000E8F0823099F42091F2043091F304E09175
:10446000F004F091F10490E080E041E050E0281782
:10447000390709F0BEC033DA811117C0789481E0A2
:1044800090E09983888390E080E0B3CF2091F2049C
:104490003091F304E091F004F091F10490E080E0B9
:1044A00041E050E02817390741F481E090E00E9494
:1044B000EC1880E40E94FA18E1CF63817481672BC5
:1044C00011F05483438301967396ECCFE091F0048E
:1044D000F091F104E00FF11F238134812230310586
:1044E000D9F4218932892F3F3F4FB1F4258136819C
:1044F00040916102509162022417350761F5AF01C6
:104500004F5E5F4F60916502709166028091630219
:10451000909164020E947A2CEFEFCE1ADE0AEE0A26
:10452000FE0A0D5E1F4F4091F2045091F30470E0BB
:1045300060E0C416D506E606F70644F5009731F2AA
:104540007894892B09F49BCF82E090E0998388834B
:104550008DEF9FEF4ECFC114D104E104F104E1F6D9
:1045600023303105C8F6CF017EDDE091F004F091F3
:10457000F104E00FF11F108A1786CECF10E000E0A3
:1045800090E080E0C12CD12C7601CDCF0097C1F610
:1045900010E000E0812C912C540183E0E82EF12CF6
:1045A0001AC0E091F004F091F104E00FF11F838153
:1045B0009481029749F4F482E38282E090E00E94C1
:1045C000EC1880E40E94F418FFEF8F1A9F0AAF0ADC
:1045D000BF0A0D5E1F4F8091F2049091F304B0E08A
:1045E000A0E088169906AA06BB06DCF290E080E0FF
:1045F000A7CF638174816230710511F454834383C2
:104600000196739634CF82E090E09983888385EF9A
:104610009FEFEFCE0097B9F48FEFFB0180832091DD
:104620006B0230916C0243E1429FC001439F900DA9
:104630001124E091F004F091F104E80FF91F828554
:10464000FB01818308950C94A01888E090E0FA01A2
:104650009183808390E080E008951092EF0410929F
:10466000EE04E0EFF4E086E0DF011D928A95E9F7C1
:1046700086EB9EE19093ED048093EC040895809185
:10468000EC049091ED0408952F923F924F925F9227
:104690006F927F928F929F92AF92BF92CF92DF9252
:1046A000EF92FF920F931F93CF93DF93CDB7DEB7B7
:1046B0002F970FB6F894DEBF0FBECDBFF894E091F0
:1046C000EE04F091EF043196F093EF04E093EE04E2
:1046D00078944090F0045090F1044114510409F48E
:1046E0000CC2E091F204F091F304EF2B09F405C23F
:1046F0002D8749875A876B877C8798878F8312011C
:10470000B12CA12C10E000E08091F2049091F30410
:10471000A816B90618F40115110529F1F89480912D
:10472000EE049091EF0401979093EF048093EE04D0
:104730007894C8012F960FB6F894DEBF0FBECDBF98
:10474000DF91CF911F910F91FF90EF90DF90CF906D
:10475000BF90AF909F908F907F906F905F904F90A1
:104760003F902F9008957101E418F508D101179634
:104770008C91179781FD54C013968D919C9114973D
:10478000039709F04DC015968D919C91EF81F885A6
:104790008E179F0709F044C0B50190E080E07FD4F8
:1047A0008A832091F0043091F1043D832C833D8570
:1047B000332309F44CC04C815D81452B09F49AC127
:1047C0008091F2049091F304A816B90608F092C102
:1047D000C501CFD88823E9F06C817D816E0D7F1DE6
:1047E0007D836C83DB011F968D919C91892B89F0D1
:1047F000D12CC12CF12CE12CAC81BD8112968C9175
:1048000012978E151F0409F094F450961C921E9274
:104810001F972A81222321F0B50190E080E041D446
:104820003FEFA31AB30A43E1240E311C6DCFAC81D4
:10483000BD81ED91FC91EC0DFD1D858196810FD719
:10484000BFEFEB1AFB0AEDE0CE0ED11CD5CFEC8109
:10485000FD81309709F44EC18091F2049091F304E8
:10486000A816B90608F046C1EE0DFF1DFF87EE87BA
:10487000C5017FD88B83882339F1AE85BF851F960C
:104880008D919C915097019621E01D964D915C91E0
:104890008417950709F020E02E831982712C10E00F
:1048A00000E0AE85BF8512968C91781608F45DC045
:1048B000EE85FF85878590890196658576850E94BE
:1048C000D93C908B8787A5CFB1E0BE83E6CF9924F2
:1048D00093946BC08BD6F6019683858382C0D601F4
:1048E000ED90FC90B7E06B9EE00CF11C1124F701F9
:1048F0006381748180818F3F61F121E030E002C0EB
:10490000220F331F8A95E2F7C901092E000CAA0B6A
:10491000BB0BFB014081518162817381842395230C
:10492000A623B72321E0892B8A2B8B2B09F420E0C7
:10493000D4012C93D70111968C91F60123853485EF
:10494000820F932F911D880E991E148613866394EF
:104950009BC0418150E0C4010E944E3DEBCF998243
:1049600006EF1FEFC5C01982C3C0F981F111A0CFB6
:10497000EDE07E9E70011124AE85BF85CD90DC9068
:10498000CE0CDF1C15D49D838C83BB81BB2309F423
:104990009ECF81E0EE85FF8527853089232B09F0A6
:1049A00080E0982E882309F458C0672D8E859F8556
:1049B00004D8D60118969C938E93179761E070E007
:1049C000C2D4EE85FF85218932892F3F320709F451
:1049D00081CFBC01C901CFD7D60116969C938E9387
:1049E0001597D60115968D919C911697009709F40D
:1049F000B6CFEC81FD818E0F9F1F1A969C938E93EC
:104A00001997AE85BF85ED91FC911197EE0EFF1EB3
:104A1000F70121853285148613861A968C91870DAD
:104A2000D9018D93711016C0EE85FF85878184FFB3
:104A300011C049855A856B857C85F9014183528374
:104A400063837483F701838594850496A80FB91F47
:104A500014861386F701B287A187D60115968D912A
:104A60009C911697892B09F443C0EE85FF8525811B
:104A7000368180916102909162022817390779F09E
:104A800019968D909C90612CD60112968C9112975C
:104A9000681608F424CF1A969C928E921997BE81BC
:104AA000BB2309F460CF61E070E0F6018781908557
:104AB0004AD4D6011796ED90FC90189715964D9113
:104AC0005C91E1E0F0E0BA81BB2311F0F0E0E0E0BE
:104AD0000C811D819C01B501882799278E1B9F0B96
:104AE0006AD38C01892B21F0F60185819681B7D597
:104AF0007394D7CE0FEF1FEF8CCE10E000E00ECEF8
:104B00002F923F924F925F926F927F928F929F92DD
:104B1000AF92BF92CF92DF92EF92FF920F931F93CB
:104B2000CF93DF938091F0049091F10410E000E0C6
:104B3000892BA9F0C7DA0AEF1FEF882381F02090B4
:104B4000F2043090F304C091F004D091F104D12C20
:104B5000C12C10E000E02C143D04A9F47894C801A5
:104B6000DF91CF911F910F91FF90EF90DF90CF9049
:104B7000BF90AF909F908F907F906F905F904F907D
:104B80003F902F900895C6010E94B91C882309F117
:104B90008B819C810397E9F48F859889892BC9F0D3
:104BA000B60190E080E07BD221E030E0882311F074
:104BB00030E020E044245524421A530AB12CA12CA1
:104BC000912C812C8A818815190409F038F4188AEF
:104BD0001F864FEFC41AD40A6396BDCFE881F981CE
:104BE000EA0DFB1D85819681892BA1F161E070E0C2
:104BF00087819085A8D33C01DBD28C01E881F981C3
:104C0000EA0DFB1D8185928525813681200F311F9C
:104C1000AC01421B530B9A0147815085421B530B39
:104C200070E060E00E94573DE881F981EA0DFB1DCC
:104C3000E780F084458156819301B601C201BBD261
:104C40008C01892B39F0E881F981EA0DFB1D858102
:104C5000968105D55FEF851A950A8DE0A80EB11CE7
:104C6000B1CF30CA789408952F923F924F925F92BD
:104C70006F927F929F92AF92BF92CF92DF92EF920C
:104C8000FF920F931F93CF93DF9300D000D0CDB747
:104C9000DEB70091F0041091F1049924939401156A
:104CA000110509F43EC0A090F204B090F3040ADAB2
:104CB000982E8823B1F11092F1041092F004109212
:104CC000F3041092F2041092F4041092F5048FEFA2
:104CD0009FEFDC0180936B0290936C02A0936D02B6
:104CE000B0936E0278947FD31E830D83C12CD12C98
:104CF0007601C501B0E0A0E089839A83AB83BC83D1
:104D000022242A94322C89819A81AB81BC81C816D5
:104D1000D906EA06FB06F4F0C801A1D480E40E949B
:104D2000FA18892D26960FB6F894DEBF0FBECDBFB8
:104D3000DF91CF911F910F91FF90EF90DF90CF9077
:104D4000BF90AF909F907F906F905F904F903F90FB
:104D50002F900895AD81BE8115968D919C911697E7
:104D6000209161023091620282179307D1F451962B
:104D70008D919C91EED5ED81FE8180819181B12C48
:104D8000A12C412C512C3201892B89F5BFEFCB1A74
:104D9000DB0AEB0AFB0AED81FE817396FE83ED834D
:104DA000B2CFC114D104E104F10429F7039718F735
:104DB000ED81FE81818992898F3F980709F029D57D
:104DC000AD81BE8152963C922E925197D4CF8A0DDE
:104DD0009B1DDC018D919C91009709F040D4BFEFA1
:104DE0004B1A5B0A6B0A7B0AEDE0AE0EB11CAD817B
:104DF000BE818D919C91119712964C9150E070E07C
:104E000060E044165506660677060CF328D4BECF3C
:104E1000CF93DF93EA0128DF811109C082E090E09F
:104E20009983888385EF9FEFDF91CF91089581E08B
:104E300090E00E94EC1881E090E09983888390E0F4
:104E400080E0F2CF11DF1092ED041092EC0408958F
:104E500042E050E061E073E00C940A19FF920F9376
:104E60001F93CF93DF938A01EC01C60FD71FF98000
:104E7000B9D20897F816190671F068F082E090E050
:104E8000F801918380838EEF9FEFDF91CF911F9187
:104E90000F91FF9008956C817D818E819F814B8160
:104EA0000E949F1B811108C082E090E0F80191836D
:104EB000808384EF9FEFE9CFF9800E949A1B4F2DEA
:104EC00050E0BE01685F7F4F0E944E3D89810E9485
:104ED000091C81E090E0F8019183808390E080E0FC
:104EE000D4CFDF92EF92FF920F931F93CF93DF9374
:104EF0008A01EC01C60FD71F0E949A1B7C01D98042
:104F000071D2DD2059F0029721E030E0D816190661
:104F100019F010F030E020E0232B79F482E090E0EB
:104F2000F801918380838EEF9FEFDF91CF911F91E6
:104F30000F91FF90EF90DF900895EF2841F482E009
:104F400090E0F8019183808384EF9FEFEECFF980AA
:104F50000E949A1B4F2D50E0BE016E5F7F4F0E9452
:104F60004E3D89810E94091C81E090E0F801918307
:104F7000808390E080E0D9CF88E297E29093F704B5
:104F80008093F60408958091F6049091F7040895B3
:104F90000895FC0111821082938382830895DB01BE
:104FA0001D921C92DC011296ED91FC911397718376
:104FB000608313967C936E9312970895FC01808111
:104FC0009181DB018D939C93A081B181109741F079
:104FD0008D919C9191838083892B11F4F383E283DB
:104FE0000895FC0180819181DB018D939C93892B35
:104FF00011F473836283718360830895FC011182CD
:105000001082938382830895CF93DF931F921F9220
:10501000CDB7DEB71A821982F894BE016F5F7F4F59
:105020008DEF94E0CBDF89819A81009709F017D347
:1050300089819A81892B89F7BE016F5F7F4F81E05B
:1050400095E0BCDF89819A81009709F008D38981B6
:105050009A81892B89F778940F900F90DF91CF91E7
:105060000895CF93DF931F921F92CDB7DEB71A82B8
:105070001982F894BE016F5F7F4F89EF94E09EDF45
:1050800089819A81009709F0EAD289819A81892BD6
:1050900089F778940F900F90DF91CF91089581E078
:1050A000089590E080E00895EF92FF920F931F9390
:1050B000CF93DF931F921F92CDB7DEB71A8219826A
:1050C0008091F80407EF1FEF8823A1F1F894BE0147
:1050D0006F5F7F4F81E095E071DF789489819A81DD
:1050E000EE24E394F12C892B51F4F894BE016F5F08
:1050F0007F4F8DEF94E062DF7894F12CE12C898171
:105100009A810EEF1FEF0097A9F0FC0142815381B5
:1051100064E070E076D68C01892B61F0F8946981A7
:105120007A81C701880F991F880F991F83509B4F61
:1051300058DF7894C8010F900F90DF91CF911F91A5
:105140000F91FF90EF9008950F931F93CF93DF93EC
:1051500000D01F92CDB7DEB71C821B821A82198243
:105160008091F80407EF1FEF8823C1F0AE014D5F77
:105170005F4F64E070E0CE010196B6D68C01892BBA
:1051800069F4E981FA818B819C8193838283F8940D
:1051900069817A8189EF94E002DF7894C8010F90E9
:1051A0000F900F900F90DF91CF911F910F91089565
:1051B000BBD7049608958F929F92AF92BF92CF92E1
:1051C000DF92EF92FF920F931F93CF93DF931F9283
:1051D0001F92CDB7DEB71A821982BC016F5F7F4F75
:1051E0006330710598F0AA24AA94BA2CC5010F90D7
:1051F0000F90DF91CF911F910F91FF90EF90DF9073
:10520000CF90BF90AF909F908F900895411551051A
:1052100051F3480159018A016C01CADF88159905CB
:1052200011F7E114F104F9F28E0D9F1DA816B906CD
:10523000D0F28091F8048823F1F0F894B50164501D
:1052400071099701AE014F5F5F4FC8010496E1D627
:105250005C01892B71F489819A81F801938382839F
:10526000C601880F991F880F991FB80183509B4F63
:1052700096DE7894BBCF87EFA82EBB24BA94B6CF26
:10528000AF92BF92CF92DF92EF92FF920F931F9354
:10529000CF93DF931F921F92CDB7DEB71A82198288
:1052A000892B09F047C06115710509F443C0411508
:1052B000510509F43FC02115310509F43BC0011522
:1052C0001105C1F18091F8048823B9F179016A01CF
:1052D0005B01F894BE016F5F7F4F89EF94E06EDE53
:1052E000789489819A81009759F1DC0112966D9129
:1052F0007C91A8010496A6D68C01E981FA81D5019A
:10530000ED93FC93828193810496F60191838083CF
:105310004FDFD7018D939C93C8010F900F90DF91C1
:10532000CF911F910F91FF90EF90DF90CF90BF90A2
:10533000AF9008950FEF1FEFEFCF07EF1FEFECCF08
:105340000EEF1FEFE9CFCF93DF93EC01672B71F4E2
:10535000F4D68C179D0760F0E7D62496C80FD91FA6
:10536000E6D68C0F9D1FDF91CF910895E3D6F1CF44
:1053700090E080E0F8CF0F931F93CF93DF932091BD
:10538000F80421112BC08B01EC018DEF94E001DEBC
:1053900081E095E0FEDD89EF94E0FBDD97D000979A
:1053A000C1F4CBD670E060E0CEDF4FE652E062E0C1
:1053B00070E081D1009769F480916F029091700242
:1053C000CED6B801CE0103D5009719F421E0209381
:1053D000F804DF91CF911F910F91089584EF9FEF13
:1053E000F8CFA8C6AAC6CF93DF93AAD6EC01892B23
:1053F00011F40ADE36DECE01DF91CF910895CF930E
:10540000DF939ED6EC01892B09F4FEDDCE01DF91FE
:10541000CF91089580916F02909170020895CF937B
:10542000DF938091F804D0E0C0E08823D1F09CD6CF
:10543000EC01892BB1F4E8DD14DE80916F029091CC
:105440007002E7D1E8D2EC01892B59F48DEF94E09A
:10545000D5DD81E095E0D2DD89EF94E0CFDD1092DB
:10546000F804CE01DF91CF910895EF92FF920F9350
:105470001F93CF93DF93EC017A018B010F5F1F4FD6
:105480000E9DA0010F9D500D1E9D500D112470E02A
:1054900060E00E94573D90E080E0F0E0E0E02FEF18
:1054A000E816F90639F4DF91CF911F910F91FF9023
:1054B000EF9008951A8219822883309711F0D283D1
:1054C000C1830196FE01C00FD11FEACFCF92DF92B8
:1054D000EF92FF920F931F93CF93DF9300E017E0BB
:1054E0000C7F43E050E061E772E087E792E01CD474
:1054F00081E7E82E82E0F82E97E7C92E92E0D92EB8
:10550000CFEDD7E0D7014D915D917D01F60161911D
:1055100071916F01198308835D834C835B834A8398
:105520007F836E839B012F5F3F4F249FC001259F88
:10553000900D349F900D11249987888701151105CE
:1055400011F0C80192DF88859985080F191F2A96E6
:10555000F7E7EF16F2E0FF06A9F6E7E0F5E086EFE1
:1055600091E0DF019C011D9221503040E1F7109243
:105570000605109205051092FE071092FD07109285
:10558000020810920108109200081092FF07109272
:105590000408109203081092060810920508109251
:1055A00008081092070810920C0810920B0810922D
:1055B0000A081092090810920E0810920D08109215
:1055C000100810920F081092DC071092DB0710925F
:1055D000DE071092DD0790E080E0DF91CF911F9110
:1055E0000F91FF90EF90DF90CF9008950097F1F02A
:1055F000F894A7E7B2E0EFEDF7E030E020E04D915E
:105600005D9148175907A8F0428153814115510512
:1056100081F08AE0829FF001839FF00D1124E15216
:10562000F84F80819181009759F4789490E080E060
:1056300008952F5F3F4F3A962330310501F7F5CF9C
:10564000DC0111966D917C91718360834150510909
:1056500053834283FC012193CF01789408950097EE
:1056600049F1DC018E91853041F4E091DD07F09144
:10567000DE073097F9F0CD0119948530D8F4282F42
:1056800030E0F8948FEF8C938AE0829FF001839F43
:10569000F00D1124E152F84F8081918112969C9374
:1056A0008E931197B183A083828193810196938316
:1056B000828378940895CF92DF92EF92FF920F93B6
:1056C0001F93CF93DF939C018AE095E08C7F411577
:1056D000510509F49BC02115310509F497C06115E6
:1056E000710509F493C07A01AB01B9016D5F7F4F79
:1056F0006C7F9B012F5F3F4F249F8001259F100DE2
:10570000349F100D1124F8942091FD073091FE076D
:10571000232B59F4209105083091060821153105F5
:1057200069F12017310708F058C02091070830911F
:105730000808232B91F42091050830910608820F68
:10574000931F20910F08309110082115310509F49D
:1057500041C02017310708F056C07894CFEFDFEF33
:1057600086EF9FEFF701D183C083DF91CF911F9127
:105770000F91FF90EF90DF90CF900895C3E0D0E0BD
:10578000C0900505D090060523EF31E02C193D09A6
:105790002017310710F32AE02C9FF0012D9FF00D08
:1057A0001124E152F84F91838083558344835383BE
:1057B00042837783668311870087009709F055DE5F
:1057C0000C0D1D1D1093060500930505789490E0BF
:1057D00080E0C8CFC4E0D0E0D3CFC3E0D0E02AE07F
:1057E0002C9FF0012D9FF00D1124E152F84F918371
:1057F00080835583448353834283778366830097F2
:1058000029F333DEE3CFC4E0D0E0E9CF8FEF9FEFA1
:10581000ACCF9C010397029708F069C0F89484E02C
:105820009AE0482F50E0241735070CF44DC091E062
:105830008AE0829FF001839FF00D1124E152F84F1E
:1058400011821082158214821382128217821682AC
:105850009923B1F18091FD079091FE07892BA9F45E
:1058600020910508309106082115310571F08091CD
:10587000050590910605821B930B90930605809376
:10588000050510920608109205088091070890916E
:105890000808892BA9F420910F08309110082115D0
:1058A000310571F08091050590910605821B930BDF
:1058B00090930605809305051092100810920F082A
:1058C000789490E080E00895949FF001959FF00D0A
:1058D0001124E152F84F40815181452B31F440852C
:1058E0005185452B11F481509CCF90E0A1CF8FEFD3
:1058F0009FEF08954115510549F1009739F1611560
:10590000710521F1F8942091DB073091DC07232BFE
:10591000B9F42091DD073091DE07232B89F49093B1
:10592000DC078093DB077093DE076093DD077894D4
:1059300025E030E090E080E0FA0131832083089593
:1059400078942FEF3FEF86EF9FEFF6CF8FEF9FEF2B
:105950000895059769F4F8941092DC071092DB071C
:105960001092DE071092DD07789490E080E00895B1
:105970008FEF9FEF08956115710519F4F0E0E0E0F5
:1059800011C08530910581F4E091DB07F091DC07CF
:105990003097A1F3CB0101961995009779F3FC019B
:1059A00085E08193CF0108959C0123503109223075
:1059B000310520F72AE0289FD001299FB00D11243E
:1059C000A152B84F2D913C911197232BB9F2169605
:1059D0002D913C9117972617370780F2F89412966D
:1059E0002D913C9113972115310529F0ED91FC91F2
:1059F0001197309711F47894C1CF4181528111965B
:105A00005C934E932150310913963C932E93129739
:105A100081937894C7CFEDEFF6E08EEDDF011D9214
:105A20008A95E9F7E7E0F5E086EF91E0DF019C0178
:105A30001D9221503040E1F71092060510920505A5
:105A4000EFEDF7E082E3DF011D928A95E9F7EBEDD8
:105A5000F7E084E0DF011D928A95E9F790E080E0AD
:105A60000895CF93DF93C0917D02D0917E02CF3F06
:105A7000DC0759F45ED490937E0280937D0297FFF9
:105A800009C0D0937E02C0937D0284EF9FEFDF9127
:105A9000CF91089590E080E0FACF8230910528F40C
:105AA0008093110890E080E008958FEF9FEF0895B4
:105AB0004F925F926F927F92AF92BF92CF92DF929E
:105AC000EF92FF920F931F93CF93DF931F921F923A
:105AD000CDB7DEB71A821982009709F479C0611533
