:1000000075C00000A4C00000A2C00000A0C0000095
:100010009EC000009CC000009AC0000098C0000074
:1000200096C0000094C0000092C0000090C0000084
:100030008EC000008CC000008AC0000088C0000094
:1000400086C0000084C0000082C0000080C00000A4
:100050007EC000007CC000007AC000000C94CE3648
:1000600076C000000C940B390C94413970C000002C
:100070006EC000006CC000006AC0000068C00000D4
:1000800066C0000064C0000062C0000060C00000E4
:100090000C9497390C94CD395AC0000058C0000018
:1000A00056C0000054C0000052C0000050C0000004
:1000B0004EC000004CC000004AC0000048C0000014
:1000C00046C0000044C000000C94CF310C94233A89
:1000D0000C94593A3CC000000C94AF3A0C94E53AA9
:1000E00036C000006A39F639823A0E3B11241FBE31
:1000F000CFEFD1E2DEBFCDBF00E00CBF13E0A0E048
:10010000B2E0E6E6FCE700E00BBF02C007900D920C
:10011000AE33B107D9F72CE0AEE3B3E001C01D92D6
:10012000A030B207E1F710E0C6E7D0E000E006C07B
:1001300021970109802FFE010E94FB3DC237D107A4
:1001400080E00807A9F70E946E330C94313E58CF27
:10015000AB01BC0188E998E00C949C3DAB01BC016B
:1001600085E399E00C949C3DAB01BC0182ED99E0E4
:100170000C949C3DAB01BC018FE69AE00C949C3D35
:100180008F929F92AF92BF92CF92DF92EF92FF92A7
:100190000F931F93CF93DF93CDB7DEB77B014A0157
:1001A0005901CDB6DEB69B01220F331F4DB75EB7A6
:1001B000421B530B0FB6F8945EBF0FBE4DBF0DB779
:1001C0001EB70F5F1F4FE82FF0E0EE0FFF1FE05F3D
:1001D000FD4F0190F081E02DC8011995F801D4017F
:1001E000E00EF11EEE15FF0519F081918D93FACF07
:1001F00081E0F50180830FB6F894DEBE0FBECDBE60
:10020000DF91CF911F910F91FF90EF90DF90CF90F2
:10021000BF90AF909F908F9008952F923F924F92F2
:100220005F926F927F928F929F92AF92BF92CF9286
:10023000DF92EF92FF920F931F93CF93DF9300D043
:1002400000D000D01F92CDB7DEB7682E7A876987BD
:10025000742EB52E3C832B8348012A2C312C4E2C36
:10026000512C81E090E0012B11F490E080E0849D1E
:100270009001859D300D949D300D112449855A853E
:10028000420F531F5A834983062D10E0000F111FA0
:10029000F801E050FE4F0190F081E02D199541E00A
:1002A00050E0C114D10411F450E040E0429D9001AF
:1002B000439D300D529D300D1124A981BA812A0F22
:1002C0003B1F821793075CF5E72DFB2D29853A85A7
:1002D0002E0F3F1F3A83298349815A81E417F5077E
:1002E00011F01192F9CFAB81BC811C922A960FB606
:1002F000F894DEBF0FBECDBFDF91CF911F910F915C
:10030000FF90EF90DF90CF90BF90AF909F908F9035
:100310007F906F905F904F903F902F900895C11401
:10032000D10409F441C0F12CE12CF801E050FE4F5A
:10033000FE83ED839801285F3D4F38872F83AD8181
:10034000BE81ED91FC91E214F30474F51995892BAB
:1003500081F4E72DFB2D29853A852E0F3F1F3A8327
:10036000298349815A81E417F50709F4BCCF11921A
:10037000F8CFAF81B885ED91FC911995F601EE0D9E
:10038000FF1D9081981761F021E030E0F601908127
:10039000981302C030E020E0EE24FF24E21AF30AB2
:1003A000FFEFEF1AFF0ACBCF980120503E4F6901B3
:1003B000D901ED91FC911995E981FA818E179F077A
:1003C00084F4E72DFB2D29853A852E0F3F1F3A83B4
:1003D000298349815A81E417F50709F484CF1192E2
:1003E000F8CF2B813C81472D5B2D69857A85862D41
:1003F000C7DE8114910409F479CF7401085F1D4FA1
:10040000C70188199909841595050CF06FCFD6019D
:10041000ED91FC911995892B81F4E72DFB2D298510
:100420003A852E0F3F1F3A83298349815A81E41769
:10043000F50709F458CF1192F8CFD801ED91FC914E
:100440001995F70191917F019817D1F2E72DFB2DB6
:1004500029853A852E0F3F1F3A83298349815A8186
:10046000E417F50709F43FCF1192F8CF88E998E037
:100470000C94FB3785E399E00C94FB3782ED99E00F
:100480000C94FB378FE69AE00C94FB3788E998E0F0
:100490000C94E13785E399E00C94E13782ED99E023
:1004A0000C94E1378FE69AE00C94E137882311F140
:1004B000823071F08330A9F08130E1F426E030E041
:1004C00040E052EC61E070E081E090E00C947A3121
:1004D00026E030E040E052EC61E070E082E090E045
:1004E000F5CF26E030E040E052EC61E070E083E0E0
:1004F00090E0ECCF08952F923F924F925F926F92CF
:100500007F928F929F92AF92BF92CF92DF92EF92A3
:10051000FF920F931F93CF93DF931F92CDB7DEB758
:100520002B013A01D02EE9829C2DCA2CF401EF88D0
:10053000F88C998C6A8D7B8D4C8D843008F0EBC1E2
:10054000823051F0833009F456C0813049F435E3EC
:10055000232E39E0332E04C0A2ED2A2EA9E03A2E34
:1005600030E02830310511F424E030E0269D5001C0
:10057000279DB00C369DB00C11240AE010E09923A1
:1005800051F000E110E0913031F008E010E09230DD
:1005900011F002E010E08111E1C0D11031C061150D
:1005A000710529F050E088E998E00E943B3BA501E5
:1005B000B20188E998E00E943B3BE114F10409F4A0
:1005C000AAC1492D50E0B70188E998E00F90DF916A
:1005D000CF911F910F91FF90EF90DF90CF90BF9040
:1005E000AF909F908F907F906F905F904F903F90D3
:1005F0002F900C943B3B5FE6252E5AE0352EB0CF72
:10060000BF0188E998E00E94773B8981873008F034
:1006100082C1E82FF0E08827EF5EFC4F8F4F0C94EB
:10062000FB3D3003430357036D0383039703180314
:10063000AC2CB12CE1E06E1A710808F46CC1D20147
:100640004D915D916D917D912D01B1E0950188E90C
:1006500098E0DB1280C00E945F3DECCF0E944F3CCF
:100660006A94AFEF6A1609F456C1F20161912F0145
:10067000F1E0A80188E998E0DF12F0CF0E94493C40
:10068000EFCF0E94643C6A948FEF681609F443C16F
:10069000D2016D917D912D01B1E0A80188E998E02A
:1006A000DB12EFCF0E945F3CEECF0E94743C6A9455
:1006B000EFEF6E1609F42FC1D2014D915D916D914E
:1006C0007D912D01B1E0980188E998E0DB12EDCF32
:1006D0000E943D3CECCF0E941D3C6A94EFEF6E16E9
:1006E00009F419C1D2016D912D01062E000C770B72
:1006F000B1E0A80188E998E0DB12EDCF0E94173C39
:10070000ECCF0E941D3C6A94EFEF6E1609F403C112
:10071000D2016D917D912D01B1E0A80188E998E0A9
:10072000DB12EFCF0E94173CEECF0E942D3C6A9463
:10073000EFEF6E1609F4EFC0D2014D915D916D910E
:100740007D912D01B1E0980188E998E0DB12EDCFB1
:100750000E94D23BECCF0E94603D6CCFD11038C0DC
:100760006115710549F050E0D101ED91FC910280D5
:10077000F381E02DC1011995D101ED91FC91028029
:10078000F381E02DA501B201C1011995E114F10435
:1007900009F4C1C0492D50E0D101ED91FC910280D6
:1007A000F381E02DB701C1010F90DF91CF911F912F
:1007B0000F91FF90EF90DF90CF90BF90AF909F9000
:1007C0008F907F906F905F904F903F902F901994F3
:1007D000BF01C1010E94773BB981B73008F09BC0CF
:1007E000EB2FF0E08827E850FC4F8F4F0C94FB3D37
:1007F000160428043B04500464047604FF03AC2C64
:10080000B12CE1E06E1A710808F485C0D2014D9157
:100810005D916D917D912D01B1E09501C101DB12DA
:1008200077C00E945F3DEDCF0E944F3C6A94EFEF8E
:100830006E1609F470C0D2016D912D01B1E0A801CE
:10084000C101DB12F1CF0E94493CF0CF0E94643C11
:100850006A94EFEF6E1609F45EC0D2016D917D913E
:100860002D01B1E0A801C101DB12F0CF0E945F3C75
:10087000EFCF0E94743C6A94EFEF6E1609F44BC000
:10088000D2014D915D916D917D912D01B1E0980165
:10089000C101DB12EECF0E943D3CEDCF0E941D3C1A
:1008A0006A94EFEF6E16B9F1D2016D912D01062E0B
:1008B000000C770BB1E0A801C101DB12EFCF0E9461
:1008C000173CEECF0E941D3C6A94EFEF6E1619F1B3
:1008D000D2016D917D912D01B1E0A801C101DB1222
:1008E000F1CF0E94173CF0CF0E942D3C6A94EFEFAD
:1008F0006E1689F0D2014D915D916D917D912D0122
:10090000B1E09801C101DB12EFCF0E94D23BEECFE4
:100910000E94603D76CF0F90DF91CF911F910F9194
:10092000FF90EF90DF90CF90BF90AF909F908F900F
:100930007F906F905F904F903F902F90089590E040
:1009400080E008950F931F93009709F48EC06115FE
:10095000710509F48AC00091680210916902209122
:100960006A0230916B020E3F1F4F2F4F3F4F09F02D
:100970006EC0DB014D915D916D917C914093680259
:100980005093690260936A0270936B02409168020F
:100990005091690260916A0270916B02DC011296BB
:1009A000ED91FC9180819181A281B3818093BE04FD
:1009B0009093BF04A093C004B093C1048481958137
:1009C000A681B7818093BA049093BB04A093BC0422
:1009D000B093BD0480859185A285B3858093B604CC
:1009E0009093B704A093B804B093B9048485958517
:1009F000A685B7858093B2049093B304A093B40402
:100A0000B093B5041092AE041092AF041092B004EB
:100A10001092B1040E94921587EB95E190933F03E9
:100A200080933E039093410380934003909343034C
:100A3000809342030E948114009731F421E030E05A
:100A40003093C3042093C2041F910F910895009125
:100A500068021091690220916A0230916B02FB01D9
:100A6000008311832283338391CF8FEF9FEFECCFED
:100A70008F929F92AF92BF92CF92DF92EF92FF92AE
:100A80001F93CF93DF934B015C011091C50482E06B
:100A900090E09093C3048093C20481149104A10454
:100AA000B10441F48091C504811104C08091C40453
:100AB000C1E08111C0E0C12CD12C76018091C50428
:100AC000811106C08091C404811102C0CC23D9F0E9
:100AD00083E090E09093C3048093C204CC2381F11F
:100AE000CCE9DFEF111102C00E941C19CE01DF9189
:100AF000CF911F91FF90EF90DF90CF90BF90AF907C
:100B00009F908F9008956AE070E080E090E00E94EE
:100B1000493780E1C80E87E2D81EE11CF11C8FEF37
:100B200088169806A806B80631F0C1E08C149D041A
:100B3000AE04BF0408F0C0E080E00E94B514BECF50
:100B4000D0E0C0E0CFCFCF92DF92EF92FF920F9331
:100B50001F93CF93DF938F3F910511F008F051C0A1
:100B60002091C2043091C3042330310539F0209123
:100B7000C2043091C3042130310531F424E030E067
:100B80003093C3042093C2046A017B01EC018330DB
:100B90009105A8F011E0AE01C701B6010E948014D2
:100BA000AB01BC01CE011123F9F0DF91CF911F9170
:100BB0000F91FF90EF90DF90CF900C94411B8C0130
:100BC000000F111F025C1C4FD8018D919C91892B45
:100BD00009F30E944B1B0297E9F6D801ED91FC91B5
:100BE000CE011995182FD7CF0E94631B90E080E0AB
:100BF000DF91CF911F910F91FF90EF90DF90CF90F9
:100C000008958FEF9FEFF4CF80E00C94B514CF934D
:100C1000DF9386E090E09093C3048093C2040E9427
:100C20000E15EC01EEE3F3E086E0DF011D928A95FC
:100C3000E9F70E94B4181092C3041092C204CE01C6
:100C4000DF91CF9108958091C40408958091AD04FF
:100C50000895609368027093690280936A0290938A
:100C60006B0290E080E00895CF92DF92EF92FF92C6
:100C70006B017C010E947D13882379F0C090F20BF8
:100C8000D090F30BE090F40BF090F50BC701B60198
:100C9000FF90EF90DF90CF900895C701B6010E94BA
:100CA00038138111EBCF20E030E0A901C701B60174
:100CB0000E947734882329F120E030E040E853E4B3
:100CC000C701B6010E946B356B017C0120E030E06A
:100CD000A9010E9477348823A1F020E030E0A90127
:100CE000C701B6010E94773487FFD0CF20E030E003
:100CF00040E853E4C701B6010E9400346B017C0157
:100D0000C5CFC12CD12C7601C1CF21E040916E041A
:100D100050916F04452B09F020E0FC01228321E073
:100D20004091700450917104452B09F020E0FC01C2
:100D300023830895CF92DF92EF92FF926B017C01A3
:100D40009F7720E030E040E859E50E94773487FF44
:100D50002BC020E030E040E05FE3C701B6010E9415
:100D6000673687FD0EC020E030E040E05FE3C7015A
:100D7000B6010E940034FF90EF90DF90CF900C946A
:100D8000513520E030E040E05FEBC701B6010E9442
:100D90006736181684F420E030E0A901C701B601D7
:100DA0000E946B366B017C01C701B601FF90EF908A
:100DB000DF90CF90089520E030E040E05FE3C7018E
:100DC000B6010E94FF33FF90EF90DF90CF900C941C
:100DD0006434CF92DF92EF92FF920F931F93CF93E1
:100DE000DF93C091EF03D091F00300E11BE0F80125
:100DF000848D958DA68DB78D88839983AA83BB83B7
:100E000088E1E82E82E0F82E94E5C92E9BE0D92EE9
:100E1000F6012481358146815781F7016485758506
:100E2000868597850E946B36F801208D318D428D25
:100E3000538D0E9400346C837D838E839F83F801E1
:100E400080A191A1A2A1B3A188879987AA87BB8716
:100E5000F6012485358546855785F70160A171A186
:100E600082A193A10E946B36F801208931894289C1
:100E700053890E9400346C877D878E879F87DF911E
:100E8000CF911F910F91FF90EF90DF90CF90089539
:100E90002F923F924F925F926F927F928F929F928A
:100EA000AF92BF92CF92DF92EF92FF920F931F9378
:100EB000CF93DF93CDB7DEB7AD970FB6F894DEBF13
:100EC0000FBECDBF20917C0430917D043A872987E5
:100ED00080917F04909180049A8F898F2130310511
:100EE00009F078C0609156047091570480915804BD
:100EF000909159046F5F7F4F8F4F9F4F0E94143521
:100F000020915A0430915B0440915C0450915D043F
:100F10000E946B3660937003709371038093720329
:100F20009093730320916E0430916F04809170044C
:100F30009091710440916C0450916D04452B69F4BB
:100F400041E02115310509F040E04093720441E091
:100F5000009709F040E0409373042F5F3F4F253026
:100F6000310598F530936F0420936E040196843F09
:100F7000A1E09A0708F496C51092710410927004CB
:100F8000809172048823D9F18091880B9091890B0C
:100F9000A0918A0BB0918B0B8093100B9093110B47
:100FA000A093120BB093130B80918C0B90918D0B2F
:100FB000A0918E0BB0918F0B8093180B9093190B0F
:100FC000A0931A0BB0931B0B1AC010926F041092CF
:100FD0006E04CCCFE985FA85EF2B89F4E091A0036C
:100FE000F091A1030190F081E02D80819181A28197
:100FF000B381E98DFA8D80839183A283B38320919D
:10100000540B3091550B4091560B5091570B6091FA
:101010001C0270911D0280911E0290911F020E947D
:101020006B362091100B3091110B4091120B5091A7
:10103000130B0E9400346B017C012091580B3091FE
:10104000590B40915A0B50915B0B609128027091A3
:10105000290280912A0290912B020E946B369B01FB
:10106000AC01C701B6010E9400346B017C01C09243
:10107000140BD092150BE092160BF092170B2091E7
:101080005C0B30915D0B40915E0B50915F0B60915A
:1010900034027091350280913602909137020E949D
:1010A0006B362091180B3091190B40911A0B50910F
:1010B0001B0B0E9400344B015C012091600B3091AE
:1010C000610B4091620B5091630B60913C027091F7
:1010D0003D0280913E0290913F020E946B369B013F
:1010E000AC01C501B4010E9400344B015C0120E059
:1010F00030E0A9010E94673687FDC9C020E030E0DA
:1011000048EC53E4C501B4010E94773418160CF47E
:10111000C2C020E030E048EC53E4C501B4010E94B5
:101120007B3420E030E04AEF54E40E946B3620E04C
:1011300030E04AEF54E40E940034FCDD0E94E834C1
:1011400069837D836093500B70934F0B20E030E0F8
:10115000A901C701B6010E94673687FDA3C020E040
:1011600030E048EC53E4C701B6010E94773418160A
:101170000CF49CC020E030E048EC53E4C701B60119
:101180000E947B3420E030E04AEF54E40E946B364A
:1011900020E030E04AEF54E40E940034CBDD0E94AE
:1011A000E8346093520B7093510B29853A852130B6
:1011B000310511F580917304882351F03D813093FE
:1011C000D60B89818093D70B7093D80B6093D90B82
:1011D00080917204882381F08091900B9091910B03
:1011E000A091920BB091930B80931C0B90931D0BCD
:1011F000A0931E0BB0931F0BA98DBA8DCD90DD90DF
:10120000ED90FC90B091940BB983E091950BED8338
:10121000F091960BFF8F2091970B2B8F80909C0B5A
:10122000B0909D0BA0909E0B90909F0BA7019601F4
:101230006B2F7E2F8F2F9B8D0E946736282D3B2D85
:101240004A2D592D87FD39C0C701B6010E94773458
:1012500020E030E0A90118160CF06DC0282D3B2DC0
:101260004A2D592D69817D818F8D9B8D0E94773408
:1012700087FD2BC04090A00B5090A10B6090A20B5B
:101280007090A30B782D6B2D9A2D892D34C0812C55
:10129000912C54013ECF812C912C98ECA92E93E4F3
:1012A000B92E37CFC12CD12C760164CFC12CD12CD3
:1012B00088ECE82E83E4F82E5DCF69817D818F8DE7
:1012C0009B8D0E94773487FF0AC0282D3B2D4A2D25
:1012D000592DC701B6010E94673618165CF240907E
:1012E000980B5090990B60909A0B70909B0B7981A2
:1012F0006D819F8D8B8D272F362F492F582FC7013A
:10130000B6010E94FF336D877E878F87988BA3017C
:10131000920160911C0B70911D0B80911E0B90919E
:101320001F0B0E94FF332D853E854F8558890E94F3
:101330007B349B01AC016091440270914502809125
:101340004602909147020E946B366093200B709387
:10135000210B8093220B9093230B89859A8501970B
:10136000A1F480917204882381F08091A40B909164
:10137000A50BA091A60BB091A70B8093240B909383
:10138000250BA093260BB093270B9091A80B9D875C
:10139000A091A90BA98BB091AA0BBF8BE091AB0BCD
:1013A000EB8B7090B00B6090B10B1091B20B009171
:1013B000B30BA7019601692F7A2F8B2F9E2F0E94C6
:1013C0006736272D362D412F502F87FD1FC0C701AF
:1013D000B6010E94773420E030E0A90118160CF025
:1013E0004FC0272D362D412F502F6D8579898F893C
:1013F0009B890E94773487FD11C02090B40B3090F8
:10140000B50B4090B60B5090B70B1EC06D85798917
:101410008F899B890E94773487FF0AC0272D362D3C
:10142000412F502FC701B6010E94673618162CF3C2
:101430002090AC0B3090AD0B4090AE0B5090AF0BAA
:101440007D8469881F890B89272D362D412F502FC8
:10145000C701B6010E94FF336B017C01A20191011B
:101460006091240B7091250B8091260B9091270B96
:101470000E94FF33A70196010E947B349B01AC01BF
:1014800060914C0270914D0280914E0290914F02FA
:101490000E946B366093280B7093290B80932A0B64
:1014A00090932B0B29853A852130310509F0AEC088
:1014B00080917204882301F18091B80B9091B90B4F
:1014C000A091BA0BB091BB0B80932C0B90932D0B7A
:1014D000A0932E0BB0932F0B8091BC0B9091BD0B62
:1014E000A091BE0BB091BF0B8093300B9093310B4A
:1014F000A093320BB093330BC090EE0BD090EF0B58
:10150000E090F00BF090F10BA98DBA8D4D905D90AD
:101510006D907C90A701960169817D818F8D9B8D57
:101520000E947734882309F1282D3B2D4A2D592D0F
:10153000C701B6010E94773481110BC040929C0B09
:1015400050929D0B60929E0B70929F0BE0EAFBE025
:1015500016C0282D3B2D4A2D592D69817D818F8DF7
:101560009B8D0E94773487FFE9CF4092940B509275
:10157000950B6092960B7092970BE8E9FBE08091D7
:101580001C0B90911D0BA0911E0BB0911F0B808323
:101590009183A283B3838091A80B9091A90BA09112
:1015A000AA0BB091AB0B89839A83AB83BC839C015C
:1015B000AD01C701B6010E947734A98DBA8D8D9017
:1015C0009D90AD90BC90811147C28092A80B9092E3
:1015D000A90BA092AA0BB092AB0BECEAFBE08091B6
:1015E000240B9091250BA091260BB091270B8083A3
:1015F0009183A283B38340915E0450915F04609114
:1016000060047091610481E090E09DDA80917C0437
:1016100090917D04019709F006C2E091A003F0913A
:10162000A1030190F081E02D80819181A281B3819D
:101630008B8B9C8BAD8BBE8B8091700390917103D3
:10164000A0917203B091730388A399A3AAA3BBA32B
:10165000E0917403F091750380809180A280B38043
:10166000E091A403F091A50310810181E09168034A
:10167000F0916903208031807280638054804580BE
:101680009681998FA781AF8FE0916603F0916703F0
:101690001182108280E1E12FF02FD10101900D9293
:1016A0008A95E1F7E0919E03F0919F037082618239
:1016B00090DB20E030E040E05FE3C501B4010E9430
:1016C0006B366B017C01388E2F8A798A6A8A1D8776
:1016D0000E87F1017096FC8FEB8F1CA30DA379820E
:1016E0006A823E822D82ED81FE8181919191A1914C
:1016F000B191FE83ED8389879A87AB87BC87A981E7
:10170000BA812D913D914D915D91BA83A983C70115
:10171000B6010E946B3629853A854B855C850E940F
:101720000034ECA1FDA16193719381939193FDA38A
:10173000ECA32B8D3C8D8D819E812817390799F65E
:10174000E091A003F091A103A081B181BA83A983A4
:10175000A70196016B897C898D899E890E9400343E
:10176000E981FA816083718382839383E0919E0390
:10177000F0919F03508241828BDB2BDB20E030E035
:10178000A901C501B4010E946B366CA37DA38EA391
:101790009FA320E030E040E45FE3C501B4010E9474
:1017A0006B366B017C0159824A821CA70DA7098107
:1017B0001A8179866A86F10181919191A191B19105
:1017C0001F018B8F9C8FAD8FBE8FA985BA856D91C0
:1017D0007D918D919D91BA87A987F8014190519093
:1017E000619071908F012CA13DA14EA15FA10E943B
:1017F0006B3668A779A78AA79BA7A7019601C301A3
:10180000B2010E946B369B01AC0168A579A58AA53F
:101810009BA50E9400342B8D3C8D4D8D5E8D0E94CA
:101820000034ACA5BDA56D937D938D939D93BDA70D
:10183000ACA7ED81FE81E215F30509F0BCCFE09184
:10184000A003F091A103208131813E832D83A70164
:1018500096016B897C898D899E890E940034AD81B7
:10186000BE816D937D938D939C931397E0919E031E
:10187000F0919F03B98DB0832F8D218309DBA9DA05
:1018800029E33EE843E65EE3C501B4010E946B36FE
:1018900069877A878B879C872BEA3AEA4AEA5EE374
:1018A000C501B4010E946B366B8B7C8B8D8B9E8B3C
:1018B00029E33EE843EE5EE3C501B4010E946B36C6
:1018C0006B8F7C8F8D8F9E8F398D3CA38F8D8DA3D9
:1018D000EF89F88D81919191A191B191F88FEF8B62
:1018E0008D839E83AF83B887A989BA896D917D91D5
:1018F0008D919D91BA8BA98BE981FA81419051908C
:1019000061907190FA83E983ACA1BDA1CD90DD9087
:10191000ED90FD90BDA3ACA329853A854B855C85F0
:101920000E946B364B015C012B893C894D895E8995
:10193000C301B2010E946B369B01AC01C501B40129
:101940000E9400344B015C012B8D3C8D4D8D5E8DD2
:10195000C701B6010E946B369B01AC01C501B40101
:101960000E9400342D813E814F8158850E940034B1
:10197000ED85FE856193719381939193FE87ED8749
:101980002F89388D2216330609F0A2CFE091A003EB
:10199000F091A1030190F081E02D88A199A1AAA165
:1019A000BBA180839183A283B383E0916603F0910E
:1019B000670381E090E09183808380915604909149
:1019C0005704A0915804B09159040196A11DB11D6E
:1019D0008093560490935704A0935804B0935904ED
:1019E0008091700390917103A0917203B091730381
:1019F000E0917F04F091800480839183A283B3837C
:101A000080915E0490915F04A0916004B0916104A4
:101A10000196A11DB11D80935E0490935F04A09375
:101A20006004B0936104AD960FB6F894DEBF0FBEAC
:101A3000CDBFDF91CF911F910F91FF90EF90DF907D
:101A4000CF90BF90AF909F908F907F906F905F905E
:101A50004F903F902F9008954090B00B5090B10B55
:101A60006090B20B7090B30BA3019201C701B60155
:101A70000E94773481110BC08092B00B9092B10B11
:101A8000A092B20BB092B30BE4EBFBE0A8CDA301A4
:101A9000920169817A818B819C810E94773487FFD2
:101AA000EBCF93CD909371048093700469CA2F9209
:101AB0003F924F925F926F927F928F929F92AF92DE
:101AC000BF92CF92DF92EF92FF920F931F93CF932B
:101AD000DF93CDB7DEB763970FB6F894DEBF0FBEC6
:101AE000CDBF4E012BE0820E911CA12CD12CC12C1C
:101AF000E12C10E000E094014EE45BE061E070E076
:101B000081E00E940D018B85813009F024C2109183
:101B10004E0B9091E50B91112DC11A3A81F410935F
:101B2000DA0B40E050E060E87FE34093D00B509345
:101B3000D10B6093D20B7093D30B8093E50B809104
:101B4000E40B8093530B2090C00B3090C10B40905E
:101B5000C20B5090C30B20923C0B30923D0B409235
:101B60003E0B50923F0B8091C40B9091C50BA091FE
:101B7000C60BB091C70B8C879D87AE87BF878093BC
:101B8000400B9093410BA093420BB093430B60909A
:101B9000D40B7090D50B70924D0B60924C0B6091F2
:101BA000C80B7091C90B8091CA0B9091CB0B6093BD
:101BB000440B7093450B8093460B9093470B80909A
:101BC000CC0B9090CD0BA090CE0BB090CF0B809211
:101BD000480B9092490BA0924A0BB0924B0B20916C
:101BE00058023091590240915A0250915B020E9472
:101BF0006B366B017C01C092340BD092350BE092B6
:101C0000360BF092370B20915C0230915D024091CF
:101C10005E0250915F02C501B4010E946B364B0118
:101C20005C018092380B9092390BA0923A0BB092E3
:101C30003B0BB30190E080E00E941435688B798BF8
:101C40008A8B9B8B9B01AC01C501B4010E940034BF
:101C5000A70196010E940034A20191010E94FF3366
:101C60002B013C01AC019B0160916002709161020B
:101C700080916202909163020E946B3660938C0B9C
:101C800070938D0B80938E0B90938F0B4092BC0BB7
:101C90005092BD0B6092BE0B7092BF0B4092900BA6
:101CA0005092910B6092920B7092930BA50194014C
:101CB000688979898A899B890E94FF33A7019601E7
:101CC0000E9400342C853D854E855F850E94FF3340
:101CD0006B017C01AC019B01609164027091650213
:101CE00080916602909167020E946B366093880B28
:101CF0007093890B80938A0B90938B0BC092A40BEB
:101D0000D092A50BE092A60BF092A70BC092B80B55
:101D1000D092B90BE092BA0BF092BB0B80916204A7
:101D200090916304A0916404B09165040196A11D93
:101D3000B11D8093620490936304A0936404B093F4
:101D4000650463960FB6F894DEBF0FBECDBFDF917A
:101D5000CF911F910F91FF90EF90DF90CF90BF90A8
:101D6000AF909F908F907F906F905F904F903F903B
:101D70002F9008951A3A61F480E090E0A0E8BFE364
:101D80008093D00B9093D10BA093D20BB093D30B35
:101D900020E030E040E85FE36091D00B7091D10B20
:101DA0008091D20B9091D30B0E9400346B017C0187
:101DB000C092D00BD092D10BE092D20BF092D30B09
:101DC0000E94E3346C59744F6B587F4FDB011C93B6
:101DD00020E030E040E251E4C701B6010E947734D0
:101DE0008111ADCEAAEDBBE0FE0131968D918193BC
:101DF0008E169F06D9F71092D00B1092D10B10922D
:101E0000D20B1092D30B1092E50B81E08093E40B80
:101E10000A81002309F493C00150110B8B818823A0
:101E200009F490C08150990BBC01990F880B990B54
:101E30000E94163520E030E048EC52E40E947B34EA
:101E40006B017C01B801110F880B990B0E941635AC
:101E50009B01AC01C701B6010E94003420E030E0D4
:101E600040E251E40E946B366093C00B7093C10B4B
:101E70008093C20B9093C30B0C81002309F465C0BF
:101E80000150110B8D81882309F462C08150990B98
:101E9000BC01990F880B990B0E94163520E030E0A9
:101EA00048EC52E40E947B346B017C01B801110FB5
:101EB000880B990B0E9416359B01AC01C701B60136
:101EC0000E94003420E030E040E251E40E946B3692
:101ED0006093C40B7093C50B8093C60B9093C70B94
:101EE0008F81813009F41F828F81BAE08B9FC001FE
:101EF00011249093D50B8093D40B6E816F3168F4CD
:101F000070E090E080E00E9414356093C80B7093FD
:101F1000C90B8093CA0B9093CB0B68856F3108F087
:101F20000ECE70E090E080E00E9414356093CC0B00
:101F30007093CD0B8093CE0B9093CF0B00CE10E01F
:101F400000E06CCF90E080E06FCF10E000E09ACF2F
:101F500090E080E09DCFEAEDFBE084EE9BE0119203
:101F60008E179F07E1F71092D00B1092D10B1092B1
:101F7000D20B1092D30B1092E50BE1CD8F929F9272
:101F8000AF92CF92DF92EF92FF920F93CF93DF93B6
:101F900000D000D01F92CDB7DEB785E58E838AEAE8
:101FA0008F832091D60B29839091D70B9A838091B0
:101FB000D80B8B836091D90B6C83290F3327331F88
:101FC000820F932F911D680F792F711D072E000C22
:101FD000880B990B0E9416350E9434069B01AC01B8
:101FE00060E070E080E893E40E94FF330E943406D2
:101FF0000E949A066B017C0120E030E040E853E447
:102000000E94773487FF89C020E030E0A901C70132
:10201000B6010E94673687FD7EC0C701B6010E94E7
:10202000E8346D8360917A0B70917B0B80917C0B0F
:1020300090917D0B0E94E834C62E6091720B7091D6
:10204000730B8091740B9091750B0E94E834E62E0F
:102050006091760B7091770B8091780B9091790B52
:102060000E94E834062F60916E0B70916F0B809187
:10207000700B9091710B0E94E834F62E60916A0B00
:1020800070916B0B80916C0B90916D0B0E94E834FA
:10209000862F91E09F939E01295F3F4F3F932F939F
:1020A0009F93215031093F932F93912C812C92E0E3
:1020B000A92E2F2D45E050E0BE016F5F7F4F0E949B
:1020C0007B028091660490916704A0916804B091AE
:1020D00069040196A11DB11D809366049093670465
:1020E000A0936804B09369040F900F900F900F9025
:1020F0000F900F9027960FB6F894DEBF0FBECDBF9E
:10210000DF91CF910F91FF90EF90DF90CF90AF9044
:102110009F908F9008951D8285CF8FEF8D8382CF02
:102120002F923F924F925F926F927F928F929F92E7
:10213000AF92BF92CF92DF92EF92FF920F931F93D5
:10214000CF93DF93CDB7DEB72C970FB6F894DEBFF1
:102150000FBECDBF84E090E054D2E0E6F3E08CE720
:1021600094E0978386830FE714E01093A103009314
:10217000A0032AE5E22E24E0F22EF58AE48A2FEE6F
:1021800033E037AF26AF69EE73E07093A503609339
:10219000A4032EE434E03093A3032093A20320E5AC
:1021A00034E03093A7032093A6032BEE33E0309363
:1021B000A9032093A8032DEE33E03093AB032093C3
:1021C000AA0341EF53E05093E7034093E603F093F3
:1021D000CB03E093CA03F583E48321E030E0DC0124
:1021E0002D933C931092E1031092E80326E334E030
:1021F00086EF93E0D9018D939C9386E094E09093D1
:1022000039048093380486E194E090933B048093F2
:102210003A0486E294E090933D0480933C0484E584
:102220009BE0DB018D939C936CE07BE0DA016D9386
:102230007C9310927404109275041092760410929C
:1022400077043187208721E932E03387228721E82C
:1022500034E0D8012D933C9340E050E06AEF73E402
:10226000409378045093790460937A0470937B04CC
:1022700047E157EB61ED78E3D7014D935D936D93A3
:102280007C9313974FEC55EC69E575E2AEE3B4E04F
:102290004D935D936D937C93139747E95BE360EDFA
:1022A00071EC409342045093430460934404709350
:1022B000450444E052E766E278E4409346045093D4
:1022C0004704609348047093490446E052ED6EEA77
:1022D0007DE440934A0450934B0460934C04709304
:1022E0004D04A4E5B3E0B383A283E4E4F3E01196E4
:1022F000FC93EE9326E932E03183208333832283FB
:102300003583248337832683318720873387228749
:10231000358724873787268724E534E015963C9354
:102320002E931497EEE3F4E01396FC93EE9312973A
:1023300040E45BE46CE470E018964D935D936D931C
:102340007C931B97E8E1F2E080849184A284B384BB
:10235000A0E1BBE08D929D92AD92BC921397C48890
:10236000D588E688F7881896CD92DD92ED92FC929A
:102370001B9700A511A522A533A51C960D931D93AF
:102380002D933C931F9740A951A962A973A949872E
:102390005A876B877C8754964D935D936D937C939E
:1023A000579740AC51AC62AC73AC5C964D925D9269
:1023B0006D927C925F9744AD55AD66AD77AD498324
:1023C0005A836B837C8390964D935D936D937C933E
:1023D00093974081518162817381DC014D935D93BC
:1023E0006D937C93139744E6242E4BE0342E809219
:1023F000880B9092890BA0928A0BB0928B0B14964B
:102400001D921D921D921C921797C0928C0BD09218
:102410008D0BE0928E0BF0928F0BC08CD18CE28CE6
:10242000F38CFC01C086D186E286F3861C961D9251
:102430001D921D921C921F970093900B1093910B6D
:102440002093920B3093930B8091EE0B9091EF0BB6
:10245000A091F00BB091F10B8093940B9093950B9E
:10246000A093960BB093970B80939C0B90939D0B2E
:10247000A0939E0BB0939F0B29853A854B855C8575
:102480002093A40B3093A50B4093A60B5093A70B5E
:102490008093A80B9093A90BA093AA0BB093AB0BBE
:1024A0008093B00B9093B10BA093B20BB093B30B8E
:1024B0004092B80B5092B90B6092BA0B7092BB0B62
:1024C00049815A816B817C814093BC0B5093BD0B39
:1024D0006093BE0B7093BF0BD1011C92C12CD12C09
:1024E0007601C394C092650BD092660BE092670BA5
:1024F000F092680B80E090E0A0E8BFE380936A0B65
:1025000090936B0BA0936C0BB0936D0B80936E0B41
:1025100090936F0BA093700BB093710B1092720B92
:102520001092730B1092740B1092750B1092760B25
:102530001092770B1092780B1092790B10927A0B05
:1025400010927B0B10927C0B10927D0B81E00E940D
:10255000560211E01093690B1092800BC092810B10
:10256000D092820BE092830BF092840B81E00E9468
:1025700056021093850B2C960FB6F894DEBF0FBE53
:10258000CDBFDF91CF911F910F91FF90EF90DF9022
:10259000CF90BF90AF909F908F907F906F905F9003
:1025A0004F903F902F9008958091800B811103C030
:1025B00081E08093800B8091640B811103C081E0E6
:1025C0008093640B089560E070E080E89FE70895D1
:1025D00060E070E080E89FE7089560E070E080E8E8
:1025E0009FEF089560E070E080E89FEF089560E05D
:1025F00070E080EC9FEF089560E070E080EC9FEF6A
:102600000895F5DF6093F20B7093F30B8093F40B56
:102610009093F50BF1DF6093E60B7093E70B8093DB
:10262000E80B9093E90BCFDF6093EE0B7093EF0B09
:102630008093F00B9093F10BCBDF6093EA0B7093D8
:10264000EB0B8093EC0B9093ED0BC7DF6093F60BD5
:102650007093F70B8093F80B9093F90BC3DF6093A3
:10266000FA0B7093FB0B8093FC0B9093FD0B08957A
:10267000CF92DF92EF92FF92CF936B017C01AC017E
:102680009B016091EE0B7091EF0B8091F00B90919C
:10269000F10B0E947734C1E0882371F0A701960105
:1026A0006091F60B7091F70B8091F80B9091F90BFC
:1026B0000E9477348111C0E08C2FCF91FF90EF9072
:1026C000DF90CF9008950F931F938B019C010027FB
:1026D000112720783F770115110520483F4749F41D
:1026E000AB01BC016F77772781E0452B462B472B49
:1026F00009F480E01F910F910895E5CF4F925F920A
:102700006F927F928F929F92AF92BF92CF92DF9201
:10271000EF92FF920F931F93F89440909D04509076
:102720009E0460909F047090A004C0909104D0908B
:102730009204E0909304F09094044130510509F024
:10274000A4C09B01AC012419350946095709290188
:102750003A010091990410919A0420919B043091C0
:102760009C0448015901840C951CA61CB71C8016BA
:102770009106A206B306A0F4009195041091960468
:1027800020919704309198040F5F1F4F2F4F3F4FB8
:102790000093950410939604209397043093980423
:1027A0008092990490929A04A0929B04B0929C0407
:1027B000009195041091960420919704309198040B
:1027C0008092A1049092A204A092A304B092A404C7
:1027D0000093A5041093A6042093A7043093A804A3
:1027E00060939D0470939E0480939F049093A00433
:1027F000A4E6B0E0A30192010E94033E6C0D7D1D92
:102800008E1D9F1D60939104709392048093930496
:1028100090939404009168021091690220916A02D9
:1028200030916B020F3F1F4F2F4F3F4FF1F0009140
:1028300068021091690220916A0230916B020E3F8A
:102840001F4F2F4F3F4F89F0C0906802D090690210
:10285000E0906A02F0906B0221E08C149D04AE04BB
:10286000BF0408F420E02093AD0478941F910F91E9
:10287000FF90EF90DF90CF90BF90AF909F908F90A0
:102880007F906F905F904F9008954B015C0184188A
:102890009508A608B708A3019201261B370B480B21
:1028A000590B6415750586059705D0F082169306B9
:1028B000A406B50640F420E030E0A901811491049B
:1028C000A104B10491F4A4E6B0E00E94033EA70184
:1028D0009601261B370B480B590BCA01B901C5CF0E
:1028E00082169306A406B50670F7A4E6B0E0A5012B
:1028F00094010E94033E6C0D7D1D8E1D9F1DB5CF62
:10290000FDCECF93DF9300D01F92CDB7DEB71C82F0
:102910001B821A8219821092A9041092AA041092A2
:10292000AB041092AC04BE016F5F7F4FCE010396E3
:102930000E94643169817A818B819C810E94822A04
:10294000009761F4BE016F5F7F4FCE0103960E9436
:10295000703169817A818B819C812BD50F900F908A
:102960000F900F90DF91CF910895FF920F931F93D7
:10297000CF93DF93082F60E070E0CB010E944937CE
:10298000FF24F3940E946B29EC01892B89F010E05D
:10299000CE3F8FEFD80769F0002361F160E070E06F
:1029A000CB010E94493781E090E0892B59F322C086
:1029B00011E022D5EC01892B21F0CE3F8FEFD80713
:1029C00059F711111EC011E0229609F410E00E947F
:1029D0001B29EC01892B21F0CE3F8FEFD807E1F6C0
:1029E000111111C011E0CE3F8FEFD80709F410E0AC
:1029F00001110BC0CE01DF91CF911F910F91FF907C
:102A0000089511E0E4CF11E0F3CF60E070E0CB0176
:102A10000E9449371F25812F90E0C7CFCF93DF93C6
:102A20008091AD04882321F060E070E0CB0149D6AD
:102A300032D6D0E0C0E0892B71F06AE070E080E02F
:102A400090E00E94493781E090DF25D62196C03D75
:102A500027E0D20781F724D60E94D62A1092C50417
:102A60001092C4041092BE041092BF041092C004CD
:102A70001092C1041092BA041092BB041092BC04CC
:102A80001092BD041092B6041092B7041092B804CC
:102A90001092B9041092B2041092B3041092B404CC
:102AA0001092B5041092AE041092AF041092B004CC
:102AB0001092B1044EEF5FEF6FEF7FEF409368022B
:102AC0005093690260936A0270936B021092AD0496
:102AD000E1EAF4E028E0DF011D922A95E9F710927F
:102AE0009D0410929E0410929F041092A0041092D4
:102AF000990410929A0410929B0410929C041092D4
:102B000095041092960410929704109298041092D3
:102B10009104109292041092930410929404DF9105
:102B2000CF9108951092D1041092D2041092D30440
:102B30001092D4041092D0048091D9049091DA04B8
:102B40009093CF048093CE041092CD041092CC04C5
:102B50001092C8041092C9041092CA041092CB04B7
:102B60001092D6041092D50490E080E00895CF92A0
:102B7000DF92EF92FF920F931F93CF938C010197F7
:102B800009F055C02091D9043091DA048091CE0427
:102B90009091CF044091D9045091DA045093CF041E
:102BA0004093CE042817390781F01092CD0410927B
:102BB000CC041092C8041092C9041092CA04109256
:102BC000CB041092D6041092D5048091D904909130
:102BD000DA04019761F58091D5049091D604892B90
:102BE00021F480916C02811112C08091D5049091E2
:102BF000D6040197E1F48091C8049091C904A09192
:102C0000CA04B091CB040197A105B10581F41092DB
:102C1000C8041092C9041092CA041092CB041092F6
:102C20006C0282E090E09093D6048093D50480916A
:102C3000D9049091DA04019709F01CC18091EF0446
:102C40009091F0048017910709F014C18091EB0472
:102C50009091EC04A091ED04B091EE04009709F47A
:102C600009C12091EA0421110DC04091EB0450915B
:102C7000EC046091ED047091EE04452B462B472B3C
:102C800009F4F8C02091D5043091D60422303105E2
:102C900009F0F0C02091CC042111ECC0FC01C080EF
:102CA000D180E280F3808091D004882309F4D3C0DE
:102CB0008091DC049091DD04892B09F4FEC0209101
:102CC000DC043091DD0481E02230310509F080E040
:102CD0002091DC043091DD04C1E02130310549F060
:102CE0002091DC043091DD04C1E02230310509F08F
:102CF000C0E0882309F456C02091E6043091E7042F
:102D00004091E8045091E904C701B6010E9467367A
:102D100087FD14C02091E6043091E7044091E80457
:102D20005091E9046091D1047091D2048091D30450
:102D30009091D4040E94773487FD22C02091E6044C
:102D40003091E7044091E8045091E904C701B601CD
:102D50000E946736181634F52091E6043091E70496
:102D60004091E8045091E9046091D1047091D2043B
:102D70008091D3049091D4040E947734811112C0C1
:102D80008091DE049091DF04A091E004B091E10411
:102D9000892B8A2B8B2B19F481E08093CD0481E061
:102DA0008093CC04CC2309F456C02091E6043091E2
:102DB000E7044091E8045091E904C701B6010E947C
:102DC000773487FF14C02091E6043091E7044091E6
:102DD000E8045091E9046091D1047091D20480918B
:102DE000D3049091D4040E94673687FF22C02091BB
:102DF000E6043091E7044091E8045091E904C701EA
:102E0000B6010E947734811126C02091E6043091EA
:102E1000E7044091E8045091E9046091D104709175
:102E2000D2048091D3049091D4040E94673618167E
:102E300094F48091DE049091DF04A091E004B091BD
:102E4000E104892B8A2B8B2B19F481E08093CD042C
:102E500081E08093CC0481E09091CC04911180E0DA
:102E60008093D004C092D104D092D204E092D304D3
:102E7000F092D4040130110509F067C18091D504A6
:102E80009091D604892BD9F41092DB041092CC04D3
:102E900080916C02882379F082E090E09093D604D0
:102EA0008093D50410926C022091D9043091DA04F9
:102EB00081E0232BE9F080E01BC081E009CF109274
:102EC0006C028091DB04882349F01092CD041092AB
:102ED000D6041092D5041092DB04EDCF8091D90472
:102EE0009091DA04892BE1F08091CC041092CC040B
:102EF0002091D5043091D6042230310509F45EC00A
:102F000088F42115310509F448C02130310509F450
:102F1000F3C01092CD041092CC041092DB0438C0A0
:102F200081E0E6CF2330310509F4B1C0243031050A
:102F300081F74091C8045091C9046091CA0470910E
:102F4000CB04411551056105710561F041505109EE
:102F5000610971094093C8045093C9046093CA047D
:102F60007093CB044091C8045091C9046091CA0485
:102F70007091CB04452B462B472BD9F42091D704D5
:102F80003091D8042130310509F046C01092CD04AB
:102F90001092D6041092D5040CC080916C02882344
:102FA00041F082E090E09093D6048093D504109293
:102FB0006C021092C6048091CD04CEC08823C9F360
:102FC0008091DE049091DF04A091E004B091E104CF
:102FD000181619061A061B060CF07DC08091D9043C
:102FE0009091DA04019709F076C08091DE04909107
:102FF000DF04A091E004B091E1048093C8049093B1
:10300000C904A093CA04B093CB0483E090E09093EA
:10301000D6048093D504CDCF4091E2045091E304CF
:103020006091E4047091E504452B462B472BA9F0F1
:103030001092CD048091E2049091E304A091E40405
:10304000B091E5048093C8049093C904A093CA0486
:10305000B093CB0481E090E0DACF882399F080919F
:103060006D0290916E02A0916F02B09170028093F8
:10307000C8049093C904A093CA04B093CB0484E01D
:1030800090E0C5CF1092CD0482E090E0C0CF809157
:10309000C8049091C904A091CA04B091CB040097D0
:1030A000A105B10559F00197A109B1098093C804A0
:1030B0009093C904A093CA04B093CB048091C80430
:1030C0009091C904A091CA04B091CB04892B8A2B9A
:1030D0008B2B09F06ECF80916D0290916E02A091C2
:1030E0006F02B0917002892B8A2B8B2B09F44ECF83
:1030F00081E08093CD04B3CF4091C8045091C904BE
:103100006091CA047091CB044115510561057105A8
:1031100061F041505109610971094093C80450930D
:10312000C9046093CA047093CB044091C8045091C1
:10313000C9046091CA047091CB04452B462B472BE0
:1031400009F037CF8111C7CF9FCF8091C604882364
:1031500009F431CF8091C704CF911F910F91FF9057
:10316000EF90DF90CF9008951092D1041092D20486
:103170001092D3041092D4041092D0041092D6046A
:103180001092D5041092CF041092CE041092F00445
:103190001092EF041092CD041092CC041092C80447
:1031A0001092C9041092CA041092CB041092C70462
:1031B0001092C6041092EB041092EC041092ED04ED
:1031C0001092EE041092EA041092E6041092E704C2
:1031D0001092E8041092E90488EE93E0A0E0B0E0D9
:1031E00080936D0290936E02A0936F02B093700271
:1031F0001092E2041092E3041092E4041092E504A9
:103200001092DE041092DF041092E0041092E104A8
:103210001092DD041092DC0481E080936C02109225
:10322000DB041092DA041092D9041092D8041092A0
:10323000D70490E080E008958091D9049091DA0459
:10324000892BE1F480916C02882351F08091DB049A
:10325000811106C081E08093C7048093C60408955D
:103260008091DB04882341F080916C02811104C0BD
:103270001092C70481E0F1CF1092C604089582E055
:1032800090E0FA01918380838FEF9FEF0895CF93B1
:10329000DF93EA01009711F00E94F02B1982188247
:1032A00090E080E0DF91CF910895DB01009719F461
:1032B0008FEF8C9308952EEF2C93FC017096E031E4
:1032C000F10508F037C08827E759F64E8F4F0C9468
:1032D000FB3D981996199419921990198E198A190B
:1032E0008C1988198619841981197D1979197F1902
:1032F0009A1980E311968C93089589E2FBCF82E2BC
:10330000F9CF11961C92089583E2F4CF81E2F2CFB7
:1033100081E1F0CF87E2EECF8AE2ECCF80E1EACF25
:1033200084E2E8CF88E2E6CF86E2E4CF81E3E2CF31
:1033300083E3E0CF80E2DECF8091FD049091FE0434
:1033400008959093FE048093FD0408958091FC04F9
:1033500008959091FC04892B8093FC040895982F84
:1033600090958091FC0489238093FC0408958091BA
:10337000FB0408958091F9049091FA040895611571
:10338000710559F0FB0130E020E070E060E02417A7
:10339000350719F06115710511F0CB010895A08171
:1033A000B181A817B90709F4BF012F5F3F4F3696C7
:1033B000EECF8091FF0481111CC060D266D2909341
:1033C000F2048093F1040E94F2230E94042490935B
:1033D000F6048093F5040E9483280E948A28909323
:1033E000F4048093F30481E08093FF0490E080E094
:1033F000089584EF9FEF08958F929F92AF92BF92AE
:10340000CF92DF92EF92FF920F931F93CF93DF93B0
:1034100000D000D000D01F92CDB7DEB71A86198633
:1034200018861F821E821D821C821B821A821982AC
:103430008091FF0407EF1FEF882309F49CC08E01E1
:103440000D5F1F4F9E012B5F3F4FAE01495F5F4FE6
:10345000BE01675F7F4F90E080E00E94072A8C01E9
:10346000009721F00596029708F0DBC029853A8580
:103470002115310509F402C1ED80FE804B815C818C
:10348000B701640F751F8F8198858617970708F419
:10349000F5C0E20EF31ED7019C91903C09F07FC06D
:1034A0004230510508F47BC011968C914091FD0487
:1034B0005091FE04452B09F49CC0913F08F071C067
:1034C0002CE1290F2D3008F48BC02DE2290F20317B
:1034D00008F489C0903C21F48150823008F483C004
:1034E00088E3890F8B3008F481C095E5C92E99E1F6
:1034F000D92EEFE3F9E16D817E81AE014F5F5F4F21
:1035000089859A8519955C01C114D104A1F189803E
:103510009A808114910479F18B819C818815990599
:1035200008F487C010E000E04B815C8170E060E04F
:10353000C7010E942A3E01151105E9F449815A810B
:1035400069857A858D819E81680F791FC501F60195
:103550001995E980FA800D811E812F813885498572
:103560005A856FEF7FEF81E090E00E94A2298C01E5
:10357000892B09F056C0C8012A960FB6F894DEBF11
:103580000FBECDBFDF91CF911F910F91FF90EF90B4
:10359000DF90CF90BF90AF909F908F90089580E084
:1035A00085CF30E020E0220F331FF901EF50FB4FB1
:1035B0000190F081E02D309709F497CF892F90E0AA
:1035C0001995009709F491CFDC011296ED91FC91C9
:1035D00013971496CD90DC90309709F08CCF1FC0D4
:1035E00021E030E0E0CF22E030E0DDCF23E030E04A
:1035F000DACFD12CC12CE7E4F9E19F3F09F07BCF72
:10360000E091F104F091F204309721F4C90104EF44
:103610001FEF0CC08FEF90E019950097A9F604EF0B
:103620001FEF89859A85009709F4A5CF0E94F02B9A
:10363000A2CF0E94D12A8C0189859A850E94F02B05
:1036400070E060E0C4010E946A2A98878F830E941C
:103650009F299E838D836F8178856115710559F04F
:10366000C8010E944F2D9A87898706EF1FEF892B8B
:1036700009F058CF59CF08EF1FEF56CF08EF1FEFD3
:10368000D0CF2091FF04222319F020E00C940924CC
:1036900087EF9FEF08958091FD049091FE040895B7
:1036A0000E948F280E94E927F5D0E1EFF4E088E03E
:1036B000DF011D928A95E9F71092FF0490E080E007
:1036C00008950C94462621E040E050E0BA010C94A5
:1036D000092486E090E0FA019183808390E080E005
:1036E000089547E050E069E972E049CEDF92EF9239
:1036F000FF920F931F93CF93DF938A01EC01C60FC4
:10370000D71FE0900305F0900405D9800E94B92AE4
:10371000D816190678F082E090E0F8019183808352
:103720008EEF9FEFDF91CF911F910F91FF90EF9060
:10373000DF900895EF2841F482E090E0F801918352
:10374000808384EF9FEFEECF89818093020590E024
:103750000196F8019183808390E080E0E3CFCF93DE
:10376000DF93EA010E94F726882321F00E94C62AEF
:103770000E94F82682E090E0998388838BEF9FEF88
:10378000DF91CF910895CF93DF93EB0186E0FB01AA
:1037900011928A95E9F78FEF8883D8DD8983E7DD79
:1037A0008A83E8DD9D838C83DF91CF910895CF9349
:1037B000DF93EA010E94FA26811109C082E090E0BD
:1037C0009983888385EF9FEFDF91CF91089590E0F3
:1037D00080E0B7DD81E090E09983888390E080E02D
:1037E000F3CF0F931F93CF93DF93EA018C01060F62
:1037F000171F0E94FA2681110BC082E090E0998386
:10380000888385EF9FEFDF91CF911F910F910895EE
:10381000F8018181823038F082E090E099838883DA
:103820008EEF9FEFF0CF81E090E08BDD88E090E0BD
:103830009983888390E080E0E6CFCF93DF93009771
:10384000D1F4EB01FB01329686E0DF011D928A95EF
:10385000E9F78FEF888385E089831A820E94B92A6D
:103860008B830E94B82A9D838C8381E08E838F8313
:10387000DF91CF910895DF91CF9117CD81E79BE143
:103880009093010580930005089580910005909123
:103890000105089510920105109200050895809188
:1038A0000305909104050895411105C06115710546
:1038B0008105910561F06093030570930405809381
:1038C0000505909306054093070581E0089580E083
:1038D0000895FF920F931F93CF93DF938A01EC011A
:1038E000C60FD71FF9800E94B92AF816190668F08A
:1038F00082E090E0F801918380838EEF9FEFDF916B
:10390000CF911F910F91FF9008956C817D818E81E1
:103910009F814B81C9DF811108C082E090E0F801EE
:103920009183808384EF9FEFEACF898180930205A2
:1039300090E00196F8019183808390E080E0DFCFF2
:10394000CF93DF93EA01FC01E60FF71F64817581D5
:10395000868197814381A8DF811109C082E090E0D0
:103960009983888384EF9FEFDF91CF91089581E061
:1039700090E09983888390E080E0F6CFE3E0F5E083
:103980004081518162817381480F511D611D711DFC
:1039900040835183628373830895CF93C09102055E
:1039A0004C2F50E0609103057091040501960E9430
:1039B000213E8C2FE3DF10920205CF9108950097EE
:1039C00099F480910305909104052FEFFB0120836A
:1039D000892B59F02091020530E02F5F3F4F2417CB
:1039E000350719F4CB01D9CF60CC0895009799F42D
:1039F00080910305909104052FEFFB012083892B13
:103A000059F02091020530E02F5F3F4F2417350712
:103A100019F4CB01C2CF49CC089523E1AC01249F16
:103A2000C001259F900D1124E0910C05F0910D052A
:103A3000E80FF91F238134812250310981E02230BF
:103A4000310508F080E008950F931F93CF93DF9323
:103A500000910E0510910F05D0E0C0E080E00C173A
:103A60001D0749F491E0811190E0892FDF91CF91FA
:103A70001F910F9108958111F5CFCE01CEDF2196D0
:103A8000EECFA0910C05B0910D05109729F1209172
:103A90000E0530910F0582179307F0F453E1589FFC
:103AA0009001599F300D1124A20FB31FED91FC918D
:103AB0001197309789F012968C91681768F48DE011
:103AC000689FE00DF11D112480819181892B21F0E7
:103AD00081E09281491708F080E008959C0143E15C
:103AE000429FC001439F900D1124E0910C05F0917D
:103AF0000D05E80FF91F8385823099F481E090E08D
:103B00006581768140917102509172026417750748
:103B100011F490E080E0892B21F081E02230310522
:103B200008F080E00895FC01A081B1818DE0689FDC
:103B3000A00DB11D112413964D915C91858596853C
:103B4000489F9001499F300D589F300D1124C901A5
:103B50000196611103C0478144FD04960895EF92D8
:103B6000FF920F931F93CF93DF93EA01FC01E60FBF
:103B7000F71F02811381E480F5804F2D6E2DC8015F
:103B800080DF81110DC082E090E0998388838EEF01
:103B90009FEFDF91CF911F910F91FF90EF900895CC
:103BA000C8013BDF882339F082E090E09983888365
:103BB00088EF9FEFEECF1093780200937702E092A8
:103BC0007902F0927A0281E090E09983888390E014
:103BD00080E0DFCFCF92DF92EF92FF920F931F939F
:103BE000CF93DF937A01EC01C60FD71FC090770205
:103BF000D09078020091790210917A02412F602FC3
:103C0000C6013FDF811110C082E090E0F70191838F
:103C100080838AEF9FEFDF91CF911F910F91FF90EB
:103C2000EF90DF90CF900895C601F7DE882341F032
:103C300082E090E0F7019183808388EF9FEFEBCFE4
:103C40004C815D816E817F819A8189818F3F41F0B6
:103C500082E090E0F701918380838EEF9FEFDBCFCE
:103C6000E3E1EC9D9001ED9D300D1124E0910C05F8
:103C7000F0910D05E20FF31F0190F081E02D2DE092
:103C8000029FE00DF11D11240190F081E02D27E04D
:103C9000129FE00DF11D1124808391838B8182831B
:103CA00043835483658376831F5F10937A0281E098
:103CB00090E0F7019183808390E080E0ACCFEF92B9
:103CC000FF920F931F93CF93DF937A018C01060F1E
:103CD000171FC0910C05D0910D05209781F021E0B0
:103CE00030E0F8018281938140910E0550910F05DB
:103CF0008417950710F030E020E0232B71F482E068
:103D000090E0F701918380838EEF9FEFDF91CF9159
:103D10001F910F91FF90EF90089543E1489F90010C
:103D2000499F300D1124C20FD31F77DE882341F045
:103D300082E090E0F7019183808388EF9FEFE6CFE8
:103D4000F8012481358120383105C8F68781811139
:103D5000D6CF4181842F90E08F7E009741F082E0A2
:103D600090E0F7019183808386EF9FEFCFCF4F8361
:103D70003E832D83268128871986223010F421E086
:103D8000288721E030E0F70131832083BFCF88E02E
:103D900090E0FA019183808390E080E00895FB0138
:103DA0008FEF808381E181838FEF9FEF9383828305
:103DB00080E890E095838483168217820895FB0142
:103DC0008FEF808391E0918382839383848384E364
:103DD000858381E090E097838683089582E090E078
:103DE000FA019183808380EF9FEF0895BF92CF9275
:103DF000DF92EF92FF920F931F93CF93DF93DA013D
:103E0000FC01E60FF71F8181813081F082E090E0B4
:103E10008D939C938FEF9FEFDF91CF911F910F9127
:103E2000FF90EF90DF90CF90BF900895C281D38133
:103E3000B480858106811781E0900C05F0900D0516
:103E4000E114F10439F482E090E08D939C938CEFBF
:103E50009FEFE2CF20910E0530910F05C217D307D7
:103E600038F082E090E08D939C938EEF9FEFD4CF5B
:103E7000C230D10538F082E090E08D939C9386EFBC
:103E80009FEFCACF9B2D9D7FB1F78130A1F7B11075
:103E900005C00130110531F080E004C081E002303E
:103EA0001105D0F3882339F36D01CE01B6DD8823E7
:103EB00041F082E090E0F6019183808388EF9FEFEC
:103EC000ABCF83E18C9FF0018D9FF00D1124EE0D9F
:103ED000FF1DB38681E0848716870587108A1786C1
:103EE00081E090E0F6019183808390E080E094CFC0
:103EF0004DE050E063EC72E042CA8F929F92BF9215
:103F0000CF92DF92EF92FF920F931F93CF93DF93A5
:103F1000EA01FC01E60FF71F828193810481B580DD
:103F2000E0910C05F0910D05309791F482E090E05E
:103F3000998388838CEF9FEFDF91CF911F910F9131
:103F4000FF90EF90DF90CF90BF909F908F9008955B
:103F500020910E0530910F058217930738F082E00B
:103F600090E0998388838EEF9FEFE6CF23E1289F2F
:103F70006001299FD00C1124EC0DFD1DE080F18023
:103F8000E114F10499F28281081748F78DE0089F47
:103F900080011124E00EF11EF70180819181892BAF
:103FA00029F6BB20E1F2F7E0BF9E40011124C401D5
:103FB0000E94B72BF70191838083E0910C05F0916B
:103FC0000D05EC0DFD1D0190F081E02DE00FF11FBE
:103FD00080819181009739F482E090E09983888311
:103FE0008DEF9FEFA9CFA40170E060E00E942A3E10
:103FF00080910C0590910D05C80ED91EF6018081A7
:104000009181080F191FF801B28281E090E0998335
:10401000888390E080E090CFAF92BF92CF92DF9202
:10402000FF920F931F93CF93DF93EA01FC01E60FFA
:10403000F71F82819381F48000910C0510910D058A
:104040000115110581F482E090E0998388838CEF5B
:104050009FEFDF91CF911F910F91FF90DF90CF9055
:10406000BF90AF90089520910E0530910F058217F3
:10407000930738F082E090E0998388838EEF9FEF7A
:10408000E8CF2FEF2F0D2C3FA8F723E1289F6001E9
:10409000299FD00C11240C0D1D1DF80180819181E8
:1040A000892B89F6FDE0FF9E50011124C5010E9475
:1040B000B72BF80191838083E0910C05F0910D05F9
:1040C000EC0DFD1D80819181009739F482E090E034
:1040D000998388838DEF9FEFBCCFA50170E060E0EE
:1040E0000E942A3EE0910C05F0910D05EC0DFD1D9E
:1040F000F28281E090E09983888390E080E0A9CF0C
:10410000CF92DF92EF92FF920F931F93CF93DF93A3
:10411000860F971FFC010281138180910C059091FD
:104120000D05892B81F082E090E0FA019183808374
:104130008CEF9FEFDF91CF911F910F91FF90EF9048
:10414000DF90CF900895C801B0E0A0E00197A109E9
:10415000B1098F3F9F4FA105B10540F082E090E08B
:10416000FA01918380838EEF9FEFE4CF7A0183E1A0
:10417000809F6001819FD00C1124C6010E94B72B43
:10418000EC01009741F482E090E0F7019183808395
:104190008DEF9FEFCFCFA60170E060E00E942A3E36
:1041A000D0930D05C0930C0510930F0500930E05D9
:1041B00090E080E02FEF3FEF41E061E070E080179A
:1041C000910741F481E090E0F7019183808390E0D2
:1041D00080E0B0CF3A8B298B1B864C877E876D871A
:1041E000188A1F8601966396EACFEF92FF921F937B
:1041F000CF93DF93EC0110E0F12CE12C6A811617CC
:10420000B0F083E0689FB0011124AE014F5E5F4FB4
:10421000C7010E941C2C009721F02FEF3FEF3A8B33
:10422000298BDF91CF911F91FF90EF900895612F1F
:10423000CE0179DC61E070E00E946A2AE816F90696
:1042400008F47C011F5FDACFF89420910A053091C1
:104250000B0581E02115310509F080E0232B09F0E1
:10426000789408952F923F924F925F926F927F922F
:104270008F929F92AF92BF92CF92DF92EF92FF9276
:104280000F931F93CF93DF933C01660E771EF301CC
:10429000828193814C01B12CA12CC0910C05D0914D
:1042A0000D05209769F021E030E060910E057091D6
:1042B0000F058617970710F030E020E0232BD1F48C
:1042C00082E090E0FA01918380838EEF9FEFDF918F
:1042D000CF911F910F91FF90EF90DF90CF90BF9003
:1042E000AF909F908F907F906F905F904F903F9096
:1042F0002F90089580927B0290927C02A0927D0282
:10430000B0927E0263E1689F9001699F300D112495
:10431000C20FD31FF3018181833040F082E090E02F
:10432000FA019183808386EF9FEFD1CF2A012B8101
:104330003C81232BF1F4288139819F8191FF2EC08C
:10434000232B09F46FC0209111059A81422F490F48
:104350005527551FBA0141E050E06138710514F04E
:1043600050E040E0452B09F45DC02A87920F9093FE
:1043700011058150823008F481C066DF882309F47A
:10438000DAC0F3018181813009F48DC008F47BC06B
:10439000823009F4C8C090E080E0ADC0232B09F45E
:1043A00041C0209110059A81E22FE90FFF27FF1FDE
:1043B00041E050E0ED3FF10514F050E040E0452BC6
:1043C00089F12A87920F90931005D3CFA081B181F4
:1043D000A20FB31F11966C91060F111D0196295F54
:1043E0003F4F8417950794F38D859E85089F100194
:1043F000099F300C189F300C1124C114D104D1F442
:104400008F8184FF17C00E94B82AF5E02F0E311C5F
:1044100021E08215930508F420E0A701435F5F4F78
:1044200021110EC082E090E0F2019183808387EF3A
:104430009FEF4DCF0E94B82A2FEF221A320AE8CF01
:1044400088819981E80EF91EF70114830383FFEF39
:10445000CF1ADF0A7A018A818C151D0409F00CF449
:104460008CCFE881F981EE0DFF1D428150E030E0F4
:1044700020E010E000E090E080E0B3CFF12CE12CF0
:10448000D12CC12CE8CF81E090E09C838B83DCDAD7
:10449000882309F480CF81E090E00E94A11980E494
:1044A0000E94AF1978CF89899A89019661F083E0DB
:1044B00090E09C838B8382E090E00E94A11980E4CD
:1044C0000E94A91968CF8D819E812091710230913F
:1044D000720282179307D1F460917502709176028F
:1044E000AE014F5E5F4F80917302909174020E9403
:1044F0000E2D0097E1F2789422E030E0F201318352
:104500002083892BA9F08DEF9FEFE1CE22E0821668
:104510009104A104B1045CF6049748F6CE0165DE6F
:10452000188A1F86E6CF82E090E09C838B8333CF8E
:1045300090E080E0CCCE82E090E0F2019183808335
:1045400085EF9FEFC4CE8F929F92AF92BF92CF9292
:10455000DF92EF92FF920F931F93CF93DF93EA01C5
:104560008C01060F171FF8018181833098F082E0DB
:1045700090E09983888386EF9FEFDF91CF911F9121
:104580000F91FF90EF90DF90CF90BF90AF909F90F2
:104590008F90089580910C0590910D05892B61F005
:1045A00081E090E020910E0530910F05232B11F44E
:1045B00090E080E0892B39F482E090E09983888351
:1045C0008EEF9FEFDACF40DE882309F4E1C0F801D7
:1045D0008181813009F497C0E8F0823099F420910C
:1045E0000E0530910F05E0910C05F0910D0590E05E
:1045F00080E041E050E02817390709F0BFC024DA15
:10460000811117C0789481E090E09983888390E0CD
:1046100080E0B3CF20910E0530910F05E0910C059D
:10462000F0910D0590E080E041E050E02817390757
:1046300041F481E090E00E94A11980E40E94AF194A
:10464000E1CF63817481672B11F05483438301961A
:104650007396ECCFE0910C05F0910D05E00FF11F82
:104660002381348122303105D9F4218932892F3FC9
:104670003F4FB1F425813681409171025091720211
:104680002417350761F5AF014F5E5F4F60917502EA
:104690007091760280917302909174020E940E2DA7
:1046A000EFEFCE1ADE0AEE0AFE0A0D5E1F4F4091B2
:1046B0000E0550910F0570E060E0C416D506E606C1
:1046C000F7064CF5009731F27894892B09F49BCFCB
:1046D00082E090E0998388838DEF9FEF4ECF42E098
:1046E000C416D104E104F104DCF624303105C0F62F
:1046F000CF017BDDE0910C05F0910D05E00FF11F7E
:10470000108A1786CDCF10E000E090E080E0C12C49
:10471000D12C7601CCCF0097B9F610E000E0812CC7
:10472000912C540183E0E82EF12C1AC0E0910C0585
:10473000F0910D05E00FF11F83819481029749F4F8
:10474000F482E38282E090E00E94A11980E40E945A
:10475000A919FFEF8F1A9F0AAF0ABF0A0D5E1F4FFC
:1047600080910E0590910F05B0E0A0E088169906A3
:10477000AA06BB06DCF290E080E0A6CF63817481DC
:104780006230710511F4548343830196739633CFDD
:1047900082E090E09983888385EF9FEFEECE0097CB
:1047A000B9F48FEFFB01808320917B0230917C0272
:1047B00043E1429FC001439F900D1124E0910C05FD
:1047C000F0910D05E80FF91F8285FB0181830895A3
:1047D0000C94551988E090E0FA019183808390E071
:1047E00080E0089510920B0510920A05ECE0F5E0C8
:1047F00086E0DF011D928A95E9F788E79FE19093B3
:104800000905809308050895809108059091090590
:1048100008952F923F924F925F926F927F928F9264
:104820009F92AF92BF92CF92DF92EF92FF920F933F
:104830001F93CF93DF93CDB7DEB72F970FB6F894C2
:10484000DEBF0FBECDBFF894E0910A05F0910B05D5
:104850003196F0930B05E0930A05789440900C058F
:1048600050900D054114510409F40DC2E0910E055C
:10487000F0910F05EF2B09F406C22D8749875A875F
:104880006B877C8798878F831201B12CA12C10E055
:1048900000E080910E0590910F05A816B90618F456
:1048A0000115110529F1F89480910A0590910B05E5
:1048B000019790930B0580930A057894C8012F9671
:1048C0000FB6F894DEBF0FBECDBFDF91CF911F9121
:1048D0000F91FF90EF90DF90CF90BF90AF909F909F
:1048E0008F907F906F905F904F903F902F900895A2
:1048F0007101E418F508D10117968C91179781FD85
:1049000054C013968D919C911497039709F04DC054
:1049100015968D919C91EF81F8858E179F0709F070
:1049200044C0B50190E080E081D48A8320910C05D9
:1049300030910D053D832C833D85332309F44CC014
:104940004C815D81452B09F49BC180910E059091AE
:104950000F05A816B90608F093C1C501BFD8882372
:10496000E9F06C817D816E0D7F1D7D836C83DB01A1
:104970001F968D919C91892B89F0D12CC12CF12C03
:10498000E12CAC81BD8112968C9112978E151F047B
:1049900009F094F450961C921E921F972A812223AC
:1049A00021F0B50190E080E043D43FEFA31AB30AB1
:1049B00043E1240E311C6DCFAC81BD81ED91FC91A2
:1049C000EC0DFD1D858196810BD7BFEFEB1AFB0A1D
:1049D000EDE0CE0ED11CD5CFEC81FD81309709F4EE
:1049E0004FC180910E0590910F05A816B90608F0E9
:1049F00047C1EE0DFF1DFF87EE87C5016FD88B8382
:104A0000882339F1AE85BF851F968D919C91509773
:104A1000019621E01D964D915C918417950709F050
:104A200020E02E831982712C10E000E0AE85BF8556
:104A300012968C91781608F45DC0EE85FF85878507
:104A400090890196658576850E94C53D908B878704
:104A5000A5CFB1E0BE83E6CF992493946BC087D6EF
:104A6000F6019683858383C0D601ED90FC90B7E074
:104A70006B9EE00CF11C1124F7016381748180812D
:104A80008F3F61F121E030E002C0220F331F8A9591
:104A9000E2F7C901092E000CAA0BBB0BFB014081F8
:104AA00051816281738184239523A623B72321E05A
:104AB000892B8A2B8B2B09F420E0D4012C93D7016E
:104AC00011968C91F60123853485820F932F911DC9
:104AD000880E991E1486138663949CC0418150E011
:104AE000C4010E94213EEBCF998206EF1FEFC6C0A2
:104AF0001982C4C0F981F111A0CFEDE07E9E700152
:104B00001124AE85BF85CD90DC90CE0CDF1C17D470
:104B10009D838C83BB81BB2309F49ECF81E0EE850E
:104B2000FF8527853089232B09F080E0982E882384
:104B300009F459C0672D8E859F850E94931DD6016B
:104B400018969C938E93179761E070E0C3D4EE851E
:104B5000FF85218932892F3F320709F480CFBC01BC
:104B6000C9019DD7D60116969C938E931597D601B1
:104B700015968D919C911697009709F4B5CFEC810D
:104B8000FD818E0F9F1F1A969C938E931997AE8569
:104B9000BF85ED91FC911197EE0EFF1EF701218567
:104BA0003285148613861A968C91870DD9018D93C0
:104BB000711016C0EE85FF85878184FF11C049857D
:104BC0005A856B857C85F9014183528363837483A5
:104BD000F701838594850496A80FB91F1486138660
:104BE000F701B287A187D60115968D919C911697F2
:104BF000892B09F443C0EE85FF852581368180919C
:104C00007102909172022817390779F019968D90E8
:104C10009C90612CD60112968C911297681608F41C
:104C200023CF1A969C928E921997BE81BB2309F4CA
:104C30005FCF61E070E0F601878190854BD4D601AB
:104C40001796ED90FC90189715964D915C91E1E0C8
:104C5000F0E0BA81BB2311F0F0E0E0E00C811D81AF
:104C60009C01B501882799278E1B9F0B6BD38C0164
:104C7000892B21F0F60185819681B2D57394D6CE29
:104C80000FEF1FEF8BCE10E000E00DCE2F923F9282
:104C90004F925F926F927F928F929F92AF92BF924C
:104CA000CF92DF92EF92FF920F931F93CF93DF93F8
:104CB00080910C0590910D0510E000E0892BA9F082
:104CC000C3DA0AEF1FEF882381F020900E053090A1
:104CD0000F05C0910C05D0910D05D12CC12C10E011
:104CE00000E02C143D04A9F47894C801DF91CF9121
:104CF0001F910F91FF90EF90DF90CF90BF90AF90FA
:104D00009F908F907F906F905F904F903F902F90EB
:104D10000895C6010E946E1D882309F18B819C8134
:104D20000397E9F48F859889892BC9F0B60190E043
:104D300080E07CD221E030E0882311F030E020E0F8
:104D400044245524421A530AB12CA12C912C812CB5
:104D50008A818815190409F038F4188A1F864FEFE4
:104D6000C41AD40A6396BDCFE881F981EA0DFB1D10
:104D700085819681892BA1F161E070E08781908522
:104D8000A9D33C01DCD28C01E881F981EA0DFB1D3D
:104D90008185928525813681200F311FAC01421B10
:104DA000530B9A0147815085421B530B70E060E022
:104DB0000E942A3EE881F981EA0DFB1DE780F0841C
:104DC000458156819301B601C201BCD28C01892B69
:104DD00039F0E881F981EA0DFB1D8581968100D5C6
:104DE0005FEF851A950A8DE0A80EB11CB1CF2CCAD1
:104DF000789408952F923F924F925F926F927F9294
:104E00009F92AF92BF92CF92DF92EF92FF920F9359
:104E10001F93CF93DF9300D000D0CDB7DEB70091C2
:104E20000C0510910D05992493940115110509F4B1
:104E30003EC0A0900E05B0900F0506DA982E88238C
:104E4000B1F110920D0510920C0510920F05109201
:104E50000E0510921005109211058FEF9FEFDC01E7
:104E600080937B0290937C02A0937D02B0937E029C
:104E7000789480D31E830D83C12CD12C7601C5017B
:104E8000B0E0A0E089839A83AB83BC8322242A9478
:104E9000322C89819A81AB81BC81C816D906EA0679
:104EA000FB06F4F0C8019CD480E40E94AF19892D60
:104EB00026960FB6F894DEBF0FBECDBFDF91CF911F
:104EC0001F910F91FF90EF90DF90CF90BF90AF9028
:104ED0009F907F906F905F904F903F902F9008959C
:104EE000AD81BE8115968D919C911697209171028E
:104EF0003091720282179307D1F451968D919C9153
:104F0000BCD5ED81FE8180819181B12CA12C412CF9
:104F1000512C3201892B91F5BFEFCB1ADB0AEB0A3A
:104F2000FB0AED81FE817396FE83ED83B2CFB2E082
:104F3000CB16D104E104F10424F7049710F7ED81B6
:104F4000FE81818992898F3F980709F011D5AD8143
:104F5000BE8152963C922E925197D3CF8A0D9B1DC3
:104F6000DC018D919C91009709F03AD4BFEF4B1A68
:104F70005B0A6B0A7B0AEDE0AE0EB11CAD81BE810F
:104F80008D919C91119712964C9150E070E060E0E9
:104F900044165506660677060CF322D4BDCFCF9390
:104FA000DF93EA0127DF811109C082E090E0998355
:104FB000888385EF9FEFDF91CF91089581E090E0A6
:104FC0000E94A11981E090E09983888390E080E0BD
:104FD000F2CF10DF1092090510920805089542E003
:104FE00050E061E173E00C94BF19FF920F931F939F
:104FF000CF93DF938A01EC01C60FD71FF980B9D296
:105000000897F816190671F068F082E090E0F80150
:10501000918380838EEF9FEFDF91CF911F910F914E
:10502000FF9008956C817D818E819F814B810E94CC
:10503000541C811108C082E090E0F80191838083C4
:1050400084EF9FEFE9CFF9800E944F1C4F2D50E075
:10505000BE01685F7F4F0E94213E89810E94BE1C75
:1050600081E090E0F8019183808390E080E0D4CFEC
:10507000DF92EF92FF920F931F93CF93DF938A01FA
:10508000EC01C60FD71F0E944F1C7C01D98071D242
:10509000DD2059F0029721E030E0D816190619F00A
:1050A00010F030E020E0232B79F482E090E0F8016A
:1050B000918380838EEF9FEFDF91CF911F910F91AE
:1050C000FF90EF90DF900895EF2841F482E090E0A8
:1050D000F8019183808384EF9FEFEECFF9800E94E7
:1050E0004F1C4F2D50E0BE016E5F7F4F0E94213E4E
:1050F00089810E94BE1C81E090E0F8019183808349
:1051000090E080E0D9CF8FEE97E2909313058093E3
:105110001205089580911205909113050895089540
:10512000FC0111821082938382830895DB011D921A
:105130001C92DC011296ED91FC91139771836083B0
:1051400013967C936E9312970895FC018081918150
:10515000DB018D939C93A081B181109741F08D91DB
:105160009C9191838083892B11F4F383E2830895CA
:10517000FC0180819181DB018D939C93892B11F43B
:1051800073836283718360830895FC0111821082AE
:10519000938382830895CF93DF931F921F92CDB79D
:1051A000DEB71A821982F894BE016F5F7F4F89E1E2
:1051B00095E0CBDF89819A81009709F011D389812D
:1051C0009A81892B89F7BE016F5F7F4F8DE195E052
:1051D000BCDF89819A81009709F002D389819A8185
:1051E000892B89F778940F900F90DF91CF910895D4
:1051F000CF93DF931F921F92CDB7DEB71A82198229
:10520000F894BE016F5F7F4F85E195E09EDF898155
:105210009A81009709F0E4D289819A81892B89F7D4
:1052200078940F900F90DF91CF91089581E00895C9
:1052300090E080E00895EF92FF920F931F93CF9339
:10524000DF931F921F92CDB7DEB71A821982809129
:10525000140507EF1FEF8823A1F1F894BE016F5FDB
:105260007F4F8DE195E071DF789489819A81EE24FA
:10527000E394F12C892B51F4F894BE016F5F7F4FBA
:1052800089E195E062DF7894F12CE12C89819A81A3
:105290000EEF1FEF0097A9F0FC014281538164E0FB
:1052A00070E046D68C01892B61F0F89469817A818F
:1052B000C701880F991F880F991F875E9A4F58DF83
:1052C0007894C8010F900F90DF91CF911F910F91AB
:1052D000FF90EF9008950F931F93CF93DF9300D02B
:1052E0001F92CDB7DEB71C821B821A821982809171
:1052F000140507EF1FEF8823C1F0AE014D5F5F4F2C
:1053000064E070E0CE01019686D68C01892B69F4A9
:10531000E981FA818B819C8193838283F8946981EE
:105320007A8185E195E002DF7894C8010F900F90B3
:105330000F900F90DF91CF911F910F9108958BD710
:10534000049608958F929F92AF92BF92CF92DF9270
:10535000EF92FF920F931F93CF93DF931F921F92B1
:10536000CDB7DEB71A821982BC016F5F7F4F633001
:10537000710598F0AA24AA94BA2CC5010F900F9039
:10538000DF91CF911F910F91FF90EF90DF90CF9021
:10539000BF90AF909F908F9008954115510551F3A4
:1053A000480159018A016C01CADF8815990511F776
:1053B000E114F104F9F28E0D9F1DA816B906D0F282
:1053C000809114058823F1F0F894B50164507109B7
:1053D0009701AE014F5F5F4FC8010496B1D65C01E3
:1053E000892B71F489819A81F80193838283C601A4
:1053F000880F991F880F991FB801875E9A4F96DE14
:105400007894BBCF87EFA82EBB24BA94B6CFAF92C7
:10541000BF92CF92DF92EF92FF920F931F93CF93A1
:10542000DF931F921F92CDB7DEB71A821982892BA4
:1054300009F047C06115710509F443C041155105D4
:1054400009F43FC02115310509F43BC001151105D0
:10545000C1F1809114058823B9F179016A015B01DA
:10546000F894BE016F5F7F4F85E195E06EDE789422
:1054700089819A81009759F1DC0112966D917C9196
:10548000A801049676D68C01E981FA81D501ED93C5
:10549000FC93828193810496F601918380834FDF90
:1054A000D7018D939C93C8010F900F90DF91CF91FE
:1054B0001F910F91FF90EF90DF90CF90BF90AF9032
:1054C00008950FEF1FEFEFCF07EF1FEFECCF0EEFB9
:1054D0001FEFE9CFCF93DF93EC01672B71F4C4D6B4
:1054E0008C179D0760F0B7D62496C80FD91FB6D683
:1054F0008C0F9D1FDF91CF910895B3D6F1CF90E02F
:1055000080E0F8CF0F931F93CF93DF932091140582
:1055100021112BC08B01EC0189E195E001DE8DE1C9
:1055200095E0FEDD85E195E0FBDD97D00097C1F4C5
:105530009BD670E060E0CEDF4FE752E062E070E0C3
:105540007BD1009769F480917F02909180029ED672
:10555000B801CE01D3D4009719F421E020931405AB
:10556000DF91CF911F910F91089584EF9FEFF8CFB6
:1055700078C67AC6CF93DF937AD6EC01892B11F4E3
:105580000ADE36DECE01DF91CF910895CF93DF930F
:105590006ED6EC01892B09F4FEDDCE01DF91CF91AF
:1055A000089580917F02909180020895CF93DF93B8
:1055B00080911405D0E0C0E08823D1F06CD6EC01D6
:1055C000892BB1F4E8DD14DE80917F029091800296
:1055D000CFD1B5D2EC01892B59F489E195E0D5DD25
:1055E0008DE195E0D2DD85E195E0CFDD10921405E7
:1055F000CE01DF91CF910895EF92FF920F931F9309
:10560000CF93DF93EC017A018B010F5F1F4F0E9D4B
:10561000A0010F9D500D1E9D500D112470E060E003
:105620000E942A3E90E080E0F0E0E0E02FEFE816F4
:10563000F90639F4DF91CF911F910F91FF90EF9010
:1056400008951A8219822883309711F0D283C1837A
:105650000196FE01C00FD11FEACFAF92BF92CF9249
:10566000DF92EF92FF920F931F93CF93DF9385EF1B
:1056700096E07C012CEFE22243E050E061E872E02A
:1056800087E892E0E8D381E8C82E82E0D82E97E838
:10569000A92E92E0B92ECEE3D8E08E01D6014D912D
:1056A0005D916D01F501619171915F01D8011196D4
:1056B000FC92EE9215965C934E93149713965C931E
:1056C0004E93129717967C936E9316979B012F5FBC
:1056D0003F4F249FC001259F900D349F900D1124B2
:1056E00019969C938E931897E114F10411F0C70159
:1056F00083DFF80180859185E80EF91E065F1F4F54
:10570000F7E8CF16F2E0DF0649F6E3E2F5E08FECCA
:1057100091E0DF019C011D9221503040E1F7109291
:105720002205109221051F8E1E8E1BA21AA219A2FD
:1057300018A21DA21CA21FA21EA22A9638E0CC35D8
:10574000D30789F710923B0810923A0810923D084F
:1057500010923C0890E080E0DF91CF911F910F9173
:10576000FF90EF90DF90CF90BF90AF90089500979B
:10577000F1F0F894A7E8B2E0EEE3F8E030E020E0E2
:105780004D915D9148175907A8F042815381411509
:10579000510581F08AE0829FF001839FF00D112472
:1057A000E25CF74F80819181009759F4789490E002
:1057B00080E008952F5F3F4F3A962330310501F77F
:1057C000F5CFDC0111966D917C917183608341501E
:1057D000510953834283FC012193CF0178940895AA
:1057E000009749F1DC018E91863041F4E0913C084C
:1057F000F0913D083097F9F0CD0119948630D8F436
:10580000282F30E0F8948FEF8C938AE0829FF0018C
:10581000839FF00D1124E25CF74F808191811296F5
:105820009C938E931197B183A0838281938101967B
:105830009383828378940895CF92DF92EF92FF92C0
:105840000F931F93CF93DF939C0186E295E08C7FAB
:105850004115510509F489C02115310509F485C0A8
:105860006115710509F481C08A01AB01B9016D5F51
:105870007F4F6C7F9B012F5F3F4F249F7001259FBF
:10588000F00C349FF00C1124F894EEE3F8E023E0E0
:1058900030E0E901A6A1B7A1C68CD78CCD2809F0CC
:1058A00058C0109709F03EC0C0902105D090220545
:1058B0002CEC31E02C193D092E153F0530F478947D
:1058C000CFEFDFEF86EF9FEF21C02AE02C9FF001A2
:1058D0002D9FF00D1124E25CF74F91838083558357
:1058E00044835383428377836683F186E0860097FF
:1058F00009F082DEEC0CFD1CF0922205E0922105FD
:105900007894CF3FDC07F1F290E080E0F801D1839A
:10591000C083DF91CF911F910F91FF90EF90DF90A7
:10592000CF900895AE15BF05A0F02AE02C9FF0019E
:105930002D9FF00D1124E25CF74F918380835583F6
:10594000448353834283778366830097C9F254DE8E
:10595000D7CF8A0F9B1F2F5F3F4F3A9626303105D6
:1059600009F097CFCFEFDFEFCBCF8FEF9FEFD1CF06
:105970009C010397039708F04EC0F89485E09AE0E5
:10598000482F50E0241735079CF191E08AE0829F70
:10599000F001839FF00D1124E25CF74F1182108219
:1059A0001582148213821282178216829923E1F0E3
:1059B0008091210590912205EEE3F8E0268D378D48
:1059C000232B49F426A137A12115310521F0821B93
:1059D000930B17A216A23A9628E0EC35F20771F75E
:1059E0009093220580932105789490E080E00895BB
:1059F000949FF001959FF00D1124E25CF74F4081D8
:105A00005181452B31F440855185452B11F481504E
:105A1000B7CF90E0BBCF8FEF9FEF089541155105B1
:105A200049F1009739F16115710521F1F894209140
:105A30003A0830913B08232BB9F420913C0830916F
:105A40003D08232B89F490933B0880933A08709388
:105A50003D0860933C08789426E030E090E080E0D8
:105A6000FA0131832083089578942FEF3FEF86EF7A
:105A70009FEFF6CF8FEF9FEF0895069769F4F894A4
:105A800010923B0810923A0810923D0810923C0880
:105A9000789490E080E008958FEF9FEF089561156E
:105AA000710519F4F0E0E0E011C08630910581F451
:105AB000E0913A08F0913B083097A1F3CB010196B1
:105AC0001995009779F3FC0186E08193CF01089541
:105AD0009C01235031092330310520F72AE0289F0B
