:1000000075C00000A4C00000A2C00000A0C0000095
:100010009EC000009CC000009AC0000098C0000074
:1000200096C0000094C0000092C0000090C0000084
:100030008EC000008CC000008AC0000088C0000094
:1000400086C0000084C0000082C0000080C00000A4
:100050007EC000007CC000007AC000000C946014D8
:1000600076C000000C9442160C94781670C0000004
:100070006EC000006CC000006AC0000068C00000D4
:1000800066C0000064C0000062C0000060C00000E4
:100090000C94CE160C9404175AC0000058C00000EF
:1000A00056C0000054C0000052C0000050C0000004
:1000B0004EC000004CC000004AC0000048C0000014
:1000C00046C0000044C000000C94A3100C945A17C2
:1000D0000C9490173CC000000C94E6170C941C186C
:1000E00036C00000A1162D17B917451811241FBEE0
:1000F000CFEFD1E2DEBFCDBF00E00CBF12E0A0E049
:10010000B2E0ECE4F6E300E00BBF02C007900D9212
:10011000AE37B107D9F726E0AEE7B2E001C01D92D5
:10012000A73CB207E1F710E0C6E7D0E000E006C068
:1001300021970109802FFE010E94181BC237D107A9
:1001400080E00807A9F70E9448110C94241B58CF9F
:10015000AB01BC0188E993E00C94CE1AAB01BC0161
:1001600085E394E00C94CE1AAB01BC0182ED94E0DF
:100170000C94CE1AAB01BC018FE695E00C94CE1A1C
:100180008F929F92AF92BF92CF92DF92EF92FF92A7
:100190000F931F93CF93DF93CDB7DEB77B014A0157
:1001A0005901CDB6DEB69B01220F331F4DB75EB7A6
:1001B000421B530B0FB6F8945EBF0FBE4DBF0DB779
:1001C0001EB70F5F1F4FE82FF0E0EE0FFF1FE05F3D
:1001D000FD4F0190F081E02DC8011995F801D4017F
:1001E000E00EF11EEE15FF0519F081918D93FACF07
:1001F00081E0F50180830FB6F894DEBE0FBECDBE60
:10020000DF91CF911F910F91FF90EF90DF90CF90F2
:10021000BF90AF909F908F9008952F923F924F92F2
:100220005F926F927F928F929F92AF92BF92CF9286
:10023000DF92EF92FF920F931F93CF93DF9300D043
:1002400000D000D01F92CDB7DEB7682E7A876987BD
:10025000742EB52E3C832B8348012A2C312C4E2C36
:10026000512C81E090E0012B11F490E080E0849D1E
:100270009001859D300D949D300D112449855A853E
:10028000420F531F5A834983062D10E0000F111FA0
:10029000F801E050FE4F0190F081E02D199541E00A
:1002A00050E0C114D10411F450E040E0429D9001AF
:1002B000439D300D529D300D1124A981BA812A0F22
:1002C0003B1F821793075CF5E72DFB2D29853A85A7
:1002D0002E0F3F1F3A83298349815A81E417F5077E
:1002E00011F01192F9CFAB81BC811C922A960FB606
:1002F000F894DEBF0FBECDBFDF91CF911F910F915C
:10030000FF90EF90DF90CF90BF90AF909F908F9035
:100310007F906F905F904F903F902F900895C11401
:10032000D10409F441C0F12CE12CF801E050FE4F5A
:10033000FE83ED839801285F3D4F38872F83AD8181
:10034000BE81ED91FC91E214F30474F51995892BAB
:1003500081F4E72DFB2D29853A852E0F3F1F3A8327
:10036000298349815A81E417F50709F4BCCF11921A
:10037000F8CFAF81B885ED91FC911995F601EE0D9E
:10038000FF1D9081981761F021E030E0F601908127
:10039000981302C030E020E0EE24FF24E21AF30AB2
:1003A000FFEFEF1AFF0ACBCF980120503E4F6901B3
:1003B000D901ED91FC911995E981FA818E179F077A
:1003C00084F4E72DFB2D29853A852E0F3F1F3A83B4
:1003D000298349815A81E417F50709F484CF1192E2
:1003E000F8CF2B813C81472D5B2D69857A85862D41
:1003F000C7DE8114910409F479CF7401085F1D4FA1
:10040000C70188199909841595050CF06FCFD6019D
:10041000ED91FC911995892B81F4E72DFB2D298510
:100420003A852E0F3F1F3A83298349815A81E41769
:10043000F50709F458CF1192F8CFD801ED91FC914E
:100440001995F70191917F019817D1F2E72DFB2DB6
:1004500029853A852E0F3F1F3A83298349815A8186
:10046000E417F50709F43FCF1192F8CF88E993E03C
:100470000C94321585E394E00C94321582ED94E0EF
:100480000C9432158FE695E00C94321588E993E0D0
:100490000C94181585E394E00C94181582ED94E003
:1004A0000C9418158FE695E00C941815882311F11B
:1004B000823071F08330A9F08130E1F426E030E041
:1004C00040E052EC61E070E081E090E00C944E106E
:1004D00026E030E040E052EC61E070E082E090E045
:1004E000F5CF26E030E040E052EC61E070E083E0E0
:1004F00090E0ECCF08952F923F924F925F926F92CF
:100500007F928F929F92AF92BF92CF92DF92EF92A3
:10051000FF920F931F93CF93DF931F92CDB7DEB758
:100520002B013A01D02EE9829C2DCA2CF401EF88D0
:10053000F88C998C6A8D7B8D4C8D843008F0EBC1E2
:10054000823051F0833009F456C0813049F435E3EC
:10055000232E34E0332E04C0A2ED2A2EA4E03A2E3E
:1005600030E02830310511F424E030E0269D5001C0
:10057000279DB00C369DB00C11240AE010E09923A1
:1005800051F000E110E0913031F008E010E09230DD
:1005900011F002E010E08111E1C0D11031C061150D
:1005A000710529F050E088E993E00E947218A501D6
:1005B000B20188E993E00E947218E114F10409F491
:1005C000AAC1492D50E0B70188E993E00F90DF916F
:1005D000CF911F910F91FF90EF90DF90CF90BF9040
:1005E000AF909F908F907F906F905F904F903F90D3
:1005F0002F900C9472185FE6252E55E0352EB0CF63
:10060000BF0188E993E00E94AE188981873008F025
:1006100082C1E82FF0E08827EF5EFC4F8F4F0C94EB
:10062000181B3003430357036D0383039703180319
:10063000AC2CB12CE1E06E1A710808F46CC1D20147
:100640004D915D916D917D912D01B1E0950188E90C
:1006500093E0DB1280C00E94911AECCF0E948619B1
:100660006A94AFEF6A1609F456C1F20161912F0145
:10067000F1E0A80188E993E0DF12F0CF0E94801931
:10068000EFCF0E949B196A948FEF681609F443C15B
:10069000D2016D917D912D01B1E0A80188E993E02F
:1006A000DB12EFCF0E949619EECF0E94AB196A942D
:1006B000EFEF6E1609F42FC1D2014D915D916D914E
:1006C0007D912D01B1E0980188E993E0DB12EDCF37
:1006D0000E947419ECCF0E9454196A94EFEF6E16C1
:1006E00009F419C1D2016D912D01062E000C770B72
:1006F000B1E0A80188E993E0DB12EDCF0E944E192A
:10070000ECCF0E9454196A94EFEF6E1609F403C1FE
:10071000D2016D917D912D01B1E0A80188E993E0AE
:10072000DB12EFCF0E944E19EECF0E9464196A943B
:10073000EFEF6E1609F4EFC0D2014D915D916D910E
:100740007D912D01B1E0980188E993E0DB12EDCFB6
:100750000E940919ECCF0E94921A6CCFD11038C0B8
:100760006115710549F050E0D101ED91FC910280D5
:10077000F381E02DC1011995D101ED91FC91028029
:10078000F381E02DA501B201C1011995E114F10435
:1007900009F4C1C0492D50E0D101ED91FC910280D6
:1007A000F381E02DB701C1010F90DF91CF911F912F
:1007B0000F91FF90EF90DF90CF90BF90AF909F9000
:1007C0008F907F906F905F904F903F902F901994F3
:1007D000BF01C1010E94AE18B981B73008F09BC0BB
:1007E000EB2FF0E08827E850FC4F8F4F0C94181B3C
:1007F000160428043B04500464047604FF03AC2C64
:10080000B12CE1E06E1A710808F485C0D2014D9157
:100810005D916D917D912D01B1E09501C101DB12DA
:1008200077C00E94911AEDCF0E9486196A94EFEF6B
:100830006E1609F470C0D2016D912D01B1E0A801CE
:10084000C101DB12F1CF0E948019F0CF0E949B19E9
:100850006A94EFEF6E1609F45EC0D2016D917D913E
:100860002D01B1E0A801C101DB12F0CF0E94961961
:10087000EFCF0E94AB196A94EFEF6E1609F44BC0EC
:10088000D2014D915D916D917D912D01B1E0980165
:10089000C101DB12EECF0E947419EDCF0E945419F2
:1008A0006A94EFEF6E16B9F1D2016D912D01062E0B
:1008B000000C770BB1E0A801C101DB12EFCF0E9461
:1008C0004E19EECF0E9454196A94EFEF6E1619F18B
:1008D000D2016D917D912D01B1E0A801C101DB1222
:1008E000F1CF0E944E19F0CF0E9464196A94EFEF85
:1008F0006E1689F0D2014D915D916D917D912D0122
:10090000B1E09801C101DB12EFCF0E940919EECFCF
:100910000E94921A76CF0F90DF91CF911F910F9185
:10092000FF90EF90DF90CF90BF90AF909F908F900F
:100930007F906F905F904F903F902F900895CF924F
:10094000DF92EF92FF926B017C010E94441088239A
:1009500079F0C090B906D090BA06E090BB06F0904E
:10096000BC06C701B601FF90EF90DF90CF900895CD
:10097000C701B6010E9401108111EBCF20E030E0E9
:10098000A901C701B6010E940912882329F120E0BC
:1009900030E040E853E4C701B6010E94FD126B014C
:1009A0007C0120E030E0A9010E9409128823A1F017
:1009B00020E030E0A901C701B6010E94091287FFBB
:1009C000D0CF20E030E040E853E4C701B6010E94F8
:1009D00092116B017C01C5CFC12CD12C7601C1CF06
:1009E000FC0191E080916E03811190E09283089563
:1009F000CF92DF92EF92FF926B017C019F7720E014
:100A000030E040E859E50E94091287FF2BC020E042
:100A100030E040E05FE3C701B6010E94F91387FDB3
:100A20000EC020E030E040E05FE3C701B6010E9465
:100A30009211FF90EF90DF90CF900C94E31220E0A2
:100A400030E040E05FEBC701B6010E94F9131816D1
:100A500084F420E030E0A901C701B6010E94FD1333
:100A60006B017C01C701B601FF90EF90DF90CF9042
:100A7000089520E030E040E05FE3C701B6010E9446
:100A80009111FF90EF90DF90CF900C94F611CF92E0
:100A9000DF92EF92FF920F931F93CF93DF93C0915A
:100AA0000B03D0910C030CE016E0F80182859385CE
:100AB000A485B58588839983AA83BB8388E1E82EC2
:100AC00082E0F82E9AE3C92E96E0D92EF601248111
:100AD000358146815781F7016489758986899789AF
:100AE0000E94FD13F80126853785408951890E94AF
:100AF00092116C837D838E839F83F8018689978909
:100B0000A08DB18D88879987AA87BB87F601248538
:100B1000358546855785F70160A971A982A993A9F2
:100B20000E94FD13F801268D378D40A151A10E942E
:100B300092116C877D878E879F87DF91CF911F9160
:100B40000F91FF90EF90DF90CF9008952F923F92FA
:100B50004F925F926F927F928F929F92AF92BF92CD
:100B6000CF92DF92EF92FF920F931F93CF93DF9379
:100B7000CDB7DEB7E8970FB6F894DEBF0FBECDBF96
:100B8000209074033090750321E02216310409F09F
:100B90005CC06091600370916103809162039091E9
:100BA00063036F5F7F4F8F4F9F4F0E94A61220916C
:100BB00064033091650340916603509167030E947E
:100BC000FD1360938C0270938D0280938E0290933C
:100BD0008F0280916E0390916D03911105C091E099
:100BE000811190E090936F038F5F843608F4ECC717
:100BF00010926E034E019BE0890E911CA12CD12C0A
:100C0000C12CE12C10E000E09401AE01445F5F4F85
:100C100061E070E081E001DBDE0111967D018D0174
:100C2000D8011D928D018A169B06D1F79B859130C4
:100C300009F0CFC18091AC06DC8481117DC1BAEA94
:100C4000DB1609F465C080E073C02114310499F407
:100C5000E091BC02F091BD020190F081E02D808115
:100C60009181A281B381E0917703F0917803808331
:100C70009183A283B383E0917703F0917803C080DE
:100C8000D180E280F38030916E063F8F80916F06B5
:100C90008DA39091700699A3A0917106A98FB09130
:100CA0007606BD87E0917706E98BF0917806FD8B9B
:100CB000209179062D8FA70196016F8D782F892FAE
:100CC0009A2F0E94F9132D8539894D895D8D87FDF5
:100CD000A2C1C701B6010E94091220E030E0A901BB
:100CE00018160CF0DBC12D8539894D895D8D6F8D0E
:100CF0007DA189A1998D0E94091287FD94C18090E0
:100D00007A0690907B06A0907C06B0907D06A6C1E6
:100D1000D092A20640E050E060E87FE34093960660
:100D20005093970660939806709399069093AC063B
:100D3000ECE0F6E0D7019D917D0191930A171B0726
:100D4000C9F7882309F48CC00A81002309F454C12F
:100D50000150110B6B81662309F451C16150770B6F
:100D6000072E000C880B990B0E94A81220E030E09F
:100D700048EC52E40E940D126B017C01B801110F86
:100D8000880B990B0E94A8129B01AC01C701B60108
:100D90000E94921120E030E040E251E40E94FD13F5
:100DA00060938E0670938F068093900690939106C1
:100DB0000C81002309F426C10150110B6D816623BB
:100DC00009F423C16150770B072E000C880B990B97
:100DD0000E94A81220E030E048EC52E40E940D127C
:100DE0006B017C01B801110F880B990B0E94A812AE
:100DF0009B01AC01C701B6010E94921120E030E0D6
:100E000040E251E40E94FD136093920670939306B2
:100E100080939406909395068F81813011F41092FF
:100E2000120680911206882309F4F2C08150990BB2
:100E30004AE0489F9001499F300D112430939B0652
:100E400020939A068E819EE1980F9D3310F4809333
:100E50009C0688859EE1980F9D3310F480939D0633
:100E600000919A0610919B0660919D06062E000C3B
:100E7000770B880B990B0E94A812209118023091D1
:100E8000190240911A0250911B020E94FD132B017E
:100E90003C018091540260919C068602F00111246D
:100EA000F8A7EFA3C12CD12C90E8E92E9FE3F92EEF
:100EB0000115110519F4C12CD12C7601C09232060E
:100EC000D0923306E0923406F0923506B80190E0F5
:100ED00080E00E94A612A30192010E9492114B0190
:100EE0005C012FA138A5B901330F880B990B0E9423
:100EF000A81220E030E040E85DE30E94FD139B0172
:100F0000AC01C501B4010E94921120918E0630916E
:100F10008F0640919006509191060E949111A70171
:100F200096010E94FD136093160670931706809336
:100F30001806909319069FCEEAEADE120CC080E0F4
:100F400090E0A0E8BFE38093960690939706A09365
:100F50009806B093990620E030E040E85FE36091A6
:100F600096067091970680919806909199060E9436
:100F700092114B015C018092960690929706A09286
:100F80009806B09299060E947512665B794F695A6D
:100F90007F4FDB01DC9220E030E040E251E4C5010C
:100FA000B4010E94091281114ECEA2EAB6E0F70107
:100FB0008D9181930E171F07D9F710929606109204
:100FC000970610929806109299061092AC0681E04E
:100FD000AFCEE2EAF6E08CEA96E011928E179F0718
:100FE000E1F71092960610929706109298061092CA
:100FF00099061092AC0627CE10E000E0ABCE70E070
:1010000060E0AECE10E000E0D9CE70E060E0DCCE73
:1010100090E080E00DCF6F8D7DA189A1998D0E9418
:10102000091287FF9EC22D8539894D895D8DC701C3
:10103000B6010E94F91318160CF461CE8090720666
:1010400090907306A0907406B09075063F8D3D8712
:101050008DA1898B99A19D8BA98DAD8F2D85398906
:101060004D895D8DC701B6010E9491116D877E8704
:101070008F87988BA50194016091160670911706D1
:1010800080911806909119060E9491112D853E8538
:101090004F8558890E940D129B01AC0160911C0282
:1010A00070911D0280911E0290911F020E94FD13FB
:1010B00060931A0670931B0680931C0690931D067E
:1010C00031E02316310409F077C0209116063091E3
:1010D00017064091180650911906609120027091F0
:1010E000210280912202909123020E94FD136093BD
:1010F0001E0670931F068093200690932106812C74
:10110000912C80E8A82E8FE3B82E0115110519F453
:10111000812C912C540180922E0690922F06A09241
:101120003006B0923106B80190E080E00E94A6122D
:10113000A30192010E9491112B013C01AFA1B8A51E
:10114000BD01BB0F880B990B0E94A81220E030E074
:1011500040E85DE30E94FD139B01AC01C301B201B5
:101160000E9492112091920630919306409194062C
:10117000509195060E949111A50194010E94FD13C2
:101180009B01AC0120932206309323064093240652
:101190005093250660913C0270913D0280913E0281
:1011A00090913F020E94FD136093260670932706DC
:1011B00080932806909329062091340230913502BD
:1011C0004091360250913702609138027091390295
:1011D00080913A0290913B020E9491119B01AC01D7
:1011E00060E070E08AE794E40E940D122B013C015C
:1011F00020913A0630913B0640913C0650913D06C5
:10120000609128027091290280912A0290912B020C
:101210000E94FD1320911E0630911F06409120066A
:10122000509121060E9492114B015C0120913E06D3
:1012300030913F0640914006509141066091300246
:101240007091310280913202909133020E94FD131D
:101250009B01AC01C501B4010E949211209132069C
:101260003091330640913406509135060E94FD13AB
:101270000E94E3124B015C0107D7811183C1C501B4
:10128000B401BFD681117EC120E030E040E857E4D0
:10129000C501B4010E94FD124B015C0120E030E069
:1012A000A9010E94091287FF70C1C501B4019058BD
:1012B0000E947A12719561957109072E000C880BB6
:1012C000990B0E94A812209134023091350240916E
:1012D0003602509137020E9491118ADB4B015C016A
:1012E00020E030E040E057E40E9409126FEF7FE712
:1012F00087FF10C020E030E040E057ECC501B401AA
:101300000E94F91360E070E887FD04C0C501B401D4
:101310000E947512072E000C880B990B0E94A812D0
:10132000A30192010E94FD1363DB4B015C0120E0ED
:1013300030E040E057E40E94091287FF2AC120E014
:1013400030E040E057ECC501B4010E94F91387FD7D
:1013500023C1C501B4010E947512643FB1E87B0747
:101360000CF41AC18B01045F1140209142063091A8
:1013700043064091440650914506609144027091A5
:10138000450280914602909147020E94FD132091F0
:101390002606309127064091280650912906C2D78B
:1013A0004B015C012091460630914706409148066A
:1013B0005091490660914C0270914D0280914E020D
:1013C00090914F020E94FD139B01AC01C501B40135
:1013D000A9D720912E0630912F06409130065091CA
:1013E00031060E94FD130E94E3124B015C014CD6B2
:1013F0008111D5C0C501B40104D68111D0C020E04F
:1014000030E040E857E4C501B4010E94FD124B01F1
:101410005C0120E030E0A901FCD787FFC3C0C50113
:10142000B40190580E947A12719561957109072E46
:10143000000C880B990B0E94A81220913402309165
:10144000350240913602509137026BD7D1DA4B0109
:101450005C0120E030E040E057E4DBD76FEF7FE74E
:1014600087FF10C020E030E040E057ECC501B40138
:101470000E94F91360E070E887FD04C0C501B40163
:101480000E947512072E000C880B990B0E94A8125F
:10149000A30192010E94FD13ABDA4B015C0120E035
:1014A00030E040E057E4B5D787FF80C020E030E06F
:1014B00040E057ECC501B4010E94F91387FD79C0E3
:1014C000C501B4010E947512643FE1E87E070CF487
:1014D00070C0645F71402A94232861F480916F0387
:1014E000882341F010939E0600939F067093A006F8
:1014F0006093A10660907E0670907F0680908006C3
:10150000909081061091860600918706B09088061B
:10151000A0908906A7019601B301C4010E94F913A6
:10152000212F302F4B2D5A2D87FD46C0C701B60104
:1015300070D720E030E0A90118160CF072C0212FFE
:10154000302F4B2D5A2DB301C40163D787FD39C00D
:1015500020908A0630908B0640908C0650908D0625
:1015600047C08090720690907306A0907406B09069
:101570007506BF8DBD87EDA1E98BF9A1FD8B298D86
:101580002D8F6CCD812C912C5401C501B401B2D7A3
:1015900094CE6FEF7FE7E6CE00E010E8E6CE812C38
:1015A000912C5401C501B401A5D741CF6FEF7FE75E
:1015B00090CF60E070E88FCFB301C4012AD787FFD6
:1015C0000BC0212F302F4B2D5A2DC701B6010E9481
:1015D000F91318160CF4BCCF2090820630908306C5
:1015E0004090840650908506162D072DB82CA92C06
:1015F000212F302F4B2D5A2DC701B60192D66B01EA
:101600007C01A201910160912206709123068091D4
:1016100024069091250685D6A7019601FED69B014A
:10162000AC016091500270915102809152029091F0
:1016300053020E94FD1360932A0670932B06809339
:101640002C0690932D068091740390917503019759
:1016500009F059C280916E0690916F06A0917006B4
:10166000B09171068D879E87AF87B88BC090B50605
:10167000D090B606E090B706F090B80600917703D8
:1016800010917803D8018D909D90AD90BC90A701EA
:1016900096016D857E858F859889BBD681114CC258
:1016A00080926E0690926F06A0927006B0927106BC
:1016B000E2E7F6E08091160690911706A0911806D1
:1016C000B091190680839183A283B38380917E06B3
:1016D00090917F06A0918006B09181068D879E87AC
:1016E000AF87B88B9C01AD01C701B60192D6D80176
:1016F0008D909D90AD90BC90811142C280927E06EB
:1017000090927F06A0928006B0928106E2E8F6E011
:101710008091220690912306A0912406B09125067F
:1017200080839183A283B383E091BC02F091BD02D8
:101730000190F081E02D80819181A281B38189A304
:101740009AA3ABA3BCA380918C0290918D02A0912F
:101750008E02B0918F0289AB9AABABABBCABE09180
:101760009002F091910280809180A280B380E091FC
:10177000C002F091C10270806180E0918402F0911A
:10178000850220803180528043809481998FA58189
:10179000AFA3B681BFA7278128ABE0918202F09169
:1017A00083021182108280E1E72DF62DD101019094
:1017B0000D928A95E1F7E091BA02F091BB02508256
:1017C000418265D920E030E040E05FE3C501B4012B
:1017D0000E94FD136B017C013EA22DA25F8E48A2E8
:1017E0007D8E6E8E8101005F1F4F7D866E86598AC9
:1017F0004A8A3E8A2D8AED89FE8981919191A19133
:10180000B191FE8BED8B8BA79CA7ADA7BEA7A98935
:10181000BA892D913D914D915D91BA8BA98BC701EC
:10182000B601EBD72BA53CA54DA55EA57BD5ED85D7
:10183000FE856193719381939193FE87ED872D8946
:101840003E8902171307B9F6E091BC02F091BD0280
:1018500000811181A701960169A17AA18BA19CA1A8
:1018600061D5D8016D937D938D939C931397E091EF
:10187000BA02F091BB02B98DB0832FA1218366D942
:1018800006D920E030E0A901C501B401B6D76BA7A5
:101890007CA78DA79EA720E030E040E45FE3C50170
:1018A000B401ABD76B017C01398D3D878FA18E8749
:1018B000072D162DAD85BE85BA8FA98F598A4A8A04
:1018C000F10181919191A191B1911F018FA398A7ED
:1018D000A9A7BAA7A989BA896D917D918D919D918A
:1018E000BA8BA98BE98DFA8D4190519061907190DE
:1018F000FA8FE98F2BA53CA54DA55EA57ED76DABD4
:101900007EAB8FAB98AFA7019601C301B20175D72B
:101910009B01AC016DA97EA98FA998AD03D52FA11C
:1019200038A549A55AA5FED4D8016D937D938D9312
:101930009D938D01ED89FE89E215F30509F0C0CF75
:10194000E091BC02F091BD0200811181A7019601D6
:1019500069A17AA18BA19CA1E5D4D8016D937D9357
:101960008D939C931397E091BA02F091BB02BFA5AF
:10197000B08328A92183EAD88AD829E33EE843E640
:101980005EE3C501B40139D76D8B7E8B8F8B988F49
:101990002BEA3AEA4AEA5EE3C501B4012ED769A30D
:1019A0007AA38BA39CA329E33EE843EE5EE3C50143
:1019B000B40123D7698F7A8F8B8F9C8F0FA518A9BD
:1019C000EDA1FEA181919191A191B191FEA3EDA311
:1019D000898B9A8BAB8BBC8BAF8DB8A16D917D91B0
:1019E0008D919D91B8A3AF8FED85FE85419051906B
:1019F00061907190FE87ED87D801CD90DD90ED90DC
:101A0000FD908D012D893E894F89588DF6D64B0169
:101A10005C0129A13AA14BA15CA1C301B201EDD6A1
:101A20009B01AC01C501B4017DD44B015C01298D42
:101A30003A8D4B8D5C8DC701B601DFD69B01AC01A1
:101A4000C501B4016FD429893A894B895C896AD46C
:101A5000ED8DFE8D6193719381939193FE8FED8F48
:101A60002DA13EA12216330609F0AACFE091BC02B7
:101A7000F091BD020190F081E02D89A99AA9ABA94E
:101A8000BCA980839183A283B383E0918202F09109
:101A9000830281E090E09183808380916003909144
:101AA0006103A0916203B09163030196A11DB11D72
:101AB0008093600390936103A0936203B0936303E8
:101AC00080918C0290918D02A0918E02B0918F0234
:101AD000E0917703F091780380839183A283B383AD
:101AE0008091680390916903A0916A03B0916B03A0
:101AF0000196A11DB11D8093680390936903A09383
:101B00006A03B0936B03E8960FB6F894DEBF0FBE7E
:101B1000CDBFDF91CF911F910F91FF90EF90DF909C
:101B2000CF90BF90AF909F908F907F906F905F907D
:101B30004F903F902F9008954090760650907706F2
:101B40006090780670907906A3019201C701B601F2
:101B500060D481110BC08092760690927706A09295
:101B60007806B0927906EAE7F6E0A4CDA3019201E7
:101B70006D857E858F8598894CD487FFECCF90CD7D
:101B8000409086065090870660908806709089067F
:101B9000A3019201C701B6013CD481110BC0809210
:101BA000860690928706A0928806B0928906EAE897
:101BB000F6E0AECDA30192016D857E858F85988973
:101BC00028D487FFECCF9ACD80936E0313C88F92F1
:101BD0009F92AF92CF92DF92EF92FF920F93CF93AB
:101BE000DF9300D000D01F92CDB7DEB720919E06C4
:101BF000298390919F069A838091A0068B836091A0
:101C0000A1066C83290F3327331F820F932F911D59
:101C1000680F792F711D072E000C880B990B98D433
:101C20000E949F049B01AC0160E070E080E893E4B7
:101C300078D30E949F040E94F8046B017C0120E08D
:101C400030E040E853E4E5D387FF73C020E030E0A4
:101C5000A901C701B601CDD587FD69C0C701B6018D
:101C600049D46D8385E58E838AEA8F83609160060F
:101C70007091610680916206909163063BD4C62EF6
:101C8000609158067091590680915A0690915B06B2
:101C900031D4E62E60915C0670915D0680915E06FF
:101CA00090915F0627D4062F6091540670915506D7
:101CB00080915606909157061DD4F62E60915006DD
:101CC00070915106809152069091530613D4862F3D
:101CD00091E09F939E01295F3F4F3F932F939F93E6
:101CE000215031093F932F93912C812C92E0A92E02
:101CF0002F2D45E050E0BE016F5F7F4F0E947B02B9
:101D00000F900F900F900F900F900F9027960FB697
:101D1000F894DEBF0FBECDBFDF91CF910F91FF9042
:101D2000EF90DF90CF90AF909F908F9008951D829D
:101D300099CF8FEF8D8396CFCF92DF92EF92FF9264
:101D40000F931F93CF93DF9384E090E023D1EEE7CE
:101D5000F2E0A4E7B3E0B583A48387E793E097AF0D
:101D600086AF04E613E0138B028B2BE033E035AF34
:101D700024AF65E073E07093C1026093C0022AE56E
:101D800033E03093BF022093BE022CE533E0309362
:101D9000C3022093C20227E033E03093C5022093B0
:101DA000C40229E033E03093C7022093C6024DE01D
:101DB00053E05093030340930203F093E702E09350
:101DC000E602F383E28321E030E02D933C9310920E
:101DD000FD021092040322E533E0C2E1D3E0D90111
:101DE000CD93DC93A2E2B3E0B0935503A0935403E8
:101DF000A2E3B3E0B0935703A0935603A2E4B3E089
:101E0000B0935903A0935803AAE3B6E0EB01B9835A
:101E1000A88366E376E0EA01798368831092700311
:101E2000109271031092720310927303378326830A
:101E300025E532E03187208729E733E0FC01318353
:101E400020834FE652E163E87AE3E801488359834F
:101E50006A837B834091B5065091B6066091B706C0
:101E60007091B806CAE4D6E04CA35DA36EA37FA32D
:101E70004CA75DA76EA77FA7E8E1F2E0C484D584F4
:101E8000E684F784CD92DD92ED92FC92139714963E
:101E90001D921D921D921C921797C0A4D1A4E2A47A
:101EA000F3A41896CD92DD92ED92FC921B971C96AE
:101EB0001D921D921D921C921F974CAB5DAB6EAB99
:101EC0007FAB4CAF5DAF6EAF7FAF1882C12CD12C12
:101ED0007601C394C982DA82EB82FC8280E090E0D2
:101EE000A0E8BFE38E839F83A887B9878A879B87F3
:101EF000AC87BD871E861F86188A198A1A8A1B8A94
:101F00001C8A1D8A1E8A1F8A188E198E81E00E94E3
:101F1000560211E01D831C8ECD8EDE8EEF8EF8A250
:101F200081E00E94560219A3DF91CF911F910F917A
:101F3000FF90EF90DF90CF90089580916606811119
:101F400003C081E08093660680914A06811103C038
:101F500081E080934A06089560E070E080E89FE7A2
:101F6000089560E070E080E89FE7089560E070E029
:101F700080E89FEF089560E070E080E89FEF0895AB
:101F800060E070E080EC9FEF089560E070E080EC2E
:101F90009FEF0895F5DF6093B9067093BA068093BA
:101FA000BB069093BC06F1DF6093AD067093AE065E
:101FB0008093AF069093B006CFDF6093B506709321
:101FC000B6068093B7069093B806CBDF6093B10650
:101FD0007093B2068093B3069093B406C7DF609304
:101FE000BD067093BE068093BF069093C006C3DF04
:101FF0006093C1067093C2068093C3069093C40693
:102000000895CF92DF92EF92FF92CF936B017C0104
:10201000AC019B016091B5067091B6068091B70640
:102020009091B806F6D1C1E0882369F0A701960126
:102030006091BD067091BE068091BF069091C0066A
:10204000E8D18111C0E08C2FCF91FF90EF90DF900D
:10205000CF9008950F931F938B019C0100271127A8
:1020600020783F770115110520483F4749F4AB011F
:10207000BC016F77772781E0452B462B472B09F46E
:1020800080E01F910F910895E5CF26E030E040E019
:1020900052EC61E070E090E080E000C010928603B6
:1020A000109285038930910508F03AC0FC01882719
:1020B000E35AFF4E8F4F0C94181B66106F10781068
:1020C00081108A109110941097109D1081E090E07B
:1020D000909386038093850388E993E073C582E03B
:1020E00090E0909386038093850385E394E0F6CF98
:1020F00084E090E0909386038093850382ED94E0E2
:10210000EDCF88E090E090938603809385038FE67F
:1021100095E0E4CF80E190E090938603809385037F
:10212000089580E290E0F8CF80E490E0F5CF80E879
:1021300090E090938603809385038091850390912E
:1021400086039160E9CF1F920F920FB60F92112470
:102150000BB60F922F933F934F935F936F937F93A1
:102160008F939F93AF93BF93EF93FF9386E09FEF7F
:10217000909325018093240134D0FF91EF91BF917A
:10218000AF919F918F917F916F915F914F913F910F
:102190002F910F900BBE0F900FBE0F901F901895B0
:1021A00086E09FEF9093250180932401A3E7B0E0A0
:1021B0008C918E7F8C93E0E2F1E080818C7F808334
:1021C000E1E2F1E08081877E80838081836080838B
:1021D00080818B7F80838C9181608C93089581E0D6
:1021E0000895CF93DF9300D0CDB7DEB780918A03F7
:1021F00091E0980F90938A03882371F021E030E0FA
:1022000030938E0320938D0380938A030F900F9059
:102210000F90DF91CF910895CE0101960E94F004B6
:1022200078940E94A605F89480918A038150809347
:102230008A038B81882389F08091890391E0980F2C
:1022400090938903882349F021E030E030938E0396
:1022500020938D0380938903D9CF809189038823AC
:10226000A9F280918B038111D1CF80918C038F5F74
:1022700080938C037894ABDCF8948091890381502F
:102280008093890380918C03815080938C03BECF0F
:102290000F931F93CF93DF931092C6061092C5063B
:1022A00065D3F3DEC0915A02D0915B021982188285
:1022B00043DDF89475DF88819981892B31F481E0C1
:1022C000FE01E850FF4F9081911180E08093C50698
:1022D000789478948E0108501F4F8091C506811123
:1022E00009C02BDEF89490E080E0DF91CF911F9140
:1022F0000F91089588819981892B89F481E0F801F3
:102300009081911101C080E08093C6069091C6062D
:1023100081E0911180E08093C50661DFDECF81E02E
:10232000F3CF5058BB27AA270ED012C203D230F0E9
:1023300008D220F031F49F3F11F41EF4F8C10EF4DE
:10234000E095E7FBC5C1E92F14D280F3BA17620705
:1023500073078407950718F071F49EF543C20EF4D5
:10236000E0950B2EBA2FA02D0B01B90190010C01A5
:10237000CA01A0011124FF27591B99F0593F50F4BD
:10238000503E68F11A16F040A22F232F342F442715
:10239000585FF3CF469537952795A795F04053950D
:1023A000C9F77EF41F16BA0B620B730B840BBAF0DD
:1023B0009150A1F0FF0FBB1F661F771F881FC2F748
:1023C0000EC0BA0F621F731F841F48F4879577955C
:1023D0006795B795F7959E3F08F0B3CF9395880F13
:1023E00008F09927EE0F979587950895E4D180F02E
:1023F0009F3740F491110EF4F6C160E070E080E880
:102400009FE3089526F01B16611D711D811D66C195
:1024100080C13AD108F481E008950CD099C191D1DE
:1024200040F088D130F021F45F3F19F051C15111D3
:10243000DAC17DC19ED198F39923C9F35523B1F335
:10244000951B550BBB27AA2762177307840738F023
:102450009F5F5F4F220F331F441FAA1FA9F333D082
:102460000E2E3AF0E0E830D091505040E695001C36
:10247000CAF729D0FE2F27D0660F771F881FBB1FF2
:10248000261737074807AB07B0E809F0BB0B802DCC
:10249000BF01FF2793585F4F2AF09E3F510568F018
:1024A00017C1A1C15F3FECF3983EDCF386957795A9
:1024B0006795B795F7959F5FC9F7880F911D96951A
:1024C000879597F90895E1E0660F771F881FBB1F76
:1024D000621773078407BA0720F0621B730B840B23
:1024E000BA0BEE1F88F7E095089504D06894B111F7
:1024F0007AC1089546D188F09F5790F0B92F992757
:10250000B751A0F0D1F0660F771F881F991F1AF0FE
:10251000BA95C9F712C0B13081F064D1B1E0089525
:1025200061C1672F782F8827B85F39F0B93FCCF3A6
:10253000869577956795B395D9F73EF490958095F4
:10254000709561957F4F8F4F9F4F0895E89409C014
:1025500097FB3EF490958095709561957F4F8F4FD6
:102560009F4F9923A9F0F92F96E9BB279395F695EC
:10257000879577956795B795F111F8CFFAF4BB0F6A
:1025800011F460FF1BC06F5F7F4F8F4F9F4F16C0CE
:10259000882311F096E911C0772321F09EE8872F58
:1025A000762F05C0662371F096E8862F70E060E014
:1025B0002AF09A95660F771F881FDAF7880F96958D
:1025C000879597F90895F7D080F09F3740F49111DF
:1025D0000EF009C160E070E080E89FEB089526F4FA
:1025E0001B16611D711D811D79C093C0A3D018F009
:1025F00011F0A7D038F49BC0F6C0E92FBAD0B0F3E1
:102600005523C9F3E7FB6217730784079507A8F101
:1026100099F3E92FFF2788232AF03197660F771F58
:10262000881FDAF7952F5527442332F091505040F8
:10263000220F331F441FD2F7BB27E91BF50B621B88
:10264000730B840BB109C1F222F4620F731F841F54
:10265000B11D31972AF0660F771F881FBB1FEFCF80
:10266000915050405AF041F0882332F0660F771FA6
:10267000881F91505040C1F793954BC08695779530
:1026800067959F5FD9F7F8CF990F0008550FAA0BF0
:10269000E0E8FEEF16161706E807F907C0F0121675
:1026A0001306E407F50798F0621B730B840B950B78
:1026B00039F40A2661F0232B242B252B21F40895CD
:1026C0000A2609F4A140A6958FEF811D811D08956A
:1026D00097F99F6780E870E060E00895882371F4BF
:1026E000772321F09850872B762F07C0662311F4AB
:1026F00099270DC09051862B70E060E02AF09A95E2
:10270000660F771F881FDAF7880F9695879597F9D8
:1027100008959F3F31F0915020F487957795679504
:10272000B795880F911D9695879597F908959FEF16
:1027300080EC089500240A94161617061806090658
:10274000089500240A941216130614060506089527
:10275000092E0394000C11F4882352F0BB0F40F4AF
:10276000BF2B11F460FF04C06F5F7F4F8F4F9F4FEF
:10277000089557FD9058440F551F59F05F3F71F071
:102780004795880F97FB991F61F09F3F79F08795D8
:102790000895121613061406551FF2CF4695F1DF61
:1027A00008C0161617061806991FF1CF86957105F1
:1027B000610508940895E5DFA0F0BEE7B91788F435
:1027C000BB279F3860F41616B11D672F782F882716
:1027D000985FF7CF869577956795B11D9395963954
:1027E000C8F30895E894BB2766277727CB0197F9AC
:1027F00008954ADF08F48FEF08950BD0A9CF9ADF30
:1028000028F09FDF18F0952309F062CF90CF1124B4
:10281000EACFAFDFA0F3959FD1F3950F50E0551F9E
:10282000629FF001729FBB27F00DB11D639FAA2725
:10283000F00DB11DAA1F649F6627B00DA11D661F74
:10284000829F2227B00DA11D621F739FB00DA11D95
:10285000621F839FA00D611D221F749F3327A00D4F
:10286000611D231F849F600D211D822F762F6A2FEB
:1028700011249F5750408AF0E1F088234AF0EE0F70
:10288000FF1FBB1F661F771F881F91505040A9F77D
:102890009E3F510570F01CCFA6CF5F3FECF3983EF2
:1028A000DCF3869577956795B795F795E7959F5FE4
:1028B000C1F7FE2B880F911D9695879597F908957E
:1028C0001F920F920FB60F9211242F933F938F9365
:1028D0009F93AF93BF938091900390919103A091A8
:1028E0009203B091930330918F0323E0230F2D3790
:1028F00058F50196A11DB11D20938F03809390037D
:1029000090939103A0939203B093930380919403C7
:1029100090919503A0919603B09197030196A11D04
:10292000B11D8093940390939503A0939603B09365
:102930009703BF91AF919F918F913F912F910F90EE
:102940000FBE0F901F90189526E8230F0296A11D29
:10295000B11DD2CF2FB7F89460919003709191037D
:1029600080919203909193032FBF0895789484B53A
:10297000826084BD84B5816084BD85B5826085BD7B
:1029800085B5816085BDEEE6F0E080818160808361
:10299000E1E8F0E010828081826080838081816044
:1029A0008083E0E8F0E0808181608083E1EBF0E00B
:1029B000808184608083E0EBF0E0808181608083AF
:1029C000E1E9F0E0808182608083808181608083A2
:1029D000E0E9F0E0808181608083E1EAF0E08081DD
:1029E00082608083808181608083E0EAF0E0808182
:1029F00081608083E1E2F1E0808182608083808178
:102A000081608083E0E2F1E0808181608083EAE799
:102A1000F0E0808184608083808182608083808117
:102A2000816080838081806880831092C1000895D6
:102A3000FC01918D228D892F90E0805C9F4F821B3D
:102A400091098F7399270895FC01918D828D9817B4
:102A500031F0828DE80FF11D858D90E008958FEFA4
:102A60009FEF0895FC01918D828D981761F0A28DE2
:102A7000AE0FBF2FB11D5D968C91928D9F5F9F739E
:102A8000928F90E008958FEF9FEF0895FC01538D92
:102A9000448D252F30E0842F90E0821B930B541738
:102AA00010F0CF96089501970895FC01A48DA80F0A
:102AB000B92FB11DA35ABF4F2C91848D90E0019680
:102AC0008F739927848FA689B7892C93A089B189A0
:102AD0008C91837080648C93938D848D981306C041
:102AE0000288F389E02D80818F7D80830895CF93C4
:102AF000DF93EC01888D8823B1F0AA89BB89E8892E
:102B0000F9898C9185FD03C0808186FD0CC00FB6CC
:102B100007FCF7CF8C9185FFF2CF808185FFEDCF49
:102B2000CE01C3DFEACFDF91CF910895EF92FF92FC
:102B30000F931F93CF93DF93EC0181E0888F9B8DE0
:102B40008C8D98131AC0E889F989808185FF15C09A
:102B50009FB7F894EE89FF896083E889F9898081BD
:102B60008370806480839FBF81E090E0DF91CF918C
:102B70001F910F91FF90EF900895F62E0B8D10E0AE
:102B80000F5F1F4F0F731127E02E8C8D8E110BC01E
:102B90000FB607FCFACFE889F989808185FFF5CF68
:102BA000CE0183DFF2CFEB8DEC0FFD2FF11DE35A49
:102BB000FF4FF0829FB7F8940B8FEA89FB898081E1
:102BC0008062D0CFCF92DF92EF92FF921F93CF938C
:102BD000DF93EC016A017B01122FE889F98982E019
:102BE0008083C11481EED806E104F10499F060E01D
:102BF00079E08DE390E0A7019601F8D421503109E6
:102C0000410951095695479537952795211580E13A
:102C1000380790F0E889F989108260E874E88EE15D
:102C200090E0A7019601E2D42150310941095109F0
:102C30005695479537952795EC85FD853083EE852C
:102C4000FF852083188EEC89FD891083EA89FB8932
:102C5000808180618083EA89FB89808188608083AC
:102C6000EA89FB89808180688083EA89FB89808189
:102C70008F7D8083DF91CF911F91FF90EF90DF9048
:102C8000CF9008951F920F920FB60F9211240BB69A
:102C90000F922F938F939F93EF93FF93E091A8034D
:102CA000F091A9038081E091AE03F091AF0382FD22
:102CB0001DC090818091B1038F5F8F732091B2030B
:102CC000821741F0E091B103F0E0E856FC4F958F98
:102CD0008093B103FF91EF919F918F912F910F906E
:102CE0000BBE0F900FBE0F901F9018958081F2CFF2
:102CF0001F920F920FB60F9211240BB60F922F93C3
:102D00003F934F935F936F937F938F939F93AF9373
:102D1000BF93EF93FF9388E993E0C7DEFF91EF91B4
:102D2000BF91AF919F918F917F916F915F914F91E3
:102D30003F912F910F900BBE0F900FBE0F901F90E1
:102D40001895E8E9F3E01382128288EE93E0A0E0A0
:102D5000B0E084839583A683B78380E692E0918375
:102D6000808385EC90E09587848784EC90E097875A
:102D7000868780EC90E0918B808B81EC90E0938B48
:102D8000828B82EC90E0958B848B86EC90E0978B25
:102D9000868B118E128E138E148E08951F920F92B1
:102DA0000FB60F9211240BB60F922F938F939F9310
:102DB000EF93FF93E0914504F09146048081E09108
:102DC0004B04F0914C0482FD1DC0908180914E0413
:102DD0008F5F8F7320914F04821741F0E0914E0472
:102DE000F0E0EB5CFB4F958F80934E04FF91EF91E9
:102DF0009F918F912F910F900BBE0F900FBE0F9050
:102E00001F9018958081F2CF1F920F920FB60F92EC
:102E100011240BB60F922F933F934F935F936F93B1
:102E20007F938F939F93AF93BF93EF93FF9385E32C
:102E300094E03BDEFF91EF91BF91AF919F918F9115
:102E40007F916F915F914F913F912F910F900BBEAA
:102E50000F900FBE0F901F901895E5E3F4E01382DA
:102E6000128288EE93E0A0E0B0E084839583A6838D
:102E7000B78380E692E0918380838DEC90E0958724
:102E800084878CEC90E09787868788EC90E0918B24
:102E9000808B89EC90E0938B828B8AEC90E0958B11
:102EA000848B8EEC90E0978B868B118E128E138E16
:102EB000148E08951F920F920FB60F9211240BB625
:102EC0000F922F938F939F93EF93FF93E091E204E0
:102ED000F091E3048081E091E804F091E90482FD3F
:102EE0001DC090818091EB048F5F8F732091EC0463
:102EF000821741F0E091EB04F0E0EE52FB4F958F2A
:102F00008093EB04FF91EF919F918F912F910F9000
:102F10000BBE0F900FBE0F901F9018958081F2CFBF
:102F20001F920F920FB60F9211240BB60F922F9390
:102F30003F934F935F936F937F938F939F93AF9341
:102F4000BF93EF93FF9382ED94E0AFDDFF91EF919C
:102F5000BF91AF919F918F917F916F915F914F91B1
:102F60003F912F910F900BBE0F900FBE0F901F90AF
:102F70001895E2EDF4E01382128288EE93E0A0E06F
:102F8000B0E084839583A683B78380E692E0918343
:102F9000808385ED90E09587848784ED90E0978726
:102FA000868780ED90E0918B808B81ED90E0938B14
:102FB000828B82ED90E0958B848B86ED90E0978BF1
:102FC000868B118E128E138E148E08951F920F927F
:102FD0000FB60F9211240BB60F922F938F939F93DE
:102FE000EF93FF93E0917F05F09180058081E09160
:102FF0008505F091860582FD1DC090818091880530
:103000008F5F8F7320918905821741F0E0918805C9
:10301000F0E0E159FA4F958F80938805FF91EF9189
:103020009F918F912F910F900BBE0F900FBE0F901D
:103030001F9018958081F2CF1F920F920FB60F92BA
:1030400011240BB60F922F933F934F935F936F937F
:103050007F938F939F93AF93BF93EF93FF938FE6ED
:1030600095E023DDFF91EF91BF91AF919F918F91FB
:103070007F916F915F914F913F912F910F900BBE78
:103080000F900FBE0F901F901895EFE6F5E013829A
:10309000128288EE93E0A0E0B0E084839583A6835B
:1030A000B78380E692E09183808385E391E0958702
:1030B000848784E391E09787868780E391E0918B12
:1030C000808B81E391E0938B828B82E391E0958BFF
:1030D000848B86E391E0978B868B118E128E138EF4
:1030E000148E0895AF92BF92CF92DF92EF92FF922B
:1030F0000F931F93CF93DF936C017B018B01040F20
:10310000151FEB015E01AE18BF08C017D10759F0BB
:103110006991D601ED91FC910190F081E02DC601FD
:103120001995892B79F7C501DF91CF911F910F91E7
:10313000FF90EF90DF90CF90BF90AF900895FB018C
:1031400001900020E9F73197AF01461B570BDC01D6
:10315000ED91FC910280F381E02D199461157105C8
:1031600009F0EDCF90E080E00895DC01ED91FC9155
:103170000190F081E02D19946EE672E0E0CF8F921D
:103180009F92AF92BF92EF92FF920F931F93CF93B4
:10319000DF93CDB7DEB7A1970FB6F894DEBF0FBEB1
:1031A000CDBF7C01FA01CB0119A2223008F42AE03C
:1031B0008E010F5D1F4F822E912CB12CA12CBF01CF
:1031C000A501940113D2F901CA016A3004F5605DCA
:1031D000D8016E938D01232B242B252B81F790E0B2
:1031E00080E0109719F0BD01C701A9DFA1960FB6C5
:1031F000F894DEBF0FBECDBFDF91CF911F910F912D
:10320000FF90EF90BF90AF909F908F900895695C72
:10321000DFCFCF92DF92EF92FF920F931F93CF9366
:10322000DF932115310581F4DC01ED91FC910190D2
:10323000F081E02D642FDF91CF911F910F91FF90CE
:10324000EF90DF90CF9019942A303105F1F42AE005
:1032500077FF1BC06A017B01EC016DE286DF8C0108
:1032600044275527BA014C195D096E097F092AE0E8
:10327000CE0185DF800F911FDF91CF911F910F91BC
:10328000FF90EF90DF90CF900895DF91CF911F9145
:103290000F91FF90EF90DF90CF9071CF9A01AB012B
:1032A000770F660B770BB5CF0F931F93CF93DF93F9
:1032B000EC01F4DF8C01CE015FDF800F911FDF9105
:1032C000CF911F910F9108950F931F93CF93DF9389
:1032D000EC019FDF8C01CE014FDF800F911FDF914A
:1032E000CF911F910F9108952115310541F4DC0113
:1032F000ED91FC910190F081E02D642F19943FCF66
:103300009A01462F50E070E060E0EECF0F931F93DC
:10331000CF93DF93EC01F4DF8C01CE012DDF800F22
:10332000911FDF91CF911F910F9108959A01AB01E9
:1033300070E060E0D9CF0F931F93CF93DF93EC0140
:10334000F5DF8C01CE0118DF800F911FDF91CF9147
:103350001F910F9108950F931F93CF93DF93EC016B
:10336000C3DF8C01CE0108DF800F911FDF91CF9169
:103370001F910F9108952F923F924F925F926F92FB
:103380007F928F929F92AF92BF92CF92DF92EF92F5
:10339000FF921F93CF93DF93EC016A017B01722EA2
:1033A000AB019601CB01B6014BD161E772E081110F
:1033B00023C046015701E894B7F82FEF3FEF4FE7DE
:1033C0005FE7C501B4013CD181110BC02FEF3FEF86
:1033D0004FE75FE7C501B4011CD865E772E0181636
:1033E0005CF02FEF3FEF4FE75FE4C701B60101DA72
:1033F0001816ACF469E772E0CE01DF91CF911F910E
:10340000FF90EF90DF90CF90BF90AF909F908F9004
:103410007F906F905F904F903F902F9090CE2FEFC6
:103420003FEF4FE75FECC701B6010E94091287FD2D
:10343000E1CF20E030E0A901C701B6010E940912E6
:10344000312C212C87FF08C06DE2CE018EDE1C01DD
:10345000F7FAF094F7F8F09410E060E070E080E0A4
:103460009FE3711641F020E030E040E251E40E9419
:103470000D121F5FF6CFA70196010E9492112B013A
:103480003C0138D84B015C012AE0BC01A401CE010B
:1034900076DE7C01E20CF31C112381F1C501B4013D
:1034A00055D89B01AC01C301B2010E9491114B019F
:1034B0005C016EE2CE0159DEE80EF91E1150F0F00B
:1034C00020E030E040E251E4C501B40196D92B017F
:1034D0003C0110D84B014AE050E0CE0127DFE80E56
:1034E000F91EB40190E080E031D89B01AC01C3012A
:1034F000B2010E9491114B015C01E0CFC701DF9145
:10350000CF911F91FF90EF90DF90CF90BF90AF9041
:103510009F908F907F906F905F904F903F902F90F3
:10352000089529CF0F931F93CF93DF93EC0123DFEF
:103530008C01CE0121DE800F911FDF91CF911F9171
:103540000F9108950F931F93CF93DF93EC0102DA4D
:10355000688779878A879B87E881F9810284F38568
:10356000E02DCE01199597FF14C0F4D9088519856F
:103570002A853B85601B710B820B930B0C811D818F
:103580002E813F81601771078207930728F38FEF21
:103590009FEFDF91CF911F910F910895AF92BF924E
:1035A000CF92DF92EF92FF920F931F93CF93DF930F
:1035B0005C017B018B01040F151FEB016E01CE181E
:1035C000DF08C017D10731F0C501BCDF97FD02C08D
:1035D0008993F4CFC601DF91CF911F910F91FF9096
:1035E000EF90DF90CF90BF90AF900895A1E21A2E98
:1035F000AA1BBB1BFD010DC0AA1FBB1FEE1FFF1F97
:10360000A217B307E407F50720F0A21BB30BE40BE6
:10361000F50B661F771F881F991F1A9469F760952D
:103620007095809590959B01AC01BD01CF010895E7
:10363000EE0FFF1F881F8BBF0790F691E02D1994A6
:0C36400023D8880B990B0895F894FFCF55
:10364C0046024A024E02520236023A023E0242023E
:10365C00A800AE00B400BA000000C040000000009A
:10366C0000000040000000000000003F000080BF90
:10367C000000803F000096C300009643000000400D
:10368C00000000000000003F000080BF0000803FF1
:10369C0000000000506F646533007E0200000000E3
:1036AC0096157218461577151815321524150D0A2E
:0E36BC00006E616E00696E66006F766600003B
:00000001FF
