:1000000075C00000A4C00000A2C00000A0C0000095
:100010009EC000009CC000009AC0000098C0000074
:1000200096C0000094C0000092C0000090C0000084
:100030008EC000008CC000008AC0000088C0000094
:1000400086C0000084C0000082C0000080C00000A4
:100050007EC000007CC000007AC000000C94202FFD
:1000600076C000000C945D310C94933170C0000098
:100070006EC000006CC000006AC0000068C00000D4
:1000800066C0000064C0000062C0000060C00000E4
:100090000C94E9310C941F325AC0000058C0000083
:1000A00056C0000054C0000052C0000050C0000004
:1000B0004EC000004CC000004AC0000048C0000014
:1000C00046C0000044C000000C94242A0C947532F1
:1000D0000C94AB323CC000000C9401330C943733C9
:1000E00036C00000BC314832D432603311241FBE08
:1000F000CFEFD1E2DEBFCDBF00E00CBF12E0A0E049
:10010000B2E0EAE0FDE600E00BBF02C007900D920E
:10011000AA3EB107D9F728E0AAEEB2E001C01D92CD
:10012000AB3CB207E1F710E0C6E7D0E000E006C064
:1001300021970109802FFE010E944D36C237D10759
:1001400080E00807A9F70E94C82B0C94833658CF8B
:10015000AB01BC0185EE95E00C94EE35AB01BC0122
:1001600082E896E00C94EE35AB01BC018FE197E09C
:100170000C94EE35AB01BC018CEB97E00C94EE35A2
:100180008F929F92AF92BF92CF92DF92EF92FF92A7
:100190000F931F93CF93DF93CDB7DEB77B014A0157
:1001A0005901CDB6DEB69B01220F331F4DB75EB7A6
:1001B000421B530B0FB6F8945EBF0FBE4DBF0DB779
:1001C0001EB70F5F1F4FE82FF0E0EE0FFF1FE05F3D
:1001D000FD4F0190F081E02DC8011995F801D4017F
:1001E000E00EF11EEE15FF0519F081918D93FACF07
:1001F00081E0F50180830FB6F894DEBE0FBECDBE60
:10020000DF91CF911F910F91FF90EF90DF90CF90F2
:10021000BF90AF909F908F9008952F923F924F92F2
:100220005F926F927F928F929F92AF92BF92CF9286
:10023000DF92EF92FF920F931F93CF93DF9300D043
:1002400000D000D01F92CDB7DEB7682E7A876987BD
:10025000742EB52E3C832B8348012A2C312C4E2C36
:10026000512C81E090E0012B11F490E080E0849D1E
:100270009001859D300D949D300D112449855A853E
:10028000420F531F5A834983062D10E0000F111FA0
:10029000F801E050FE4F0190F081E02D199541E00A
:1002A00050E0C114D10411F450E040E0429D9001AF
:1002B000439D300D529D300D1124A981BA812A0F22
:1002C0003B1F821793075CF5E72DFB2D29853A85A7
:1002D0002E0F3F1F3A83298349815A81E417F5077E
:1002E00011F01192F9CFAB81BC811C922A960FB606
:1002F000F894DEBF0FBECDBFDF91CF911F910F915C
:10030000FF90EF90DF90CF90BF90AF909F908F9035
:100310007F906F905F904F903F902F900895C11401
:10032000D10409F441C0F12CE12CF801E050FE4F5A
:10033000FE83ED839801285F3D4F38872F83AD8181
:10034000BE81ED91FC91E214F30474F51995892BAB
:1003500081F4E72DFB2D29853A852E0F3F1F3A8327
:10036000298349815A81E417F50709F4BCCF11921A
:10037000F8CFAF81B885ED91FC911995F601EE0D9E
:10038000FF1D9081981761F021E030E0F601908127
:10039000981302C030E020E0EE24FF24E21AF30AB2
:1003A000FFEFEF1AFF0ACBCF980120503E4F6901B3
:1003B000D901ED91FC911995E981FA818E179F077A
:1003C00084F4E72DFB2D29853A852E0F3F1F3A83B4
:1003D000298349815A81E417F50709F484CF1192E2
:1003E000F8CF2B813C81472D5B2D69857A85862D41
:1003F000C7DE8114910409F479CF7401085F1D4FA1
:10040000C70188199909841595050CF06FCFD6019D
:10041000ED91FC911995892B81F4E72DFB2D298510
:100420003A852E0F3F1F3A83298349815A81E41769
:10043000F50709F458CF1192F8CFD801ED91FC914E
:100440001995F70191917F019817D1F2E72DFB2DB6
:1004500029853A852E0F3F1F3A83298349815A8186
:10046000E417F50709F43FCF1192F8CF85EE95E038
:100470000C944D3082E896E00C944D308FE197E07B
:100480000C944D308CEB97E00C944D3085EE95E05C
:100490000C94333082E896E00C9433308FE197E08F
:1004A0000C9433308CEB97E00C943330882311F1AB
:1004B000823071F08330A9F08130E1F426E030E041
:1004C00040E052EC61E070E081E090E00C94CF29D4
:1004D00026E030E040E052EC61E070E082E090E045
:1004E000F5CF26E030E040E052EC61E070E083E0E0
:1004F00090E0ECCF08952F923F924F925F926F92CF
:100500007F928F929F92AF92BF92CF92DF92EF92A3
:10051000FF920F931F93CF93DF931F92CDB7DEB758
:100520002B013A01D02EE9829C2DCA2CF401EF88D0
:10053000F88C998C6A8D7B8D4C8D843008F0EBC1E2
:10054000823051F0833009F456C0813049F432E8EA
:10055000232E36E0332E04C0AFE12A2EA7E03A2E38
:1005600030E02830310511F424E030E0269D5001C0
:10057000279DB00C369DB00C11240AE010E09923A1
:1005800051F000E110E0913031F008E010E09230DD
:1005900011F002E010E08111E1C0D11031C061150D
:1005A000710529F050E085EE95E00E948D33A5019C
:1005B000B20185EE95E00E948D33E114F10409F457
:1005C000AAC1492D50E0B70185EE95E00F90DF916B
:1005D000CF911F910F91FF90EF90DF90CF90BF9040
:1005E000AF909F908F907F906F905F904F903F90D3
:1005F0002F900C948D335CEB252E57E0352EB0CF29
:10060000BF0185EE95E00E94C9338981873008F0EB
:1006100082C1E82FF0E08827EF5EFC4F8F4F0C94EB
:100620004D363003430357036D03830397031803C9
:10063000AC2CB12CE1E06E1A710808F46CC1D20147
:100640004D915D916D917D912D01B1E0950185EE0A
:1006500095E0DB1280C00E94B135ECCF0E94A1343E
:100660006A94AFEF6A1609F456C1F20161912F0145
:10067000F1E0A80185EE95E0DF12F0CF0E949B34F7
:10068000EFCF0E94B6346A948FEF681609F443C125
:10069000D2016D917D912D01B1E0A80185EE95E02B
:1006A000DB12EFCF0E94B134EECF0E94C6346A94C1
:1006B000EFEF6E1609F42FC1D2014D915D916D914E
:1006C0007D912D01B1E0980185EE95E0DB12EDCF33
:1006D0000E948F34ECCF0E946F346A94EFEF6E1655
:1006E00009F419C1D2016D912D01062E000C770B72
:1006F000B1E0A80185EE95E0DB12EDCF0E946934F0
:10070000ECCF0E946F346A94EFEF6E1609F403C1C8
:10071000D2016D917D912D01B1E0A80185EE95E0AA
:10072000DB12EFCF0E946934EECF0E947F346A94CF
:10073000EFEF6E1609F4EFC0D2014D915D916D910E
:100740007D912D01B1E0980185EE95E0DB12EDCFB2
:100750000E942434ECCF0E94B2356CCFD11038C047
:100760006115710549F050E0D101ED91FC910280D5
:10077000F381E02DC1011995D101ED91FC91028029
:10078000F381E02DA501B201C1011995E114F10435
:1007900009F4C1C0492D50E0D101ED91FC910280D6
:1007A000F381E02DB701C1010F90DF91CF911F912F
:1007B0000F91FF90EF90DF90CF90BF90AF909F9000
:1007C0008F907F906F905F904F903F902F901994F3
:1007D000BF01C1010E94C933B981B73008F09BC085
:1007E000EB2FF0E08827E850FC4F8F4F0C944D36EC
:1007F000160428043B04500464047604FF03AC2C64
:10080000B12CE1E06E1A710808F485C0D2014D9157
:100810005D916D917D912D01B1E09501C101DB12DA
:1008200077C00E94B135EDCF0E94A1346A94EFEFFA
:100830006E1609F470C0D2016D912D01B1E0A801CE
:10084000C101DB12F1CF0E949B34F0CF0E94B6347D
:100850006A94EFEF6E1609F45EC0D2016D917D913E
:100860002D01B1E0A801C101DB12F0CF0E94B1342B
:10087000EFCF0E94C6346A94EFEF6E1609F44BC0B6
:10088000D2014D915D916D917D912D01B1E0980165
:10089000C101DB12EECF0E948F34EDCF0E946F3486
:1008A0006A94EFEF6E16B9F1D2016D912D01062E0B
:1008B000000C770BB1E0A801C101DB12EFCF0E9461
:1008C0006934EECF0E946F346A94EFEF6E1619F11F
:1008D000D2016D917D912D01B1E0A801C101DB1222
:1008E000F1CF0E946934F0CF0E947F346A94EFEF19
:1008F0006E1689F0D2014D915D916D917D912D0122
:10090000B1E09801C101DB12EFCF0E942434EECF99
:100910000E94B23576CF0F90DF91CF911F910F914A
:10092000FF90EF90DF90CF90BF90AF909F908F900F
:100930007F906F905F904F903F902F90089590E040
:1009400080E008950F931F93009709F489C0611503
:10095000710509F485C000911802109119022091C7
:100960001A0230911B020E3F1F4F2F4F3F4F09F0CD
:1009700069C0DB014D915D916D917C9140931802AE
:100980005093190260931A0270931B02409118024F
:100990005091190260911A0270911B02DC011296AB
:1009A000ED91FC9180819181A281B3818093680354
:1009B00090936903A0936A03B0936B03848195813C
:1009C000A681B7818093640390936503A093660327
:1009D000B093670380859185A285B385809360037A
:1009E00090936103A0936203B0936303848595851C
:1009F000A685B78580935C0390935D03A0935E0307
:100A0000B0935F03109258031092590310925A0347
:100A100010925B030E94CA0D8FEE9DE09093EB0253
:100A20008093EA029093ED028093EC02A2D70097A4
:100A300031F421E030E030936D0320936C031F917B
:100A40000F910895009118021091190220911A0235
:100A500030911B02FB01008311832283338396CFE5
:100A60008FEF9FEFECCF8F929F92AF92BF92CF927A
:100A7000DF92EF92FF921F93CF93DF934B015C01C4
:100A800010916F0382E090E090936D0380936C036C
:100A900081149104A104B10441F480916F03811188
:100AA00004C080916E03C1E08111C0E0C12CD12C43
:100AB000760180916F03811106C080916E038111D0
:100AC00002C0CC23D9F083E090E090936D03809333
:100AD0006C03CC2379F1CCE9DFEF111102C00E9445
:100AE0005311CE01DF91CF911F91FF90EF90DF90D6
:100AF000CF90BF90AF909F908F9008956AE070E084
:100B000080E090E00E949B2F80E1C80E87E2D81E13
:100B1000E11CF11C8FEF88169806A806B80631F084
:100B2000C1E08C149D04AE04BF0408F0C0E080E076
:100B300054D7BFCFD0E0C0E0D0CFCF92DF92EF92BA
:100B4000FF920F931F93CF93DF938F3F910511F087
:100B500008F050C020916C0330916D0323303105B3
:100B600039F020916C0330916D032130310531F45F
:100B700024E030E030936D0320936C036A017B0125
:100B8000EC0182309105A0F011E0AE01C701B60181
:100B9000EFD6AB01BC01CE011123F9F0DF91CF916B
:100BA0001F910F91FF90EF90DF90CF900C947813EE
:100BB0008C01000F111F06511D4FD8018D919C9182
:100BC000892B11F30E9482130297F1F6D801ED915F
:100BD000FC91CE011995182FD8CF0E949A1390E05E
:100BE00080E0DF91CF911F910F91FF90EF90DF9008
:100BF000CF9008958FEF9FEFF4CF80E0EEC6CF93B4
:100C0000DF9386E090E090936D0380936C033ED772
:100C1000EC01EAEEF2E084E0DF011D928A95E9F74B
:100C20000E94EB1010926D0310926C03CE01DF91C5
:100C3000CF91089580916E03089580915703089590
:100C4000609318027093190280931A0290931B020A
:100C500090E080E00895CF92DF92EF92FF926B01D7
:100C60007C0184D5882379F0C090BD08D090BE085F
:100C7000E090BF08F090C008C701B601FF90EF9068
:100C8000DF90CF900895C701B6012BD58111ECCF2D
:100C900020E030E0A901C701B6010E94C92C8823D9
:100CA00029F120E030E048EC52E4C701B6010E948F
:100CB000BD2D6B017C0120E030E0A9010E94C92C10
:100CC0008823A1F020E030E0A901C701B6010E940D
:100CD000C92C87FFD1CF20E030E048EC52E4C701B7
:100CE000B6010E94522C6B017C01C6CFC12CD12CC5
:100CF0007601C2CFCF92DF92EF92FF926B017C011F
:100D000035D5882379F0C090BD08D090BE08E0901A
:100D1000BF08F090C008C701B601FF90EF90DF90C8
:100D2000CF900895C701B601DCD48111ECCF20E04B
:100D300030E0A901C701B6010E94C92C882329F11E
:100D400020E030E040E853E4C701B6010E94BD2D29
:100D50006B017C0120E030E0A9010E94C92C8823AE
:100D6000A1F020E030E0A901C701B6010E94C92C22
:100D700087FFD1CF20E030E040E853E4C701B6015F
:100D80000E94522C6B017C01C6CFC12CD12C760164
:100D9000C2CF21E030913303311120E0FC012183E7
:100DA00021E030913403311120E0FC0122830895C9
:100DB000CF92DF92EF92FF926B017C019F7720E050
:100DC00030E040E859E50E94C92C87FF2BC020E0A5
:100DD00030E040E05FE3C701B6010E94B92E87FD15
:100DE0000EC020E030E040E05FE3C701B6010E94A2
:100DF000522CFF90EF90DF90CF900C94A32D20E029
:100E000030E040E05FEBC701B6010E94B92E181632
:100E100084F420E030E0A901C701B6010E94BD2E94
:100E20006B017C01C701B601FF90EF90DF90CF907E
:100E3000089520E030E040E05FE3C701B6010E9482
:100E4000512CFF90EF90DF90CF900C94B62C9091A6
:100E5000330380913403911105C021E0811120E01A
:100E6000209335039F5F9A3090F5909333038F5F03
:100E7000843680F5809334036091220370912303BC
:100E800080912403909125036F5F7F4F8F4F9F4F79
:100E9000609322037093230380932403909325038C
:100EA0000E94662D9B01AC0160912603709127037F
:100EB00080912803909129030E94BD2E60931E0308
:100EC00070931F0380932003909321030895109241
:100ED0003303CDCF10923403CFCF8F929F92AF9236
:100EE000BF92CF92DF92EF92FF920F931F93CF9317
:100EF000DF9300D000D000D01F92CDB7DEB7A12C79
:100F0000D12CC12CE12C10E000E022E638E041E6D3
:100F100058E061E070E081E080D910926808CE016D
:100F200001967C010A968701D8011D928D01A817B0
:100F3000B907D1F7809162088130C9F4D090610877
:100F40009091B0089111DBC0BAEADB1210C0D092C8
:100F5000A50840E050E060E87FE340939D0850938F
:100F60009E0860939F087093A0088093B0088091BA
:100F70006808882309F455C081E08093AF086B812D
:100F800070E090E080E00E94662D20E030E048ECC8
:100F900052E40E94CD2C4B015C016A8170E090E02C
:100FA00080E00E94662D9B01AC01C501B4010E9446
:100FB000522C6093950870939608809397089093AD
:100FC00098086D8170E090E080E00E94662D20E03E
:100FD00030E048EC52E40E94CD2C4B015C016C8166
:100FE00070E090E080E00E94662D9B01AC01C5019D
:100FF000B4010E94522C6093990870939A088093D0
:101000009B0890939C088F818093A2088E81809387
:10101000A308888587FD8FE78093A1088985809341
:10102000A4088091AF08809367084091950850917B
:1010300096086091970870919808409359085093CA
:101040005A0860935B0870935C08809199089091AE
:101050009A08A0919B08B0919C0880935D0890939A
:101060005E08A0935F08B09360082091A2082093C7
:1010700063082091A308209364082091A10820937D
:1010800066082091A4082093650820913503222347
:1010900081F040938D0850938E0860938F08709371
:1010A00090088093910890939208A0939308B0932E
:1010B000940880912A0390912B03A0912C03B09166
:1010C0002D030196A11DB11D80932A0390932B033C
:1010D000A0932C03B0932D032A960FB6F894DEBF8D
:1010E0000FBECDBFDF91CF911F910F91FF90EF9079
:1010F000DF90CF90BF90AF909F908F90089520E0A9
:1011000030E040E85FE360919D0870919E08809117
:101110009F089091A0080E94522C4B015C01809284
:101120009D0890929E08A0929F08B092A0080E94ED
:10113000352D6759774FFB01D3AE20E030E040E218
:1011400051E4C501B4010E94C92C811110CFE5EA18
:10115000F8E08191D7018D937D01A017B107C9F700
:1011600081E08093680810929D0810929E0810926A
:101170009F081092A0081092B008F9CE4F925F928B
:101180006F927F928F929F92AF92BF92CF92DF9297
:10119000EF92FF920F93CF93DF9300D000D01F9276
:1011A000CDB7DEB7C0908D08D0908E08E0908F0844
:1011B000F0909008C701B6010E94A32D4B015C017D
:1011C00020E030E040E853E40E94C92C87FF60C172
:1011D00020E030E0A901C501B4010E94B92E87FDCD
:1011E00055C1C501B4010E943A2D698320E030E069
:1011F00048EC52E4C701B6010E94BD2E2CDD0E94CE
:10120000A32D6B017C0120E030E040E853E40E9414
:10121000C92C87FF42C120E030E0A901C701B60117
:101220000E94B92E87FD37C1C701B6010E943A2D31
:101230006A83409091085090920860909308709053
:101240009408C301B2010E94A32D6B017C0120E030
:1012500030E040E853E40E94C92C87FF23C120E01E
:1012600030E0A901C701B6010E94B92E87FD18C15F
:10127000C701B6010E943A2D6B8320E030E048ECB4
:1012800052E4C301B2010E94BD2EE5DC0E94A32DF1
:101290002B013C0120E030E040E853E40E94C92CDF
:1012A00087FF05C120E030E0A901C301B2010E941F
:1012B000B92E87FDFAC0C301B2010E943A2D6C839A
:1012C00020E030E040E853E4C501B4010E94C92C9D
:1012D00087FFF2C020E030E0A901C501B4010E94FF
:1012E000B92E87FDE7C0C501B4010E943A2D6E8377
:1012F00020E030E040E853E4C701B6010E94C92C69
:1013000087FFDFC020E030E0A901C701B6010E94DD
:10131000B92E87FDD4C0C701B6010E943A2D6F8354
:101320008E819A81890F9927991F6F81860F911D50
:101330006C81680F792F711D072E000C880B990B9B
:101340000E94682DD7DC9B01AC0160E070E080E872
:1013500093E40E94512CCEDC2BDD6B017C0120E05C
:1013600030E040E853E40E94C92C87FFAFC020E082
:1013700030E0A901C701B6010E94B92E87FDA4C0C3
:10138000C701B6010E943A2D6D8385E58E838AEAF6
:101390008F8360917F08709180088091810890917F
:1013A00082080E943A2DC62E6091770870917808C5
:1013B0008091790890917A080E943A2DE62E6091EA
:1013C0007B0870917C0880917D0890917E080E9436
:1013D0003A2D062F609173087091740880917508FA
:1013E000909176080E943A2DF62E60916F087091C8
:1013F000700880917108909172080E943A2D862F92
:1014000091E09F939E01295F3F4F3F932F939F93BE
:10141000215031093F932F93912C812C92E0A92EDA
:101420002F2D45E050E0BE016F5F7F4F64D8809163
:101430002E0390912F03A0913003B09131030196B8
:10144000A11DB11D80932E0390932F03A093300311
:10145000B09331030F900F900F900F900F900F905B
:1014600027960FB6F894DEBF0FBECDBFDF91CF91A8
:101470000F91FF90EF90DF90CF90BF90AF909F9033
:101480008F907F906F905F904F9008951982AECEAD
:101490008FEF8983ABCE1A82CCCE8FEF8A83C9CEF1
:1014A0001B82EBCE8FEF8B83E8CE1C8209CF8FEFB0
:1014B0008C8306CF1E821CCF8FEF8E8319CF1F82A5
:1014C0002FCF8FEF8F832CCF1D825FCF8FEF8D8338
:1014D0005CCFCF92DF92EF92FF921F93CF93DF9377
:1014E00084E090E0C7D0E8E0F3E080E090E0A6E997
:1014F000B3E486A797A7A0ABB1AB8FE692E1A3E8D0
:10150000BAE3868F978FA0A3B1A38EEA9FEFABEBD0
:10151000B0E384839583A683B7838AED96ECAEE02F
:10152000B8E780879187A287B38786EA97E3A6E723
:10153000B8ED84879587A687B7878DE793E9ADEDEA
:10154000B5EC808B918BA28BB38BACEFB2E0B38305
:10155000A283EEEEF2E01196FC93EE9381E492E02A
:101560009183808393838283958384839783868307
:101570009187808793878287958784878CE193E022
:1015800015969C938E9314978CE093E013969C93FE
:101590008E93129740EE53E964E070E018964D93F5
:1015A0005D936D937C931B97C9E6D8E01882C12C9C
:1015B000D12C7601C394C982DA82EB82FC8280E06E
:1015C00090E0A0E8BFE38E839F83A887B9878A87CE
:1015D0009B87AC87BD871E861F86188A198A1A8A40
:1015E0001B8A1C8A1D8A1E8A1F8A188E198E81E00A
:1015F0000E94560211E01D831C8ECD8EDE8EEF8E72
:10160000F8A281E00E94560219A3DF91CF911F91A9
:10161000FF90EF90DF90CF90089580918508811121
:1016200003C081E08093850880916908811103C01F
:1016300081E080936908089560E070E080E89FE7AA
:10164000089560E070E080E89FE7089560E070E052
:1016500080E89FEF089560E070E080E89FEF0895D4
:1016600060E070E080EC9FEF089560E070E080EC57
:101670009FEF0895F5DF6093BD087093BE088093D7
:10168000BF089093C008F1DF6093B1087093B2086F
:101690008093B3089093B408CFDF6093B908709338
:1016A000BA088093BB089093BC08CBDF6093B50861
:1016B0007093B6088093B7089093B808C7DF60931B
:1016C000C1087093C2088093C3089093C408C3DF15
:1016D0006093C5087093C6088093C7089093C808A4
:1016E0000895CF92DF92EF92FF92CF936B017C012E
:1016F000AC019B016091B9087091BA088091BB0858
:101700009091BC080E94C92CC1E0882371F0A70108
:1017100096016091C1087091C2088091C3089091B0
:10172000C4080E94C92C8111C0E08C2FCF91FF907A
:10173000EF90DF90CF9008950F931F938B019C0142
:101740000027112720783F770115110520483F47D2
:1017500049F4AB01BC016F77772781E0452B462B1D
:10176000472B09F480E01F910F910895E5CF4F9228
:101770005F926F927F928F929F92AF92BF92CF9221
:10178000DF92EF92FF920F931F93F89440904703DC
:10179000509048036090490370904A03C0903B0307
:1017A000D0903C03E0903D03F0903E03452B09F0C0
:1017B000A4C09B01AC012419350946095709290128
:1017C0003A01009143031091440320914503309165
:1017D000460348015901840C951CA61CB71C8016B1
:1017E0009106A206B306A0F400913F0310914003B6
:1017F00020914103309142030F5F1F4F2F4F3F4F06
:1018000000933F031093400320934103309342031E
:101810008092430390924403A0924503B092460302
:1018200000913F0310914003209141033091420306
:1018300080924B0390924C03A0924D03B0924E03C2
:1018400000934F031093500320935103309352039E
:1018500060934703709348038093490390934A032E
:10186000A8EEB3E0A30192010E9455366C0D7D1DD8
:101870008E1D9F1D60933B0370933C0380933D033B
:1018800090933E03009118021091190220911A02C0
:1018900030911B020F3F1F4F2F4F3F4FF1F0009130
:1018A00018021091190220911A0230911B020E3F6A
:1018B0001F4F2F4F3F4F89F0C0901802D090190250
:1018C000E0901A02F0901B0221E08C149D04AE04FB
:1018D000BF0408F420E02093570378941F910F91E0
:1018E000FF90EF90DF90CF90BF90AF909F908F9040
:1018F0007F906F905F904F9008954B015C0184182A
:101900009508A608B708A3019201261B370B480BC0
:10191000590B6415750586059705D0F08216930658
:10192000A406B50640F420E030E0A901811491043A
:10193000A104B10491F4A8EEB3E00E945536A701CA
:101940009601261B370B480B590BCA01B901C5CFAD
:1019500082169306A406B50670F7A8EEB3E0A501BB
:1019600094010E9455366C0D7D1D8E1D9F1DB5CFB7
:10197000FECECF93DF9300D01F92CDB7DEB71C828F
:101980001B821A82198210925303109254031092F0
:10199000550310925603BE016F5F7F4FCE01039631
:1019A0000E94B92969817A818B819C810E94A7223A
:1019B000009761F4BE016F5F7F4FCE0103960E94D6
:1019C000C52969817A818B819C812AD50F900F90DE
:1019D0000F900F90DF91CF910895FF920F931F9377
:1019E000CF93DF93082F60E070E0CB010E949B2F24
:1019F000FF24F3940E949021EC01892B89F010E0E0
:101A0000CE3F8FEFD80769F0002361F160E070E00E
:101A1000CB010E949B2F81E090E0892B59F322C0DB
:101A200011E021D5EC01892B21F0CE3F8FEFD807B3
:101A300059F711111EC011E0229609F410E00E941E
:101A40004021EC01892B21F0CE3F8FEFD807E1F642
:101A5000111111C011E0CE3F8FEFD80709F410E04B
:101A600001110BC0CE01DF91CF911F910F91FF901B
:101A7000089511E0E4CF11E0F3CF60E070E0CB0116
:101A80000E949B2F1F25812F90E0C7CFCF93DF931C
:101A900080915703882321F060E070E0CB0148D6A5
:101AA00031D6D0E0C0E0892B71F06AE070E080E0D0
:101AB00090E00E949B2F81E090DF24D62196C03DCC
:101AC00027E0D20781F723D60E94FB2210926F03F2
:101AD00010926E03109268031092690310926A03C9
:101AE00010926B03109264031092650310926603C8
:101AF00010926703109260031092610310926203C8
:101B00001092630310925C0310925D0310925E03C7
:101B100010925F03109258031092590310925A03C7
:101B200010925B034EEF5FEF6FEF7FEF4093180271
:101B30005093190260931A0270931B02109257037C
:101B4000EBE4F3E028E0DF011D922A95E9F710921B
:101B50004703109248031092490310924A031092CF
:101B600043031092440310924503109246031092CF
:101B70003F031092400310924103109242031092CF
:101B80003B0310923C0310923D0310923E03DF9101
:101B9000CF91089510927B0310927C0310927D03E5
:101BA00010927E0310927A038091830390918403B4
:101BB00090937903809378031092770310927603C1
:101BC00010927203109273031092740310927503B3
:101BD0001092800310927F0390E080E00895CF92EE
:101BE000DF92EF92FF920F931F93CF938C01892B7B
:101BF00009F055C0209183033091840380917803CC
:101C00009091790340918303509184035093790319
:101C1000409378032817390781F0109277031092C8
:101C20007603109272031092730310927403109251
:101C300075031092800310927F038091830390912B
:101C40008403019761F580917F0390918003892B34
:101C500021F480911C02811112C080917F03909128
:101C600080030197E1F48091720390917303A09136
:101C70007403B09175030197A105B10581F4109229
:101C800072031092730310927403109275031092F2
:101C90001C0282E090E09093800380937F03809108
:101CA000830390918403019709F01CC180919903EB
:101CB00090919A038017910709F014C180919503C0
:101CC00090919603A0919703B0919803009709F41F
:101CD00009C12091940321110DC0409195035091A9
:101CE00096036091970370919803452B462B472BE1
:101CF00009F4F8C020917F03309180032230310530
:101D000009F0F0C0209176032111ECC0FC01C080E5
:101D1000D180E280F38080917A03882309F4D3C0D4
:101D20008091860390918703892B09F4FDC020914F
:101D300086033091870381E02230310509F080E08D
:101D40002091860330918703C1E02130310549F0AD
:101D50002091860330918703C1E02230310509F0DC
:101D6000C0E0882309F456C020919003309191037C
:101D70004091920350919303C701B6010E94B92E7E
:101D800087FD14C0209190033091910340919203FC
:101D90005091930360917B0370917C0380917D034C
:101DA00090917E030E94C92C87FD22C02091900350
:101DB000309191034091920350919303C701B60172
:101DC0000E94B92E181634F520919003309191039A
:101DD000409192035091930360917B0370917C0337
:101DE00080917D0390917E030E94C92C811112C0C5
:101DF0008091880390918903A0918A03B0918B030D
:101E0000892B8A2B8B2B19F481E08093770381E057
:101E100080937603CC2309F456C02091900330912F
:101E200091034091920350919303C701B6010E9420
:101E3000C92C87FF14C020919003309191034091E9
:101E400092035091930360917B0370917C03809186
:101E50007D0390917E030E94B92E87FF22C02091BE
:101E60009003309191034091920350919303C701E5
:101E7000B6010E94C92C811126C020919003309197
:101E80009103409192035091930360917B03709171
:101E90007C0380917D0390917E030E94B92E1816D9
:101EA00094F48091880390918903A0918A03B09162
:101EB0008B03892B8A2B8B2B19F481E0809377037A
:101EC00081E08093760381E090917603911180E028
:101ED00080937A03C0927B03D0927C03E0927D03CF
:101EE000F0927E03012B09F067C180917F039091EE
:101EF0008003892BD9F41092850310927603809188
:101F00001C02882379F082E090E090938003809314
:101F10007F0310921C02209183033091840381E09F
:101F2000232BE9F080E01BC081E00ACF10921C0255
:101F300080918503882349F01092770310928003E3
:101F400010927F0310928503EDCF809183039091CF
:101F50008403892BE1F0809176031092760320911F
:101F60007F03309180032230310509F45EC088F48C
:101F70002115310509F448C02130310509F4F3C0B9
:101F800010927703109276031092850338C081E097
:101F9000E6CF2330310509F4B1C02430310581F793
:101FA00040917203509173036091740370917503B3
:101FB000411551056105710561F0415051096109F3
:101FC0007109409372035093730360937403709389
:101FD0007503409172035091730360917403709183
:101FE0007503452B462B472BD9F420918103309163
:101FF00082032130310509F046C010927703109218
:10200000800310927F030CC080911C02882341F052
:1020100082E090E09093800380937F0310921C02F3
:102020001092700380917703CEC08823C9F380910A
:10203000880390918903A0918A03B0918B031816AD
:1020400019061A061B060CF07DC08091830390913F
:102050008403019709F076C08091880390918903E9
:10206000A0918A03B0918B038093720390937303C2
:10207000A0937403B093750383E090E09093800382
:1020800080937F03CDCF40918C0350918D0360915D
:102090008E0370918F03452B462B472BA9F010928E
:1020A000770380918C0390918D03A0918E03B09162
:1020B0008F038093720390937303A0937403B09380
:1020C000750381E090E0DACF882399F080911D02BA
:1020D00090911E02A0911F02B09120028093720382
:1020E00090937303A0937403B093750384E090E01E
:1020F000C5CF1092770382E090E0C0CF8091720349
:1021000090917303A0917403B09175030097A1059A
:10211000B10559F00197A109B10980937203909319
:102120007303A0937403B09375038091720390912D
:102130007303A0917403B0917503892B8A2B8B2BA9
:1021400009F06ECF80911D0290911E02A0911F0296
:10215000B0912002892B8A2B8B2B09F44ECF81E082
:1021600080937703B3CF40917203509173036091D2
:10217000740370917503411551056105710561F096
:1021800041505109610971094093720350937303DF
:1021900060937403709375034091720350917303BD
:1021A0006091740370917503452B462B472B09F002
:1021B00037CF8111C7CF9FCF80917003882309F457
:1021C00031CF80917103CF911F910F91FF90EF90CC
:1021D000DF90CF90089510927B0310927C031092B1
:1021E0007D0310927E0310927A0310928003109266
:1021F0007F03109279031092780310929A03109241
:102200009903109277031092760310927203109242
:10221000730310927403109275031092710310925D
:1022200070031092950310929603109297031092E8
:1022300098031092940310929003109291031092BD
:1022400092031092930388EE93E0A0E0B0E08093B5
:102250001D0290931E02A0931F02B09320021092C1
:102260008C0310928D0310928E0310928F031092A4
:1022700088031092890310928A0310928B031092A4
:1022800087031092860381E080931C0210928503DD
:1022900010928403109283031092820310928103A0
:1022A00090E080E008958091830390918403892BCE
:1022B000E1F480911C02882351F080918503811103
:1022C00006C081E08093710380937003089580912C
:1022D0008503882341F080911C02811104C0109273
:1022E000710381E0F1CF10927003089582E090E0D5
:1022F000FA01918380838FEF9FEF0895CF93DF934F
:10230000EA01009711F00E941B241982188290E0C4
:1023100080E0DF91CF910895DB01009719F48FEFF2
:102320008C9308952EEF2C93FC017096E031F1050B
:1023300008F037C08827E056FE4E8F4F0C944D367C
:10234000CF11CD11CB11C911C711C511C111C311C5
:10235000BF11BD11BB11B811B411B011B611D1111B
:1023600080E311968C93089589E2FBCF82E2F9CF46
:1023700011961C92089583E2F4CF81E2F2CF81E1BD
:10238000F0CF87E2EECF8AE2ECCF80E1EACF84E2C1
:10239000E8CF88E2E6CF86E2E4CF81E3E2CF83E3D1
:1023A000E0CF80E2DECF8091A7039091A80308954B
:1023B0009093A8038093A70308958091A60308959E
:1023C0009091A603892B8093A6030895982F90954A
:1023D0008091A60389238093A60308958091A50385
:1023E00008958091A3039091A40308956115710548
:1023F00059F0FB0130E020E070E060E02417350781
:1024000019F06115710511F0CB010895A081B1811A
:10241000A817B90709F4BF012F5F3F4F3696EECFDB
:102420008091A90381111CC060D266D290939C0355
:1024300080939B030E94191C0E942B1C9093A00365
:1024400080939F030E94A8200E94AF2090939E0338
:1024500080939D0381E08093A90390E080E008953C
:1024600084EF9FEF08958F929F92AF92BF92CF9289
:10247000DF92EF92FF920F931F93CF93DF9300D0E1
:1024800000D000D01F92CDB7DEB71A861986188605
:102490001F821E821D821C821B821A8219828091D9
:1024A000A90307EF1FEF882309F49CC08E010D5F7D
:1024B0001F4F9E012B5F3F4FAE01495F5F4FBE0133
:1024C000675F7F4F90E080E00E942C228C01009794
:1024D00021F00596029708F0DBC029853A85211581
:1024E000310509F402C1ED80FE804B815C81B701AA
:1024F000640F751F8F8198858617970708F4F5C0BC
:10250000E20EF31ED7019C91903C09F07FC042304F
:10251000510508F47BC011968C914091A70350910E
:10252000A803452B09F49CC0913F08F071C02CE131
:10253000290F2D3008F48BC02DE2290F203108F42B
:1025400089C0903C21F48150823008F483C088E334
:10255000890F8B3008F481C09CE8C92E91E1D92EF7
:10256000E6E7F1E16D817E81AE014F5F5F4F8985C6
:102570009A8519955C01C114D104A1F189809A80D2
:102580008114910479F18B819C818815990508F457
:1025900087C010E000E04B815C8170E060E0C70123
:1025A0000E947C3601151105E9F449815A8169853B
:1025B0007A858D819E81680F791FC501F601199575
:1025C000E980FA800D811E812F81388549855A85E1
:1025D0006FEF7FEF81E090E00E94C7218C01892B93
:1025E00009F056C0C8012A960FB6F894DEBF0FBE98
:1025F000CDBFDF91CF911F910F91FF90EF90DF90B2
:10260000CF90BF90AF909F908F90089580E085CF3E
:1026100030E020E0220F331FF901E556FC4F019016
:10262000F081E02D309709F497CF892F90E019952C
:10263000009709F491CFDC011296ED91FC9113976C
:102640001496CD90DC90309709F08CCF1FC021E01C
:1026500030E0E0CF22E030E0DDCF23E030E0DACF41
:10266000D12CC12CEEE7F1E19F3F09F07BCFE09147
:102670009B03F0919C03309721F4C90104EF1FEFF5
:102680000CC08FEF90E019950097A9F604EF1FEFAB
:1026900089859A85009709F4A5CF0E941B24A2CFB3
:1026A0000E94F6228C0189859A850E941B2470E085
:1026B00060E0C4010E948F2298878F830E94C4210A
:1026C0009E838D836F8178856115710559F0C801EE
:1026D0000E94A7259A87898706EF1FEF892B09F0AB
:1026E00058CF59CF08EF1FEF56CF08EF1FEFD0CFCD
:1026F0002091A903222319F020E00C94301C87EFCD
:102700009FEF08958091A7039091A80308950E94D8
:10271000B4200E940E20F5D0EBE9F3E088E0DF0161
:102720001D928A95E9F71092A90390E080E0089540
:102730000C946C1E21E040E050E0BA010C94301C77
:1027400086E090E0FA019183808390E080E0089534
:1027500047E050E064E472E049CEDF92EF92FF92EE
:102760000F931F93CF93DF938A01EC01C60FD71FFE
:10277000E090AD03F090AE03D9800E94DE22D8161F
:10278000190678F082E090E0F801918380838EEF63
:102790009FEFDF91CF911F910F91FF90EF90DF900E
:1027A0000895EF2841F482E090E0F801918380835E
:1027B00084EF9FEFEECF89818093AC0390E0019688
:1027C000F8019183808390E080E0E3CFCF93DF93A3
:1027D000EA010E941D1F882321F00E94EB220E9423
:1027E0001E1F82E090E0998388838BEF9FEFDF913B
:1027F000CF910895CF93DF93EB0186E0FB01119217
:102800008A95E9F78FEF8883D8DD8983E7DD8A83AE
:10281000E8DD9D838C83DF91CF910895CF93DF9383
:10282000EA010E94201F811109C082E090E0998393
:10283000888385EF9FEFDF91CF91089590E080E04E
:10284000B7DD81E090E09983888390E080E0F3CF6A
:102850000F931F93CF93DF93EA018C01060F171F8D
:102860000E94201F81110BC082E090E09983888331
:1028700085EF9FEFDF91CF911F910F910895F801A0
:102880008181823038F082E090E0998388838EEFF6
:102890009FEFF0CF81E090E08BDD88E090E09983BE
:1028A000888390E080E0E6CFCF93DF930097D1F468
:1028B000EB01FB01329686E0DF011D928A95E9F774
:1028C0008FEF888385E089831A820E94DE228B83C2
:1028D0000E94DD229D838C8381E08E838F83DF9134
:1028E000CF910895DF91CF9117CD88EA93E190932E
:1028F000AB038093AA0308958091AA039091AB0340
:1029000008951092AB031092AA0308958091AD032D
:102910009091AE030895411105C0611571058105BF
:10292000910561F06093AD037093AE038093AF03A4
:102930009093B0034093B10381E0089580E008953F
:10294000FF920F931F93CF93DF938A01EC01C60F81
:10295000D71FF9800E94DE22F816190668F082E07F
:1029600090E0F801918380838EEF9FEFDF91CF910C
:102970001F910F91FF9008956C817D818E819F81C1
:102980004B81C9DF811108C082E090E0F80191839A
:10299000808384EF9FEFEACF89818093AC0390E03E
:1029A0000196F8019183808390E080E0DFCFCF93A0
:1029B000DF93EA01FC01E60FF71F648175818681D0
:1029C00097814381A8DF811109C082E090E099835B
:1029D000888384EF9FEFDF91CF91089581E090E0AD
:1029E0009983888390E080E0F6CFEDEAF3E04081C0
:1029F000518162817381480F511D611D711D40839A
:102A00005183628373830895CF93C091AC034C2F9D
:102A100050E06091AD037091AE0301960E94733651
:102A20008C2FE3DF1092AC03CF910895009799F4B7
:102A30008091AD039091AE032FEFFB012083892B92
:102A400059F02091AC0330E02F5F3F4F241735073A
:102A500019F4CB01D9CF60CC0895009799F48091F7
:102A6000AD039091AE032FEFFB012083892B59F02A
:102A70002091AC0330E02F5F3F4F2417350719F446
:102A8000CB01C2CF49CC089523E1AC01249FC00102
:102A9000259F900D1124E091B603F091B703E80F44
:102AA000F91F238134812250310981E02230310520
:102AB00008F080E008950F931F93CF93DF93009168
:102AC000B8031091B903D0E0C0E080E00C171D07F7
:102AD00049F491E0811190E0892FDF91CF911F910E
:102AE0000F9108958111F5CFCE01CEDF2196EECF63
:102AF000A091B603B091B703109729F12091B803C4
:102B00003091B90382179307F0F453E1589F900175
:102B1000599F300D1124A20FB31FED91FC91119715
:102B2000309789F012968C91681768F48DE0689F51
:102B3000E00DF11D112480819181892B21F081E02C
:102B40009281491708F080E008959C0143E1429F7B
:102B5000C001439F900D1124E091B603F091B7039B
:102B6000E80FF91F8385823091F481E090E0658160
:102B7000768140912102509122026417750711F469
:102B800090E080E0892B19F081E0232B09F080E0B0
:102B90000895FC01A081B1818DE0689FA00DB11D59
:102BA000112413964D915C9185859685489F9001DF
:102BB000499F300D589F300D1124C90101966111B4
:102BC00003C0478144FD04960895EF92FF920F934E
:102BD0001F93CF93DF93EA01FC01E60FF71F0281F9
:102BE0001381E480F5804F2D6E2DC80181DF8111A6
:102BF0000DC082E090E0998388838EEF9FEFDF9194
:102C0000CF911F910F91FF90EF900895C8013CDF85
:102C1000882339F082E090E09983888388EF9FEFE2
:102C2000EECF1093280200932702E0922902F0923F
:102C30002A0281E090E09983888390E080E0DFCFF2
:102C4000CF92DF92EF92FF920F931F93CF93DF9378
:102C50007A01EC01C60FD71FC0902702D09028023E
:102C60000091290210912A02412F602FC60140DFF6
:102C7000811110C082E090E0F701918380838AEF98
:102C80009FEFDF91CF911F910F91FF90EF90DF9019
:102C9000CF900895C601F8DE882341F082E090E0ED
:102CA000F7019183808388EF9FEFEBCF4C815D81AB
:102CB0006E817F819A8189818F3F41F082E090E02F
:102CC000F701918380838EEF9FEFDBCFE3E1EC9DF3
:102CD0009001ED9D300D1124E091B603F091B70302
:102CE000E20FF31F0190F081E02D2DE0029FE00D37
:102CF000F11D11240190F081E02D27E0129FE00DDD
:102D0000F11D1124808391838B81828343835483BB
:102D1000658376831F5F10932A0281E090E0F701BC
:102D20009183808390E080E0ACCFEF92FF920F938D
:102D30001F93CF93DF937A018C01060F171FC09169
:102D4000B603D091B703209781F021E030E0F8017D
:102D5000828193814091B8035091B90384179507FC
:102D600010F030E020E0232B71F482E090E0F701D6
:102D7000918380838EEF9FEFDF91CF911F910F9111
:102D8000FF90EF90089543E1489F9001499F300DD7
:102D90001124C20FD31F78DE882341F082E090E037
:102DA000F7019183808388EF9FEFE6CFF8012481BC
:102DB000358120383105C8F687818111D6CF418110
:102DC000842F90E08F7E009741F082E090E0F70141
:102DD0009183808386EF9FEFCFCF4F833E832D83F8
:102DE000268128871986223010F421E0288721E0E7
:102DF00030E0F70131832083BFCF88E090E0FA0113
:102E00009183808390E080E00895FB018FEF8083C1
:102E100081E181838FEF9FEF9383828380E890E04D
:102E200095838483168217820895FB018FEF808338
:102E300091E0918382839383848384E3858381E01B
:102E400090E097838683089582E090E0FA01918371
:102E5000808380EF9FEF0895DF92EF92FF920F93B0
:102E60001F93CF93DF93EA01FC01E60FF71F8181E7
:102E7000813071F082E090E0998388838FEF9FEF3B
:102E8000DF91CF911F910F91FF90EF90DF90089508
:102E900082819381D4802581E680F7800091B603FA
:102EA0001091B7030115110539F482E090E0998380
:102EB00088838CEF9FEFE4CF4091B8035091B90322
:102EC0008417950738F082E090E0998388838EEF2D
:102ED0009FEFD6CF892B39F082E090E099838883E9
:102EE00086EF9FEFCDCF8D2D8D7FB1F72130A1F7EC
:102EF00081E0D11006C091E0E916F10431F080E0E4
:102F000004C0E2E0EE16F104D0F3882329F390E048
:102F100080E0BADD882339F082E090E099838883ED
:102F200088EF9FEFADCFF801D38681E08487F686E6
:102F3000E586108A178681E090E09983888390E087
:102F400080E09ECF4DE050E06EE672E04FCA8F9277
:102F50009F92BF92CF92DF92EF92FF920F931F93B7
:102F6000CF93DF93EA01FC01E60FF71F8281938183
:102F70000481B580E091B603F091B703309791F4E6
:102F800082E090E0998388838CEF9FEFDF91CF916F
:102F90001F910F91FF90EF90DF90CF90BF909F9087
:102FA0008F9008952091B8033091B9038217930749
:102FB00038F082E090E0998388838EEF9FEFE6CF30
:102FC00023E1289F6001299FD00C1124EC0DFD1DE9
:102FD000E080F180E114F10499F28281081748F74A
:102FE0008DE0089F80011124E00EF11EF701808121
:102FF0009181892B29F6BB20E1F2F7E0BF9E4001C9
:103000001124C4010E94E223F70191838083E0919F
:10301000B603F091B703EC0DFD1D0190F081E02D9A
:10302000E00FF11F80819181009739F482E090E0F8
:10303000998388838DEF9FEFA9CFA40170E060E0B2
:103040000E947C368091B6039091B703C80ED91EBA
:10305000F60180819181080F191FF801B28281E089
:1030600090E09983888390E080E090CFAF92BF9208
:10307000CF92DF92FF920F931F93CF93DF93EA01DA
:10308000FC01E60FF71F82819381F4800091B60363
:103090001091B7030115110581F482E090E0998346
:1030A00088838CEF9FEFDF91CF911F910F91FF905D
:1030B000DF90CF90BF90AF9008952091B8033091EA
:1030C000B9038217930738F082E090E099838883F0
:1030D0008EEF9FEFE8CF2FEF2F0D2C3FA8F723E1C6
:1030E000289F6001299FD00C11240C0D1D1DF80193
:1030F00080819181892B89F6FDE0FF9E500111248A
:10310000C5010E94E223F80191838083E091B60318
:10311000F091B703EC0DFD1D80819181009739F48A
:1031200082E090E0998388838DEF9FEFBCCFA5016B
:1031300070E060E00E947C36E091B603F091B70346
:10314000EC0DFD1DF28281E090E09983888390E090
:1031500080E0A9CFCF92DF92EF92FF920F931F935F
:10316000CF93DF93860F971FFC010281138180911B
:10317000B6039091B703892B81F082E090E0FA01C9
:10318000918380838CEF9FEFDF91CF911F910F91FF
:10319000FF90EF90DF90CF900895C801B0E0A0E0DD
:1031A0000197A109B1098F3F9F4FA105B10540F0DB
:1031B00082E090E0FA01918380838EEF9FEFE4CF6D
:1031C0007A0183E1809F6001819FD00C1124C601A8
:1031D0000E94E223EC01009741F482E090E0F701C5
:1031E000918380838DEF9FEFCFCFA60170E060E0E9
:1031F0000E947C36D093B703C093B6031093B903F3
:103200000093B80390E080E02FEF3FEF41E061E0F2
:1032100070E08017910741F481E090E0F70191831D
:10322000808390E080E0B0CF3A8B298B1B864C875F
:103230007E876D87188A1F8601966396EACFEF9284
:10324000FF921F93CF93DF93EC0110E0F12CE12C60
:103250006A811617B0F083E0689FB0011124AE01B7
:103260004F5E5F4FC7010E944724009721F02FEF68
:103270003FEF3A8B298BDF91CF911F91FF90EF9019
:103280000895612FCE0185DC61E070E00E948F22FD
:10329000E816F90608F47C011F5FDACFF894209154
:1032A000B4033091B50381E02115310509F080E0C8
:1032B000232B09F0789408952F923F924F925F92BA
:1032C0006F927F928F929F92AF92BF92CF92DF9236
:1032D000EF92FF920F931F93CF93DF933C01660E03
:1032E000771EF301828193814C01B12CA12CC091F6
:1032F000B603D091B703209769F021E030E06091E8
:10330000B8037091B9038617970710F030E020E0FA
:10331000232BD1F482E090E0FA01918380838EEF39
:103320009FEFDF91CF911F910F91FF90EF90DF9072
:10333000CF90BF90AF909F908F907F906F905F9055
:103340004F903F902F90089580922B0290922C02E4
:10335000A0922D02B0922E0263E1689F9001699FB6
:10336000300D1124C20FD31FF3018181833040F04F
:1033700082E090E0FA019183808386EF9FEFD1CFC6
:103380002A012B813C81232BF1F4288139819F81F3
:1033900091FF2EC0232B09F46FC02091BB039A81AB
:1033A000422F490F5527551FBA0141E050E06138BF
:1033B000710514F050E040E0452B09F45DC02A8708
:1033C000920F9093BB038150823008F481C066DF76
:1033D000882309F4D8C0F3018181813009F48DC0BC
:1033E00008F47BC0823009F4C6C090E080E0ADC034
:1033F000232B09F441C02091BA039A81E22FE90FEF
:10340000FF27FF1F41E050E0ED3FF10514F050E0D1
:1034100040E0452B89F12A87920F9093BA03D3CFCE
:10342000A081B181A20FB31F11966C91060F111DDF
:103430000196295F3F4F8417950794F38D859E85EC
:10344000089F1001099F300C189F300C1124C114E3
:10345000D104D1F48F8184FF17C00E94DD22F5E0F2
:103460002F0E311C21E08215930508F420E0A701FE
:10347000435F5F4F21110EC082E090E0F201918323
:10348000808387EF9FEF4DCF0E94DD222FEF221A1E
:10349000320AE8CF88819981E80EF91EF70114837A
:1034A0000383FFEFCF1ADF0A7A018A818C151D048E
:1034B00009F00CF48CCFE881F981EE0DFF1D4281FB
:1034C00050E030E020E010E000E090E080E0B3CF9A
:1034D000F12CE12CD12CC12CE8CF81E090E09C8331
:1034E0008B83E9DA882309F480CF81E090E00E94A1
:1034F000D81180E40E94E61178CF89899A890196D3
:1035000061F083E090E09C838B8382E090E00E94F6
:10351000D81180E40E94E01168CF8D819E812091B6
:1035200021023091220282179307D1F46091250283
:1035300070912602AE014F5E5F4F80912302909101
:1035400024020E9466250097E1F2789422E030E0A0
:10355000F20131832083892B99F08DEF9FEFE1CE2B
:1035600089288A288B2869F6039758F6CE0167DEEA
:10357000188A1F86E8CF82E090E09C838B8335CF4A
:1035800090E080E0CECE82E090E0F20191838083F3
:1035900085EF9FEFC6CE8F929F92AF92BF92CF9250
:1035A000DF92EF92FF920F931F93CF93DF93EA0185
:1035B0008C01060F171FF8018181833098F082E09B
:1035C00090E09983888386EF9FEFDF91CF911F91E1
:1035D0000F91FF90EF90DF90CF90BF90AF909F90B2
:1035E0008F9008958091B6039091B703892B61F075
:1035F00081E090E02091B8033091B903232B11F4BE
:1036000090E080E0892B39F482E090E09983888310
:103610008EEF9FEFDACF42DE882309F4E0C0F80195
:103620008181813009F496C0E8F0823099F42091CC
:10363000B8033091B903E091B603F091B70390E07D
:1036400080E041E050E02817390709F0BEC033DAC6
:10365000811117C0789481E090E09983888390E08D
:1036600080E0B3CF2091B8033091B903E091B60365
:10367000F091B70390E080E041E050E0281739076F
:1036800041F481E090E00E94D81180E40E94E611AC
:10369000E1CF63817481672B11F0548343830196DA
:1036A0007396ECCFE091B603F091B703E00FF11FF2
:1036B0002381348122303105D9F4218932892F3F89
:1036C0003F4FB1F425813681409121025091220271
:1036D0002417350761F5AF014F5E5F4F60912502FA
:1036E0007091260280912302909124020E94662507
:1036F000EFEFCE1ADE0AEE0AFE0A0D5E1F4F409172
:10370000B8035091B90370E060E0C416D506E60630
:10371000F70644F5009731F27894892B09F49BCF92
:1037200082E090E0998388838DEF9FEF4ECFC114A4
:10373000D104E104F104E1F623303105C8F6CF01EC
:103740007EDDE091B603F091B703E00FF11F108A20
:103750001786CECF10E000E090E080E0C12CD12CA5
:103760007601CDCF0097C1F610E000E0812C912CBE
:10377000540183E0E82EF12C1AC0E091B603F091D9
:10378000B703E00FF11F83819481029749F4F4821B
:10379000E38282E090E00E94D81180E40E94E01170
:1037A000FFEF8F1A9F0AAF0ABF0A0D5E1F4F80916D
:1037B000B8039091B903B0E0A0E088169906AA0674
:1037C000BB06DCF290E080E0A7CF638174816230B9
:1037D000710511F4548343830196739634CF82E0CC
:1037E00090E09983888385EF9FEFEFCE0097B9F43F
:1037F0008FEFFB01808320912B0230912C0243E15B
:10380000429FC001439F900D1124E091B603F091B7
:10381000B703E80FF91F8285FB01818308950C949B
:103820008C1188E090E0FA019183808390E080E041
:1038300008951092B5031092B403E6EBF3E086E02E
:10384000DF011D928A95E9F782EA97E19093B3032D
:103850008093B20308958091B2039091B3030895C9
:103860002F923F924F925F926F927F928F929F9290
:10387000AF92BF92CF92DF92EF92FF920F931F937E
:10388000CF93DF93CDB7DEB72F970FB6F894DEBF97
:103890000FBECDBFF894E091B403F091B50331961B
:1038A000F093B503E093B40378944090B60350903E
:1038B000B7034114510409F40CC2E091B803F0912C
:1038C000B903EF2B09F405C22D8749875A876B8707
:1038D0007C8798878F831201B12CA12C10E000E027
:1038E0008091B8039091B903A816B90618F4011590
:1038F000110529F1F8948091B4039091B5030197D3
:103900009093B5038093B4037894C8012F960FB6B3
:10391000F894DEBF0FBECDBFDF91CF911F910F9105
:10392000FF90EF90DF90CF90BF90AF909F908F90DF
:103930007F906F905F904F903F902F90089571010E
:10394000E418F508D10117968C91179781FD54C0A2
:1039500013968D919C911497039709F04DC015967D
:103960008D919C91EF81F8858E179F0709F044C0D7
:10397000B50190E080E07FD48A832091B603309136
:10398000B7033D832C833D85332309F44CC04C8120
:103990005D81452B09F49AC18091B8039091B903D8
:1039A000A816B90608F092C1C501CFD88823E9F05E
:1039B0006C817D816E0D7F1D7D836C83DB011F9685
:1039C0008D919C91892B89F0D12CC12CF12CE12C6B
:1039D000AC81BD8112968C9112978E151F0409F04F
:1039E00094F450961C921E921F972A81222321F054
:1039F000B50190E080E041D43FEFA31AB30A43E160
:103A0000240E311C6DCFAC81BD81ED91FC91EC0D8C
:103A1000FD1D858196810FD7BFEFEB1AFB0AEDE004
:103A2000CE0ED11CD5CFEC81FD81309709F44EC16B
:103A30008091B8039091B903A816B90608F046C161
:103A4000EE0DFF1DFF87EE87C5017FD88B8388238E
:103A500039F1AE85BF851F968D919C915097019647
:103A600021E01D964D915C918417950709F020E0A7
:103A70002E831982712C10E000E0AE85BF8512966E
:103A80008C91781608F45DC0EE85FF858785908956
:103A90000196658576850E941736908B8787A5CF1E
:103AA000B1E0BE83E6CF992493946BC08BD6F60128
:103AB0009683858382C0D601ED90FC90B7E06B9E23
:103AC000E00CF11C1124F7016381748180818F3F28
:103AD00061F121E030E002C0220F331F8A95E2F746
:103AE000C901092E000CAA0BBB0BFB0140815181BF
:103AF0006281738184239523A623B72321E0892B38
:103B00008A2B8B2B09F420E0D4012C93D70111963A
:103B10008C91F60123853485820F932F911D880E99
:103B2000991E1486138663949BC0418150E0C401A2
:103B30000E947336EBCF998206EF1FEFC5C0198242
:103B4000C3C0F981F111A0CFEDE07E9E7001112478
:103B5000AE85BF85CD90DC90CE0CDF1C15D49D8347
:103B60008C83BB81BB2309F49ECF81E0EE85FF856A
:103B700027853089232B09F080E0982E882309F4CB
:103B800058C0672D8E859F8504D8D60118969C93C2
:103B90008E93179761E070E0C2D4EE85FF8521898E
:103BA00032892F3F320709F481CFBC01C901CFD739
:103BB000D60116969C938E931597D60115968D91E6
:103BC0009C911697009709F4B6CFEC81FD818E0F7A
:103BD0009F1F1A969C938E931997AE85BF85ED9182
:103BE000FC911197EE0EFF1EF70121853285148698
:103BF00013861A968C91870DD9018D93711016C07A
:103C0000EE85FF85878184FF11C049855A856B85C4
:103C10007C85F9014183528363837483F701838533
:103C200094850496A80FB91F14861386F701B287EE
:103C3000A187D60115968D919C911697892B09F431
:103C400043C0EE85FF8525813681809121029091C8
:103C500022022817390779F019968D909C90612CD3
:103C6000D60112968C911297681608F424CF1A96F2
:103C70009C928E921997BE81BB2309F460CF61E0BC
:103C800070E0F601878190854AD4D6011796ED90B1
:103C9000FC90189715964D915C91E1E0F0E0BA81A7
:103CA000BB2311F0F0E0E0E00C811D819C01B50127
:103CB000882799278E1B9F0B6AD38C01892B21F0B3
:103CC000F60185819681B7D57394D7CE0FEF1FEF9C
:103CD0008CCE10E000E00ECE2F923F924F925F927A
:103CE0006F927F928F929F92AF92BF92CF92DF920C
:103CF000EF92FF920F931F93CF93DF938091B603C0
:103D00009091B70310E000E0892BA9F0C7DA0AEF21
:103D10001FEF882381F02090B8033090B903C09141
:103D2000B603D091B703D12CC12C10E000E02C14C5
:103D30003D04A9F47894C801DF91CF911F910F91B0
:103D4000FF90EF90DF90CF90BF90AF909F908F90BB
:103D50007F906F905F904F903F902F900895C60195
:103D60000E94A515882309F18B819C810397E9F4B2
:103D70008F859889892BC9F0B60190E080E07BD2CD
:103D800021E030E0882311F030E020E04424552485
:103D9000421A530AB12CA12C912C812C8A818815AE
:103DA000190409F038F4188A1F864FEFC41AD40A90
:103DB0006396BDCFE881F981EA0DFB1D858196816F
:103DC000892BA1F161E070E087819085A8D33C0147
:103DD000DBD28C01E881F981EA0DFB1D818592859A
:103DE00025813681200F311FAC01421B530B9A01F4
:103DF00047815085421B530B70E060E00E947C3687
:103E0000E881F981EA0DFB1DE780F0844581568148
:103E10009301B601C201BBD28C01892B39F0E88134
:103E2000F981EA0DFB1D8581968105D55FEF851A25
:103E3000950A8DE0A80EB11CB1CF30CA78940895D0
:103E40002F923F924F925F926F927F929F92AF928A
:103E5000BF92CF92DF92EF92FF920F931F93CF9377
:103E6000DF9300D000D0CDB7DEB70091B60310913C
:103E7000B703992493940115110509F43EC0A0904D
:103E8000B803B090B9030ADA982E8823B1F11092E2
:103E9000B7031092B6031092B9031092B8031092B0
:103EA000BA031092BB038FEF9FEFDC0180932B02CC
:103EB00090932C02A0932D02B0932E0278947FD37E
:103EC0001E830D83C12CD12C7601C501B0E0A0E08A
:103ED00089839A83AB83BC8322242A94322C8981E0
:103EE0009A81AB81BC81C816D906EA06FB06F4F0BC
:103EF000C801A1D480E40E94E611892D26960FB650
:103F0000F894DEBF0FBECDBFDF91CF911F910F910F
:103F1000FF90EF90DF90CF90BF90AF909F907F90F9
:103F20006F905F904F903F902F900895AD81BE812C
:103F300015968D919C911697209121023091220225
:103F400082179307D1F451968D919C91EED5ED8116
:103F5000FE8180819181B12CA12C412C512C320108
:103F6000892B89F5BFEFCB1ADB0AEB0AFB0AED813F
:103F7000FE817396FE83ED83B2CFC114D104E104B8
:103F8000F10429F7039718F7ED81FE818189928961
:103F90008F3F980709F029D5AD81BE8152963C929A
:103FA0002E925197D4CF8A0D9B1DDC018D919C914F
:103FB000009709F040D4BFEF4B1A5B0A6B0A7B0AEB
:103FC000EDE0AE0EB11CAD81BE818D919C9111973B
:103FD00012964C9150E070E060E04416550666067B
:103FE00077060CF328D4BECFCF93DF93EA0128DF06
:103FF000811109C082E090E09983888385EF9FEF6B
:10400000DF91CF91089581E090E00E94D81181E086
:1040100090E09983888390E080E0F2CF11DF1092E6
:10402000B3031092B203089542E050E06CEB72E0EB
:104030000C94F611FF920F931F93CF93DF938A0195
:10404000EC01C60FD71FF980B9D20897F8161906E8
:1040500071F068F082E090E0F801918380838EEF48
:104060009FEFDF91CF911F910F91FF9008956C8189
:104070007D818E819F814B810E948B14811108C0AC
:1040800082E090E0F8019183808384EF9FEFE9CF95
:10409000F9800E9486144F2D50E0BE01685F7F4F6B
:1040A0000E94733689810E94F51481E090E0F80146
:1040B0009183808390E080E0D4CFDF92EF92FF92F3
:1040C0000F931F93CF93DF938A01EC01C60FD71F85
:1040D0000E9486147C01D98071D2DD2059F00297AC
:1040E00021E030E0D816190619F010F030E020E099
:1040F000232B79F482E090E0F801918380838EEFA6
:104100009FEFDF91CF911F910F91FF90EF90DF9084
:104110000895EF2841F482E090E0F80191838083D4
:1041200084EF9FEFEECFF9800E9486144F2D50E070
:10413000BE016E5F7F4F0E94733689810E94F51425
:1041400081E090E0F8019183808390E080E0D9CF16
:1041500084E190E29093BD038093BC030895809125
:10416000BC039091BD0308950895FC011182108253
:10417000938382830895DB011D921C92DC011296C9
:10418000ED91FC9113977183608313967C936E93EA
:1041900012970895FC0180819181DB018D939C939E
:1041A000A081B181109741F08D919C919183808382
:1041B000892B11F4F383E2830895FC0180819181BE
:1041C000DB018D939C93892B11F47383628371833C
:1041D00060830895FC011182108293838283089585
:1041E000CF93DF931F921F92CDB7DEB71A82198249
:1041F000F894BE016F5F7F4F83EC93E0CBDF898142
:104200009A81009709F017D389819A81892B89F7C0
:10421000BE016F5F7F4F87EC93E0BCDF89819A819D
:10422000009709F008D389819A81892B89F77894BE
:104230000F900F90DF91CF910895CF93DF931F924E
:104240001F92CDB7DEB71A821982F894BE016F5F54
:104250007F4F8FEB93E09EDF89819A81009709F071
:10426000EAD289819A81892B89F778940F900F90EF
:10427000DF91CF91089581E0089590E080E0089566
:10428000EF92FF920F931F93CF93DF931F921F9292
:10429000CDB7DEB71A8219828091BE0307EF1FEFF8
:1042A0008823A1F1F894BE016F5F7F4F87EC93E004
:1042B00071DF789489819A81EE24E394F12C892B23
:1042C00051F4F894BE016F5F7F4F83EC93E062DF9F
:1042D0007894F12CE12C89819A810EEF1FEF0097E1
:1042E000A9F0FC014281538164E070E076D68C0134
:1042F000892B61F0F89469817A81C701880F991F31
:10430000880F991F8D539C4F58DF7894C8010F90E8
:104310000F90DF91CF911F910F91FF90EF90089533
:104320000F931F93CF93DF9300D01F92CDB7DEB7CB
:104330001C821B821A8219828091BE0307EF1FEF35
:104340008823C1F0AE014D5F5F4F64E070E0CE01A5
:104350000196B6D68C01892B69F4E981FA818B81AB
:104360009C8193838283F89469817A818FEB93E0B7
:1043700002DF7894C8010F900F900F900F90DF919B
:10438000CF911F910F910895BBD7049608958F92F6
:104390009F92AF92BF92CF92DF92EF92FF920F93D4
:1043A0001F93CF93DF931F921F92CDB7DEB71A8270
:1043B0001982BC016F5F7F4F6330710598F0AA24AA
:1043C000AA94BA2CC5010F900F90DF91CF911F9145
:1043D0000F91FF90EF90DF90CF90BF90AF909F90A4
:1043E0008F9008954115510551F3480159018A01F3
:1043F0006C01CADF8815990511F7E114F104F9F28F
:104400008E0D9F1DA816B906D0F28091BE03882399
:10441000F1F0F894B501645071099701AE014F5F56
:104420005F4FC8010496E1D65C01892B71F4898144
:104430009A81F80193838283C601880F991F880FA0
:10444000991FB8018D539C4F96DE7894BBCF87EFB0
:10445000A82EBB24BA94B6CFAF92BF92CF92DF9270
:10446000EF92FF920F931F93CF93DF931F921F92B0
:10447000CDB7DEB71A821982892B09F047C06115C2
:10448000710509F443C04115510509F43FC02115D8
:10449000310509F43BC001151105C1F18091BE033E
:1044A0008823B9F179016A015B01F894BE016F5F5D
:1044B0007F4F8FEB93E06EDE789489819A8100972D
:1044C00059F1DC0112966D917C91A8010496A6D653
:1044D0008C01E981FA81D501ED93FC93828193816E
:1044E0000496F601918380834FDFD7018D939C93CF
:1044F000C8010F900F90DF91CF911F910F91FF9006
:10450000EF90DF90CF90BF90AF9008950FEF1FEF27
:10451000EFCF07EF1FEFECCF0EEF1FEFE9CFCF93F9
:10452000DF93EC01672B71F4F4D68C179D0760F0D4
:10453000E7D62496C80FD91FE6D68C0F9D1FDF91B2
:10454000CF910895E3D6F1CF90E080E0F8CF0F93BC
:104550001F93CF93DF932091BE0321112BC08B01BA
:10456000EC0183EC93E001DE87EC93E0FEDD8FEB62
:1045700093E0FBDD97D00097C1F4CBD670E060E00C
:10458000CEDF4FE252E062E070E081D1009769F443
:1045900080912F0290913002CED6B801CE0103D582
:1045A000009719F421E02093BE03DF91CF911F9172
:1045B0000F91089584EF9FEFF8CFA8C6AAC6CF93B6
:1045C000DF93AAD6EC01892B11F40ADE36DECE0188
:1045D000DF91CF910895CF93DF939ED6EC01892B85
:1045E00009F4FEDDCE01DF91CF91089580912F0275
:1045F000909130020895CF93DF938091BE03D0E075
:10460000C0E08823D1F09CD6EC01892BB1F4E8DD21
:1046100014DE80912F0290913002E7D1E8D2EC01B4
:10462000892B59F483EC93E0D5DD87EC93E0D2DD60
:104630008FEB93E0CFDD1092BE03CE01DF91CF91DF
:104640000895EF92FF920F931F93CF93DF93EC01A6
:104650007A018B010F5F1F4F0E9DA0010F9D500D22
:104660001E9D500D112470E060E00E947C3690E0A9
:1046700080E0F0E0E0E02FEFE816F90639F4DF9192
:10468000CF911F910F91FF90EF9008951A82198298
:104690002883309711F0D283C1830196FE01C00FA9
:1046A000D11FEACFCF92DF92EF92FF920F931F9329
:1046B000CF93DF9308EE14E00C7F43E050E061E31A
:1046C00072E087E392E01CD481E3E82E82E0F82ECA
:1046D00097E3C92E92E0D92EC7E9D5E0D7014D91D5
:1046E0005D917D01F601619171916F0119830883DC
:1046F0005D834C835B834A837F836E839B012F5F43
:104700003F4F249FC001259F900D349F900D112491
:10471000998788870115110511F0C80192DF8885F6
:104720009985080F191F2A96F7E3EF16F2E0FF06A6
:10473000A9F6EDECF3E088E191E0DF019C011D9228
:1047400021503040E1F71092CC031092CB0310922D
:10475000B6051092B5051092BA051092B9051092DF
:10476000B8051092B7051092BC051092BB051092C7
:10477000BE051092BD051092C0051092BF051092A3
:10478000C4051092C3051092C2051092C105109283
:10479000C6051092C5051092C8051092C705109263
:1047A000940510929305109296051092950590E04D
:1047B00080E0DF91CF911F910F91FF90EF90DF90FC
:1047C000CF9008950097F1F0F894A7E3B2E0E7E9FD
:1047D000F5E030E020E04D915D9148175907A8F0D1
:1047E000428153814115510581F08AE0829FF00199
:1047F000839FF00D1124E956FA4F80819181009733
:1048000059F4789490E080E008952F5F3F4F3A96F6
:104810002330310501F7F5CFDC0111966D917C91C4
:10482000718360834150510953834283FC0121937A
:10483000CF0178940895009749F1DC018E9185307D
:1048400041F4E0919505F09196053097F9F0CD018E
:1048500019948530D8F4282F30E0F8948FEF8C939A
:104860008AE0829FF001839FF00D1124E956FA4FF0
:104870008081918112969C938E931197B183A0832E
:104880008281938101969383828378940895CF9255
:10489000DF92EF92FF920F931F93CF93DF939C01D0
:1048A00080ED93E08C7F4115510509F49BC02115E3
:1048B000310509F497C06115710509F493C07A01B7
:1048C000AB01B9016D5F7F4F6C7F9B012F5F3F4F45
:1048D000249F8001259F100D349F100D1124F89402
:1048E0002091B5053091B605232B59F42091BD05D3
:1048F0003091BE052115310569F12017310708F007
:1049000058C02091BF053091C005232B91F4209110
:10491000BD053091BE05820F931F2091C7053091D0
:10492000C8052115310509F441C02017310708F0E9
:1049300056C07894CFEFDFEF86EF9FEFF701D1837A
:10494000C083DF91CF911F910F91FF90EF90DF9087
:10495000CF900895C3E0D0E0C090CB03D090CC03BB
:1049600025E131E02C193D092017310710F32AE029
:104970002C9FF0012D9FF00D1124E956FA4F9183E1
:10498000808355834483538342837783668311876F
:104990000087009709F055DE0C0D1D1D1093CC0308
:1049A0000093CB03789490E080E0C8CFC4E0D0E0DF
:1049B000D3CFC3E0D0E02AE02C9FF0012D9FF00D73
:1049C0001124E956FA4F918380835583448353839E
:1049D000428377836683009729F333DEE3CFC4E015
:1049E000D0E0E9CF8FEF9FEFACCF9C010397029708
:1049F00008F069C0F89484E09AE0482F50E024174A
:104A000035070CF44DC091E08AE0829FF001839F4E
:104A1000F00D1124E956FA4F11821082158214828A
:104A200013821282178216829923B1F18091B50503
:104A30009091B605892BA9F42091BD053091BE0552
:104A40002115310571F08091CB039091CC03821B2D
:104A5000930B9093CC038093CB031092BE051092DE
:104A6000BD058091BF059091C005892BA9F42091C7
:104A7000C7053091C8052115310571F08091CB0330
:104A80009091CC03821B930B9093CC038093CB0328
:104A90001092C8051092C705789490E080E00895C0
:104AA000949FF001959FF00D1124E956FA4F408133
:104AB0005181452B31F440855185452B11F48150AE
:104AC0009CCF90E0A1CF8FEF9FEF08954115510546
:104AD00049F1009739F16115710521F1F8942091A0
:104AE000930530919405232BB9F4209195053091CD
:104AF0009605232B89F490939405809393057093E6
:104B0000960560939505789425E030E090E080E08C
:104B1000FA0131832083089578942FEF3FEF86EFD9
:104B20009FEFF6CF8FEF9FEF0895059769F4F89404
:104B30001092940510929305109296051092950587
:104B4000789490E080E008958FEF9FEF08956115CD
:104B5000710519F4F0E0E0E011C08530910581F4B1
:104B6000E0919305F09194053097A1F3CB01019664
:104B70001995009779F3FC0185E08193CF010895A1
:104B80009C01235031092230310520F72AE0289F6B
:104B9000D001299FB00D1124A956BA4F2D913C91F7
:104BA0001197232BB9F216962D913C911797261742
:104BB000370780F2F89412962D913C9113972115A6
:104BC000310529F0ED91FC911197309711F478940B
:104BD000C1CF4181528111965C934E93215031098E
:104BE00013963C932E93129781937894C7CFE5EE5A
:104BF000F4E08EEADF011D928A95E9F7EDECF3E02F
:104C000088E191E0DF019C011D9221503040E1F7E5
:104C10001092CC031092CB03E7E9F5E082E3DF01C9
:104C20001D928A95E9F7E3E9F5E084E0DF011D9242
:104C30008A95E9F790E080E00895CF93DF93C091E3
:104C40003D02D0913E02CF3FDC0759F45ED49093F1
:104C50003E0280933D0297FF09C0D0933E02C0936D
:104C60003D0284EF9FEFDF91CF91089590E080E0C7
:104C7000FACF8230910528F48093C90590E080E056
:104C800008958FEF9FEF08954F925F926F927F92FA
:104C9000AF92BF92CF92DF92EF92FF920F931F934A
:104CA000CF93DF931F921F92CDB7DEB71A8219827E
:104CB000009709F479C06115710509F475C0209158
:104CC0003D0230913E0207EF1FEF2F3F3F4F09F4A7
:104CD00045C06B015C01412C512C3201F12CE12CBF
:104CE00010E000E09E012F5F3F4FA6014E195F09C3
:104CF000B5016E0D7F1D80913D0290913E0264D4FE
:104D0000892B09F04BC089819A81009741F4E11405
:104D1000F10429F42091C905222309F442C0E80EC8
:104D2000F91EEC14FD04D0F480E8481684E8580617
:104D30008EE16806710420F560E070E0CB010E940E
:104D40009B2F2AE0420E511C611C711C0A3F4FEF41
:104D5000140721F0043F8FEF1807A1F4C8010F904A
:104D60000F90DF91CF911F910F91FF90EF90DF9007
:104D7000CF90BF90AF907F906F905F904F900895CD
:104D800001EF1FEF81E090E0013F2FEF120711F0DC
:104D900090E080E0892B09F4A5CFE0CF04EF1FEF6E
:104DA000DDCF0AEF1FEFDACF0FEF1FEFD7CF4F9214
:104DB0005F926F927F92AF92BF92CF92DF92EF920B
:104DC000FF920F931F93CF93DF931F921F92CDB744
:104DD000DEB71A821982009709F479C0611571054E
:104DE00009F475C020913D0230913E0207EF1FEF9C
:104DF0002F3F3F4F09F445C06B015C01412C512C02
:104E00003201F12CE12C10E000E09E012F5F3F4FBA
:104E1000A6014E195F09B5016E0D7F1D80913D02FF
:104E200090913E0287D3892B09F04BC089819A81EA
:104E3000009741F4E114F10429F42091C9052223DB
:104E400009F442C0E80EF91EEC14FD04D0F480E42D
:104E5000481682E458068FE06806710420F560E089
:104E600070E0CB010E949B2F2AE0420E511C611C76
:104E7000711C0E3F4FEF140721F0043F8FEF18070E
:104E8000A1F4C8010F900F90DF91CF911F910F9166
:104E9000FF90EF90DF90CF90BF90AF907F906F909A
:104EA0005F904F90089502EF1FEF81E090E0023F86
:104EB0002FEF120711F090E080E0892B09F4A5CFC5
:104EC000E0CF04EF1FEFDDCF0EEF1FEFDACF0FEFD4
:104ED0001FEFD7CF80913D0290913E028F3F980700
:104EE00049F00BD3892B49F48FEF9FEF90933E024B
:104EF00080933D0290E080E0089584EF9FEF089555
:104F0000CF92DF92EF92FF920F931F93CF93DF9395
:104F100021E04115510509F020E0415051092111CE
:104F20002CC0DC01FB01D12CC12C21E022C03FEFC1
:104F3000C31AD30A7D010D911D91E701EA80FB8020
:104F4000E016F106A8F420813181E280F380F1823D
:104F5000E08233832283ED90FC9011979D012250D3
:104F60003109E901F982E88211961C930E9320E041
:104F70003296C416D506D8F2D2CFDF91CF911F91C9
:104F80000F91FF90EF90DF90CF900895FC01680F94
:104F9000791F90E080E0E617F70709F40895219162
:104FA000820F911DF8CF2091CA05211113C045DE53
:104FB000009791F41092D0051092CF051092CE0573
:104FC0001092CD051092CC051092CB0521E02093D4
:104FD000CA05089584EF9FEF0895AF92BF92CF92D4
:104FE000DF92EF92FF920F931F93CF93DF9300977F
:104FF00009F460C04630510508F45CC02091CA0530
:10500000C7EFDFEF222309F449C08C01060F171FF9
:10501000F801C080D180C114D10409F44EC09601BA
:105020002A5F3F4F4217530708F447C07C01809125
:10503000CF059091D00593838283B6016C5F7F4F3B
:105040005801A60EB71EC801A1DFF5019183808328
:1050500064E070E0C80118DEEC01892BF9F481E00E
:1050600090E007DEB601C80104960EDEEC01892B44
:1050700091F462E070E0C50107DEEC01892B59F480
:10508000C701D9DB8091CF059091D005019690930F
:10509000D0058093CF0590E080E0EBDDCE01DF917D
:1050A000CF911F910F91FF90EF90DF90CF90BF9025
:1050B000AF900895CFEFDFEFF1CFC9EFDFEFEECF85
:1050C0006F927F928F929F92AF92BF92CF92DF9218
:1050D000EF92FF920F931F93CF93DF9300D01F9215
:1050E000CDB7DEB7009709F47AC04115510509F430
:1050F00076C02091CA0507EF1FEF222309F44DC0A7
:105100003A017B015C0164E070E0CE0101964FDE64
:105110008C01892B09F041C009811A810115110503
:1051200009F45AC0480186E0880E911CB701680D49
:10513000791D80913F029091400209DD6C0100973A
:1051400009F450C0A70170E060E00E947C368981BC
:105150009A81AB81BC81EC0CFD1CF701819391938A
:10516000A193B1937F0181E090E083DDB801C70195
:105170001EDE892B31F562E070E0C701800F911FC0
:1051800016DE8C01892BE9F490E080E072DDF501F8
:10519000D182C082F30191828082C8010F900F906A
:1051A0000F900F90DF91CF911F910F91FF90EF9093
:1051B000DF90CF90BF90AF909F908F907F906F9037
:1051C000089590E080E055DDF50111821082F30131
:1051D00011821082C6012FDB09EF1FEFDECF0FEF28
:1051E0001FEFDBCF06EF1FEFD8CF0097A1F04115DF
:1051F000510589F02115310571F0F90136966E17C8
:105200007F0748F0DC012D933C93DA01ED93FC938A
:1052100090E080E008958FEF9FEF0895AF92BF92E6
:10522000CF92DF92EF92FF920F931F93CF93DF9372
:10523000009709F45FC04115510509F45BC0653062
:10524000710508F457C02091CA05C7EFDFEF22238C
:1052500091F1DC01CD90DC9011971296ED91FC91CB
:1052600096012A5F3F4FC9EFDFEF2617370719F581
:10527000C091CB05D091CC05209749F521E030E0D5
:105280003093CC052093CB057A018C01F093CE05A9
:10529000E093CD055601B4E0AB0EB11CB50176DE4E
:1052A0000A0D1B1DF801208131818217930729F512
:1052B000D701CD92DC92CE01DF91CF911F910F915A
:1052C000FF90EF90DF90CF90BF90AF900895209126
:1052D000CD053091CE052F5F3F4FCCEFDFEFE217CA
:1052E000F30790F2CBEFDFEF2E173F0768F2D0E025
:1052F000C0E0CACFCFEFDFEFDECFC3EFDFEFDBCF12
:1053000084E090E0089582E090E008958CEF9FEFB4
:10531000089580E290E008951092D0051092CF0594
:105320001092CE051092CD051092CC051092CB05AF
:1053300090E080E008959093400280933F020895AA
:105340008091CA05882391F0C5DD009789F41092F9
:10535000D0051092CF051092CE051092CD05109277
:10536000CC051092CB051092CA05089590E080E01C
:105370000895009749F06115710531F0FC01118223
:105380001082FB01118210820895F3CF26E030E0F5
:1053900040E052EC61E070E090E080E000C01092EC
:1053A000D2051092D1058930910508F03AC0FC0170
:1053B0008827E252F64D8F4F0C944D36E729F0299D
:1053C000F929022A0B2A122A152A182A1E2A81E0F4
:1053D00090E09093D2058093D10585EE95E00DC7BE
:1053E00082E090E09093D2058093D10582E896E028
:1053F000F6CF84E090E09093D2058093D1058FE1C1
:1054000097E0EDCF88E090E09093D2058093D105AE
:105410008CEB97E0E4CF80E190E09093D20580930D
:10542000D105089580E290E0F8CF80E490E0F5CFD8
:1054300080E890E09093D2058093D1058091D105CA
:105440009091D2059160E9CF1F920F920FB60F9203
:1054500011240BB60F922F933F934F935F936F934B
:105460007F938F939F93AF93BF93EF93FF9386E0C8
:105470009FEF9093250180932401BAD0FF91EF9183
:10548000BF91AF919F918F917F916F915F914F915C
:105490003F912F910F900BBE0F900FBE0F901F905A
:1054A000189586E09FEF9093250180932401A3E750
:1054B000B0E08C918E7F8C93E0E2F1E080818C7F74
:1054C0008083E1E2F1E08081877E80838081836058
:1054D000808380818B7F80838C9181608C93089501
:1054E000E3E7F0E0808190819E7F90838170089552
:1054F00081E008951092D305089568EE73E080E08E
:1055000090E019D590E080E0089526E030E040E09A
:1055100050E16EE070E090E080E041DF85EE95E0E4
:10552000A2D5892B21F085EE95E0B7D5F7CF90E095
:1055300080E00895CF92DF92EF92FF920F931F9336
:10554000CF93DF936B017A01E9011982188285EE0E
:1055500095E089D5892B69F18601CC24C39482E03A
:10556000D82E8091D305811110C085EE95E095D598
:105570000297B9F7C092D305F801D1928F018881C3
:105580009981019699838883ECCF888199818E15C2
:105590009F0578F485EE95E080D58F3F9807A9F3B5
:1055A000F80181938F01888199810196998388837D
:1055B000ECCF90E080E0DF91CF911F910F91FF90B1
:1055C000EF90DF90CF9008950F931F93CF93DF93C9
:1055D000EA01890185EE95E00E948D33F801D183BF
:1055E000C08390E080E0DF91CF911F910F910895EB
:1055F0004F925F926F927F929F92AF92BF92CF92A3
:10560000DF92EF92FF920F931F93CF93DF9300D01F
:10561000CDB7DEB78091D70591E0980F9093D7056D
:105620008823D9F021E030E03093DB052093DA05C0
:105630008093D7050F900F900F90DF91CF911F911E
:105640000F91FF90EF90DF90CF90BF90AF909F9021
:105650007F906F905F904F900895CE0101960E94C9
:10566000C9067894C0904202D0904302F601428C61
:10567000538C648C758C0E942707B301A20190E0C3
:1056800080E00E949D05F8948091D7058150809319
:10569000D7058A81811148C08B81811151C007EDE6
:1056A00015E094EDE92E95E0F92EAA24A394B12CEF
:1056B00099249394F80181818111BCCFF7018181F4
:1056C000882321F1F80191827894F2E0AF16B104B9
:1056D00009F44CC0F60122A133A144A155A1AAE0CE
:1056E000B0E00E9455362B013C010E946D07B301CA
:1056F000A20181E090E00E949D05F894F70181816C
:1057000081508183F8018181815081830F5F1F4F18
:10571000FFEFEF1AFF0A82E0A816B10409F48ACF5E
:1057200082E0A82EB12CC6CF8091D50591E0980FCC
:105730009093D505882309F4AFCF21E030E00BC06A
:105740008091D60591E0980F9093D60522E030E045
:10575000882309F4A4CF41E050E05093DB05409347
:10576000DA052C523A4FF901808399CFF60126A130
:1057700037A140A551A5A4E6B0E00E9455362B0103
:105780003C010E94BE08B301A20182E090E0B3CFC9
:105790000F931F93CF93DF931092CA081092C908FA
:1057A00000D4F4DDC0914202D091430219821882E4
:1057B00060EE73E984E090E00E94200670E060E013
:1057C00090E080E00E949F04009709F03AC00E9498
:1057D000690AF89478948A819B81BC01685F7F4F45
:1057E0000E94A204892B59F46FEF7FEFCB010E9436
:1057F00033050E941A06882311F081E08AABF894E1
:1058000050DE0E941D06882311F080E008C00E942F
:105810001A068111FACF81E09AA99111F6CF8093EF
:10582000C90878940E94D3118C0178948091C9089A
:1058300081110CC00E940D0B0E94FF05F89490E0AE
:1058400080E0DF91CF911F910F9108950E94FD0597
:105850000E941D068823D9F081E08093CA089091A8
:10586000CA0881E0911180E08093C9088091CA083C
:10587000811136DE0130110529F40E94D311892BE4
:1058800009F438DE0E94D3118C0132DECFCF0E94A2
:105890001A068111E1CF81E09AA99111DECF80E053
:1058A000DCCF5058BB27AA270ED012C203D230F04B
:1058B00008D220F031F49F3F11F41EF4F8C10EF429
:1058C000E095E7FBC5C1E92F14D280F3BA17620750
:1058D00073078407950718F071F49EF543C20EF420
:1058E000E0950B2EBA2FA02D0B01B90190010C01F0
:1058F000CA01A0011124FF27591B99F0593F50F408
:10590000503E68F11A16F040A22F232F342F44275F
:10591000585FF3CF469537952795A795F040539557
:10592000C9F77EF41F16BA0B620B730B840BBAF027
:105930009150A1F0FF0FBB1F661F771F881FC2F792
:105940000EC0BA0F621F731F841F48F487957795A6
:105950006795B795F7959E3F08F0B3CF9395880F5D
:1059600008F09927EE0F979587950895E4D180F078
:105970009F3740F491110EF4F6C160E070E080E8CA
:105980009FE3089526F01B16611D711D811D66C1E0
:1059900080C13AD108F481E008950CD099C191D129
:1059A00040F088D130F021F45F3F19F051C151111E
:1059B000DAC17DC19ED198F39923C9F35523B1F380
:1059C000951B550BBB27AA2762177307840738F06E
:1059D0009F5F5F4F220F331F441FAA1FA9F333D0CD
:1059E0000E2E3AF0E0E830D091505040E695001C81
:1059F000CAF729D0FE2F27D0660F771F881FBB1F3D
:105A0000261737074807AB07B0E809F0BB0B802D16
:105A1000BF01FF2793585F4F2AF09E3F510568F062
:105A200017C1A1C15F3FECF3983EDCF386957795F3
:105A30006795B795F7959F5FC9F7880F911D969564
:105A4000879597F90895E1E0660F771F881FBB1FC0
:105A5000621773078407BA0720F0621B730B840B6D
:105A6000BA0BEE1F88F7E095089504D06894B11141
:105A70007AC1089546D188F09F5790F0B92F9927A1
:105A8000B751A0F0D1F0660F771F881F991F1AF049
:105A9000BA95C9F712C0B13081F064D1B1E0089570
:105AA00061C1672F782F8827B85F39F0B93FCCF3F1
:105AB000869577956795B395D9F73EF4909580953F
:105AC000709561957F4F8F4F9F4F0895E89409C05F
:105AD00097FB3EF490958095709561957F4F8F4F21
