:1000000075C00000A4C00000A2C00000A0C0000095
:100010009EC000009CC000009AC0000098C0000074
:1000200096C0000094C0000092C0000090C0000084
:100030008EC000008CC000008AC0000088C0000094
:1000400086C0000084C0000082C0000080C00000A4
:100050007EC000007CC000007AC000000C94E13338
:1000600076C000000C941E360C94543670C000000C
:100070006EC000006CC000006AC0000068C00000D4
:1000800066C0000064C0000062C0000060C00000E4
:100090000C94AA360C94E0365AC0000058C00000F8
:1000A00056C0000054C0000052C0000050C0000004
:1000B0004EC000004CC000004AC0000048C0000014
:1000C00046C0000044C000000C94372F0C94363713
:1000D0000C946C373CC000000C94C2370C94F83779
:1000E00036C000007D3609379537213811241FBEF0
:1000F000CFEFD1E2DEBFCDBF00E00CBF13E0A0E048
:10010000B2E0ECE8F6E700E00BBF02C007900D920A
:10011000A031B107D9F72AE0A0E1B3E001C01D92F8
:10012000A533B207E1F710E0C6E7D0E000E006C073
:1001300021970109802FFE010E940E3BC237D10793
:1001400080E00807A9F70E9481300C94443B58CF07
:10015000AB01BC0181E197E00C94AF3AAB01BC016B
:100160008EEA97E00C94AF3AAB01BC018BE498E0C7
:100170000C94AF3AAB01BC0188EE98E00C94AF3A16
:100180008F929F92AF92BF92CF92DF92EF92FF92A7
:100190000F931F93CF93DF93CDB7DEB77B014A0157
:1001A0005901CDB6DEB69B01220F331F4DB75EB7A6
:1001B000421B530B0FB6F8945EBF0FBE4DBF0DB779
:1001C0001EB70F5F1F4FE82FF0E0EE0FFF1FE05F3D
:1001D000FD4F0190F081E02DC8011995F801D4017F
:1001E000E00EF11EEE15FF0519F081918D93FACF07
:1001F00081E0F50180830FB6F894DEBE0FBECDBE60
:10020000DF91CF911F910F91FF90EF90DF90CF90F2
:10021000BF90AF909F908F9008952F923F924F92F2
:100220005F926F927F928F929F92AF92BF92CF9286
:10023000DF92EF92FF920F931F93CF93DF9300D043
:1002400000D000D01F92CDB7DEB7682E7A876987BD
:10025000742EB52E3C832B8348012A2C312C4E2C36
:10026000512C81E090E0012B11F490E080E0849D1E
:100270009001859D300D949D300D112449855A853E
:10028000420F531F5A834983062D10E0000F111FA0
:10029000F801E050FE4F0190F081E02D199541E00A
:1002A00050E0C114D10411F450E040E0429D9001AF
:1002B000439D300D529D300D1124A981BA812A0F22
:1002C0003B1F821793075CF5E72DFB2D29853A85A7
:1002D0002E0F3F1F3A83298349815A81E417F5077E
:1002E00011F01192F9CFAB81BC811C922A960FB606
:1002F000F894DEBF0FBECDBFDF91CF911F910F915C
:10030000FF90EF90DF90CF90BF90AF909F908F9035
:100310007F906F905F904F903F902F900895C11401
:10032000D10409F441C0F12CE12CF801E050FE4F5A
:10033000FE83ED839801285F3D4F38872F83AD8181
:10034000BE81ED91FC91E214F30474F51995892BAB
:1003500081F4E72DFB2D29853A852E0F3F1F3A8327
:10036000298349815A81E417F50709F4BCCF11921A
:10037000F8CFAF81B885ED91FC911995F601EE0D9E
:10038000FF1D9081981761F021E030E0F601908127
:10039000981302C030E020E0EE24FF24E21AF30AB2
:1003A000FFEFEF1AFF0ACBCF980120503E4F6901B3
:1003B000D901ED91FC911995E981FA818E179F077A
:1003C00084F4E72DFB2D29853A852E0F3F1F3A83B4
:1003D000298349815A81E417F50709F484CF1192E2
:1003E000F8CF2B813C81472D5B2D69857A85862D41
:1003F000C7DE8114910409F479CF7401085F1D4FA1
:10040000C70188199909841595050CF06FCFD6019D
:10041000ED91FC911995892B81F4E72DFB2D298510
:100420003A852E0F3F1F3A83298349815A81E41769
:10043000F50709F458CF1192F8CFD801ED91FC914E
:100440001995F70191917F019817D1F2E72DFB2DB6
:1004500029853A852E0F3F1F3A83298349815A8186
:10046000E417F50709F43FCF1192F8CF81E197E047
:100470000C940E358EEA97E00C940E358BE498E0E0
:100480000C940E3588EE98E00C940E3581E197E0DF
:100490000C94F4348EEA97E00C94F4348BE498E0F6
:1004A0000C94F43488EE98E00C94F434882311F121
:1004B000823071F08330A9F08130E1F426E030E041
:1004C00040E052EC61E070E081E090E00C94E22EBC
:1004D00026E030E040E052EC61E070E082E090E045
:1004E000F5CF26E030E040E052EC61E070E083E0E0
:1004F00090E0ECCF08952F923F924F925F926F92CF
:100500007F928F929F92AF92BF92CF92DF92EF92A3
:10051000FF920F931F93CF93DF931F92CDB7DEB758
:100520002B013A01D02EE9829C2DCA2CF401EF88D0
:10053000F88C998C6A8D7B8D4C8D843008F0EBC1E2
:10054000823051F0833009F456C0813049F43EEADC
:10055000232E37E0332E04C0ABE42A2EA8E03A2E37
:1005600030E02830310511F424E030E0269D5001C0
:10057000279DB00C369DB00C11240AE010E09923A1
:1005800051F000E110E0913031F008E010E09230DD
:1005900011F002E010E08111E1C0D11031C061150D
:1005A000710529F050E081E197E00E944E38A501E5
:1005B000B20181E197E00E944E38E114F10409F4A0
:1005C000AAC1492D50E0B70181E197E00F90DF917A
:1005D000CF911F910F91FF90EF90DF90CF90BF9040
:1005E000AF909F908F907F906F905F904F903F90D3
:1005F0002F900C944E3858EE252E58E0352EB0CF63
:10060000BF0181E197E00E948A388981873008F034
:1006100082C1E82FF0E08827EF5EFC4F8F4F0C94EB
:100620000E3B3003430357036D0383039703180303
:10063000AC2CB12CE1E06E1A710808F46CC1D20147
:100640004D915D916D917D912D01B1E0950181E11B
:1006500097E0DB1280C00E94723AECCF0E946239B0
:100660006A94AFEF6A1609F456C1F20161912F0145
:10067000F1E0A80181E197E0DF12F0CF0E945C3940
:10068000EFCF0E9477396A948FEF681609F443C15F
:10069000D2016D917D912D01B1E0A80181E197E03A
:1006A000DB12EFCF0E947239EECF0E9487396A9435
:1006B000EFEF6E1609F42FC1D2014D915D916D914E
:1006C0007D912D01B1E0980181E197E0DB12EDCF42
:1006D0000E945039ECCF0E9430396A94EFEF6E16C9
:1006E00009F419C1D2016D912D01062E000C770B72
:1006F000B1E0A80181E197E0DB12EDCF0E942A3939
:10070000ECCF0E9430396A94EFEF6E1609F403C102
:10071000D2016D917D912D01B1E0A80181E197E0B9
:10072000DB12EFCF0E942A39EECF0E9440396A9443
:10073000EFEF6E1609F4EFC0D2014D915D916D910E
:100740007D912D01B1E0980181E197E0DB12EDCFC1
:100750000E94E538ECCF0E94733A6CCFD11038C0BC
:100760006115710549F050E0D101ED91FC910280D5
:10077000F381E02DC1011995D101ED91FC91028029
:10078000F381E02DA501B201C1011995E114F10435
:1007900009F4C1C0492D50E0D101ED91FC910280D6
:1007A000F381E02DB701C1010F90DF91CF911F912F
:1007B0000F91FF90EF90DF90CF90BF90AF909F9000
:1007C0008F907F906F905F904F903F902F901994F3
:1007D000BF01C1010E948A38B981B73008F09BC0BF
:1007E000EB2FF0E08827E850FC4F8F4F0C940E3B26
:1007F000160428043B04500464047604FF03AC2C64
:10080000B12CE1E06E1A710808F485C0D2014D9157
:100810005D916D917D912D01B1E09501C101DB12DA
:1008200077C00E94723AEDCF0E9462396A94EFEF6E
:100830006E1609F470C0D2016D912D01B1E0A801CE
:10084000C101DB12F1CF0E945C39F0CF0E947739F1
:100850006A94EFEF6E1609F45EC0D2016D917D913E
:100860002D01B1E0A801C101DB12F0CF0E94723965
:10087000EFCF0E9487396A94EFEF6E1609F44BC0F0
:10088000D2014D915D916D917D912D01B1E0980165
:10089000C101DB12EECF0E945039EDCF0E943039FA
:1008A0006A94EFEF6E16B9F1D2016D912D01062E0B
:1008B000000C770BB1E0A801C101DB12EFCF0E9461
:1008C0002A39EECF0E9430396A94EFEF6E1619F193
:1008D000D2016D917D912D01B1E0A801C101DB1222
:1008E000F1CF0E942A39F0CF0E9440396A94EFEF8D
:1008F0006E1689F0D2014D915D916D917D912D0122
:10090000B1E09801C101DB12EFCF0E94E538EECFD4
:100910000E94733A76CF0F90DF91CF911F910F9184
:10092000FF90EF90DF90CF90BF90AF909F908F900F
:100930007F906F905F904F903F902F90089590E040
:1009400080E008950F931F93009709F48AC0611502
:10095000710509F486C00091390210913A02209184
:100960003B0230913C020E3F1F4F2F4F3F4F09F08B
:100970006AC0DB014D915D916D917C91409339028C
:1009800050933A0260933B0270933C0240913902CB
:1009900050913A0260913B0270913C02DC01129648
:1009A000ED91FC9180819181A281B381809360045B
:1009B00090936104A0936204B09363048481958151
:1009C000A681B78180935C0490935D04A0935E043C
:1009D000B0935F0480859185A285B3858093580488
:1009E00090935904A0935A04B0935B048485958531
:1009F000A685B7858093540490935504A09356041C
:100A0000B093570410925004109251041092520463
:100A1000109253040E94DC1281E093E19093110341
:100A20008093100390931303809312030E94CB11C1
:100A3000009731F421E030E03093650420936404A2
:100A40001F910F9108950091390210913A0220915F
:100A50003B0230913C02FB010083118322833383EC
:100A600095CF8FEF9FEFECCF8F929F92AF92BF9277
:100A7000CF92DF92EF92FF921F93CF93DF934B01C0
:100A80005C011091670482E090E09093650480938C
:100A9000640481149104A104B10441F480916704B9
:100AA000811104C080916604C1E08111C0E0C12CB5
:100AB000D12C760180916704811106C08091660473
:100AC000811102C0CC23D9F083E090E090936504BB
:100AD00080936404CC2381F1CCE9DFEF111102C0D3
:100AE0000E946616CE01DF91CF911F91FF90EF908B
:100AF000DF90CF90BF90AF909F908F9008956AE065
:100B000070E080E090E00E945C3480E1C80E87E2F3
:100B1000D81EE11CF11C8FEF88169806A806B806AF
:100B200031F0C1E08C149D04AE04BF0408F0C0E0B5
:100B300080E00E94FF11BECFD0E0C0E0CFCFCF92C7
:100B4000DF92EF92FF920F931F93CF93DF938F3F2C
:100B5000910511F008F051C02091640430916504B2
:100B60002330310539F0209164043091650421303F
:100B7000310531F424E030E03093650420936404BF
:100B80006A017B01EC0182309105A8F011E0AE0111
:100B9000C701B6010E94CA11AB01BC01CE011123ED
:100BA000F9F0DF91CF911F910F91FF90EF90DF90BF
:100BB000CF900C948B188C01000F111F005F1C4FFD
:100BC000D8018D919C91892B09F30E949518029769
:100BD000E9F6D801ED91FC91CE011995182FD7CFE8
:100BE0000E94AD1890E080E0DF91CF911F910F91AE
:100BF000FF90EF90DF90CF9008958FEF9FEFF4CFAD
:100C000080E00C94FF11CF93DF9386E090E0909307
:100C10006504809364040E945812EC01E0E1F3E063
:100C200084E0DF011D928A95E9F70E94FE1510927B
:100C3000650410926404CE01DF91CF9108958091F4
:100C40006604089580914F0408956093390270936B
:100C50003A0280933B0290933C0290E080E008953A
:100C6000CF92DF92EF92FF926B017C010E94C7103E
:100C7000882379F0C090270AD090280AE090290AAA
:100C8000F0902A0AC701B601FF90EF90DF90CF9055
:100C90000895C701B6010E9482108111EBCF20E0B8
:100CA00030E0A901C701B6010E948A31882329F1E9
:100CB00020E030E040E853E4C701B6010E947E32F4
:100CC0006B017C0120E030E0A9010E948A31882379
:100CD000A1F020E030E0A901C701B6010E948A31ED
:100CE00087FFD0CF20E030E040E853E4C701B601F1
:100CF0000E9413316B017C01C5CFC12CD12C760130
:100D0000C1CFFC0191E080911804811190E09283A1
:100D10000895CF92DF92EF92FF926B017C019F7753
:100D200020E030E040E859E50E948A3187FF2BC07F
:100D300020E030E040E05FE3C701B6010E947A3373
:100D400087FD0EC020E030E040E05FE3C701B60160
:100D50000E941331FF90EF90DF90CF900C9464329B
:100D600020E030E040E05FEBC701B6010E947A333B
:100D7000181684F420E030E0A901C701B6010E94F2
:100D80007E336B017C01C701B601FF90EF90DF90CD
:100D9000CF90089520E030E040E05FE3C701B60166
:100DA0000E941231FF90EF90DF90CF900C9477313A
:100DB000E091BF03F091C003A7E8B9E04D915D91C8
:100DC0006D917C911397408351836283738318964E
:100DD0008D919D910D90BC91A02D84839583A683C8
:100DE000B78308952F923F924F925F926F927F92B6
:100DF0008F929F92AF92BF92CF92DF92EF92FF922B
:100E00000F931F93CF93DF93CDB7DEB7E0970FB665
:100E1000F894DEBF0FBECDBF8091220490912304D1
:100E20009E8F8D8F019709F03DC1609106047091EE
:100E3000070480910804909109046F5F7F4F8F4FE2
:100E40009F4F0E94273220910A0430910B04409159
:100E50000C0450910D040E947E3360934003709304
:100E6000410380934203909343038091180490912F
:100E70001704911105C091E0811190E0909319043D
:100E80008F5F8A3008F483C610921804A12CD12CED
:100E9000C12CE12C10E000E024EA39E043EA59E0FB
:100EA00061E070E081E0B9D91092A809DE011196E5
:100EB0007D01CE010B968D01F80111928F018E17E5
:100EC0009F07D1F78091A4098130C9F4D090A3097C
:100ED00090911A0A911145C1FAEADF1210C0D0921E
:100EE0000F0A40E050E060E87FE34093010A50932E
:100EF000020A6093030A7093040A80931A0A80918D
:100F0000A809882309F46FC081E08093190A6B81D6
:100F100070E090E080E00E94273220E030E048EC72
:100F200052E40E948E316B017C016A8170E090E096
:100F300080E00E9427329B01AC01C701B6010E94EC
:100F4000133120E030E040E251E40E947E336093B0
:100F5000F5097093F6098093F7099093F8096D816C
:100F600070E090E080E00E94273220E030E048EC22
:100F700052E40E948E316B017C016C8170E090E044
:100F800080E00E9427329B01AC01C701B6010E949C
:100F9000133120E030E040E251E40E947E33609360
:100FA000F9097093FA098093FB099093FC096E810B
:100FB00070E090E080E00E94273220E030E040E2E4
:100FC00051E40E947E336093FD097093FE09809383
:100FD000FF099093000A8F8180930E0A888587FD10
:100FE0008FE780930D0A8091190A8093A709C0901A
:100FF000F509D090F609E090F709F090F809C09251
:101000009709D0929809E0929909F0929A098091F3
:10101000F9099091FA09A091FB09B091FC0980931C
:101020009B0990939C09A0939D09B0939E094090C1
:10103000FD095090FE096090FF097090000A4092EF
:101040009F095092A0096092A1097092A209809113
:101050000E0A8093A50960910D0A6093A6098091FC
:101060003802680240011124B401092C000C880BDD
:10107000990B0E94293220E030E040E85DE30E94B5
:101080007E33A30192010E941331A70196010E94B1
:10109000123160938709709388098093890990932E
:1010A0008A0917C0AD8DBE8DAB2B99F4E09170030A
:1010B000F09171030190F081E02D80819181A281F6
:1010C000B381E0912504F091260480839183A2836B
:1010D000B383E0912504F0912604FCA7EBA7C08020
:1010E000D180E280F380F091D509FB878091D60909
:1010F0008F879091D709998BA091D809AD8B0091DA
:10110000DD091091DE09A090DF09B090E009A70188
:1011100096016F2F782F892F9A2F0E947A3398018A
:10112000A50187FD5FC0C701B6010E948A3118166C
:101130000CF028C19801A5016B857F8589899D895F
:101140000E948A3187FD56C04090E1095090E20923
:101150006090E3097090E409702F612F9A2D8B2D18
:101160005EC020E030E040E85FE36091010A7091EA
:10117000020A8091030A9091040A0E9413314B01E4
:101180005C018092010A9092020AA092030AB09236
:10119000040A0E94F6316F54764F635A7F4FDB0189
:1011A000DC9220E030E040E251E4C501B4010E944D
:1011B0008A318111A4CEEFE0FAE08191D7018D93BD
:1011C0007D010A171B07C9F781E08093A8091092D7
:1011D000010A1092020A1092030A1092040A109255
:1011E0001A0A8DCE6B857F8589899D890E948A31F7
:1011F00087FF09C09801A501C701B6010E947A3393
:1012000018160CF4A1CF4090D9095090DA096090DB
:10121000DB097090DC097B856F8599898D89272F83
:10122000362F492F582FC701B6010E941231698FFE
:101230007A8F8B8F9C8FA3019201609187097091A7
:1012400088098091890990918A090E941231298D1B
:101250003A8D4B8D5C8D0E948E3120911802309119
:10126000190240911A0250911B020E947E336DA711
:101270007EA78FA798ABED8DFE8D319709F044C006
:1012800020918709309188094091890950918A09F4
:10129000609124027091250280912602909127028C
:1012A0000E947E3360938B0970938C0980938D0923
:1012B00090938E09B401990C880B990B0E942932E6
:1012C00020E030E040E85DE30E947E339B01AC010A
:1012D00060919F097091A0098091A1099091A20944
:1012E0000E94123120919B0930919C0940919D09E7
:1012F00050919E090E94123160938F09709390095A
:101300008093910990939209F091E509F98F80916A
:10131000E6098F8F9091E7099BA3A091E809AFA3FD
:101320009090ED092090EE093090EF098090F0093F
:10133000A70196016F2F782F892F9A2F0E947A3359
:10134000292D322D432D582D87FD20C0C701B60110
:101350000E948A3118160CF0CAC3292D322D432D54
:10136000582D698D7F8D8BA19FA10E948A3187FDA9
:1013700015C04090F1095090F2096090F309709007
:10138000F40922C060E070E0CB0167CF698D7F8DEA
:101390008BA19FA10E948A3187FF0AC0292D322D7F
:1013A000432D582DC701B6010E947A3318160CF34D
:1013B0004090E9095090EA096090EB097090EC09BF
:1013C000998C2F8C3BA08FA0292D322D432D582D89
:1013D000C701B6010E9412316B017C01A301920189
:1013E00060918F0970919009809191099091920973
:1013F0000E941231A70196010E948E31698F7A8F67
:101400008B8F9C8FED8DFE8D3197D1F420918F09BC
:101410003091900940919109509192096091340264
:101420007091350280913602909137020E947E338E
:10143000609393097093940980939509909396090A
:101440002091A9093091AA094091AB095091AC09AA
:1014500060912002709121028091220290912302DA
:101460000E947E3320918B0930918C0940918D0927
:1014700050918E090E9413312DA53EA54FA558A964
:101480000E94133120E030E046E953E40E948E319F
:1014900020E030E04AEF54E40E947E3320E030E068
:1014A0004AEF54E40E94133134DC6B017C0120E0EC
:1014B00030E040E857E40E948A3187FF1DC320E0F6
:1014C00030E0A901C701B6010E947A3387FD18C335
:1014D000C701B6010E94FB317B012091AD0930911B
:1014E000AE094091AF095091B009609130027091FE
:1014F000310280913202909133020E947E3320911A
:1015000093093091940940919509509196090E9450
:1015100013312B013C012091280230912902409186
:101520002A0250912B02698D7A8D8B8D9C8D0E94A1
:101530007E339B01AC01C301B2010E94133120E054
:1015400030E046E953E40E948E3120E030E04AEF7B
:1015500054E40E947E3320E030E04AEF54E40E94DD
:101560001331D7DB2B013C0120E030E040E857E4A9
:101570000E948A316FEF7FEF87FF0FC020E030E0DD
:10158000A901C301B2010E947A3370E060E087FDD7
:1015900004C0C301B2010E94FB318D8D9E8D019765
:1015A000B1F480911904882391F0F092050A109209
:1015B000060AFF24F092080AE092070A7093090ACB
:1015C00010920A0A772770930C0A60930B0A809195
:1015D000220490912304019709F069C0C090230A66
:1015E000D090240AE090250AF090260AABA5BCA56D
:1015F0004D905D906D907C90A70196016B857F85E5
:1016000089899D890E948A3181117DC24092D509C4
:101610005092D6096092D7097092D809E9EDF9E0A5
:101620008091870990918809A0918909B0918A09D0
:1016300080839183A283B3838091E5099091E60929
:10164000A091E709B091E8098B879C87AD87BE8799
:101650009C01AD01C701B6010E948A31ABA5BCA5B2
:101660008D909D90AD90BC9081116BC28092E509E8
:101670009092E609A092E709B092E809E9EEF9E054
:1016800080918F0990919009A0919109B091920950
:1016900080839183A283B38340910E0450910F0401
:1016A000609110047091110481E090E048DA80911B
:1016B000220490912304019709F000C2E091700385
:1016C000F09171030190F081E02D80819181A281E0
:1016D000B381898B9A8BAB8BBC8B809140039091AB
:1016E0004103A0914203B0914303898F9A8FAB8F3E
:1016F000BC8FE0914403F0914503C080D180E2802B
:10170000F380E0917403F091750300811181E09101
:101710003803F091390320803180A281B381BC87E6
:10172000AB8784819581988B8F8796819D8BA781CC
:10173000AD8FE0913603F09137031182108288E07B
:10174000F801D10101900D928A95E1F7E0916E03C5
:10175000F0916F038B859C859183808329DB20E04A
:1017600030E040E05FE3C701B6010E947E332B0109
:101770003C01AB85BC852D913D914D915C910E94C2
:101780007E33F10120813181428153810E941331E6
:10179000D8016D937D938D939C931397EB85FC8576
:1017A0002481358146815781C301B2010E947E3375
:1017B000D10114962D913D914D915C9117970E9406
:1017C0001331F8016483758386839783E0917003F6
:1017D000F0917103A080B180A301920169897A8997
:1017E0008B899C890E941331D5016D937D938D93D4
:1017F0009C931397E0916E03F0916F038F85988906
:1018000091838083EFDAD4DA20E030E0A901C701C8
:10181000B6010E947E334B015C0120E030E040E4E1
:101820005FE3C701B6010E947E332B013C01AF8507
:10183000B8892D913D914D915C910E947E336F8FBF
:1018400078A389A39AA3EB85FC852081318142810D
:101850005381C501B4010E947E339B01AC016F8DA1
:1018600078A189A19AA10E941331D1012D913D91B6
:101870004D915C910E941331F801608371838283E2
:101880009383AB85BC8514962D913D914D915C91D0
:101890001797C501B4010E947E334B015C01EF85AF
:1018A000F8892481358146815781C301B2010E94A4
:1018B0007E339B01AC01C501B4010E941331D101FB
:1018C00014962D913D914D915C9117970E94133183
:1018D000F8016483758386839783E0917003F091A8
:1018E0007103A080B180A301920169897A898B89F3
:1018F0009C890E941331D5016D937D938D939C93A8
:101900001397E0916E03F0916F03BD89B0838D8DC5
:10191000818368DA4DDA29E33EE843E65EE3C701F6
:10192000B6010E947E336F8F78A389A39AA32BEA16
:101930003AEA4AEA5EE3C701B6010E947E336BA32E
:101940007CA38DA39EA329E33EE843EE5EE3C7019B
:10195000B6010E947E336FA378A789A79AA79D89B5
:10196000998BAD8DAA8BF1013896FE8FED8FF10129
:1019700081919191A191B1911F018D8B9E8BAF8B24
:10198000B88FAB85BC856D917D918D919D91BC8704
:10199000AB87EF85F8894190519061907190F88BF9
:1019A000EF87A989BA89CD90DD90ED90FD90BA8B33
:1019B000A98B2F8D38A149A15AA10E947E334B01DA
:1019C0005C012BA13CA14DA15EA1C301B2010E940B
:1019D0007E339B01AC01C501B4010E9413314B0160
:1019E0005C012FA138A549A55AA5C701B6010E94DF
:1019F0007E339B01AC01C501B4010E9413312D89D6
:101A00003E894F89588D0E941331F801619371937B
:101A1000819391938F018D8D9E8D2816390609F043
:101A2000A6CFE0917003F09171030190F081E02D59
:101A3000898D9A8DAB8DBC8D80839183A283B38376
:101A4000E0913603F091370381E090E09183808349
:101A50008091060490910704A0910804B0910904B4
:101A60000196A11DB11D8093060490930704A093D5
:101A70000804B09309048091400390914103A09120
:101A80004203B0914303E0912504F0912604808342
:101A90009183A283B38380910E0490910F04A0914F
:101AA0001004B09111040196A11DB11D80930E0484
:101AB00090930F04A0931004B0931104E0960FB616
:101AC000F894DEBF0FBECDBFDF91CF911F910F9174
:101AD000FF90EF90DF90CF90BF90AF909F908F904E
:101AE0007F906F905F904F903F902F900895198E48
:101AF0001A8E1B8E1C8E86CCEE24EA94FE2CEDCC26
:101B0000F12CE12CEACC9801A501C701B6010E9495
:101B10008A3181110BC04092DD095092DE0960923A
:101B2000DF097092E009E1EEF9E07ACD9801A501B4
:101B30006B857F8589899D890E948A3187FFEBCFDC
:101B400065CD4090ED095090EE096090EF097090DE
:101B5000F009A3019201C701B6010E948A318111E7
:101B60000BC08092ED099092EE09A092EF09B0921D
:101B7000F009E1EFF9E084CDA30192016B857C854A
:101B80008D859E850E948A3187FFEBCF6FCD809334
:101B900018047CC98F929F92AF92CF92DF92EF92FE
:101BA000FF920F93CF93DF9300D000D01F92CDB759
:101BB000DEB785E58E838AEA8F83E091050AF0918E
:101BC000060A8E2FEF3FF10511F008F08FEF8983A1
:101BD0006091070A7091080A862F6F3F710511F016
:101BE00008F08FEF8A834091090A50910A0A842FE6
:101BF0004F3F510511F008F08FEF8B8320910B0AB6
:101C000030910C0A822F2F3F310511F008F08FEF31
:101C10008C8390E080E06E0F7F1F811D911D640F0B
:101C2000751F811D911D620F731F811D911D0E94E3
:101C3000293216D89B01AC0160E070E080E893E4A3
:101C40000E9412310DD865D86B017C0120E030E094
:101C500040E857E40E948A3187FF12C020E030E05C
:101C6000A901C701B6010E947A3360E087FD0AC06E
:101C7000C701B6010E94FB316F3F710519F010F0EA
:101C80006FEF70E06D836091C7097091C809809112
:101C9000C9099091CA090E94FB31C62E6091BF0903
:101CA0007091C0098091C1099091C2090E94FB31D5
:101CB000E62E6091C3097091C4098091C509909185
:101CC000C6090E94FB31062F6091BB097091BC09C7
:101CD0008091BD099091BE090E94FB31F62E609162
:101CE000B7097091B8098091B9099091BA090E9419
:101CF000FB31862F91E09F939E01295F3F4F3F93D9
:101D00002F939F93215031093F932F93912C812C36
:101D100092E0A92E2F2D45E050E0BE016F5F7F4F6E
:101D20000E947B028091120490911304A0911404EC
:101D3000B09115040196A11DB11D809312049093DA
:101D40001304A0931404B09315040F900F900F90F8
:101D50000F900F900F9027960FB6F894DEBF0FBE2E
:101D6000CDBFDF91CF910F91FF90EF90DF90CF909B
:101D7000AF909F908F900895CF92DF92EF92FF9255
:101D80000F931F93CF93DF9384E090E084D1E0E33F
:101D9000F3E082E294E097838683C5E2D4E0D093B7
:101DA0007103C09370030AE014E0158B048B2FEBD2
:101DB00033E037AF26AF69EB73E070937503609340
:101DC00074032EEF33E0309373032093720320E00B
:101DD00034E030937703209376032BEB33E030939A
:101DE0007903209378032DEB33E030937B0320932A
:101DF0007A0341EC53E05093B7034093B603F0935A
:101E00009B03E0939A03F583E48321E030E0DC0157
:101E10002D933C931092B1031092B80386EE93E099
:101E200026EC33E0DC012D933C932EEC33E0309331
:101E3000E9032093E80326ED33E03093EB0320938E
:101E4000EA032EED33E03093ED032093EC0329EA0F
:101E500039E0DB012D933C9365E879E0DA016D937D
:101E60007C9310921A0410921B0410921C0410927E
:101E70001D049187808782E692E09387828787E2BC
:101E800094E09983888340E050E066E973E44093EE
:101E90001E0450931F0460932004709321044AE0B1
:101EA00057ED63E27CE3D8014D935D936D937C9392
:101EB0001397CEEED3E084E792E5A5EEBDEA8883E2
:101EC0009983AA83BB8380EC99E2ADEEB7E580935A
:101ED000F2039093F303A093F403B093F50385E129
:101EE00099EDA3EBBDE28093F6039093F703A093E3
:101EF000F803B093F90381E297EDA9E7B9E780937E
:101F0000FA039093FB03A093FC03B093FD03A4E2B8
:101F1000B3E0B383A283E4E1F3E01196FC93EE9384
:101F200087E692E091838083938382839583848381
:101F30009783868391878087938782879587848715
:101F40009787868784E094E015969C938E931497E8
:101F50001396DC93CE93129740E355E760E070E070
:101F600018964D935D936D937C931B978091230AF4
:101F70009091240AA091250AB091260AC1EBD9E0DC
:101F80008CA39DA3AEA3BFA38CA79DA7AEA7BFA7FD
:101F900008E112E0F8014481558166817781F901F9
:101FA00040835183628373838CAB9DABAEABBFAB7D
:101FB0008CAF9DAFAEAFBFAFF80184899589A6897C
:101FC000B789F90184839583A683B7831882C12CCE
:101FD000D12C7601C394C982DA82EB82FC8280E044
:101FE00090E0A0E8BFE38E839F83A887B9878A87A4
:101FF0009B87AC87BD871E861F86188A198A1A8A16
:102000001B8A1C8A1D8A1E8A1F8A188E198E81E0DF
:102010000E94560211E01D831C8ECD8EDE8EEF8E47
:10202000F8A281E00E94560219A3DF91CF911F917F
:102030000F91FF90EF90DF90CF9008958091CD09A0
:10204000811103C081E08093CD098091B109811194
:1020500003C081E08093B109089560E070E080E8FA
:102060009FE7089560E070E080E89FE7089560E0F2
:1020700070E080E89FEF089560E070E080E89FEFF7
:10208000089560E070E080EC9FEF089560E070E0FC
:1020900080EC9FEF0895F5DF6093270A7093280A7C
:1020A0008093290A90932A0AF1DF60931B0A7093A8
:1020B0001C0A80931D0A90931E0ACFDF6093230AA7
:1020C0007093240A8093250A9093260ACBDF6093AD
:1020D0001F0A7093200A8093210A9093220AC7DF77
:1020E00060932B0A70932C0A80932D0A90932E0AEA
:1020F000C3DF60932F0A7093300A8093310A909364
:10210000320A0895CF92DF92EF92FF92CF936B0144
:102110007C01AC019B016091230A7091240A80919B
:10212000250A9091260A0E948A31C1E0882371F025
:10213000A701960160912B0A70912C0A80912D0ABB
:1021400090912E0A0E948A318111C0E08C2FCF918C
:10215000FF90EF90DF90CF9008950F931F938B0126
:102160009C010027112720783F7701151105204891
:102170003F4749F4AB01BC016F77772781E0452BDE
:10218000462B472B09F480E01F910F910895E5CF6E
:102190004F925F926F927F928F929F92AF92BF9277
:1021A000CF92DF92EF92FF920F931F93F89440909B
:1021B0003F04509040046090410470904204C090ED
:1021C0003304D0903404E0903504F090360441306C
:1021D000510509F0A4C09B01AC0124193509460939
:1021E000570929013A0100913B0410913C042091C8
:1021F0003D0430913E0448015901840C951CA61CF5
:10220000B71C80169106A206B306A0F4009137040D
:10221000109138042091390430913A040F5F1F4F18
:102220002F4F3F4F00933704109338042093390405
:1022300030933A0480923B0490923C04A0923D0477
:10224000B0923E0400913704109138042091390473
:1022500030913A048092430490924404A092450441
:10226000B092460400934704109348042093490415
:1022700030934A0460933F04709340048093410478
:1022800090934204A0E1B7E2A30192010E94163BA1
:102290006C0D7D1D8E1D9F1D60933304709334045F
:1022A00080933504909336040091390210913A02DC
:1022B00020913B0230913C020F3F1F4F2F4F3F4F69
:1022C000F1F00091390210913A0220913B023091D5
:1022D0003C020E3F1F4F2F4F3F4F89F0C0903902F5
:1022E000D0903A02E0903B02F0903C0221E08C1446
:1022F0009D04AE04BF0408F420E020934F047894BA
:102300001F910F91FF90EF90DF90CF90BF90AF9013
:102310009F908F907F906F905F904F9008954B01AA
:102320005C0184189508A608B708A3019201261B32
:10233000370B480B590B6415750586059705D0F0CA
:1023400082169306A406B50640F420E030E0A90109
:1023500081149104A104B10491F4A0E1B7E20E94B8
:10236000163BA7019601261B370B480B590BCA01D8
:10237000B901C5CF82169306A406B50670F7A0E191
:10238000B7E2A50194010E94163B6C0D7D1D8E1DC8
:102390009F1DB5CFFDCECF93DF9300D01F92CDB759
:1023A000DEB71C821B821A82198210924B04109293
:1023B0004C0410924D0410924E04BE016F5F7F4F8B
:1023C000CE0103960E94CC2E69817A818B819C81FB
:1023D0000E94BA27009761F4BE016F5F7F4FCE0164
:1023E00003960E94D82E69817A818B819C812BD59E
:1023F0000F900F900F900F90DF91CF910895FF9263
:102400000F931F93CF93DF93082F60E070E0CB0111
:102410000E945C34FF24F3940E94A326EC01892BD4
:1024200089F010E0CE3F8FEFD80769F0002361F10B
:1024300060E070E0CB010E945C3481E090E0892B89
:1024400059F322C011E022D5EC01892B21F0CE3FB7
:102450008FEFD80759F711111EC011E0229609F429
:1024600010E00E945326EC01892B21F0CE3F8FEF24
:10247000D807E1F6111111C011E0CE3F8FEFD80758
:1024800009F410E001110BC0CE01DF91CF911F9133
:102490000F91FF90089511E0E4CF11E0F3CF60E0D9
:1024A00070E0CB010E945C341F25812F90E0C7CFE4
:1024B000CF93DF9380914F04882321F060E070E098
:1024C000CB0149D632D6D0E0C0E0892B71F06AE06A
:1024D00070E080E090E00E945C3481E090DF25D6DF
:1024E0002196C03D27E0D20781F724D60E940E280E
:1024F00010926704109266041092600410926104B6
:10250000109262041092630410925C0410925D04B5
:1025100010925E0410925F041092580410925904B5
:1025200010925A0410925B041092540410925504B5
:1025300010925604109257041092500410925104B5
:1025400010925204109253044EEF5FEF6FEF7FEF43
:102550004093390250933A0260933B0270933C02DD
:1025600010924F04E3E4F4E028E0DF011D922A9585
:10257000E9F710923F041092400410924104109227
:10258000420410923B0410923C0410923D041092BD
:102590003E041092370410923804109239041092BD
:1025A0003A041092330410923404109235041092BD
:1025B0003604DF91CF910895109273041092740441
:1025C00010927504109276041092720480917B042C
:1025D00090917C04909371048093700410926F0426
:1025E00010926E0410926A0410926B0410926C04A4
:1025F00010926D04109278041092770490E080E0BD
:102600000895CF92DF92EF92FF920F931F93CF9393
:102610008C01019709F055C020917B0430917C0416
:10262000809170049091710440917B0450917C04DE
:1026300050937104409370042817390781F0109269
:102640006F0410926E0410926A0410926B04109240
:102650006C0410926D0410927804109277048091AB
:102660007B0490917C04019761F5809177049091AF
:102670007804892B21F480913D02811112C0809150
:102680007704909178040197E1F480916A04909125
:102690006B04A0916C04B0916D040197A105B10584
:1026A00081F410926A0410926B0410926C041092E0
:1026B0006D0410923D0282E090E090937804809344
:1026C000770480917B0490917C04019709F01CC1F0
:1026D00080919104909192048017910709F014C1A0
:1026E00080918D0490918E04A0918F04B0919004FC
:1026F000009709F409C120918C0421110DC040916B
:102700008D0450918E0460918F0470919004452B3C
:10271000462B472B09F4F8C02091770430917804B8
:102720002230310509F0F0C020916E042111ECC077
:10273000FC01C080D180E280F38080917204882304
:1027400009F4D3C080917E0490917F04892B09F411
:10275000FEC020917E0430917F0481E0223031055B
:1027600009F080E020917E0430917F04C1E02130A7
:10277000310549F020917E0430917F04C1E0223080
:10278000310509F0C0E0882309F456C0209188047F
:102790003091890440918A0450918B04C701B6019D
:1027A0000E947A3387FD14C02091880430918904F7
:1027B00040918A0450918B04609173047091740469
:1027C00080917504909176040E948A3187FD22C021
:1027D000209188043091890440918A0450918B049F
:1027E000C701B6010E947A33181634F52091880487
:1027F0003091890440918A0450918B046091730454
:102800007091740480917504909176040E948A31CD
:10281000811112C08091800490918104A091820462
:10282000B0918304892B8A2B8B2B19F481E0809340
:102830006F0481E080936E04CC2309F456C020918C
:1028400088043091890440918A0450918B04C70117
:10285000B6010E948A3187FF14C02091880430910C
:10286000890440918A0450918B04609173047091A3
:10287000740480917504909176040E947A3387FFE6
:1028800022C0209188043091890440918A0450919B
:102890008B04C701B6010E948A31811126C02091A4
:1028A00088043091890440918A0450918B0460918E
:1028B00073047091740480917504909176040E9461
:1028C0007A33181694F48091800490918104A09139
:1028D0008204B0918304892B8A2B8B2B19F481E01D
:1028E00080936F0481E080936E0481E090916E0488
:1028F000911180E080937204C0927304D0927404AA
:10290000E0927504F09276040130110509F067C178
:102910008091770490917804892BD9F410927D04EA
:1029200010926E0480913D02882379F082E090E05D
:10293000909378048093770410923D0220917B0459
:1029400030917C0481E0232BE9F080E01BC081E022
:1029500009CF10923D0280917D04882349F01092A6
:102960006F04109278041092770410927D04EDCFDA
:1029700080917B0490917C04892BE1F080916E041E
:1029800010926E0420917704309178042230310542
:1029900009F45EC088F42115310509F448C02130DE
:1029A000310509F4F3C010926F0410926E04109276
:1029B0007D0438C081E0E6CF2330310509F4B1C091
:1029C0002430310581F740916A0450916B04609185
:1029D0006C0470916D04411551056105710561F03C
:1029E000415051096109710940936A0450936B0485
:1029F00060936C0470936D0440916A0450916B0471
:102A000060916C0470916D04452B462B472BD9F4D3
:102A10002091790430917A042130310509F046C0C3
:102A200010926F0410927804109277040CC0809179
:102A30003D02882341F082E090E0909378048093F7
:102A4000770410923D021092680480916F04CEC00A
:102A50008823C9F38091800490918104A09182041D
:102A6000B0918304181619061A061B060CF07DC0D7
:102A700080917B0490917C04019709F076C080914D
:102A8000800490918104A0918204B091830480938A
:102A90006A0490936B04A0936C04B0936D0483E07C
:102AA00090E09093780480937704CDCF4091840494
:102AB000509185046091860470918704452B462BC4
:102AC000472BA9F010926F048091840490918504A3
:102AD000A0918604B091870480936A0490936B045C
:102AE000A0936C04B0936D0481E090E0DACF88236A
:102AF00099F080913E0290913F02A0914002B091E6
:102B0000410280936A0490936B04A0936C04B09389
:102B10006D0484E090E0C5CF10926F0482E090E0F5
:102B2000C0CF80916A0490916B04A0916C04B09125
:102B30006D040097A105B10559F00197A109B109EC
:102B400080936A0490936B04A0936C04B0936D041B
:102B500080916A0490916B04A0916C04B0916D0413
:102B6000892B8A2B8B2B09F06ECF80913E0290919E
:102B70003F02A0914002B0914102892B8A2B8B2BFE
:102B800009F44ECF81E080936F04B3CF40916A0483
:102B900050916B0460916C0470916D044115510566
:102BA0006105710561F04150510961097109409356
:102BB0006A0450936B0460936C0470936D044091AD
:102BC0006A0450916B0460916C0470916D04452B04
:102BD000462B472B09F037CF8111C7CF9FCF80916C
:102BE0006804882309F431CF80916904CF911F9143
:102BF0000F91FF90EF90DF90CF90089510927304A3
:102C0000109274041092750410927604109272045B
:102C1000109278041092770410927104109270044C
:102C2000109292041092910410926F0410926E040C
:102C300010926A0410926B0410926C0410926D044E
:102C4000109269041092680410928D0410928E0400
:102C500010928F041092900410928C0410928804A9
:102C60001092890410928A0410928B0488EE93E0EB
:102C7000A0E0B0E080933E0290933F02A093400218
:102C8000B09341021092840410928504109286043D
:102C90001092870410928004109281041092820492
:102CA0001092830410927F0410927E0481E080933E
:102CB0003D0210927D0410927C0410927B041092CD
:102CC0007A041092790490E080E0089580917B046A
:102CD00090917C04892BE1F480913D02882351F08E
:102CE00080917D04811106C081E080936904809306
:102CF0006804089580917D04882341F080913D020D
:102D0000811104C01092690481E0F1CF109268042F
:102D1000089582E090E0FA01918380838FEF9FEF26
:102D20000895CF93DF93EA01009711F00E942E29B6
:102D30001982188290E080E0DF91CF910895DB0145
:102D4000009719F48FEF8C9308952EEF2C93FC01CC
:102D50007096E031F10508F037C08827ED54F94E40
:102D60008F4F0C940E3BE216E016DE16DC16DA16D8
:102D7000D816D416D616D216D016CE16CB16C7161F
:102D8000C316C916E41680E311968C93089589E260
:102D9000FBCF82E2F9CF11961C92089583E2F4CF23
:102DA00081E2F2CF81E1F0CF87E2EECF8AE2ECCF91
:102DB00080E1EACF84E2E8CF88E2E6CF86E2E4CFA2
:102DC00081E3E2CF83E3E0CF80E2DECF80919F0416
:102DD0009091A00408959093A00480939F04089577
:102DE00080919E04089590919E04892B80939E0467
:102DF0000895982F909580919E04892380939E0436
:102E0000089580919D04089580919B0490919C0465
:102E100008956115710559F0FB0130E020E070E084
:102E200060E02417350719F06115710511F0CB0129
:102E30000895A081B181A817B90709F4BF012F5FD8
:102E40003F4F3696EECF8091A10481111CC060D215
:102E500066D290939404809393040E942C210E9444
:102E60003E2190939804809397040E94BB250E9472
:102E7000C225909396048093950481E08093A104E9
:102E800090E080E0089584EF9FEF08958F929F92E5
:102E9000AF92BF92CF92DF92EF92FF920F931F9368
:102EA000CF93DF9300D000D000D01F92CDB7DEB714
:102EB0001A86198618861F821E821D821C821B821A
:102EC0001A8219828091A10407EF1FEF882309F469
:102ED0009CC08E010D5F1F4F9E012B5F3F4FAE01C7
:102EE000495F5F4FBE01675F7F4F90E080E00E94C7
:102EF0003F278C01009721F00596029708F0DBC070
:102F000029853A852115310509F402C1ED80FE803D
:102F10004B815C81B701640F751F8F81988586177F
:102F2000970708F4F5C0E20EF31ED7019C91903C80
:102F300009F07FC04230510508F47BC011968C9196
:102F400040919F045091A004452B09F49CC0913FEF
:102F500008F071C02CE1290F2D3008F48BC02DE250
:102F6000290F203108F489C0903C21F4815082302F
:102F700008F483C088E3890F8B3008F481C09FE98F
:102F8000C92E96E1D92EE9E8F6E16D817E81AE0188
:102F90004F5F5F4F89859A8519955C01C114D104F3
:102FA000A1F189809A808114910479F18B819C81AF
:102FB0008815990508F487C010E000E04B815C811A
:102FC00070E060E0C7010E943D3B01151105E9F486
:102FD00049815A8169857A858D819E81680F791F23
:102FE000C501F6011995E980FA800D811E812F81B6
:102FF000388549855A856FEF7FEF81E090E00E9428
:10300000DA268C01892B09F056C0C8012A960FB622
:10301000F894DEBF0FBECDBFDF91CF911F910F910E
:10302000FF90EF90DF90CF90BF90AF909F908F90E8
:10303000089580E085CF30E020E0220F331FF901B2
:10304000ED56FB4F0190F081E02D309709F497CFBA
:10305000892F90E01995009709F491CFDC01129621
:10306000ED91FC9113971496CD90DC90309709F078
:103070008CCF1FC021E030E0E0CF22E030E0DDCF98
:1030800023E030E0DACFD12CC12CE1E9F6E19F3F1B
:1030900009F07BCFE0919304F0919404309721F4F0
:1030A000C90104EF1FEF0CC08FEF90E01995009756
:1030B000A9F604EF1FEF89859A85009709F4A5CF3B
:1030C0000E942E29A2CF0E9409288C0189859A8509
:1030D0000E942E2970E060E0C4010E94A227988718
:1030E0008F830E94D7269E838D836F81788561159B
:1030F000710559F0C8010E94BA2A9A87898706EF9C
:103100001FEF892B09F058CF59CF08EF1FEF56CF8B
:1031100008EF1FEFD0CF2091A104222319F020E067
:103120000C94432187EF9FEF089580919F04909125
:10313000A00408950E94C7250E942125F5D0E3E947
:10314000F4E088E0DF011D928A95E9F71092A1046E
:1031500090E080E008950C947F2321E040E050E06F
:10316000BA010C94432186E090E0FA0191838083B8
:1031700090E080E0089547E050E06AE672E049CED2
:10318000DF92EF92FF920F931F93CF93DF938A0109
:10319000EC01C60FD71FE090A504F090A604D980DB
:1031A0000E94F127D816190678F082E090E0F80125
:1031B000918380838EEF9FEFDF91CF911F910F91CD
:1031C000FF90EF90DF900895EF2841F482E090E0C7
:1031D000F8019183808384EF9FEFEECF8981809304
:1031E000A40490E00196F8019183808390E080E050
:1031F000E3CFCF93DF93EA010E943024882321F0AC
:103200000E94FE270E94312482E090E09983888307
:103210008BEF9FEFDF91CF910895CF93DF93EB0179
:1032200086E0FB0111928A95E9F78FEF8883D8DD5C
:103230008983E7DD8A83E8DD9D838C83DF91CF91ED
:103240000895CF93DF93EA010E943324811109C0CE
:1032500082E090E09983888385EF9FEFDF91CF91A3
:10326000089590E080E0B7DD81E090E09983888365
:1032700090E080E0F3CF0F931F93CF93DF93EA01A9
:103280008C01060F171F0E94332481110BC082E0AE
:1032900090E09983888385EF9FEFDF91CF911F9115
:1032A0000F910895F8018181823038F082E090E03A
:1032B000998388838EEF9FEFF0CF81E090E08BDDE4
:1032C00088E090E09983888390E080E0E6CFCF9318
:1032D000DF930097D1F4EB01FB01329686E0DF012A
:1032E0001D928A95E9F78FEF888385E089831A829A
:1032F0000E94F1278B830E94F0279D838C8381E0BD
:103300008E838F83DF91CF910895DF91CF9117CD79
:103310008BEB98E19093A3048093A204089580918D
:10332000A2049091A30408951092A3041092A20401
:1033300008958091A5049091A6040895411105C0B7
:10334000611571058105910561F06093A504709385
:10335000A6048093A7049093A8044093A90481E055
:10336000089580E00895FF920F931F93CF93DF930A
:103370008A01EC01C60FD71FF9800E94F127F816C9
:10338000190668F082E090E0F801918380838EEF67
:103390009FEFDF91CF911F910F91FF9008956C8166
:1033A0007D818E819F814B81C9DF811108C082E0C0
:1033B00090E0F8019183808384EF9FEFEACF8981C9
:1033C0008093A40490E00196F8019183808390E0BB
:1033D00080E0DFCFCF93DF93EA01FC01E60FF71F18
:1033E00064817581868197814381A8DF811109C03D
:1033F00082E090E09983888384EF9FEFDF91CF9103
:10340000089581E090E09983888390E080E0F6CF92
:10341000E5EAF4E04081518162817381480F511DDA
:10342000611D711D40835183628373830895CF931F
:10343000C091A4044C2F50E06091A5047091A604A3
:1034400001960E94343B8C2FE3DF1092A404CF91AD
:103450000895009799F48091A5049091A6042FEF08
:10346000FB012083892B59F02091A40430E02F5FC9
:103470003F4F2417350719F4CB01D9CF60CC0895FD
:10348000009799F48091A5049091A6042FEFFB0179
:103490002083892B59F02091A40430E02F5F3F4F07
:1034A0002417350719F4CB01C2CF49CC089523E185
:1034B000AC01249FC001259F900D1124E091AE0422
:1034C000F091AF04E80FF91F2381348122503109B4
:1034D00081E02230310508F080E008950F931F93BA
:1034E000CF93DF930091B0041091B104D0E0C0E01D
:1034F00080E00C171D0749F491E0811190E0892FBD
:10350000DF91CF911F910F9108958111F5CFCE01D9
:10351000CEDF2196EECFA091AE04B091AF0410970C
:1035200029F12091B0043091B10482179307F0F48F
:1035300053E1589F9001599F300D1124A20FB31FE2
:10354000ED91FC911197309789F012968C91681744
:1035500068F48DE0689FE00DF11D11248081918158
:10356000892B21F081E09281491708F080E00895CD
:103570009C0143E1429FC001439F900D1124E091C3
:10358000AE04F091AF04E80FF91F8385823091F407
:1035900081E090E065817681409142025091430242
:1035A0006417750711F490E080E0892B19F081E031
:1035B000232B09F080E00895FC01A081B1818DE00A
:1035C000689FA00DB11D112413964D915C918585C6
:1035D0009685489F9001499F300D589F300D1124CA
:1035E000C9010196611103C0478144FD0496089505
:1035F000EF92FF920F931F93CF93DF93EA01FC01A9
:10360000E60FF71F02811381E480F5804F2D6E2DA8
:10361000C80181DF81110DC082E090E09983888329
:103620008EEF9FEFDF91CF911F910F91FF90EF9061
:103630000895C8013CDF882339F082E090E0998347
:10364000888388EF9FEFEECF1093490200934802E2
:10365000E0924A02F0924B0281E090E099838883E5
:1036600090E080E0DFCFCF92DF92EF92FF920F9356
:103670001F93CF93DF937A01EC01C60FD71FC09041
:103680004802D090490200914A0210914B02412F0A
:10369000602FC60140DF811110C082E090E0F70189
:1036A000918380838AEF9FEFDF91CF911F910F91DC
:1036B000FF90EF90DF90CF900895C601F8DE882349
:1036C00041F082E090E0F7019183808388EF9FEFE3
:1036D000EBCF4C815D816E817F819A8189818F3FA3
:1036E00041F082E090E0F701918380838EEF9FEFBD
:1036F000DBCFE3E1EC9D9001ED9D300D1124E091D5
:10370000AE04F091AF04E20FF31F0190F081E02DC1
:103710002DE0029FE00DF11D11240190F081E02DBC
:1037200027E0129FE00DF11D1124808391838B818E
:10373000828343835483658376831F5F10934B0298
:1037400081E090E0F7019183808390E080E0ACCF4E
:10375000EF92FF920F931F93CF93DF937A018C0127
:10376000060F171FC091AE04D091AF04209781F0CF
:1037700021E030E0F801828193814091B0045091C2
:10378000B1048417950710F030E020E0232B71F48A
:1037900082E090E0F701918380838EEF9FEFDF91CD
:1037A000CF911F910F91FF90EF90089543E1489FB3
:1037B0009001499F300D1124C20FD31F78DE88235A
:1037C00041F082E090E0F7019183808388EF9FEFE2
:1037D000E6CFF8012481358120383105C8F687818C
:1037E0008111D6CF4181842F90E08F7E009741F0E8
:1037F00082E090E0F7019183808386EF9FEFCFCF47
:103800004F833E832D83268128871986223010F42A
:1038100021E0288721E030E0F70131832083BFCF0A
:1038200088E090E0FA019183808390E080E0089541
:10383000FB018FEF808381E181838FEF9FEF938383
:10384000828380E890E095838483168217820895AE
:10385000FB018FEF808391E0918382839383848344
:1038600084E3858381E090E097838683089582E0F6
:1038700090E0FA019183808380EF9FEF0895DF92BB
:10388000EF92FF920F931F93CF93DF93EA01FC0116
:10389000E60FF71F8181813071F082E090E099831B
:1038A00088838FEF9FEFDF91CF911F910F91FF9052
:1038B000EF90DF90089582819381D4802581E68006
:1038C000F7800091AE041091AF040115110539F491
:1038D00082E090E0998388838CEF9FEFE4CF409162
:1038E000B0045091B1048417950738F082E090E05D
:1038F000998388838EEF9FEFD6CF892B39F082E0B2
:1039000090E09983888386EF9FEFCDCF8D2D8D7FBB
:10391000B1F72130A1F781E0D11006C091E0E9169E
:10392000F10431F080E004C0E2E0EE16F104D0F3DF
:10393000882329F390E080E0BADD882339F082E023
:1039400090E09983888388EF9FEFADCFF801D3860D
:1039500081E08487F686E586108A178681E090E00C
:103960009983888390E080E09ECF4DE050E064E949
:1039700072E04FCA8F929F92BF92CF92DF92EF92E6
:10398000FF920F931F93CF93DF93EA01FC01E60FA1
:10399000F71F828193810481B580E091AE04F0919C
:1039A000AF04309791F482E090E0998388838CEFA4
:1039B0009FEFDF91CF911F910F91FF90EF90DF90DC
:1039C000CF90BF909F908F9008952091B004309138
:1039D000B1048217930738F082E090E099838883DE
:1039E0008EEF9FEFE6CF23E1289F6001299FD00C47
:1039F0001124EC0DFD1DE080F180E114F10499F239
:103A00008281081748F78DE0089F80011124E00E9D
:103A1000F11EF70180819181892B29F6BB20E1F20B
:103A2000F7E0BF9E40011124C4010E94F528F70170
:103A300091838083E091AE04F091AF04EC0DFD1D05
:103A40000190F081E02DE00FF11F808191810097BE
:103A500039F482E090E0998388838DEF9FEFA9CFBE
:103A6000A40170E060E00E943D3B8091AE04909123
:103A7000AF04C80ED91EF60180819181080F191F6D
:103A8000F801B28281E090E09983888390E080E041
:103A900090CFAF92BF92CF92DF92FF920F931F937E
:103AA000CF93DF93EA01FC01E60FF71F8281938138
:103AB000F4800091AE041091AF040115110581F45A
:103AC00082E090E0998388838CEF9FEFDF91CF9124
:103AD0001F910F91FF90DF90CF90BF90AF9008950E
:103AE0002091B0043091B1048217930738F082E03E
:103AF00090E0998388838EEF9FEFE8CF2FEF2F0D13
:103B00002C3FA8F723E1289F6001299FD00C1124A6
:103B10000C0D1D1DF80180819181892B89F6FDE036
:103B2000FF9E50011124C5010E94F528F8019183E0
:103B30008083E091AE04F091AF04EC0DFD1D808117
:103B40009181009739F482E090E0998388838DEF2A
:103B50009FEFBCCFA50170E060E00E943D3BE0918B
:103B6000AE04F091AF04EC0DFD1DF28281E090E017
:103B70009983888390E080E0A9CFCF92DF92EF9283
:103B8000FF920F931F93CF93DF93860F971FFC0134
:103B9000028113818091AE049091AF04892B81F052
:103BA00082E090E0FA01918380838CEF9FEFDF91B8
:103BB000CF911F910F91FF90EF90DF90CF900895DC
:103BC000C801B0E0A0E00197A109B1098F3F9F4F64
:103BD000A105B10540F082E090E0FA019183808375
:103BE0008EEF9FEFE4CF7A0183E1809F6001819F98
:103BF000D00C1124C6010E94F528EC01009741F475
:103C000082E090E0F701918380838DEF9FEFCFCF2B
:103C1000A60170E060E00E943D3BD093AF04C093EA
:103C2000AE041093B1040093B00490E080E02FEF55
:103C30003FEF41E061E070E08017910741F481E0DF
:103C400090E0F7019183808390E080E0B0CF3A8BE1
:103C5000298B1B864C877E876D87188A1F86019665
:103C60006396EACFEF92FF921F93CF93DF93EC011D
:103C700010E0F12CE12C6A811617B0F083E0689F08
:103C8000B0011124AE014F5E5F4FC7010E945A2957
:103C9000009721F02FEF3FEF3A8B298BDF91CF91E7
:103CA0001F91FF90EF900895612FCE0185DC61E0B8
:103CB00070E00E94A227E816F90608F47C011F5F55
:103CC000DACFF8942091AC043091AD0481E0211555
:103CD000310509F080E0232B09F0789408952F92A4
:103CE0003F924F925F926F927F928F929F92AF928C
:103CF000BF92CF92DF92EF92FF920F931F93CF93D9
:103D0000DF933C01660E771EF301828193814C01A3
:103D1000B12CA12CC091AE04D091AF04209769F0D2
:103D200021E030E06091B0047091B10486179707EC
:103D300010F030E020E0232BD1F482E090E0FA0193
:103D4000918380838EEF9FEFDF91CF911F910F9131
:103D5000FF90EF90DF90CF90BF90AF909F908F90AB
:103D60007F906F905F904F903F902F90089580923A
:103D70004C0290924D02A0924E02B0924F0263E12B
:103D8000689F9001699F300D1124C20FD31FF3016A
:103D90008181833040F082E090E0FA01918380835A
:103DA00086EF9FEFD1CF2A012B813C81232BF1F4A9
:103DB000288139819F8191FF2EC0232B09F46FC088
:103DC0002091B3049A81422F490F5527551FBA01FC
:103DD00041E050E06138710514F050E040E0452BBF
:103DE00009F45DC02A87920F9093B304815082300A
:103DF00008F481C066DF882309F4D8C0F30181810B
:103E0000813009F48DC008F47BC0823009F4C6C04B
:103E100090E080E0ADC0232B09F441C02091B204B2
:103E20009A81E22FE90FFF27FF1F41E050E0ED3FAD
:103E3000F10514F050E040E0452B89F12A87920FFC
:103E40009093B204D3CFA081B181A20FB31F11967A
:103E50006C91060F111D0196295F3F4F841795073E
:103E600094F38D859E85089F1001099F300C189F43
:103E7000300C1124C114D104D1F48F8184FF17C0F8
:103E80000E94F027F5E02F0E311C21E082159305EA
:103E900008F420E0A701435F5F4F21110EC082E0CC
:103EA00090E0F2019183808387EF9FEF4DCF0E94D6
:103EB000F0272FEF221A320AE8CF88819981E80E85
:103EC000F91EF70114830383FFEFCF1ADF0A7A018B
:103ED0008A818C151D0409F00CF48CCFE881F981DE
:103EE000EE0DFF1D428150E030E020E010E000E0E8
:103EF00090E080E0B3CFF12CE12CD12CC12CE8CFA5
:103F000081E090E09C838B83E9DA882309F480CFF9
:103F100081E090E00E94EB1680E40E94F91678CFD1
:103F200089899A89019661F083E090E09C838B8374
:103F300082E090E00E94EB1680E40E94F31668CFC6
:103F40008D819E8120914202309143028217930716
:103F5000D1F46091460270914702AE014F5E5F4F0F
:103F600080914402909145020E94792A0097E1F2E3
:103F7000789422E030E0F20131832083892B99F09C
:103F80008DEF9FEFE1CE89288A288B2869F6039769
:103F900058F6CE0167DE188A1F86E8CF82E090E0EF
:103FA0009C838B8335CF90E080E0CECE82E090E0A2
:103FB000F2019183808385EF9FEFC6CE8F929F920F
:103FC000AF92BF92CF92DF92EF92FF920F931F9327
:103FD000CF93DF93EA018C01060F171FF80181814F
:103FE000833098F082E090E09983888386EF9FEF9A
:103FF000DF91CF911F910F91FF90EF90DF90CF90C5
:10400000BF90AF909F908F9008958091AE04909153
:10401000AF04892B61F081E090E02091B0043091F1
:10402000B104232B11F490E080E0892B39F482E075
:1040300090E0998388838EEF9FEFDACF42DE88236A
:1040400009F4E0C0F8018181813009F496C0E8F0FC
:10405000823099F42091B0043091B104E091AE0423
:10406000F091AF0490E080E041E050E0281739077C
:1040700009F0BEC033DA811117C0789481E090E076
:104080009983888390E080E0B3CF2091B004309191
:10409000B104E091AE04F091AF0490E080E041E023
:1040A00050E02817390741F481E090E00E94EB16B8
:1040B00080E40E94F916E1CF63817481672B11F0CF
:1040C0005483438301967396ECCFE091AE04F09154
:1040D000AF04E00FF11F2381348122303105D9F480
:1040E000218932892F3F3F4FB1F42581368140919C
:1040F0004202509143022417350761F5AF014F5E2C
:104100005F4F609146027091470280914402909106
:1041100045020E94792AEFEFCE1ADE0AEE0AFE0A65
:104120000D5E1F4F4091B0045091B10470E060E00B
:10413000C416D506E606F70644F5009731F27894E2
:10414000892B09F49BCF82E090E0998388838DEFDF
:104150009FEF4ECFC114D104E104F104E1F6233006
:104160003105C8F6CF017EDDE091AE04F091AF04D9
:10417000E00FF11F108A1786CECF10E000E090E02C
:1041800080E0C12CD12C7601CDCF0097C1F610E094
:1041900000E0812C912C540183E0E82EF12C1AC010
:1041A000E091AE04F091AF04E00FF11F83819481A0
:1041B000029749F4F482E38282E090E00E94EB16D9
:1041C00080E40E94F316FFEF8F1A9F0AAF0ABF0A1E
:1041D0000D5E1F4F8091B0049091B104B0E0A0E05B
:1041E00088169906AA06BB06DCF290E080E0A7CF0D
:1041F000638174816230710511F4548343830196A5
:10420000739634CF82E090E09983888385EF9FEFA7
:10421000EFCE0097B9F48FEFFB01808320914C0221
:1042200030914D0243E1429FC001439F900D112404
:10423000E091AE04F091AF04E80FF91F8285FB0115
:10424000818308950C949F1688E090E0FA01918391
:10425000808390E080E008951092AD041092AC0449
:10426000EEEAF4E086E0DF011D928A95E9F785EB3E
:104270009CE19093AB048093AA0408958091AA04D2
:104280009091AB0408952F923F924F925F926F925C
:104290007F928F929F92AF92BF92CF92DF92EF92D6
:1042A000FF920F931F93CF93DF93CDB7DEB72F9776
:1042B0000FB6F894DEBF0FBECDBFF894E091AC040A
:1042C000F091AD043196F093AD04E093AC04789492
:1042D0004090AE045090AF044114510409F40CC254
:1042E000E091B004F091B104EF2B09F405C22D87E1
:1042F00049875A876B877C8798878F831201B12CF7
:10430000A12C10E000E08091B0049091B104A816B7
:10431000B90618F40115110529F1F8948091AC043F
:104320009091AD0401979093AD048093AC04789480
:10433000C8012F960FB6F894DEBF0FBECDBFDF9138
:10434000CF911F910F91FF90EF90DF90CF90BF9092
:10435000AF909F908F907F906F905F904F903F9025
:104360002F9008957101E418F508D10117968C91EA
:10437000179781FD54C013968D919C9114970397C4
:1043800009F04DC015968D919C91EF81F8858E179F
:104390009F0709F044C0B50190E080E07FD48A8394
:1043A0002091AE043091AF043D832C833D853323AF
:1043B00009F44CC04C815D81452B09F49AC1809170
:1043C000B0049091B104A816B90608F092C1C501D5
:1043D000CFD88823E9F06C817D816E0D7F1D7D83B0
:1043E0006C83DB011F968D919C91892B89F0D12CD8
:1043F000C12CF12CE12CAC81BD8112968C911297CD
:104400008E151F0409F094F450961C921E921F976B
:104410002A81222321F0B50190E080E041D43FEFD2
:10442000A31AB30A43E1240E311C6DCFAC81BD81C8
:10443000ED91FC91EC0DFD1D858196810FD7BFEFAD
:10444000EB1AFB0AEDE0CE0ED11CD5CFEC81FD813D
:10445000309709F44EC18091B0049091B104A81630
:10446000B90608F046C1EE0DFF1DFF87EE87C501B6
:104470007FD88B83882339F1AE85BF851F968D91B8
:104480009C915097019621E01D964D915C91841767
:10449000950709F020E02E831982712C10E000E0CE
:1044A000AE85BF8512968C91781608F45DC0EE85B6
:1044B000FF85878590890196658576850E94D83A23
:1044C000908B8787A5CFB1E0BE83E6CF99249394E4
:1044D0006BC08BD6F6019683858382C0D601ED90A2
:1044E000FC90B7E06B9EE00CF11C1124F701638196
:1044F000748180818F3F61F121E030E002C0220FA2
:10450000331F8A95E2F7C901092E000CAA0BBB0BD9
:10451000FB01408151816281738184239523A6230D
:10452000B72321E0892B8A2B8B2B09F420E0D401BF
:104530002C93D70111968C91F60123853485820F37
:10454000932F911D880E991E1486138663949BC029
:10455000418150E0C4010E94343BEBCF998206EFC9
:104560001FEFC5C01982C3C0F981F111A0CFEDE0E2
:104570007E9E70011124AE85BF85CD90DC90CE0C5F
:10458000DF1C15D49D838C83BB81BB2309F49ECF94
:1045900081E0EE85FF8527853089232B09F080E0B7
:1045A000982E882309F458C0672D8E859F8504D8DE
:1045B000D60118969C938E93179761E070E0C2D451
:1045C000EE85FF85218932892F3F320709F481CF9B
:1045D000BC01C901CFD7D60116969C938E9315972F
:1045E000D60115968D919C911697009709F4B6CF38
:1045F000EC81FD818E0F9F1F1A969C938E931997C5
:10460000AE85BF85ED91FC911197EE0EFF1EF7016F
:1046100021853285148613861A968C91870DD901CF
:104620008D93711016C0EE85FF85878184FF11C0C0
:1046300049855A856B857C85F90141835283638363
:104640007483F701838594850496A80FB91F148697
:104650001386F701B287A187D60115968D919C919B
:104660001697892B09F443C0EE85FF852581368195
:1046700080914202909143022817390779F01996E8
:104680008D909C90612CD60112968C911297681691
:1046900008F424CF1A969C928E921997BE81BB2360
:1046A00009F460CF61E070E0F601878190854AD41B
:1046B000D6011796ED90FC90189715964D915C9148
:1046C000E1E0F0E0BA81BB2311F0F0E0E0E00C8122
:1046D0001D819C01B501882799278E1B9F0B6AD3EA
:1046E0008C01892B21F0F60185819681B7D57394D1
:1046F000D7CE0FEF1FEF8CCE10E000E00ECE2F9242
:104700003F924F925F926F927F928F929F92AF9261
:10471000BF92CF92DF92EF92FF920F931F93CF93AE
:10472000DF938091AE049091AF0410E000E0892BFC
:10473000A9F0C7DA0AEF1FEF882381F02090B004B8
:104740003090B104C091AE04D091AF04D12CC12CF3
:1047500010E000E02C143D04A9F47894C801DF9126
:10476000CF911F910F91FF90EF90DF90CF90BF906E
:10477000AF909F908F907F906F905F904F903F9001
:104780002F900895C6010E94B81A882309F18B81E1
:104790009C810397E9F48F859889892BC9F0B6012C
:1047A00090E080E07BD221E030E0882311F030E01F
:1047B00020E044245524421A530AB12CA12C912CF8
:1047C000812C8A818815190409F038F4188A1F860B
:1047D0004FEFC41AD40A6396BDCFE881F981EA0D80
:1047E000FB1D85819681892BA1F161E070E08781B5
:1047F0009085A8D33C01DBD28C01E881F981EA0DD8
:10480000FB1D8185928525813681200F311FAC01EA
:10481000421B530B9A0147815085421B530B70E09A
:1048200060E00E943D3BE881F981EA0DFB1DE780D5
:10483000F084458156819301B601C201BBD28C013F
:10484000892B39F0E881F981EA0DFB1D858196817C
:1048500005D55FEF851A950A8DE0A80EB11CB1CF82
:1048600030CA789408952F923F924F925F926F9240
:104870007F929F92AF92BF92CF92DF92EF92FF9280
:104880000F931F93CF93DF9300D000D0CDB7DEB747
:104890000091AE041091AF04992493940115110571
:1048A00009F43EC0A090B004B090B1040ADA982E8A
:1048B0008823B1F11092AF041092AE041092B104AB
:1048C0001092B0041092B2041092B3048FEF9FEFD5
:1048D000DC0180934C0290934D02A0934E02B09362
:1048E0004F0278947FD31E830D83C12CD12C760187
:1048F000C501B0E0A0E089839A83AB83BC83222406
:104900002A94322C89819A81AB81BC81C816D90640
:10491000EA06FB06F4F0C801A1D480E40E94F9166F
:10492000892D26960FB6F894DEBF0FBECDBFDF915E
:10493000CF911F910F91FF90EF90DF90CF90BF909C
:10494000AF909F907F906F905F904F903F902F908F
:104950000895AD81BE8115968D919C9116972091F9
:1049600042023091430282179307D1F451968D9100
:104970009C91EED5ED81FE8180819181B12CA12C9D
:10498000412C512C3201892B89F5BFEFCB1ADB0A60
:10499000EB0AFB0AED81FE817396FE83ED83B2CFB5
:1049A000C114D104E104F10429F7039718F7ED814C
:1049B000FE81818992898F3F980709F029D5AD81C1
:1049C000BE8152963C922E925197D4CF8A0D9B1D58
:1049D000DC018D919C91009709F040D4BFEF4B1AF8
:1049E0005B0A6B0A7B0AEDE0AE0EB11CAD81BE81A5
:1049F0008D919C91119712964C9150E070E060E07F
:104A000044165506660677060CF328D4BECFCF931E
:104A1000DF93EA0128DF811109C082E090E09983E9
:104A2000888385EF9FEFDF91CF91089581E090E03B
:104A30000E94EB1681E090E09983888390E080E00B
:104A4000F2CF11DF1092AB041092AA04089542E055
:104A500050E062EE72E00C940917FF920F931F93DF
:104A6000CF93DF938A01EC01C60FD71FF980B9D22B
:104A70000897F816190671F068F082E090E0F801E6
:104A8000918380838EEF9FEFDF91CF911F910F91E4
:104A9000FF9008956C817D818E819F814B810E9462
:104AA0009E19811108C082E090E0F8019183808313
:104AB00084EF9FEFE9CFF9800E9499194F2D50E0C4
:104AC000BE01685F7F4F0E94343B89810E94081AB3
:104AD00081E090E0F8019183808390E080E0D4CF82
:104AE000DF92EF92FF920F931F93CF93DF938A0190
:104AF000EC01C60FD71F0E9499197C01D98071D291
:104B0000DD2059F0029721E030E0D816190619F09F
:104B100010F030E020E0232B79F482E090E0F801FF
:104B2000918380838EEF9FEFDF91CF911F910F9143
:104B3000FF90EF90DF900895EF2841F482E090E03D
:104B4000F8019183808384EF9FEFEECFF9800E947C
:104B500099194F2D50E0BE016E5F7F4F0E94343B8C
:104B600089810E94081A81E090E0F8019183808396
:104B700090E080E0D9CF87E295E29093B5048093EE
:104B8000B40408958091B4049091B50408950895F3
:104B9000FC0111821082938382830895DB011D92B0
:104BA0001C92DC011296ED91FC9113977183608346
:104BB00013967C936E9312970895FC0180819181E6
:104BC000DB018D939C93A081B181109741F08D9171
:104BD0009C9191838083892B11F4F383E283089560
:104BE000FC0180819181DB018D939C93892B11F4D1
:104BF00073836283718360830895FC011182108244
:104C0000938382830895CF93DF931F921F92CDB732
:104C1000DEB71A821982F894BE016F5F7F4F8BEB6B
:104C200094E0CBDF89819A81009709F017D38981BD
:104C30009A81892B89F7BE016F5F7F4F8FEB94E0DC
:104C4000BCDF89819A81009709F008D389819A8114
:104C5000892B89F778940F900F90DF91CF91089569
:104C6000CF93DF931F921F92CDB7DEB71A821982BE
:104C7000F894BE016F5F7F4F87EB94E09EDF8981E0
:104C80009A81009709F0EAD289819A81892B89F764
:104C900078940F900F90DF91CF91089581E008955F
:104CA00090E080E00895EF92FF920F931F93CF93CF
:104CB000DF931F921F92CDB7DEB71A8219828091BF
:104CC000B60407EF1FEF8823A1F1F894BE016F5FD0
:104CD0007F4F8FEB94E071DF789489819A81EE2485
:104CE000E394F12C892B51F4F894BE016F5F7F4F50
:104CF0008BEB94E062DF7894F12CE12C89819A812E
:104D00000EEF1FEF0097A9F0FC014281538164E090
:104D100070E076D68C01892B61F0F89469817A81F4
:104D2000C701880F991F880F991F85549B4F58DF23
:104D30007894C8010F900F90DF91CF911F910F9140
:104D4000FF90EF9008950F931F93CF93DF9300D0C0
:104D50001F92CDB7DEB71C821B821A821982809106
:104D6000B60407EF1FEF8823C1F0AE014D5F5F4F20
:104D700064E070E0CE010196B6D68C01892B69F40F
:104D8000E981FA818B819C8193838283F894698184
:104D90007A8187EB94E002DF7894C8010F900F903E
:104DA0000F900F90DF91CF911F910F910895BBD776
:104DB000049608958F929F92AF92BF92CF92DF9206
:104DC000EF92FF920F931F93CF93DF931F921F9247
:104DD000CDB7DEB71A821982BC016F5F7F4F633097
:104DE000710598F0AA24AA94BA2CC5010F900F90CF
:104DF000DF91CF911F910F91FF90EF90DF90CF90B7
:104E0000BF90AF909F908F9008954115510551F339
:104E1000480159018A016C01CADF8815990511F70B
:104E2000E114F104F9F28E0D9F1DA816B906D0F217
:104E30008091B6048823F1F0F894B50164507109AB
:104E40009701AE014F5F5F4FC8010496E1D65C0148
:104E5000892B71F489819A81F80193838283C60139
:104E6000880F991F880F991FB80185549B4F96DEB4
:104E70007894BBCF87EFA82EBB24BA94B6CFAF925D
:104E8000BF92CF92DF92EF92FF920F931F93CF9337
:104E9000DF931F921F92CDB7DEB71A821982892B3A
:104EA00009F047C06115710509F443C0411551056A
:104EB00009F43FC02115310509F43BC00115110566
:104EC000C1F18091B6048823B9F179016A015B01CF
:104ED000F894BE016F5F7F4F87EB94E06EDE7894AD
:104EE00089819A81009759F1DC0112966D917C912C
:104EF000A8010496A6D68C01E981FA81D501ED932B
:104F0000FC93828193810496F601918380834FDF25
:104F1000D7018D939C93C8010F900F90DF91CF9193
:104F20001F910F91FF90EF90DF90CF90BF90AF90C7
:104F300008950FEF1FEFEFCF07EF1FEFECCF0EEF4E
:104F40001FEFE9CFCF93DF93EC01672B71F4F4D619
:104F50008C179D0760F0E7D62496C80FD91FE6D6B8
:104F60008C0F9D1FDF91CF910895E3D6F1CF90E094
:104F700080E0F8CF0F931F93CF93DF932091B60477
:104F800021112BC08B01EC018BEB94E001DE8FEB48
:104F900094E0FEDD87EB94E0FBDD97D00097C1F451
:104FA000CBD670E060E0CEDF40E552E062E070E03A
:104FB00081D1009769F48091500290915102CED630
:104FC000B801CE0103D5009719F421E02093B6046F
:104FD000DF91CF911F910F91089584EF9FEFF8CF4C
:104FE000A8C6AAC6CF93DF93AAD6EC01892B11F4E9
:104FF0000ADE36DECE01DF91CF910895CF93DF93A5
:105000009ED6EC01892B09F4FEDDCE01DF91CF9114
:10501000089580915002909151020895CF93DF93AB
:105020008091B604D0E0C0E08823D1F09CD6EC019A
:10503000892BB1F4E8DD14DE809150029091510289
:10504000E7D1E8D2EC01892B59F48BEB94E0D5DD64
:105050008FEB94E0D2DD87EB94E0CFDD1092B604C5
:10506000CE01DF91CF910895EF92FF920F931F939E
:10507000CF93DF93EC017A018B010F5F1F4F0E9DE1
:10508000A0010F9D500D1E9D500D112470E060E099
:105090000E943D3B90E080E0F0E0E0E02FEFE8167A
:1050A000F90639F4DF91CF911F910F91FF90EF90A6
:1050B00008951A8219822883309711F0D283C18310
:1050C0000196FE01C00FD11FEACFCF92DF92EF927F
:1050D000FF920F931F93CF93DF930CE116E00C7FA9
:1050E00043E050E062E572E088E592E01CD482E59E
:1050F000E82E82E0F82E98E5C92E92E0D92EC3EC76
:10510000D6E0D7014D915D917D01F60161917191DC
:105110006F01198308835D834C835B834A837F839C
:105120006E839B012F5F3F4F249FC001259F900DF1
:10513000349F900D1124998788870115110511F06E
:10514000C80192DF88859985080F191F2A96F8E50E
:10515000EF16F2E0FF06A9F6E5ECF4E084E591E055
:10516000DF019C011D9221503040E1F71092C404F0
:105170001092C3041092E2061092E1061092E60625
:105180001092E5061092E4061092E3061092E806EB
:105190001092E7061092EA061092E9061092EC06C9
:1051A0001092EB061092F0061092EF061092EE06A7
:1051B0001092ED061092F2061092F1061092F4068B
:1051C0001092F3061092C0061092BF061092C2060B
:1051D0001092C10690E080E0DF91CF911F910F9176
:1051E000FF90EF90DF90CF9008950097F1F0F89442
:1051F000A8E5B2E0E3ECF6E030E020E04D915D910F
:1052000048175907A8F0428153814115510581F093
:105210008AE0829FF001839FF00D1124ED53F94F36
:1052200080819181009759F4789490E080E008950E
:105230002F5F3F4F3A962330310501F7F5CFDC0160
:1052400011966D917C917183608341505109538314
:105250004283FC012193CF0178940895009749F18E
:10526000DC018E91853041F4E091C106F091C206D7
:105270003097F9F0CD0119948530D8F4282F30E01B
:10528000F8948FEF8C938AE0829FF001839FF00D5A
:105290001124ED53F94F8081918112969C938E9346
:1052A0001197B183A0838281938101969383828336
:1052B00078940895CF92DF92EF92FF920F931F930D
:1052C000CF93DF939C0188EC94E08C7F41155105CE
:1052D00009F49BC02115310509F497C061157105CA
:1052E00009F493C07A01AB01B9016D5F7F4F6C7F08
:1052F0009B012F5F3F4F249F8001259F100D349FFE
:10530000100D1124F8942091E1063091E206232B30
:1053100059F42091E9063091EA062115310569F129
:105320002017310708F058C02091EB063091EC06A9
:10533000232B91F42091E9063091EA06820F931F06
:105340002091F3063091F4062115310509F441C08E
:105350002017310708F056C07894CFEFDFEF86EFC3
:105360009FEFF701D183C083DF91CF911F910F9100
:10537000FF90EF90DF90CF900895C3E0D0E0C09011
:10538000C304D090C40421E531E02C193D09201755
:10539000310710F32AE02C9FF0012D9FF00D11240E
:1053A000ED53F94F91838083558344835383428324
:1053B0007783668311870087009709F055DE0C0D0F
:1053C0001D1D1093C4040093C304789490E080E002
:1053D000C8CFC4E0D0E0D3CFC3E0D0E02AE02C9F18
:1053E000F0012D9FF00D1124ED53F94F918380832F
:1053F000558344835383428377836683009729F3DD
:1054000033DEE3CFC4E0D0E0E9CF8FEF9FEFACCF46
:105410009C010397029708F069C0F89484E09AE031
:10542000482F50E0241735070CF44DC091E08AE076
:10543000829FF001839FF00D1124ED53F94F1182EB
:105440001082158214821382128217821682992387
:10545000B1F18091E1069091E206892BA9F42091A7
:10546000E9063091EA062115310571F08091C304F7
:105470009091C404821B930B9093C4048093C30443
:105480001092EA061092E9068091EB069091EC06E4
:10549000892BA9F42091F3063091F40621153105EA
:1054A00071F08091C3049091C404821B930B90937C
:1054B000C4048093C3041092F4061092F306789407
:1054C00090E080E00895949FF001959FF00D1124E5
:1054D000ED53F94F40815181452B31F44085518581
:1054E000452B11F481509CCF90E0A1CF8FEF9FEF1F
:1054F00008954115510549F1009739F1611571057C
:1055000021F1F8942091BF063091C006232BB9F405
:105510002091C1063091C206232B89F49093C006D6
:105520008093BF067093C2066093C106789425E00D
:1055300030E090E080E0FA01318320830895789490
:105540002FEF3FEF86EF9FEFF6CF8FEF9FEF08959E
:10555000059769F4F8941092C0061092BF06109255
:10556000C2061092C106789490E080E008958FEF13
:105570009FEF08956115710519F4F0E0E0E011C0A6
:105580008530910581F4E091BF06F091C006309717
:10559000A1F3CB0101961995009779F3FC0185E001
:1055A0008193CF0108959C012350310922303105A8
:1055B00020F72AE0289FD001299FB00D1124AD5378
:1055C000B94F2D913C911197232BB9F216962D913D
:1055D0003C9117972617370780F2F89412962D9171
:1055E0003C9113972115310529F0ED91FC9111970C
:1055F000309711F47894C1CF4181528111965C9318
:105600004E932150310913963C932E931297819318
:105610007894C7CFE9E1F6E086EADF011D928A952A
:10562000E9F7E5ECF4E084E591E0DF019C011D92EF
:1056300021503040E1F71092C4041092C304E3EC0F
:10564000F6E082E3DF011D928A95E9F7EFEBF6E0E1
:1056500084E0DF011D928A95E9F790E080E00895EB
:10566000CF93DF93C0915E02D0915F02CF3FDC0702
:1056700059F45ED490935F0280935E0297FF09C055
:10568000D0935F02C0935E0284EF9FEFDF91CF91D2
:10569000089590E080E0FACF8230910528F480935D
:1056A000F50690E080E008958FEF9FEF08954F9208
:1056B0005F926F927F92AF92BF92CF92DF92EF9202
:1056C000FF920F931F93CF93DF931F921F92CDB73B
:1056D000DEB71A821982009709F479C06115710545
:1056E00009F475C020915E0230915F0207EF1FEF51
:1056F0002F3F3F4F09F445C06B015C01412C512CF9
:105700003201F12CE12C10E000E09E012F5F3F4FB1
:10571000A6014E195F09B5016E0D7F1D80915E02D5
:1057200090915F0264D4892B09F04BC089819A81E2
:10573000009741F4E114F10429F42091F5062223A5
:1057400009F442C0E80EF91EEC14FD04D0F480E820
:10575000481684E858068EE16806710420F560E07A
:1057600070E0CB010E945C342AE0420E511C611CA7
:10577000711C0A3F4FEF140721F0043F8FEF180709
:10578000A1F4C8010F900F90DF91CF911F910F915D
:10579000FF90EF90DF90CF90BF90AF907F906F9091
:1057A0005F904F90089501EF1FEF81E090E0013F7F
:1057B0002FEF120711F090E080E0892B09F4A5CFBC
:1057C000E0CF04EF1FEFDDCF0AEF1FEFDACF0FEFCF
:1057D0001FEFD7CF4F925F926F927F92AF92BF929F
:1057E000CF92DF92EF92FF920F931F93CF93DF93AD
:1057F0001F921F92CDB7DEB71A821982009709F463
:1058000079C06115710509F475C020915E0230916F
:105810005F0207EF1FEF2F3F3F4F09F445C06B01B9
:105820005C01412C512C3201F12CE12C10E000E004
:105830009E012F5F3F4FA6014E195F09B5016E0D06
:105840007F1D80915E0290915F0287D3892B09F0C2
:105850004BC089819A81009741F4E114F10429F445
:105860002091F506222309F442C0E80EF91EEC143B
:10587000FD04D0F480E4481682E458068FE0680600
:10588000710420F560E070E0CB010E945C342AE0F6
:10589000420E511C611C711C0E3F4FEF140721F08A
:1058A000043F8FEF1807A1F4C8010F900F90DF910C
:1058B000CF911F910F91FF90EF90DF90CF90BF900D
:1058C000AF907F906F905F904F90089502EF1FEF21
:1058D00081E090E0023F2FEF120711F090E080E0AE
:1058E000892B09F4A5CFE0CF04EF1FEFDDCF0EEF3A
:1058F0001FEFDACF0FEF1FEFD7CF80915E029091AD
:105900005F028F3F980749F00BD3892B49F48FEF43
:105910009FEF90935F0280935E0290E080E0089595
:1059200084EF9FEF0895CF92DF92EF92FF920F9353
:105930001F93CF93DF9321E04115510509F020E03B
:105940004150510921112CC0DC01FB01D12CC12C8B
:1059500021E022C03FEFC31AD30A7D010D911D91B2
:10596000E701EA80FB80E016F106A8F4208131818E
:10597000E280F380F182E08233832283ED90FC9019
:1059800011979D0122503109E901F982E8821196AF
:105990001C930E9320E03296C416D506D8F2D2CFCF
:1059A000DF91CF911F910F91FF90EF90DF90CF90FB
:1059B0000895FC01680F791F90E080E0E617F70773
:1059C00009F408952191820F911DF8CF2091F606D8
:1059D000211113C045DE009791F41092FC0610923D
:1059E000FB061092FA061092F9061092F806109231
:1059F000F70621E02093F606089584EF9FEF0895BF
:105A0000AF92BF92CF92DF92EF92FF920F931F93CC
:105A1000CF93DF93009709F460C04630510508F436
:105A20005CC02091F606C7EFDFEF222309F449C0DE
:105A30008C01060F171FF801C080D180C114D1045A
:105A400009F44EC096012A5F3F4F4217530708F4EE
:105A500047C07C018091FB069091FC069383828372
:105A6000B6016C5F7F4F5801A60EB71EC801A1DFBB
:105A7000F5019183808364E070E0C80118DEEC01D9
:105A8000892BF9F481E090E007DEB601C8010496A5
:105A90000EDEEC01892B91F462E070E0C50107DEB7
:105AA000EC01892B59F4C701D9DB8091FB06909159
:105AB000FC0601969093FC068093FB0690E080E044
:105AC000EBDDCE01DF91CF911F910F91FF90EF9011
:105AD000DF90CF90BF90AF900895CFEFDFEFF1CF81
