:1000000075C00000A4C00000A2C00000A0C0000095
:100010009EC000009CC000009AC0000098C0000074
:1000200096C0000094C0000092C0000090C0000084
:100030008EC000008CC000008AC0000088C0000094
:1000400086C0000084C0000082C0000080C00000A4
:100050007EC000007CC000007AC000000C948A12B0
:1000600076C000000C948F180C94BF1870C000006C
:100070006EC000006CC000006AC0000068C00000D4
:1000800066C0000064C0000062C0000060C00000E4
:100090000C9436190C9466195AC0000058C0000020
:1000A00056C0000054C0000052C0000050C0000004
:1000B0004EC000004CC000004AC0000048C0000014
:1000C00046C0000044C0000042C000000C94DD198E
:1000D0000C940D1A3CC000000C94841A0C94B41AB1
:1000E00036C000002A19D119781A211B11241FBE0D
:1000F000CFEFD1E2DEBFCDBF00E00CBF12E0A0E049
:10010000B2E0E2E9F1E400E00BBF02C007900D921B
:10011000AA34B107D9F725E0AAE4B2E001C01D92E4
:10012000AC30B207E1F710E0C6E7D0E000E006C06F
:1001300021970109802FFE010E943C20C237D10780
:1001400080E00807A9F70E94CC0F0C94C72058CF75
:10015000CF93DF931F92CDB7DEB789838981882340
:1001600009F43FC08981882F90E0092E000CAA0B6A
:10017000BB0B0197A109B10988309105A105B10513
:1001800090F5FC018827E853FF4F8F4F0C943C20DB
:10019000D000DB00E600F500F500F500F500F50005
:1001A00026E030E040E855E260E070E081E090E079
:1001B0000E94050E1BC026E030E040E855E260E0FA
:1001C00070E082E090E00E94050E10C026E030E072
:1001D00040E855E260E070E083E090E00E94050EA8
:1001E00005C0000003C0000001C000000F90DF91B7
:1001F000CF9108958F929F92AF92CF92EF920F93EB
:100200001F93CF93DF93CDB7DEB76A970FB6F894FD
:10021000DEBF0FBECDBF8D877F876E87598B488B22
:100220002A8B0B8BEC8ACD8AAE8A988E8F8A8A892C
:10023000882F90E09A838983888999899C838B830E
:100240008D85843008F052C28D85882F90E0092E6C
:10025000000CAA0BBB0B0197A109B10988309105CD
:10026000A105B105F0F4FC018827E65CFE4F8F4F35
:100270000C943C20420147014C01530153015301AE
:10028000530153018FEF92E098878F830DC08CE963
:1002900093E098878F8308C089E394E098878F83E1
:1002A00003C0000001C0000089819A81089721F4F1
:1002B00084E090E09A83898349815A812889398929
:1002C000429FC001439F900D529F900D11249A832D
:1002D00089838D89882329F48AE090E09E838D8329
:1002E00014C08D89813029F480E190E09E838D8354
:1002F0000CC08D89823029F488E090E09E838D8344
:1003000004C082E090E09E838D838D85882309F070
:10031000E4C08B89882309F03FC08AA59BA5892B5F
:1003200091F080916202909163020296DC012D911E
:100330003C918CA5482F50E08AA59BA5BC0182E684
:1003400092E0F90119958091620290916302029600
:10035000DC012D913C9149815A818E859F85BC019C
:1003600082E692E0F90119958FA198A5892B09F4ED
:10037000C2C180916202909163020296DC012D91CC
:100380003C9189A5482F50E08FA198A5BC0182E639
:1003900092E0F9011995AFC18F89988DBC0182E671
:1003A00092E00E94A81B8C89882F90E0092E000CF7
:1003B000AA0BBB0B87309105A105B10508F09BC1C5
:1003C000FC018827E951FE4F8F4F0C943C20EE0131
:1003D000F80102020C02160220022A028B89482F21
:1003E00050E06B812D813E818E859F8594D183C1A4
:1003F0008B89482F50E06B812D813E818E859F85B2
:10040000D8D179C18B89482F50E06B812D813E81F5
:100410008E859F851ED26FC18B89482F50E06B81DE
:100420002D813E818E859F8568D265C18B89482F3D
:1004300050E06B812D813E818E859F85B2D25BC15C
:100440008B89482F50E06B812D813E818E859F8561
:10045000F8D251C18E859F859A8789878B819C812F
:100460009C01215031093C832B8321E0892B09F425
:1004700020E0222309F43CC18B898130B9F48E89B4
:10048000482F50E089859A859C012C5F3F4F3A8721
:100490002987FC0180819181A281B3819A01AC01FD
:1004A000BD0182E692E00E94EB1CD8CF8E89482FD6
:1004B00050E089859A859C012C5F3F4F3A872987B8
:1004C000FC0180819181A281B3819A01AC01BD01BF
:1004D00082E692E00E940B1EC1CF8B89882309F02F
:1004E00045C08AA59BA5892BA1F0EF81F8858F8156
:1004F0009885DC018D919C910296DC012D913C91B7
:100500008CA5482F50E08AA59BA5BC01CF01F9011D
:100510001995EF81F8858F819885DC018D919C91EB
:100520000296DC012D913C9149815A818E859F85EF
:10053000BC01CF01F90119958FA198A5892B09F468
:10054000DAC0EF81F8858F819885DC018D919C91CF
:100550000296DC012D913C9189A5482F50E08FA196
:1005600098A5BC01CF01F9011995C5C08F81988567
:100570002F89388DB9010E94A81B8C89882F90E0A3
:10058000092E000CAA0BBB0B87309105A105B10504
:1005900008F0B1C0FC018827EF52FD4F8F4F0C943B
:1005A0003C20D802E602F402020310031E032C03CF
:1005B0008B89482F50E0EB816F8178852D813E81BA
:1005C0008E859F858B016E2F90D295C08B89482F89
:1005D00050E0EB816F8178852D813E818E859F85EE
:1005E0008B016E2FDAD287C08B89482F50E0EB81C8
:1005F0006F8178852D813E818E859F858B016E2F41
:1006000026D379C08B89482F50E0EB816F817885A4
:100610002D813E818E859F858B016E2F7DD36BC092
:100620008B89482F50E0EB816F8178852D813E8149
:100630008E859F858B016E2FCDD35DC08B89482F12
:1006400050E0EB816F8178852D813E818E859F857D
:100650008B016E2F19D44FC08E859F859C878B8709
:100660008B819C819C01215031093C832B8321E0AB
:10067000892B09F420E02223E9F18B898130D9F418
:100680008F8198859A8F898F8E89482F50E08B852E
:100690009C859C012C5F3F4F3C872B87FC01808110
:1006A0009181A281B3819A01AC01BD01898D9A8D9E
:1006B0000E94EB1CD5CF8F8198859A8F898F8E8968
:1006C000482F50E08B859C859C012C5F3F4F3C87D9
:1006D0002B87FC0180819181A281B3819A01AC01B9
:1006E000BD01898D9A8D0E940B1EBACF000003C0F8
:1006F000000001C000006A960FB6F894DEBF0FBE7E
:10070000CDBFDF91CF911F910F91EF90CF90AF9020
:100710009F908F900895CF93DF9300D000D000D0AA
:10072000CDB7DEB79C838B836D835F834E83398720
:1007300028878B819C819A8389838D819FEF980F75
:100740009D8391E0882309F490E0992341F18E8103
:100750009F81019791F489819A819C012F5F3F4F7E
:100760003A832983FC01208188859985AC01622F19
:1007700082E692E00E94DB1BE0CF89819A819C0196
:100780002F5F3F4F3A832983FC012081888599851B
:10079000AC01622F82E692E00E94211DCECF0000C4
:1007A00029960FB6F894DEBF0FBECDBFDF91CF9173
:1007B0000895CF93DF9300D000D000D0CDB7DEB73F
:1007C0009C838B836D835F834E83398728878B81DE
:1007D0009C819A8389838D819FEF980F9D8391E0FF
:1007E000882309F490E0992351F18E819F8101972C
:1007F00099F489819A819C012E5F3F4F3A83298326
:10080000FC018081918128853985A901BC0182E69E
:1008100092E00E941F1CDFCF89819A819C012E5F8C
:100820003F4F3A832983FC01808191812885398556
:10083000A901BC0182E692E00E94781DCCCF0000A5
:1008400029960FB6F894DEBF0FBECDBFDF91CF91D2
:100850000895CF93DF9300D000D000D0CDB7DEB79E
:100860009C838B836D835F834E83398728878B813D
:100870009C819A8389838D819FEF980F9D8391E05E
:10088000882309F490E0992371F18E819F8101976B
:10089000A9F489819A819C012C5F3F4F3A83298377
:1008A000FC0180819181A281B38128853985AC01C9
:1008B000BD0182E692E00E94B41CDDCF89819A815D
:1008C0009C012C5F3F4F3A832983FC0180819181F9
:1008D000A281B38128853985AC01BD0182E692E011
:1008E0000E94D81DC8CF000029960FB6F894DEBF2D
:1008F0000FBECDBFDF91CF910895CF93DF9300D08E
:1009000000D000D0CDB7DEB79C838B836D835F832F
:100910004E83398728878B819C819A8389838D8137
:100920009FEF980F9D8391E0882309F490E099232D
:1009300071F18E819F810197A9F489819A819C012F
:100940002F5F3F4F3A832983FC018081082E000CE2
:10095000990B28853985A901BC0182E692E00E94A5
:10096000FC1BDDCF89819A819C012F5F3F4F3A8329
:100970002983FC018081082E000C990B288539857C
:10098000A901BC0182E692E00E944B1DC8CF000085
:1009900029960FB6F894DEBF0FBECDBFDF91CF9181
:1009A0000895CF93DF9300D000D000D0CDB7DEB74D
:1009B0009C838B836D835F834E83398728878B81EC
:1009C0009C819A8389838D819FEF980F9D8391E00D
:1009D000882309F490E0992351F18E819F8101973A
:1009E00099F489819A819C012E5F3F4F3A83298334
:1009F000FC018081918128853985A901BC0182E6AD
:100A000092E00E94FC1BDFCF89819A819C012E5FBE
:100A10003F4F3A832983FC01808191812885398564
:100A2000A901BC0182E692E00E944B1DCCCF0000E0
:100A300029960FB6F894DEBF0FBECDBFDF91CF91E0
:100A40000895CF93DF9300D000D000D0CDB7DEB7AC
:100A50009C838B836D835F834E83398728878B814B
:100A60009C819A8389838D819FEF980F9D8391E06C
:100A7000882309F490E0992371F18E819F81019779
:100A8000A9F489819A819C012C5F3F4F3A83298385
:100A9000FC0180819181A281B38128853985AC01D7
:100AA000BD0182E692E00E94411CDDCF89819A81DE
:100AB0009C012C5F3F4F3A832983FC018081918107
:100AC000A281B38128853985AC01BD0182E692E01F
:100AD0000E94A51DC8CF000029960FB6F894DEBF6E
:100AE0000FBECDBFDF91CF9108950F931F93CF938A
:100AF000DF9300D000D000D01F921F92CDB7DEB799
:100B00009C838B836D835F834E83398728871B8704
:100B10000A878B819C819A8389838D819FEF980FAF
:100B20009D8391E0882309F490E0992351F18E810F
:100B30009F81019799F4EA85FB8589819A819C01BF
:100B40002F5F3F4F3A832983DC012C91888599855B
:100B5000AC01622FCF010E94DB1BDFCFEA85FB8552
:100B600089819A819C012F5F3F4F3A832983DC0161
:100B70002C9188859985AC01622FCF010E94211D9F
:100B8000CCCF00002B960FB6F894DEBF0FBECDBFC2
:100B9000DF91CF911F910F9108950F931F93CF93E2
:100BA000DF9300D000D000D01F921F92CDB7DEB7E8
:100BB0009C838B836D835F834E83398728871B8754
:100BC0000A878B819C819A8389838D819FEF980FFF
:100BD0009D8391E0882309F490E0992361F18E814F
:100BE0009F810197A1F4EA85FB8589819A819C0107
:100BF0002E5F3F4F3A832983DC018D919C9128859C
:100C00003985A901BC01CF010E941F1CDECFEA85F6
:100C1000FB8589819A819C012E5F3F4F3A8329830E
:100C2000DC018D919C9128853985A901BC01CF01FA
:100C30000E94781DCACF00002B960FB6F894DEBF35
:100C40000FBECDBFDF91CF911F910F9108950F93EC
:100C50001F93CF93DF93CDB7DEB72D970FB6F894E0
:100C6000DEBF0FBECDBF9C838B836D835F834E83BE
:100C7000398728871B870A878B819C819A83898380
:100C80008D819FEF980F9D8391E0882309F490E078
:100C90009923B1F18E819F810197C9F48A859B8543
:100CA0009D878C8789819A819C012C5F3F4F3A8375
:100CB0002983FC0180819181A281B38128853985B6
:100CC000AC01BD018C859D850E94B41CD9CF8A855D
:100CD0009B859D878C8789819A819C012C5F3F4FE2
:100CE0003A832983FC0180819181A281B381288587
:100CF0003985AC01BD018C859D850E94D81DC0CF72
:100D000000002D960FB6F894DEBF0FBECDBFDF9169
:100D1000CF911F910F9108950F931F93CF93DF935E
:100D200000D000D000D01F921F92CDB7DEB79C83B9
:100D30008B836D835F834E83398728871B870A8760
:100D40008B819C819A8389838D819FEF980F9D83EE
:100D500091E0882309F490E0992381F18E819F81AD
:100D60000197B1F4EA85FB8589819A819C012F5F07
:100D70003F4F3A832983DC018C91082E000C990B9C
:100D800028853985A901BC01CF010E94FC1BDCCF5D
:100D9000EA85FB8589819A819C012F5F3F4F3A83C9
:100DA0002983DC018C91082E000C990B288539854C
:100DB000A901BC01CF010E944B1DC6CF00002B969C
:100DC0000FB6F894DEBF0FBECDBFDF91CF911F915C
:100DD0000F9108950F931F93CF93DF9300D000D00E
:100DE00000D01F921F92CDB7DEB79C838B836D839B
:100DF0005F834E83398728871B870A878B819C8175
:100E00009A8389838D819FEF980F9D8391E088233A
:100E100009F490E0992361F18E819F810197A1F4FB
:100E2000EA85FB8589819A819C012E5F3F4F3A8339
:100E30002983DC018D919C9128853985A901BC010C
:100E4000CF010E94FC1BDECFEA85FB8589819A8158
:100E50009C012E5F3F4F3A832983DC018D919C9149
:100E600028853985A901BC01CF010E944B1DCACF3D
:100E700000002B960FB6F894DEBF0FBECDBFDF91FA
:100E8000CF911F910F9108950F931F93CF93DF93ED
:100E9000CDB7DEB72D970FB6F894DEBF0FBECDBF2E
:100EA0009C838B836D835F834E83398728871B8761
:100EB0000A878B819C819A8389838D819FEF980F0C
:100EC0009D8391E0882309F490E09923B1F18E810C
:100ED0009F810197C9F48A859B859D878C8789812D
:100EE0009A819C012C5F3F4F3A832983FC018081CA
:100EF0009181A281B38128853985AC01BD018C85A2
:100F00009D850E94411CD9CF8A859B859D878C87B2
:100F100089819A819C012C5F3F4F3A832983FC0190
:100F200080819181A281B38128853985AC01BD0181
:100F30008C859D850E94A51DC0CF00002D960FB603
:100F4000F894DEBF0FBECDBFDF91CF911F910F91FF
:100F50000895CF93DF9300D000D01F921F92CDB79A
:100F6000DEB76D837E838F8398878D819E81AF816D
:100F7000B885BC01CD01AAD5882369F08091FE0413
:100F80009091FF04A0910005B091010589839A8397
:100F9000AB83BC8363C08D819E81AF81B885BC016A
:100FA000CD015ED5882369F08091FE049091FF0405
:100FB000A0910005B091010589839A83AB83BC831E
:100FC0004DC020E030E0A9016D817E818F81988540
:100FD0000E94A010882329F419821A821B821C8285
:100FE0003DC08D819E81AF81B88520E030E048EC26
:100FF00052E4BC01CD010E942711DC01CB018983A1
:101000009A83AB83BC8320E030E0A90169817A81B7
:101010008B819C810E94A010882329F419821A8256
:101020001B821C821BC020E030E0A90169817A810B
:101030008B819C810E94A010882384F420E030E002
:1010400048EC52E469817A818B819C810E9429104D
:10105000DC01CB0189839A83AB83BC8389819A812C
:10106000AB81BC81BC01CD0128960FB6F894DEBFE0
:101070000FBECDBFDF91CF910895CF93DF9300D006
:1010800000D01F921F92CDB7DEB76D837E838F8312
:1010900098878D819E81AF81B885BC01CD0116D521
:1010A000882369F08091FE049091FF04A0910005CF
:1010B000B091010589839A83AB83BC8361C08D8124
:1010C0009E81AF81B885BC01CD01CAD4882369F067
:1010D0008091FE049091FF04A0910005B09101055C
:1010E00089839A83AB83BC834BC020E030E0A901A5
:1010F0006D817E818F8198850E94A010882329F4BC
:1011000019821A821B821C823BC08D819E81AF8115
:10111000B88520E030E040E853E4BC01CD010E94F6
:101120002711DC01CB0189839A83AB83BC8320E048
:1011300030E0A90169817A818B819C810E94A01095
:10114000882329F419821A821B821C8219C020E08C
:1011500030E0A90169817A818B819C81F1D7882354
:101160007CF420E030E040E853E469817A818B81AF
:101170009C816FD7DC01CB0189839A83AB83BC83CD
:1011800089819A81AB81BC81BC01CD0128960FB6C3
:10119000F894DEBF0FBECDBFDF91CF910895CF93FE
:1011A000DF9300D000D01F921F92CDB7DEB76D83C2
:1011B0007E838F8398878D819E81AF81B885BF772D
:1011C00020E030E040E859E5BC01CD01B9D78823E3
:1011D0000CF053C020E030E040E05FE36D817E81A1
:1011E0008F8198850E9423128823B4F020E030E09C
:1011F00040E05FE36D817E818F8198852AD7DC0195
:10120000CB01BC01CD010E940D11DC01CB01898312
:101210009A83AB83BC8339C020E030E040E05FEBD1
:101220006D817E818F8198850E942312181684F427
:1012300020E030E0A9016D817E818F8198850E9438
:101240002712DC01CB0189839A83AB83BC831DC049
:1012500020E030E040E05FE36D817E818F81988502
:10126000F7D6DC01CB01BC01CD0157D7DC01CB01A6
:1012700089839A83AB83BC8308C08D819E81AF81B3
:10128000B88589839A83AB83BC8389819A81AB813A
:10129000BC81BC01CD0128960FB6F894DEBF0FBE0D
:1012A000CDBFDF91CF9108958F929F92AF92CF9251
:1012B000EF92FF920F931F93CF93DF93CDB7DEB7DB
:1012C00065970FB6F894DEBF0FBECDBF8AEA8F8751
:1012D0008091000290910102A0910202B09103025C
:1012E000BC01CD019AD7DC01CB018B839C83AD83FC
:1012F000BE8320E030E040E853E46B817C818D8147
:101300009E811ED78823B4F420E030E0A9016B81D0
:101310007C818D819E810E94231288234CF06B81F9
:101320007C818D819E8110D7DC01CB01888B04C02C
:10133000188A02C08FEF888B809100029091010281
:10134000A0910202B091030220E030E048EC52E4A8
:10135000BC01CD010E942712DC01CB01BC01CD01F3
:10136000F8DDDC01CB01BC01CD0157D7DC01CB019D
:101370008F839887A987BA8720E030E040E853E45C
:101380006F81788589859A85DBD68823B4F420E03F
:1013900030E0A9016F81788589859A850E942312A2
:1013A00088234CF06F81788589859A85CDD6DC01BC
:1013B000CB01898B04C0198A02C08FEF898B809181
:1013C000040290910502A0910602B0910702BC01AF
:1013D000CD0123D7DC01CB018F839887A987BA87FA
:1013E00020E030E040E853E46F81788589859A8574
:1013F000A7D68823B4F420E030E0A9016F81788576
:1014000089859A850E94231288234CF06F81788504
:1014100089859A8599D6DC01CB018A8B04C01A8A0A
:1014200002C08FEF8A8B8091040290910502A091F7
:101430000602B091070220E030E048EC52E4BC0123
:10144000CD010E942712DC01CB01BC01CD0181DD61
:10145000DC01CB01BC01CD01E0D6DC01CB018B87E7
:101460009C87AD87BE8720E030E040E853E46B8581
:101470007C858D859E8564D68823ACF420E030E0A1
:10148000A9016B857C858D859E85DDD788234CF0F1
:101490006B857C858D859E8557D6DC01CB018B8B3A
:1014A00004C01B8A02C08FEF8B8B20E030E040E845
:1014B00053E46B817C818D819E8142D68823ACF47C
:1014C00020E030E0A9016B817C818D819E81BBD7BA
:1014D00088234CF06B817C818D819E8135D6DC0127
:1014E000CB01898304C0198202C08FEF898320E079
:1014F00030E040E853E46F81788589859A8520D66D
:101500008823ACF420E030E0A9016F8178858985DB
:101510009A8599D788234CF06F81788589859A853B
:1015200013D6DC01CB018A8304C01A8202C08FEF7C
:101530008A838981282F30E08989882F90E0280FBD
:10154000391F8A81882F90E0280F391F8B89882FB7
:1015500090E0820F931F86559F4F092E000CAA0B17
:10156000BB0BBC01CD011ED6DC01CB01BC01CD0102
:1015700084DDDC01CB019C01AD0160E070E080E81E
:1015800093E466D5DC01CB01BC01CD0176DDDC0145
:10159000CB01BC01CD0103DEDC01CB018B839C833D
:1015A000AD83BE8320E030E040E853E46B817C8172
:1015B0008D819E81C5D58823ACF420E030E0A9015F
:1015C0006B817C818D819E813ED788234CF06B811D
:1015D0007C818D819E81B8D5DC01CB018C8B04C0D0
:1015E0001C8A02C08FEF8C8B85E58D8B8091EC047B
:1015F0009091ED04A091EE04B091EF04BC01CD01F7
:10160000A3D5DC01CB01E82E8091E4049091E504A0
:10161000A091E604B091E704BC01CD0195D5DC01B1
:10162000CB01F82E8091E8049091E904A091EA049E
:10163000B091EB04BC01CD0187D5DC01CB01082FB3
:101640008091E0049091E104A091E204B091E30460
:10165000BC01CD0179D5DC01CB01182F8091DC04D0
:101660009091DD04A091DE04B091DF04BC01CD01B6
:101670006BD5DC01CB01382FCE010F961F921F9244
:101680001F921F921F921F92812C912C6894AA2462
:10169000A1F8CE2CEF2C212F47E050E0BC01832F86
:1016A0000E94FA000F900F900F900F900F900F90E4
:1016B000000065960FB6F894DEBF0FBECDBFDF9178
:1016C000CF911F910F91FF90EF90CF90AF909F908F
:1016D0008F900895CF93DF93CDB7DEB784E090E08D
:1016E0006FD11092D60481E090E0A0E0B0E080934A
:1016F000D7049093D804A093D904B093DA0480E07F
:1017000090E0A0E8BFE38093DC049093DD04A09315
:10171000DE04B093DF0480E090E0A0E8BFE38093B4
:10172000E0049093E104A093E204B093E3041092E8
:10173000E4041092E5041092E6041092E70410927B
:10174000E8041092E9041092EA041092EB0410925B
:10175000EC041092ED041092EE041092EF0481E07C
:101760000E94A80081E08093DB040000DF91CF910C
:101770000895CF93DF93CDB7DEB78091D604882349
:1017800019F481E08093D6040000DF91CF91089591
:10179000CF93DF93CDB7DEB72E970FB6F894DEBFA9
:1017A0000FBECDBF80E290E09E838D8319821A82A6
:1017B0001B821C828D819E81809741F42AD0DC019E
:1017C000CB0189839A83AB83BC8314C080E090E013
:1017D000A0EFBFE78B879C87AD87BE871F821886E7
:1017E00019861A868F819885A985BA8589839A83F7
:1017F000AB83BC8389819A81AB81BC81BC01CD0163
:101800002E960FB6F894DEBF0FBECDBFDF91CF91FD
:101810000895CF93DF9300D01F92CDB7DEB780E05D
:1018200090E0A0E8BFE789839A83AB83BC8389817A
:101830009A81AB81BC81BC01CD010F900F900F90BC
:101840000F90DF91CF910895CF93DF93CDB7DEB79F
:101850002E970FB6F894DEBF0FBECDBF80E290E0AA
:101860009E838D8319821A821B821C828D819E81A8
:10187000809741F42AD0DC01CB0189839A83AB8322
:10188000BC8314C080E090E0A0EFBFEF8B879C8703
:10189000AD87BE871F82188619861A868F81988524
:1018A000A985BA8589839A83AB83BC8389819A8110
:1018B000AB81BC81BC01CD012E960FB6F894DEBF82
:1018C0000FBECDBFDF91CF910895CF93DF9300D0AE
:1018D0001F92CDB7DEB780E090E0A0E8BFEF89832C
:1018E0009A83AB83BC8389819A81AB81BC81BC0123
:1018F000CD010F900F900F900F90DF91CF91089531
:10190000CF93DF93CDB7DEB72E970FB6F894DEBF37
:101910000FBECDBF80E290E09E838D8319821A8234
:101920001B821C828D819E81809741F42AD0DC012C
:10193000CB0189839A83AB83BC8314C080E090E0A1
:10194000A8EFBFEF8B879C87AD87BE871F82188665
:1019500019861A868F819885A985BA8589839A8385
:10196000AB83BC8389819A81AB81BC81BC01CD01F1
:101970002E960FB6F894DEBF0FBECDBFDF91CF918C
:101980000895CF93DF9300D01F92CDB7DEB71982B1
:101990001A821B821C8280E090E0A0ECBFEF89835A
:1019A0009A83AB83BC8389819A81AB81BC81BC0162
:1019B000CD010F900F900F900F90DF91CF91089570
:1019C000CF93DF931F921F92CDB7DEB79A8389839F
:1019D00097DFDC01CB018093FE049093FF04A0937A
:1019E0000005B0930105CDDFDC01CB018093F2044B
:1019F0009093F304A093F404B093F504C9DEDC01E2
:101A0000CB018093FA049093FB04A093FC04B09361
:101A1000FD04FFDEDC01CB018093F6049093F70414
:101A2000A093F804B093F9040FDFDC01CB0180939D
:101A3000020590930305A0930405B093050545DFC7
:101A4000DC01CB018093060590930705A093080560
:101A5000B093090500000F900F90DF91CF9108958A
:101A6000CF93DF9300D01F92CDB7DEB769837A831F
:101A70008B839C838091FA049091FB04A091FC04D9
:101A8000B091FD049C01AD0169817A818B819C81BB
:101A900057D3882389F08091020590910305A09186
:101AA0000405B09105059C01AD0169817A818B81A6
:101AB0009C8146D3882311F481E001C080E00F901F
:101AC0000F900F900F90DF91CF910895CF93DF93F8
:101AD000CDB7DEB72F970FB6F894DEBF0FBECDBFE0
:101AE0006C877D878E879F87198280E290E09B8339
:101AF0008A838A819B81809749F48C859D85AE85F8
:101B0000BF85BC01CD0138D089832CC08C859D85D3
:101B1000AE85BF858C839D83AE83BF838885998581
:101B2000AA85BB8588279927A07FBF770097A04FFC
:101B3000BF47A9F488859985AA85BB85AF70BB2767
:101B4000892B8A2B8B2B41F48C819D81AE81BF81A7
:101B5000892B8A2B8B2B19F081E090E002C080E06A
:101B600090E0898389812F960FB6F894DEBF0FBE6F
:101B7000CDBFDF91CF910895CF93DF9300D000D0F8
:101B80001F921F92CDB7DEB76D837E838F839887B8
:101B90008D819E81AF81B88589839A83AB83BC8315
:101BA00089819A81AB81BC8188279927A078BF77EA
:101BB0000097A048BF4769F489819A81AB81BC81B5
:101BC000AF77BB27892B8A2B8B2B19F081E090E014
:101BD00002C080E090E028960FB6F894DEBF0FBEFA
:101BE000CDBFDF91CF910895CF93DF93CDB7DEB70F
:101BF00026E030E040E855E260E070E080E090E010
:101C000004D00000DF91CF910895CF93DF9300D0EF
:101C100000D000D01F92CDB7DEB79C838B834D835D
:101C20005E836F8378873A87298710924D021092DE
:101C30004C0289859A859A8389838B819C81092EA0
:101C4000000CAA0BBB0B89309105A105B10508F06A
:101C5000F1C0FC018827E05DF14F8F4F0C943C20D0
:101C6000390E560E730E900EAD0EC00ED30EE50E4D
:101C7000F60E80914C0290914D0281709927892B2C
:101C800009F0C7C080914C0290914D028160909301
:101C90004D0280934C0229818D819E81AF81B88550
:101CA000AC01BD0182E692E06AD6C4C080914C02CC
:101CB00090914D0282709927892B09F0ACC08091D8
:101CC0004C0290914D02826090934D0280934C02A1
:101CD00029818D819E81AF81B885AC01BD018FEFD7
:101CE00092E04DD6A7C080914C0290914D02847035
:101CF0009927892B09F091C080914C0290914D0257
:101D0000846090934D0280934C0229818D819E8145
:101D1000AF81B885AC01BD018CE993E030D68AC0B3
:101D200080914C0290914D0288709927892B09F07F
:101D300076C080914C0290914D02886090934D0244
:101D400080934C0229818D819E81AF81B885AC0141
:101D5000BD0189E394E013D66DC080914C0290914F
:101D60004D0280719927892B09F05BC080914C024C
:101D700090914D02806190934D0280934C025AC025
:101D800080914C0290914D0280729927892B09F025
:101D90004AC080914C0290914D02806290934D0216
:101DA00080934C0247C080914C0290914D02807408
:101DB0009927892BD1F580914C0290914D02806436
:101DC00090934D0280934C0235C080914C029091CB
:101DD0004D0280789927892B51F580914C02909182
:101DE0004D02806890934D0280934C0280914C028A
:101DF00090914D0288279170892BD9F480914C02E3
:101E000090914D02916090934D0280934C0200009E
:101E100011C000000FC000000DC000000BC000008A
:101E200009C0000007C0000005C0000003C000009A
:101E300001C000002A960FB6F894DEBF0FBECDBFDA
:101E4000DF91CF910895CF93DF93CDB7DEB7000038
:101E5000DF91CF910895EF92FF920F931F93CF934D
:101E6000DF9300D01F921F92CDB7DEB71982C3D384
:101E7000DC01CB018093520290935302A093540251
:101E8000B093550220915202309153024091540276
:101E90005091550280914E0290914F02A0915002B4
:101EA000B091510279018A01E81AF90A0A0B1B0B59
:101EB000D801C701803A9648A140B10508F43CC05A
:101EC0008091520290915302A0915402B091550218
:101ED00080934E0290934F02A0935002B093510210
:101EE0003AD089D3DC01CB018A839B83AC83BD8349
:101EF00080914E0290914F02A0915002B0915102F8
:101F00002A813B814C815D8179018A01E81AF90AB5
:101F10000A0B1B0BD801C701803A9648A140B105B6
:101F200038F081E090E0909357028093560204C00D
:101F3000109257021092560281E0898389810F9096
:101F40000F900F900F900F90DF91CF911F910F91F5
:101F5000FF90EF900895CF93DF93CDB7DEB78091D8
:101F6000580291E0980F90935802882361F081E025
:101F700090E09093570280935602809158028150CE
:101F80008093580206C090D9809158028150809366
:101F90005802DF91CF910895CF93DF9300D000D006
:101FA0001F921F92CDB7DEB78DEC9CECACECBDE37D
:101FB00089839A83AB83BC831D821E821F8218860D
:101FC00010920B0510920A0574D30EDE8091170251
:101FD00090911802FC01118210827CDBF89433DFAF
:101FE0008091170290911802FC018081918121E07B
:101FF000892B09F020E0822F80930A05789417C07E
:102000008091170290911802FC018081918121E05A
:10201000892B09F420E0822F80930B0590910B050A
:1020200081E0992309F080E080930A0514DF809114
:102030000A05882329F79DDBF89480E090E0289634
:102040000FB6F894DEBF0FBECDBFDF91CF910895DC
:102050005058BB27AA270ED0A5C196D130F09BD1EE
:1020600020F031F49F3F11F41EF48BC10EF4E09583
:10207000E7FB58C1E92FA7D180F3BA1762077307AE
:102080008407950718F071F49EF5D6C10EF4E0951B
:102090000B2EBA2FA02D0B01B90190010C01CA0122
:1020A000A0011124FF27591B99F0593F50F4503ECD
:1020B00068F11A16F040A22F232F342F4427585FBF
:1020C000F3CF469537952795A795F0405395C9F7D7
:1020D0007EF41F16BA0B620B730B840BBAF091508F
:1020E000A1F0FF0FBB1F661F771F881FC2F70EC02E
:1020F000BA0F621F731F841F48F487957795679501
:10210000B795F7959E3F08F0B3CF9395880F08F0E9
:102110009927EE0F97958795089577D180F09F378F
:1021200040F491110EF489C160E070E080E89FE313
:10213000089526F01B16611D711D811DF9C013C184
:10214000CDD008F481E0089546D188F09F5790F0F3
:10215000B92F9927B751A0F0D1F0660F771F881FCC
:10216000991F1AF0BA95C9F712C0B13081F064D145
:10217000B1E0089561C1672F782F8827B85F39F0E3
:10218000B93FCCF3869577956795B395D9F73EF42B
:1021900090958095709561957F4F8F4F9F4F0895D3
:1021A000E89409C097FB3EF49095809570956195F1
:1021B0007F4F8F4F9F4F9923A9F0F92F96E9BB27A7
:1021C0009395F695879577956795B795F111F8CF23
:1021D000FAF4BB0F11F460FF1BC06F5F7F4F8F4F8E
:1021E0009F4F16C0882311F096E911C0772321F084
:1021F0009EE8872F762F05C0662371F096E8862F1C
:1022000070E060E02AF09A95660F771F881FDAF772
:10221000880F9695879597F90895F7D080F09F37A6
:1022200040F491110EF009C160E070E080E89FEB8E
:10223000089526F41B16611D711D811D79C093C080
:10224000A3D018F011F0A7D038F49BC0F6C0E92F46
:10225000BAD0B0F35523C9F3E7FB621773078407BD
:102260009507A8F199F3E92FFF2788232AF03197E2
:10227000660F771F881FDAF7952F5527442332F012
:1022800091505040220F331F441FD2F7BB27E91B48
:10229000F50B621B730B840BB109C1F222F4620FC0
:1022A000731F841FB11D31972AF0660F771F881F97
:1022B000BB1FEFCF915050405AF041F0882332F0CD
:1022C000660F771F881F91505040C1F793954BC000
:1022D0008695779567959F5FD9F7F8CF990F000896
:1022E000550FAA0BE0E8FEEF16161706E807F907E8
:1022F000C0F012161306E407F50798F0621B730B83
:10230000840B950B39F40A2661F0232B242B252B03
:1023100021F408950A2609F4A140A6958FEF811DA6
:10232000811D089597F99F6780E870E060E0089547
:10233000882371F4772321F09850872B762F07C0DC
:10234000662311F499270DC09051862B70E060E050
:102350002AF09A95660F771F881FDAF7880F9695EF
:10236000879597F908959F3F31F0915020F4879514
:1023700077956795B795880F911D9695879597F9ED
:1023800008959FEF80EC089500240A94161617060E
:1023900018060906089500240A9412161306140656
:1023A00005060895092E0394000C11F4882352F0B9
:1023B000BB0F40F4BF2B11F460FF04C06F5F7F4F71
:1023C0008F4F9F4F089557FD9058440F551F59F058
:1023D0005F3F71F04795880F97FB991F61F09F3F12
:1023E00079F087950895121613061406551FF2CF3B
:1023F0004695F1DF08C0161617061806991FF1CF8B
:1024000086957105610508940895E5DFA0F0BEE7A3
:10241000B91788F4BB279F3860F41616B11D672FD3
:10242000782F8827985FF7CF869577956795B11DA8
:1024300093959639C8F30895E894BB2766277727C4
:10244000CB0197F908954ADF08F48FEF08950BD078
:10245000A9CF9ADF28F09FDF18F0952309F062CF0B
:1024600090CF1124EACFAFDFA0F3959FD1F3950F62
:1024700050E0551F629FF001729FBB27F00DB11D08
:10248000639FAA27F00DB11DAA1F649F6627B00D98
:10249000A11D661F829F2227B00DA11D621F739F81
:1024A000B00DA11D621F839FA00D611D221F749F8F
:1024B0003327A00D611D231F849F600D211D822FD6
:1024C000762F6A2F11249F5750408AF0E1F088231D
:1024D0004AF0EE0FFF1FBB1F661F771F881F91502A
:1024E0005040A9F79E3F510570F01CCFA6CF5F3F2B
:1024F000ECF3983EDCF3869577956795B795F7955D
:10250000E7959F5FC1F7FE2B880F911D96958795E4
:1025100097F908951F920F920FB60F9211248F937F
:102520009F93AF93BF93CF93DF93CDB7DEB725973C
:10253000DEBFCDBF80915D0290915E02A0915F02EF
:10254000B091600289839A83AB83BC8380916102DE
:102550008D8389819A81AB81BC810196A11DB11DBA
:1025600089839A83AB83BC838D818D5F8D838D81BD
:102570008D3770F08D818D578D8389819A81AB81E4
:10258000BC810196A11DB11D89839A83AB83BC8355
:102590008D818093610289819A81AB81BC81809316
:1025A0005D0290935E02A0935F02B09360028091FF
:1025B000590290915A02A0915B02B0915C0201967F
:1025C000A11DB11D8093590290935A02A0935B0202
:1025D000B0935C0200000F900F900F900F900F903F
:1025E000DF91CF91BF91AF919F918F910F900FBECF
:1025F0000F901F901895CF93DF9300D000D0CDB7E8
:10260000DEB78FE590E0FC0180818D83F8948091A6
:10261000590290915A02A0915B02B0915C028983A9
:102620009A83AB83BC8386E490E0FC0180818E8337
:1026300085E390E0FC018081882F90E081709927EC
:10264000892B71F08E818F3F59F089819A81AB81FE
:10265000BC810196A11DB11D89839A83AB83BC8384
:102660008FE590E02D81FC01208389819A81AB81E7
:10267000BC812227382F492F5A2F8E81882F90E036
:10268000A0E0B0E0820F931FA41FB51F880F991F11
:10269000AA1FBB1F880F991FAA1FBB1FBC01CD011A
:1026A00026960FB6F894DEBF0FBECDBFDF91CF9157
:1026B0000895CF93DF93CDB7DEB7789484E490E0AC
:1026C000FC01208184E490E02260FC01208384E40A
:1026D00090E0FC01208184E490E02160FC012083F3
:1026E00085E490E0FC01208185E490E02260FC011B
:1026F000208385E490E0FC01208185E490E0216066
:10270000FC0120838EE690E0FC0120818EE690E0C3
:102710002160FC01208381E890E0FC01108281E8C7
:1027200090E0FC01208181E890E02260FC012083A0
:1027300081E890E0FC01208181E890E02160FC01CB
:10274000208380E890E0FC01208180E890E0216017
:10275000FC01208381EB90E0FC01208181EB90E083
:102760002460FC01208380EB90E0FC01208180EB61
:1027700090E02160FC01208381E990E0FC01208150
:1027800081E990E02260FC01208381E990E0FC0176
:10279000208181E990E02160FC01208380E990E0C4
:1027A000FC01208180E990E02160FC01208381EA26
:1027B00090E0FC01208181EA90E02260FC0120830E
:1027C00081EA90E0FC01208181EA90E02160FC0137
:1027D000208380EA90E0FC01208180EA90E0216083
:1027E000FC01208381E291E0FC01208181E291E003
:1027F0002260FC01208381E291E0FC01208181E2E2
:1028000091E02160FC01208380E291E0FC012081C5
:1028100080E291E02160FC0120838AE790E0FC01E6
:1028200020818AE790E02460FC0120838AE790E021
:10283000FC0120818AE790E02260FC0120838AE786
:1028400090E0FC0120818AE790E02160FC01208378
:102850008AE790E0FC0120818AE790E02068FC0193
:10286000208381EC90E0FC0110820000DF91CF9189
:102870000895CF93DF93CDB7DEB7F89481E0DF9171
:10288000CF910895CF93DF931F921F92CDB7DEB7FC
:102890009A8389838FE590E029813A81F90120812B
:1028A000FC01208300000F900F90DF91CF910895DD
:1028B000CF93DF9300D0CDB7DEB79B838A838A8125
:1028C0009B81FC01848D882F90E02A813B81820FBF
:1028D000931F835A9F4FFC01808189838A819B814A
:1028E000FC01848D882F90E001968F739078992356
:1028F00024F40197806C9F6F0196282F8A819B8119
:10290000FC01248F8A819B81FC018689978929811A
:10291000FC0120838A819B81FC0180899189FC01D3
:1029200080818370282F20648A819B81FC018089AB
:102930009189FC0120838A819B81FC01238D8A81FE
:102940009B81FC01948D81E0291709F080E08823A8
:1029500079F08A819B81FC0182899389FC01208125
:102960008A819B81FC01828993892F7DFC012083D0
:1029700000000F900F900F90DF91CF910895CF93AB
:10298000DF9300D000D000D0CDB7DEB79C838B831F
:102990004D835E836F837887298780E099E0ADE37C
:1029A000B0E02D813E814F815885BC01CD010E9450
:1029B0001A20DA01C9010197A109B109B695A795B5
:1029C000979587959A8389838B819C81FC01808967
:1029D000918922E0FC0120838D819E81AF81B885A1
:1029E0008115914EA105B10529F089819A81811542
:1029F0009041F0F08B819C81FC0180899189FC01E0
:102A0000108280E894E8AEE1B0E02D813E814F81F4
:102A10005885BC01CD010E941A20DA01C901019735
:102A2000A109B109B695A795979587959A8389834A
:102A300089819A81292F33278B819C81FC01848590
:102A40009585FC0120838B819C81FC01868597857F
:102A50002981FC0120838B819C81FC01108E8B815C
:102A60009C81FC01848995892985FC0120838B81C7
:102A70009C81FC0182899389FC0120818B819C814E
:102A8000FC01828993892061FC0120838B819C81D8
:102A9000FC0182899389FC0120818B819C81FC014E
:102AA000828993892860FC0120838B819C81FC01B1
:102AB00082899389FC0120818B819C81FC01828920
:102AC00093892068FC0120838B819C81FC01828991
:102AD0009389FC0120818B819C81FC0182899389EF
:102AE0002F7DFC012083000029960FB6F894DEBFED
:102AF0000FBECDBFDF91CF910895CF93DF931F928B
:102B00001F92CDB7DEB79A83898389819A81FC01B0
:102B1000818D882F90E09C01205C3F4F89819A81B4
:102B2000FC01828D882F90E0A901481B590BCA0136
:102B30008F7399270F900F90DF91CF910895CF93C6
:102B4000DF931F921F92CDB7DEB79A838983898165
:102B50009A81FC01218D89819A81FC01928D81E00D
:102B6000291709F080E0882319F08FEF9FEF0FC03D
:102B700089819A81FC01828D882F90E029813A8198
:102B8000820F931F4D96FC018081882F90E00F905B
:102B90000F90DF91CF910895CF93DF9300D0CDB701
:102BA000DEB79B838A838A819B81FC01218D8A8188
:102BB0009B81FC01928D81E0291709F080E0882338
:102BC00019F08FEF9FEF1CC08A819B81FC01828DE1
:102BD000882F90E02A813B81820F931F4D96FC0144
:102BE000808189838A819B81FC01828D8F5F282F60
:102BF0002F738A819B81FC01228F8981882F90E02D
:102C00000F900F900F90DF91CF910895CF93DF93A6
:102C100000D01F92CDB7DEB79C838B838B819C81C4
:102C2000FC01838D89838B819C81FC01848D8A8347
:102C300099818A81981768F08981882F90E02FE325
:102C400030E0281B390B8A81882F90E0820F931F78
:102C50000BC08A81282F30E08981882F90E0A9015C
:102C6000481B590BCA0101970F900F900F900F90BE
:102C7000DF91CF910895CF93DF931F921F92CDB72D
:102C8000DEB79A83898389819A81FC01908D81E0E6
:102C90008927882309F04DC089819A81FC018289A6
:102CA0009389FC018081882F90E080729927892B7D
:102CB00069F489819A81FC0180899189FC01808174
:102CC000882F90E080749927892B11F481E001C04E
:102CD00080E0882379F18FE590E0FC0180818823F2
:102CE0007CF089819A81FC0182899389FC01808131
:102CF000882F90E080729927892B11F081E001C024
:102D000080E0882349F289819A81FC018089918938
:102D1000FC018081882F90E08072992721E0892B27
:102D200009F420E0222309F4B7CF89819A81C0DD1C
:102D3000B3CF00000F900F90DF91CF910895CF9304
:102D4000DF9300D000D01F921F92CDB7DEB79F83D4
:102D50008E8368878E819F8121E0FC01208F8E8188
:102D60009F81FC01238D8E819F81FC01848D28171A
:102D700079F48E819F81FC0180899189FC01808199
:102D8000882F90E080729927892B11F081E001C093
:102D900080E0882359F18FE590E0FC0180818C83ED
:102DA00068DD898389818823D9F08E819F81FC0128
:102DB000868997892885FC0120838E819F81FC016B
:102DC00080899189FC0180818370282F20648E8105
:102DD0009F81FC0180899189FC0120831982E2CFC7
:102DE000CE0104964FDD81E090E06EC08E819F8120
:102DF000FC01838D882F90E001968F739078992342
:102E000024F40197806C9F6F01968B838E819F8144
:102E1000FC01948D81E02B81291709F080E0882343
:102E2000F9F08FE590E0FC0180818095881F88276C
:102E3000881F882359F38E819F81FC0180899189A5
:102E4000FC018081882F90E08072992721E0892BF6
:102E500009F420E02223D1F28E819F8129DDD6CF93
:102E60008E819F81FC01838D882F90E02E813F8190
:102E7000820F931F835A9F4F2885FC0120838FE583
:102E800090E0FC0180818D83F4DC8A838A81882331
:102E9000B1F08E819F812B81FC01238F8E819F81D8
:102EA000FC0182899389FC0120818E819F81FC0134
:102EB000828993892062FC0120831A82E7CFCE01A8
:102EC0000596E0DC81E090E028960FB6F894DEBF2E
:102ED0000FBECDBFDF91CF910895CF93DF931F92A7
:102EE0001F92CDB7DEB79A83898321E432E08981CE
:102EF0009A81FC013183208389819A81FC011382AC
:102F0000128200000F900F90DF91CF910895CF9320
:102F1000DF931F921F92CDB7DEB79A83898380E03B
:102F200090E00F900F90DF91CF910895CF93DF93B2
:102F30001F921F92CDB7DEB79A83898300000F904E
:102F40000F90DF91CF910895CF93DF931F921F923F
:102F5000CDB7DEB79A83898389819A81BEDF2FE25C
:102F600032E089819A81FC013183208329813A8171
:102F700088EE93E0A0E0B0E0F90184839583A68316
:102F8000B78300000F900F90DF91CF910895CF92FB
:102F9000DF92EF92FF920F931F93CF93DF93CDB702
:102FA000DEB72E970FB6F894DEBF0FBECDBF9A8363
:102FB00089837C836B835E834D8338872F831A8755
:102FC0000987FC86EB86DE86CD8689819A81BCDF07
:102FD0002DE132E089819A81FC013183208389814E
:102FE0009A812B813C81FC013587248789819A81D4
:102FF0002D813E81FC013787268789819A812F8127
:103000003885FC01318B208B89819A8129853A850D
:10301000FC01338B228B89819A812B853C85FC01B5
:10302000358B248B89819A812D853E85FC01378BD8
:10303000268B89819A81FC01118E89819A81FC01FC
:10304000128E89819A81FC01138E89819A81FC01FB
:10305000148E00002E960FB6F894DEBF0FBECDBFC3
:10306000DF91CF911F910F91FF90EF90DF90CF9064
:103070000895CF93DF9300D01F92CDB7DEB79C8326
:103080008B838B819C81FC0180899189FC018081EB
:10309000882F90E08470992721E0892B09F020E0A7
:1030A000222371F18B819C81FC0186899789FC0127
:1030B000808189838B819C81FC01818D8F5F8F73DF
:1030C0008A838B819C81FC01928D81E02A81291762
:1030D00009F480E08823D9F08B819C81FC01818DEB
:1030E000882F90E02B813C81820F931F4D96298180
:1030F000FC0120838B819C812A81FC01218F07C0E8
:103100008B819C81FC0186899789FC01808100006C
:103110000F900F900F900F90DF91CF9108951F9215
:103120000F920FB60F9211240BB60F922F933F936D
:103130004F935F936F937F938F939F93AF93BF93BF
:10314000EF93FF93CF93DF93CDB7DEB782E692E0A4
:1031500090DF0000DF91CF91FF91EF91BF91AF9190
:103160009F918F917F916F915F914F913F912F919F
:103170000F900BBE0F900FBE0F901F9018951F92CF
:103180000F920FB60F9211240BB60F922F933F930D
:103190004F935F936F937F938F939F93AF93BF935F
:1031A000EF93FF93CF93DF93CDB7DEB782E692E044
:1031B0007FDB0000DF91CF91FF91EF91BF91AF9145
:1031C0009F918F917F916F915F914F913F912F913F
:1031D0000F900BBE0F900FBE0F901F901895CF92BF
:1031E000DF92EF92FF920F931F93CF93DF9300D064
:1031F0001F92CDB7DEB79A8389837C836B838981E5
:103200009A810197C9F48B819C810196A9F40F2EB4
:10321000F6ECCF2ED12CF02D0F2EF2ECEF2EF12C60
:10322000F02D01EC10E020EC30E044EC50E065ECD7
:1032300070E082E692E0ABDE00000F900F900F90FE
:103240000F90DF91CF911F910F91FF90EF90DF9042
:10325000CF900895CF93DF93CDB7DEB76FEF7FEFB9
:1032600081E090E0BCDFDF91CF9108951F920F9233
:103270000FB60F9211240BB60F922F933F934F93DB
:103280005F936F937F938F939F93AF93BF93EF93CE
:10329000FF93CF93DF93CDB7DEB78FEF92E0E9DEF8
:1032A0000000DF91CF91FF91EF91BF91AF919F917E
:1032B0008F917F916F915F914F913F912F910F90DF
:1032C0000BBE0F900FBE0F901F9018951F920F927C
:1032D0000FB60F9211240BB60F922F933F934F937B
:1032E0005F936F937F938F939F93AF93BF93EF936E
:1032F000FF93CF93DF93CDB7DEB78FEF92E0D8DAAD
:103300000000DF91CF91FF91EF91BF91AF919F911D
:103310008F917F916F915F914F913F912F910F907E
:103320000BBE0F900FBE0F901F901895CF92DF929B
:10333000EF92FF920F931F93CF93DF9300D01F92D2
:10334000CDB7DEB79A8389837C836B8389819A8129
:103350000197C9F48B819C810196A9F40F2EFEEC94
:10336000CF2ED12CF02D0F2EFAECEF2EF12CF02DCC
:1033700009EC10E028EC30E04CEC50E06DEC70E033
:103380008FEF92E004DE00000F900F900F900F90EF
:10339000DF91CF911F910F91FF90EF90DF90CF9031
:1033A0000895CF93DF93CDB7DEB76FEF7FEF81E066
:1033B00090E0BCDFDF91CF9108951F920F920FB67E
:1033C0000F9211240BB60F922F933F934F935F935D
:1033D0006F937F938F939F93AF93BF93EF93FF93DD
:1033E000CF93DF93CDB7DEB78CE993E042DE0000E8
:1033F000DF91CF91FF91EF91BF91AF919F918F910D
:103400007F916F915F914F913F912F910F900BBEE4
:103410000F900FBE0F901F9018951F920F920FB62E
:103420000F9211240BB60F922F933F934F935F93FC
:103430006F937F938F939F93AF93BF93EF93FF937C
:10344000CF93DF93CDB7DEB78CE993E031DA00009C
:10345000DF91CF91FF91EF91BF91AF919F918F91AC
:103460007F916F915F914F913F912F910F900BBE84
:103470000F900FBE0F901F901895CF92DF92EF9292
:10348000FF920F931F93CF93DF9300D01F92CDB77E
:10349000DEB79A8389837C836B8389819A810197C4
:1034A000C9F48B819C810196A9F40F2EF6EDCF2EE5
:1034B000D12CF02D0F2EF2EDEF2EF12CF02D01ED91
:1034C00010E020ED30E044ED50E065ED70E08CE977
:1034D00093E05DDD00000F900F900F900F90DF9153
:1034E000CF911F910F91FF90EF90DF90CF900895B3
:1034F000CF93DF93CDB7DEB76FEF7FEF81E090E042
:10350000BCDFDF91CF9108951F920F920FB60F92FB
:1035100011240BB60F922F933F934F935F936F93AA
:103520007F938F939F93AF93BF93EF93FF93CF932B
:10353000DF93CDB7DEB789E394E09BDD0000DF9138
:10354000CF91FF91EF91BF91AF919F918F917F911B
:103550006F915F914F913F912F910F900BBE0F9004
:103560000FBE0F901F9018951F920F920FB60F92DB
:1035700011240BB60F922F933F934F935F936F934A
:103580007F938F939F93AF93BF93EF93FF93CF93CB
:10359000DF93CDB7DEB789E394E08AD90000DF91ED
:1035A000CF91FF91EF91BF91AF919F918F917F91BB
:1035B0006F915F914F913F912F910F900BBE0F90A4
:1035C0000FBE0F901F901895CF92DF92EF92FF924F
:1035D0000F931F93CF93DF9300D01F92CDB7DEB729
:1035E0009A8389837C836B8389819A810197D9F43B
:1035F0008B819C810196B9F40F2EF6E3CF2EDD244A
:10360000D394F02D0F2EF2E3EF2EFF24F394F02D40
:1036100001E311E020E331E044E351E065E371E0D0
:1036200089E394E0B4DC00000F900F900F900F90AE
:10363000DF91CF911F910F91FF90EF90DF90CF908E
:103640000895CF93DF93CDB7DEB76FEF7FEF81E0C3
:1036500090E0BADFDF91CF9108950F931F93CF933E
:10366000DF9300D01F92CDB7DEB79A8389837C8326
:103670006B838B819C81892B19F480E090E014C0CE
:1036800089819A81FC01808191810296FC010081EF
:1036900011818B819C8172D5AC012B813C81898108
:1036A0009A81B901F80119950F900F900F900F9022
:1036B000DF91CF911F910F910895CF93DF9300D0A9
:1036C00000D01F921F92CDB7DEB79C838B837E8381
:1036D0006D8358874F831A8219828F8198859C0148
:1036E0002150310938872F8321E0892B09F420E00C
:1036F000222319F18B819C81FC0180819181FC0145
:10370000208131818D819E81AC014F5F5F4F5E834F
:103710004D83FC0140818B819C81642FF9011995B7
:1037200021E0892B09F420E0222331F089819A815C
:1037300001969A838983D1CF000089819A81289646
:103740000FB6F894DEBF0FBECDBFDF91CF910895C5
:10375000CF93DF9300D01F92CDB7DEB79A838983D2
:103760007C836B832B813C8189819A81B90175DFD0
:103770000F900F900F900F90DF91CF910895CF93FE
:10378000DF9300D0CDB7DEB79A8389836B838981BD
:103790009A81FC0180819181FC01208131814B81E2
:1037A00089819A81642FF90119950F900F900F90DC
:1037B000DF91CF910895CF93DF9300D01F921F9296
:1037C000CDB7DEB79A8389836B835D834C838B810E
:1037D000882F90E0A0E0B0E02C813D81E981FA8162
:1037E000AC01BD01CF01C0D00F900F900F900F9092
:1037F0000F90DF91CF910895CF93DF9300D000D049
:10380000CDB7DEB79A8389837C836B835E834D83D8
:103810008B819C81092E000CAA0BBB0B2D813E8154
:10382000E981FA81AC01BD01CF012BD026960FB6FC
:10383000F894DEBF0FBECDBFDF91CF910895CF9337
:10384000DF9300D000D0CDB7DEB79A8389837C8325
:103850006B835E834D838B819C81CC01A0E0B0E0C3
:103860002D813E81E981FA81AC01BD01CF017CD07F
:1038700026960FB6F894DEBF0FBECDBFDF91CF9175
:103880000895CF93DF9300D000D000D01F92CDB722
:10389000DEB79C838B834D835E836F8378873A8703
:1038A000298789859A85892B79F48B819C81FC01F4
:1038B00080819181FC01208131814D818B819C81AE
:1038C000642FF901199547C089859A850A97C1F532
:1038D0008D819E81AF81B885BB2334F58B819C811E
:1038E0006DE24DDF9A8389838D819E81AF81B8859A
:1038F000B095A095909581959F4FAF4FBF4F8D8309
:103900009E83AF83B8878D819E81AF81B885EB811F
:10391000FC812AE0AC01BD01CF01B0D19C018981BD
:103920009A81820F931F17C08D819E81AF81B885C8
:10393000EB81FC812AE0AC01BD01CF019FD10BC01E
:1039400029858D819E81AF81B885EB81FC81AC0199
:10395000BD01CF0193D12A960FB6F894DEBF0FBEFA
:10396000CDBFDF91CF910895CF93DF9300D000D0EA
:103970001F921F92CDB7DEB79A8389834B835C83F6
:103980006D837E8338872F838F819885892B79F487
:1039900089819A81FC0180819181FC0120813181A2
:1039A0004B8189819A81642FF90119950BC02F8170
:1039B0008B819C81AD81BE81E981FA81AC01BD0121
:1039C000CF015CD128960FB6F894DEBF0FBECDBFF5
:1039D000DF91CF910895CF93DF9300D000D01F9255
:1039E0001F92CDB7DEB79A8389834B835C836D8347
:1039F0007E8338872F832F818B819C81AD81BE810F
:103A0000E981FA81AC01BD01CF01A3D128960FB69F
:103A1000F894DEBF0FBECDBFDF91CF910895CF9355
:103A2000DF931F921F92CDB7DEB79A838983898176
:103A30009A8168E072E011DE0F900F90DF91CF91D4
:103A40000895CF93DF9300D000D01F92CDB7DEB79B
:103A50009C838B836D835F834E832E813F818B811B
:103A60009C81A9016D81A7DE9A8389838B819C81CA
:103A7000D6DF9C0189819A81820F931F9A83898363
:103A800089819A8127960FB6F894DEBF0FBECDBF0D
:103A9000DF91CF910895CF93DF9300D000D01F9294
:103AA0001F92CDB7DEB79C838B837E836D8358874F
:103AB0004F834F8158852D813E818B819C81B90137
:103AC0009BDE9A8389838B819C81A9DF9C018981FC
:103AD0009A81820F931F9A83898389819A8128967C
:103AE0000FB6F894DEBF0FBECDBFDF91CF91089522
:103AF000CF93DF9300D000D01F921F92CDB7DEB7D7
:103B00009C838B837E836D8358874F834F81588539
:103B10002D813E818B819C81B90191DE9A838983BD
:103B20008B819C817CDF9C0189819A81820F931F0C
:103B30009A83898389819A8128960FB6F894DEBF8B
:103B40000FBECDBFDF91CF910895CF93DF9300D00B
:103B500000D000D01F92CDB7DEB79C838B834D83FE
:103B60005E836F8378873A87298729853A858D8197
:103B70009E81AF81B885EB81FC81AC01BD01CF0195
:103B800080DE9A8389838B819C8149DF9C018981B6
:103B90009A81820F931F9A83898389819A812A96B9
:103BA0000FB6F894DEBF0FBECDBFDF91CF91089561
:103BB000CF93DF9300D000D000D01F92CDB7DEB7F7
:103BC0009C838B834D835E836F8378873A872987B5
:103BD00029853A858D819E81AF81B885EB81FC81F5
:103BE000AC01BD01CF01C0DE9A8389838B819C81AA
:103BF00016DF9C0189819A81820F931F9A838983A2
:103C000089819A812A960FB6F894DEBF0FBECDBF88
:103C1000DF91CF910895CF93DF9300D000D000D0F3
:103C20001F92CDB7DEB79C838B834D835E836F83FA
:103C300078873A87298729853A858D819E81AF814A
:103C4000B885EB81FC81AC01BD01CF01C4DE9A8354
:103C500089838B819C81E3DE9C0189819A81820F1B
:103C6000931F9A83898389819A812A960FB6F89443
:103C7000DEBF0FBECDBFDF91CF910895CF93DF930D
:103C8000CDB7DEB7AB970FB6F894DEBF0FBECDBF92
:103C90009EA38DA34FA358A769A77AA72BA7CE01F0
:103CA000049680969A83898389819A81FC01108287
:103CB0008BA5823010F48AE08BA78BA5282F30E0EB
:103CC00040E050E08FA198A5A9A5BAA5BC01CD01FF
:103CD000B1D1DC01CB018B838BA5282F30E040E0F4
:103CE00050E08FA198A5A9A5BAA5BC01CD01A2D18C
:103CF000DA01C9018FA398A7A9A7BAA78B818A3037
:103D000024F48B81805D282F03C08B81895C282F50
:103D100089819A8101979A83898389819A81FC019B
:103D200020838FA198A5A9A5BAA5892B8A2B8B2BB7
:103D300009F0C3CF29813A818DA19EA1B9018DDC03
:103D4000AB960FB6F894DEBF0FBECDBFDF91CF911B
:103D50000895CF92DF92EF92FF921F93CF93DF935C
:103D6000CDB7DEB768970FB6F894DEBF0FBECDBFF4
:103D70009B8B8A8B4C8B5D8B6E8B7F8B288F1A82F3
:103D800019822C893D894E895F896C897D898E894C
:103D90009F89EBD1882311F081E001C080E0882366
:103DA00031F08A899B896BE072E0D2DC30C18C896A
:103DB0009D89AE89BF896C017D01E894F7F811E017
:103DC0002FEF3FEF4FE75FE7C701B601CED1882362
:103DD00059F42FEF3FEF4FE75FE7C701B6010E94AD
:103DE000A01018160CF410E081E08127882F90E0D5
:103DF0008170882331F08A899B896FE072E0A8DCAA
:103E000006C12FEF3FEF4FE75FE46C897D898E8914
:103E10009F890E942312181634F48A899B8963E1D2
:103E200072E096DCF4C02FEF3FEF4FE75FEC6C8958
:103E30007D898E899F890E94A010882334F48A8905
:103E40009B8963E172E084DCE2C020E030E0A901FC
:103E50006C897D898E899F890E94A0108823A4F493
:103E60008A899B896DE28BDC9C0189819A81820F12
:103E7000931F9A8389838C899D89AE89BF89B058A5
:103E80008C8B9D8BAE8BBF8B80E090E0A0E0BFE37E
:103E90008B839C83AD83BE831F829F81888D9817FF
:103EA00098F420E030E040E251E46B817C818D8128
:103EB0009E81EAD0DC01CB018B839C83AD83BE83E2
:103EC0008F818F5F8F83E9CF2B813C814D815E8114
:103ED0006C897D898E899F890E942910DC01CB0124
:103EE0008C8B9D8BAE8BBF8B6C897D898E899F89D6
:103EF0000E94A410DC01CB018C879D87AE87BF8711
:103F00006C857D858E859F850E94D010DC01CB015C
:103F10009C01AD016C897D898E899F890E94281042
:103F2000DC01CB0188879987AA87BB878C859D8513
:103F3000AE85BF85EA89FB892AE030E0AC01BD018E
:103F4000CF0112DD9C0189819A81820F931F9A8390
:103F50008983888D882359F08A899B896EE20FDCDA
:103F60009C0189819A81820F931F9A838983888D0E
:103F70009FEF980F988F91E0882309F490E09923A0
:103F800009F443C020E030E040E251E468857985DF
:103F90008A859B850E942712DC01CB01888799873F
:103FA000AA87BB87688579858A859B850E94A4102E
:103FB000DC01CB01998B888B288939898A899B8977
:103FC0004AE050E0B9013BDC9C0189819A81820F73
:103FD000931F9A83898388899989CC01A0E0B0E0F6
:103FE000BC01CD010E94D010DC01CB019C01AD01D0
:103FF000688579858A859B850E942810DC01CB0124
:1040000088879987AA87BB87B2CF89819A8168966A
:104010000FB6F894DEBF0FBECDBFDF91CF911F91D9
:10402000FF90EF90DF90CF900895CF93DF93CDB7BF
:10403000DEB7A0D0A1E21A2EAA1BBB1BFD010DC04A
:10404000AA1FBB1FEE1FFF1FA217B307E407F50748
:1040500020F0A21BB30BE40BF50B661F771F881F24
:10406000991F1A9469F760957095809590959B01BA
:10407000AC01BD01CF010895EE0FFF1F881F8BBF5C
:104080000790F691E02D199412D00C94D2110E9451
:10409000CB1158F00E94C41140F029F45F3F29F081
:1040A0000C94921151110C941D120C94C1110E9488
:1040B000E31168F39923B1F3552391F3951B550B45
:1040C000BB27AA2762177307840738F09F5F5F4FEB
:1040D000220F331F441FAA1FA9F335D00E2E3AF02A
:1040E000E0E832D091505040E695001CCAF72BD042
:1040F000FE2F29D0660F771F881FBB1F2617370793
:104100004807AB07B0E809F0BB0B802DBF01FF27C4
:1041100093585F4F3AF09E3F510578F00C949211FE
:104120000C941D125F3FE4F3983ED4F38695779587
:104130006795B795F7959F5FC9F7880F911D96957D
:10414000879597F90895E1E0660F771F881FBB1FD9
:10415000621773078407BA0720F0621B730B840B86
:10416000BA0BEE1F88F7E09508950E946E11880B38
:10417000990B089581E090E0F89409C0FC0101904A
:104180000020E9F7809590958E0F9F1F0895F89471
:02419000FFCF5F
:1041920000008040000000400D0A006E616E006960
:1041A2006E66006F7666004A02000000009F165D90
:1041B2001B06163B167D15CC159F15000000001539
:1041C200205D1B871796171520152015200000006B
:0A41D2000015205D1B8717961700EB
:00000001FF
