:1000000075C00000A4C00000A2C00000A0C0000095
:100010009EC000009CC000009AC0000098C0000074
:1000200096C0000094C0000092C0000090C0000084
:100030008EC000008CC000008AC0000088C0000094
:1000400086C0000084C0000082C0000080C00000A4
:100050007EC000007CC000007AC000000C94963482
:1000600076C000000C94D3360C94093770C00000A1
:100070006EC000006CC000006AC0000068C00000D4
:1000800066C0000064C0000062C0000060C00000E4
:100090000C945F370C9495375AC0000058C000008C
:1000A00056C0000054C0000052C0000050C0000004
:1000B0004EC000004CC000004AC0000048C0000014
:1000C00046C0000044C000000C94EC2F0C94EB37A9
:1000D0000C9421383CC000000C9477380C94AD3857
:1000E00036C000003237BE374A38D63811241FBE1A
:1000F000CFEFD1E2DEBFCDBF00E00CBF13E0A0E048
:10010000B2E0E6EFF7E700E00BBF02C007900D9208
:10011000A831B107D9F72AE0A8E1B3E001C01D92E8
:10012000A333B207E1F710E0C6E7D0E000E006C075
:1001300021970109802FFE010E94C33BC237D107DE
:1001400080E00807A9F70E9436310C94F93B58CF9C
:10015000AB01BC0187E197E00C94643BAB01BC01AF
:1001600084EB97E00C94643BAB01BC0181E598E023
:100170000C94643BAB01BC018EEE98E00C94643BA4
:100180008F929F92AF92BF92CF92DF92EF92FF92A7
:100190000F931F93CF93DF93CDB7DEB77B014A0157
:1001A0005901CDB6DEB69B01220F331F4DB75EB7A6
:1001B000421B530B0FB6F8945EBF0FBE4DBF0DB779
:1001C0001EB70F5F1F4FE82FF0E0EE0FFF1FE05F3D
:1001D000FD4F0190F081E02DC8011995F801D4017F
:1001E000E00EF11EEE15FF0519F081918D93FACF07
:1001F00081E0F50180830FB6F894DEBE0FBECDBE60
:10020000DF91CF911F910F91FF90EF90DF90CF90F2
:10021000BF90AF909F908F9008952F923F924F92F2
:100220005F926F927F928F929F92AF92BF92CF9286
:10023000DF92EF92FF920F931F93CF93DF9300D043
:1002400000D000D01F92CDB7DEB7682E7A876987BD
:10025000742EB52E3C832B8348012A2C312C4E2C36
:10026000512C81E090E0012B11F490E080E0849D1E
:100270009001859D300D949D300D112449855A853E
:10028000420F531F5A834983062D10E0000F111FA0
:10029000F801E050FE4F0190F081E02D199541E00A
:1002A00050E0C114D10411F450E040E0429D9001AF
:1002B000439D300D529D300D1124A981BA812A0F22
:1002C0003B1F821793075CF5E72DFB2D29853A85A7
:1002D0002E0F3F1F3A83298349815A81E417F5077E
:1002E00011F01192F9CFAB81BC811C922A960FB606
:1002F000F894DEBF0FBECDBFDF91CF911F910F915C
:10030000FF90EF90DF90CF90BF90AF909F908F9035
:100310007F906F905F904F903F902F900895C11401
:10032000D10409F441C0F12CE12CF801E050FE4F5A
:10033000FE83ED839801285F3D4F38872F83AD8181
:10034000BE81ED91FC91E214F30474F51995892BAB
:1003500081F4E72DFB2D29853A852E0F3F1F3A8327
:10036000298349815A81E417F50709F4BCCF11921A
:10037000F8CFAF81B885ED91FC911995F601EE0D9E
:10038000FF1D9081981761F021E030E0F601908127
:10039000981302C030E020E0EE24FF24E21AF30AB2
:1003A000FFEFEF1AFF0ACBCF980120503E4F6901B3
:1003B000D901ED91FC911995E981FA818E179F077A
:1003C00084F4E72DFB2D29853A852E0F3F1F3A83B4
:1003D000298349815A81E417F50709F484CF1192E2
:1003E000F8CF2B813C81472D5B2D69857A85862D41
:1003F000C7DE8114910409F479CF7401085F1D4FA1
:10040000C70188199909841595050CF06FCFD6019D
:10041000ED91FC911995892B81F4E72DFB2D298510
:100420003A852E0F3F1F3A83298349815A81E41769
:10043000F50709F458CF1192F8CFD801ED91FC914E
:100440001995F70191917F019817D1F2E72DFB2DB6
:1004500029853A852E0F3F1F3A83298349815A8186
:10046000E417F50709F43FCF1192F8CF87E197E041
:100470000C94C33584EB97E00C94C33581E598E088
:100480000C94C3358EEE98E00C94C33587E197E069
:100490000C94A93584EB97E00C94A93581E598E09C
:1004A0000C94A9358EEE98E00C94A935882311F1AF
:1004B000823071F08330A9F08130E1F426E030E041
:1004C00040E052EC61E070E081E090E00C94972F06
:1004D00026E030E040E052EC61E070E082E090E045
:1004E000F5CF26E030E040E052EC61E070E083E0E0
:1004F00090E0ECCF08952F923F924F925F926F92CF
:100500007F928F929F92AF92BF92CF92DF92EF92A3
:10051000FF920F931F93CF93DF931F92CDB7DEB758
:100520002B013A01D02EE9829C2DCA2CF401EF88D0
:10053000F88C998C6A8D7B8D4C8D843008F0EBC1E2
:10054000823051F0833009F456C0813049F434EBE5
:10055000232E37E0332E04C0A1E52A2EA8E03A2E40
:1005600030E02830310511F424E030E0269D5001C0
:10057000279DB00C369DB00C11240AE010E09923A1
:1005800051F000E110E0913031F008E010E09230DD
:1005900011F002E010E08111E1C0D11031C061150D
:1005A000710529F050E087E197E00E940339A50129
:1005B000B20187E197E00E940339E114F10409F4E4
:1005C000AAC1492D50E0B70187E197E00F90DF9174
:1005D000CF911F910F91FF90EF90DF90CF90BF9040
:1005E000AF909F908F907F906F905F904F903F90D3
:1005F0002F900C9403395EEE252E58E0352EB0CFA7
:10060000BF0187E197E00E943F398981873008F078
:1006100082C1E82FF0E08827EF5EFC4F8F4F0C94EB
:10062000C33B3003430357036D038303970318034E
:10063000AC2CB12CE1E06E1A710808F46CC1D20147
:100640004D915D916D917D912D01B1E0950187E115
:1006500097E0DB1280C00E94273BECCF0E94173A44
:100660006A94AFEF6A1609F456C1F20161912F0145
:10067000F1E0A80187E197E0DF12F0CF0E94113A84
:10068000EFCF0E942C3A6A948FEF681609F443C1A9
:10069000D2016D917D912D01B1E0A80187E197E034
:1006A000DB12EFCF0E94273AEECF0E943C3A6A94C9
:1006B000EFEF6E1609F42FC1D2014D915D916D914E
:1006C0007D912D01B1E0980187E197E0DB12EDCF3C
:1006D0000E94053AECCF0E94E5396A94EFEF6E165E
:1006E00009F419C1D2016D912D01062E000C770B72
:1006F000B1E0A80187E197E0DB12EDCF0E94DF397E
:10070000ECCF0E94E5396A94EFEF6E1609F403C14D
:10071000D2016D917D912D01B1E0A80187E197E0B3
:10072000DB12EFCF0E94DF39EECF0E94F5396A94D9
:10073000EFEF6E1609F4EFC0D2014D915D916D910E
:100740007D912D01B1E0980187E197E0DB12EDCFBB
:100750000E949A39ECCF0E94283B6CCFD11038C050
:100760006115710549F050E0D101ED91FC910280D5
:10077000F381E02DC1011995D101ED91FC91028029
:10078000F381E02DA501B201C1011995E114F10435
:1007900009F4C1C0492D50E0D101ED91FC910280D6
:1007A000F381E02DB701C1010F90DF91CF911F912F
:1007B0000F91FF90EF90DF90CF90BF90AF909F9000
:1007C0008F907F906F905F904F903F902F901994F3
:1007D000BF01C1010E943F39B981B73008F09BC009
:1007E000EB2FF0E08827E850FC4F8F4F0C94C33B71
:1007F000160428043B04500464047604FF03AC2C64
:10080000B12CE1E06E1A710808F485C0D2014D9157
:100810005D916D917D912D01B1E09501C101DB12DA
:1008200077C00E94273BEDCF0E94173A6A94EFEF02
:100830006E1609F470C0D2016D912D01B1E0A801CE
:10084000C101DB12F1CF0E94113AF0CF0E942C3A85
:100850006A94EFEF6E1609F45EC0D2016D917D913E
:100860002D01B1E0A801C101DB12F0CF0E94273AAF
:10087000EFCF0E943C3A6A94EFEF6E1609F44BC03A
:10088000D2014D915D916D917D912D01B1E0980165
:10089000C101DB12EECF0E94053AEDCF0E94E5398F
:1008A0006A94EFEF6E16B9F1D2016D912D01062E0B
:1008B000000C770BB1E0A801C101DB12EFCF0E9461
:1008C000DF39EECF0E94E5396A94EFEF6E1619F129
:1008D000D2016D917D912D01B1E0A801C101DB1222
:1008E000F1CF0E94DF39F0CF0E94F5396A94EFEF23
:1008F0006E1689F0D2014D915D916D917D912D0122
:10090000B1E09801C101DB12EFCF0E949A39EECF1E
:100910000E94283B76CF0F90DF91CF911F910F91CE
:10092000FF90EF90DF90CF90BF90AF909F908F900F
:100930007F906F905F904F903F902F90089590E040
:1009400080E008950F931F93009709F48AC0611502
:10095000710509F486C00091410210914202209174
:100960004302309144020E3F1F4F2F4F3F4F09F07B
:100970006AC0DB014D915D916D917C914093410284
:1009800050934202609343027093440240914102AB
:10099000509142026091430270914402DC01129630
:1009A000ED91FC9180819181A281B3818093660455
:1009B00090936704A0936804B0936904848195813F
:1009C000A681B7818093620490936304A09364042A
:1009D000B093650480859185A285B38580935E047C
:1009E00090935F04A0936004B0936104848595851F
:1009F000A685B78580935A0490935B04A0935C040A
:100A0000B0935D041092560410925704109258044B
:100A1000109259040E94911386EB93E1909319036D
:100A20008093180390931B0380931A030E948012F3
:100A3000009731F421E030E030936B0420936A0496
:100A40001F910F910895009141021091420220914F
:100A5000430230914402FB010083118322833383DC
:100A600095CF8FEF9FEFECCF8F929F92AF92BF9277
:100A7000CF92DF92EF92FF921F93CF93DF934B01C0
:100A80005C0110916D0482E090E090936B04809380
:100A90006A0481149104A104B10441F480916D04AD
:100AA000811104C080916C04C1E08111C0E0C12CAF
:100AB000D12C760180916D04811106C080916C0467
:100AC000811102C0CC23D9F083E090E090936B04B5
:100AD00080936A04CC2381F1CCE9DFEF111102C0CD
:100AE0000E941B17CE01DF91CF911F91FF90EF90D5
:100AF000DF90CF90BF90AF909F908F9008956AE065
:100B000070E080E090E00E94113580E1C80E87E23D
:100B1000D81EE11CF11C8FEF88169806A806B806AF
:100B200031F0C1E08C149D04AE04BF0408F0C0E0B5
:100B300080E00E94B412BECFD0E0C0E0CFCFCF9211
:100B4000DF92EF92FF920F931F93CF93DF938F3F2C
:100B5000910511F008F051C020916A0430916B04A6
:100B60002330310539F020916A0430916B04213033
:100B7000310531F424E030E030936B0420936A04B3
:100B80006A017B01EC0182309105A8F011E0AE0111
:100B9000C701B6010E947F12AB01BC01CE01112337
:100BA000F9F0DF91CF911F910F91FF90EF90DF90BF
:100BB000CF900C9440198C01000F111F085E1C4F40
:100BC000D8018D919C91892B09F30E944A190297B3
:100BD000E9F6D801ED91FC91CE011995182FD7CFE8
:100BE0000E94621990E080E0DF91CF911F910F91F8
:100BF000FF90EF90DF90CF9008958FEF9FEFF4CFAD
:100C000080E00C94B412CF93DF9386E090E0909351
:100C10006B0480936A040E940D13EC01E8E1F3E099
:100C200084E0DF011D928A95E9F70E94B3161092C5
:100C30006B0410926A04CE01DF91CF9108958091E8
:100C40006C04089580915504089560934102709357
:100C50004202809343029093440290E080E0089522
:100C6000CF92DF92EF92FF926B017C010E947C1188
:100C7000882379F0C090250AD090260AE090270AB0
:100C8000F090280AC701B601FF90EF90DF90CF9057
:100C90000895C701B6010E9437118111EBCF20E002
:100CA00030E0A901C701B6010E943F32882329F133
:100CB00020E030E048EC52E4C701B6010E94333333
:100CC0006B017C0120E030E0A9010E943F328823C3
:100CD000A1F020E030E0A901C701B6010E943F3237
:100CE00087FFD0CF20E030E048EC52E4C701B601E6
:100CF0000E94C8316B017C01C5CFC12CD12C76017B
:100D0000C1CFCF92DF92EF92FF926B017C010E94E4
:100D10007C11882379F0C090250AD090260AE090B3
:100D2000270AF090280AC701B601FF90EF90DF90E4
:100D3000CF900895C701B6010E9437118111EBCF02
:100D400020E030E0A901C701B6010E943F328823AC
:100D500029F120E030E040E853E4C701B6010E94E9
:100D600033336B017C0120E030E0A9010E943F3267
:100D70008823A1F020E030E0A901C701B6010E945C
:100D80003F3287FFD0CF20E030E040E853E4C70196
:100D9000B6010E94C8316B017C01C5CFC12CD12C9A
:100DA0007601C1CFFC0191E080911E04811190E099
:100DB00092830895CF92DF92EF92FF926B017C01B4
:100DC0009F7720E030E040E859E50E943F3287FFFE
:100DD0002BC020E030E040E05FE3C701B6010E9495
:100DE0002F3487FD0EC020E030E040E05FE3C70114
:100DF000B6010E94C831FF90EF90DF90CF900C9425
:100E0000193320E030E040E05FEBC701B6010E94FB
:100E10002F34181684F420E030E0A901C701B60190
:100E20000E9433346B017C01C701B601FF90EF9043
:100E3000DF90CF90089520E030E040E05FE3C7010D
:100E4000B6010E94C731FF90EF90DF90CF900C94D5
:100E50002C32E091C503F091C603A5E9B9E04D91AC
:100E60005D916D917C91139740835183628373836D
:100E700014968D919D910D90BC91A02D84839583A6
:100E8000A683B78308952F923F924F925F926F92FD
:100E90007F928F929F92AF92BF92CF92DF92EF920A
:100EA000FF920F931F93CF93DF93CDB7DEB7AC972D
:100EB0000FB6F894DEBF0FBECDBF8091280490918D
:100EC000290498A78FA3019709F03DC160910C04F4
:100ED00070910D0480910E0490910F046F5F7F4F0D
:100EE0008F4F9F4F0E94DC322091100430911104EB
:100EF00040911204509113040E94333460934603CE
:100F000070934703809348039093490380911E0494
:100F100090911D04911105C091E0811190E0909392
:100F20001F048F5F8A3008F428C610921E04A12C7B
:100F3000D12CC12CE12C10E000E02AEA39E049EA8A
:100F400059E061E070E081E068D91092AE09DE01FD
:100F500011967D01CE010B968D01F80111928F0142
:100F60008E179F07D1F78091AA098130C9F4D090DC
:100F7000A9099091180A911148C1FAEADF1210C02C
:100F8000D0920D0A40E050E060E87FE34093070A0A
:100F90005093080A6093090A70930A0A8093180A0A
:100FA0008091AE09882309F46FC081E08093170A0D
:100FB0006B8170E090E080E00E94DC3220E030E065
:100FC00048EC52E40E9443326B017C016A8170E07C
:100FD00090E080E00E94DC329B01AC01C701B601C9
:100FE0000E94C83120E030E040E251E40E943334F6
:100FF0006093FB097093FC098093FD099093FE09AF
:101000006D8170E090E080E00E94DC3220E030E012
:1010100048EC52E40E9443326B017C016C8170E029
:1010200090E080E00E94DC329B01AC01C701B60178
:101030000E94C83120E030E040E251E40E943334A5
:101040006093FF097093000A8093010A9093020A4B
:101050006E8170E090E080E00E94DC3220E030E0C1
:1010600040E251E40E9433346093030A7093040A0F
:101070008093050A9093060A8F8180930C0A8885D5
:1010800087FD8FE780930B0A8091170A8093AD0943
:10109000C090FB09D090FC09E090FD09F090FE099A
:1010A000C0929D09D0929E09E0929F09F092A009FA
:1010B0008091FF099091000AA091010AB091020A63
:1010C0008093A1099093A209A093A309B093A409C6
:1010D0004090030A5090040A6090050A7090060A36
:1010E0004092A5095092A6096092A7097092A8099A
:1010F00080910C0A8093AB0960910B0A6093AC0954
:1011000080914002680240011124B401092C000CB6
:10111000880B990B0E94DE3220E030E040E85DE36E
:101120000E943334A30192010E94C831A7019601A5
:101130000E94C7316093950970939609809397092F
:101140009093980917C0AFA1B8A5AB2B99F4E09183
:101150007603F09177030190F081E02D80819181F9
:10116000A281B381E0912B04F0912C0480839183C0
:10117000A283B383E0912B04F0912C04FCA7EBA78E
:10118000C080D180E280F380F091D309FB87809109
:10119000D4098B8B9091D5099D8BA091D609A98FED
:1011A0000091DB091091DC09A090DD09B090DE0907
:1011B000A70196016F2F782F892F9A2F0E942F3425
:1011C0009801A50187FD62C0C701B6010E943F32A8
:1011D000412C512C320118160CF095C09801A50134
:1011E0006B857B898D89998D0E943F3287FD56C022
:1011F0004090DF095090E0096090E1097090E209A9
:10120000702F612F9A2D8B2D5EC020E030E040E8DA
:101210005FE36091070A7091080A8091090A909132
:101220000A0A0E94C8314B015C018092070A909221
:10123000080AA092090AB0920A0A0E94AB326155CC
:10124000764F635A7F4FDB01DC9220E030E040E2D2
:1012500051E4C501B4010E943F328111A1CEEDE0FD
:10126000FAE08191D7018D937D010A171B07C9F719
:1012700081E08093AE091092070A1092080A10923A
:10128000090A10920A0A1092180A8ACE6B857B8985
:101290008D89998D0E943F3287FF09C09801A50171
:1012A000C701B6010E942F3418160CF4A1CF40904C
:1012B000D7095090D8096090D9097090DA097B85D8
:1012C0006B899D89898D272F362F492F582FC7016C
:1012D000B6010E94C7316F87788B898B9A8BA301E7
:1012E000920160919509709196098091970990916A
:1012F00098090E94C7312F85388949895A890E94E7
:1013000043322B013C01EFA1F8A5319709F089C0C8
:1013100080911F04882309F45AC0209195093091C7
:101320009609409197095091980960911C0270911B
:101330001D0280911E0290911F020E9433346F871C
:10134000788B898B9A8B20918D0930918E094091F1
:101350008F0950919009609124027091250280912B
:101360002602909127020E9433349B01AC016F85C5
:10137000788989899A890E94C8316F87788B898B8F
:101380009A8B209118023091190240911A025091C3
:101390001B02C301B2010E9433349B01AC016F8573
:1013A000788989899A890E94C831209128023091D0
:1013B000290240912A0250912B020E9433346093FB
:1013C000E3097093E4098093E5099093E609B40179
:1013D000990C880B990B0E94DE3220E030E040E847
:1013E0005DE30E9433349B01AC016091A5097091CB
:1013F000A6098091A7099091A8090E94C731209160
:10140000A1093091A2094091A3095091A4090E9419
:10141000C7316093990970939A0980939B099093BF
:101420009C09F091E709FF878091E8098F8F9091DF
:10143000E9099B8FA091EA09ABA39090EF098090F6
:10144000F0097090F1096090F209A70196016F2FE1
:10145000782F892F9A2F0E942F34292D382D472D30
:10146000562D87FD1CC0C701B6010E943F321816D9
:101470000CF03BC3292D382D472D562D6F857F8DC0
:101480008B8D9BA10E943F3287FD11C02090F309F4
:101490003090F4094090F5095090F6091EC06F8510
:1014A0007F8D8B8D9BA10E943F3287FF0AC0292D23
:1014B000382D472D562DC701B6010E942F3418161E
:1014C0002CF32090EB093090EC094090ED095090FE
:1014D000EE099F848F8C7B8C6BA0292D382D472D96
:1014E000562DC701B6010E94C7316B017C01A201D4
:1014F00091016091990970919A0980919B0990914D
:101500009C090E94C731A70196010E9443326B01DA
:101510007C01EFA1F8A5319709F057C080911F0415
:10152000882309F452C02091990930919A09409179
:101530009B0950919C096091300270913102809119
:101540003202909133020E9433342B013C012091EE
:1015500091093091920940919309509194096091B9
:1015600038027091390280913A0290913B020E94B8
:1015700033349B01AC01C301B2010E94C8312B017D
:101580003C0120912C0230912D0240912E0250916D
:101590002F02C701B6010E9433349B01AC01C30185
:1015A000B2010E94C83120913C0230913D0240912D
:1015B0003E0250913F020E9433346093F7097093CA
:1015C000F8098093F9099093FA0980912804909181
:1015D0002904019709F069C0C090210AD090220A1D
:1015E000E090230AF090240AABA5BCA54D905D9035
:1015F0006D907C90A70196016B857B898D89998D73
:101600000E943F32811175C24092D3095092D40991
:101610006092D5097092D609E7EDF9E080919509BD
:1016200090919609A0919709B09198098083918330
:10163000A283B3838091E7099091E809A091E90919
:10164000B091EA098B879C87AD87BE879C01AD016D
:10165000C701B6010E943F32ABA5BCA58D909D90FD
:10166000AD90BC90811163C28092E7099092E80925
:10167000A092E909B092EA09EBEEF9E080919909AC
:1016800090919A09A0919B09B0919C0980839183C4
:10169000A283B38340911404509115046091160401
:1016A0007091170481E090E04ADA809128049091CB
:1016B0002904019709F000C2E0917603F0917703C5
:1016C0000190F081E02D80819181A281B3818D8B89
:1016D0009E8BAF8BB88F8091460390914703A0916A
:1016E0004803B09149038F8F98A3A9A3BAA3E091AF
:1016F0004A03F0914B03C080D180E280F380E091F7
:101700007A03F0917B0300811181E0913E03F09117
:101710003F0320803180A281B381BC87AB87848165
:1017200095819C8B8B8B9681998FA781AF87E09158
:101730003C03F0913D031182108288E0F801D10151
:1017400001900D928A95E1F7E0917403F091750391
:101750008B859C85918380837CDB20E030E040E0BA
:101760005FE3C701B6010E9433342B013C01AB8516
:10177000BC852D913D914D915C910E943334F101D6
:1017800020813181428153810E94C831D8016D93FB
:101790007D938D939C931397EB85FC8524813581F4
:1017A00046815781C301B2010E943334D10114969E
:1017B0002D913D914D915C9117970E94C831F80190
:1017C0006483758386839783E0917603F091770332
:1017D000A080B180A30192016D897E898F89988D47
:1017E0000E94C831D5016D937D938D939C9313977F
:1017F000E0917403F09175038B899C8991838083B8
:1018000042DB27DB20E030E0A901C701B6010E94DE
:1018100033344B015C0120E030E040E45FE3C7017A
:10182000B6010E9433342B013C01AB89BC892D9158
:101830003D914D915C910E9433346B8F7C8F8D8FE5
:101840009E8FEB85FC852081318142815381C501CA
:10185000B4010E9433349B01AC016B8D7C8D8D8D66
:101860009E8D0E94C831D1012D913D914D915C9189
:101870000E94C831F8016083718382839383AB85B2
:10188000BC8514962D913D914D915C911797C501A2
:10189000B4010E9433344B015C01EB89FC89248143
:1018A000358146815781C301B2010E9433349B01C7
:1018B000AC01C501B4010E94C831D10114962D912B
:1018C0003D914D915C9117970E94C831F801648356
:1018D000758386839783E0917603F0917703A080E8
:1018E000B180A30192016D897E898F89988D0E94B4
:1018F000C831D5016D937D938D939C931397E0919F
:101900007403F0917503B98DB0838F858183BBDA41
:10191000A0DA29E33EE843E65EE3C701B6010E9490
:1019200033346B8F7C8F8D8F9E8F2BEA3AEA4AEA95
:101930005EE3C701B6010E9433346BA37CA38DA381
:101940009EA329E33EE843EE5EE3C701B6010E9491
:1019500033346FA378A789A79AA7998D9D8BAF85FC
:10196000AE8BF1013896FA8FE98FF1018191919157
:10197000A191B1911F018F87988BA98BBA8BAB85F1
:10198000BC856D917D918D919D91BC87AB87EB89D5
:10199000FC894190519061907190FC8BEB8BAD89EB
:1019A000BE89CD90DD90ED90FD90BE8BAD8B2B8DE3
:1019B0003C8D4D8D5E8D0E9433344B015C012BA11B
:1019C0003CA14DA15EA1C301B2010E9433349B0131
:1019D000AC01C501B4010E94C8314B015C012FA1CB
:1019E00038A549A55AA5C701B6010E9433349B0109
:1019F000AC01C501B4010E94C8312F8538894989DD
:101A00005A890E94C831F80161937193819391932F
:101A10008F01898D9A8D8215930509F0A6CFE091EB
:101A20007603F09177030190F081E02D8F8D98A1DE
:101A3000A9A1BAA180839183A283B383E0913C03DF
:101A4000F0913D0381E090E09183808380910C04CC
:101A500090910D04A0910E04B0910F040196A11D68
:101A6000B11D80930C0490930D04A0930E04B093C9
:101A70000F048091460390914703A0914803B091D1
:101A80004903E0912B04F0912C0480839183A2837D
:101A9000B3838091140490911504A0911604B09121
:101AA00017040196A11DB11D809314049093150491
:101AB000A0931604B0931704AC960FB6F894DEBF4B
:101AC0000FBECDBFDF91CF911F910F91FF90EF908F
:101AD000DF90CF90BF90AF909F908F907F906F904E
:101AE0005F904F903F902F900895C12CD12C76019C
:101AF00010CD9801A501C701B6010E943F328111A6
:101B00000BC04092DB095092DC096092DD097092B3
:101B1000DE09EFEDF9E082CD9801A5016B857B89A7
:101B20008D89998D0E943F3287FFEBCF6DCD40901C
:101B3000EF095090F0096090F1097090F209A3014B
:101B40009201C701B6010E943F3281110BC0809201
:101B5000EF099092F009A092F109B092F209E3EF37
:101B6000F9E08CCDA30192016B857C858D859E85E6
:101B70000E943F3287FFEBCF77CD80931E04D7C9F9
:101B80004F925F926F927F928F929F92AF92BF928D
:101B9000CF92DF92EF92FF920F93CF93DF9300D01B
:101BA00000D01F92CDB7DEB7C090E309D090E40912
:101BB000E090E509F090E609C701B6010E941933EB
:101BC0004B015C0120E030E040E853E40E943F32EA
:101BD00087FF64C120E030E0A901C501B4010E9483
:101BE0002F3487FD59C1C501B4010E94B032698309
:101BF00020E030E048EC52E4C701B6010E943334E3
:101C00002FD80E9419336B017C0120E030E040E8BE
:101C100053E40E943F3287FF46C120E030E0A90133
:101C2000C701B6010E942F3487FD3BC1C701B60131
:101C30000E94B0326A834090F7095090F809609092
:101C4000F9097090FA09C301B2010E9419336B01BE
:101C50007C0120E030E040E853E40E943F3287FFFF
:101C600027C120E030E0A901C701B6010E942F344E
:101C700087FD1CC1C701B6010E94B0326B8320E012
:101C800030E048EC52E4C301B2010E9433340E94B8
:101C900030060E9419332B013C0120E030E040E87F
:101CA00053E40E943F3287FF08C120E030E0A901E1
:101CB000C301B2010E942F3487FDFDC0C301B201F0
:101CC0000E94B0326C8320E030E040E853E4C5016C
:101CD000B4010E943F3287FFF5C020E030E0A90147
:101CE000C501B4010E942F3487FDEAC0C501B401CB
:101CF0000E94B0326E8320E030E040E853E4C70138
:101D0000B6010E943F3287FFE2C020E030E0A90127
:101D1000C701B6010E942F3487FDD7C0C701B601A5
:101D20000E94B0326F838E819A81890F9927991F03
:101D30006F81860F911D6C81680F792F711D072EA1
:101D4000000C880B990B0E94DE320E9481069B01D9
:101D5000AC0160E070E080E893E40E94C7310E942B
:101D6000810628D86B017C0120E030E040E853E494
:101D70000E943F3287FFB0C020E030E0A901C701D8
:101D8000B6010E942F3487FDA5C0C701B6010E948D
:101D9000B0326D8385E58E838AEA8F836091C509B1
:101DA0007091C6098091C7099091C8090E94B0320C
:101DB000C62E6091BD097091BE098091BF099091B6
:101DC000C0090E94B032E62E6091C1097091C2092B
:101DD0008091C3099091C4090E94B032062F60918E
:101DE000B9097091BA098091BB099091BC090E9410
:101DF000B032F62E6091B5097091B6098091B7099D
:101E00009091B8090E94B032862F91E09F939E0175
:101E1000295F3F4F3F932F939F93215031093F9369
:101E20002F93912C812C92E0A92E2F2D45E050E08C
:101E3000BE016F5F7F4F0E947B02809118049091DA
:101E40001904A0911A04B0911B040196A11DB11DA3
:101E50008093180490931904A0931A04B0931B0460
:101E60000F900F900F900F900F900F9027960FB636
:101E7000F894DEBF0FBECDBFDF91CF910F91FF90E1
:101E8000EF90DF90CF90BF90AF909F908F907F901A
:101E90006F905F904F9008951982AACE8FEF89833B
:101EA000A7CE1A82C8CE8FEF8A83C5CE1B82E7CE1B
:101EB0008FEF8B83E4CE1C8206CF8FEF8C8303CF12
:101EC0001E8219CF8FEF8E8316CF1F822CCF8FEFFC
:101ED0008F8329CF1D825ECF8FEF8D835BCFCF9213
:101EE000DF92EF92FF920F931F93CF93DF9384E0E3
:101EF00090E086D1E6E3F3E088E294E0978386837E
:101F0000CBE2D4E0D0937703C093760300E114E0F2
:101F1000158B048B25EC33E037AF26AF6FEB73E006
:101F200070937B0360937A0324E034E03093790369
:101F30002093780326E034E030937D0320937C03E4
:101F400021EC33E030937F0320937E0323EC33E0D6
:101F5000309381032093800347EC53E05093BD03FB
:101F60004093BC03F093A103E093A003F583E483C3
:101F700021E030E0DC012D933C931092B7031092E6
:101F8000BE038CEE93E02CEC33E0DC012D933C930C
:101F900024ED33E03093EF032093EE032CED33E098
:101FA0003093F1032093F00324EE33E03093F303F6
:101FB0002093F2032DE839E0DB012D933C936BE88D
:101FC00079E0DA016D937C93109220041092210441
:101FD0001092220410922304918780878AE692E06F
:101FE000938782878DE294E09983888340E050E074
:101FF00066E973E440932404509325046093260417
:10200000709327044AE057ED63E27CE3D8014D93D7
:102010005D936D937C931397C4EFD3E08CEA9CEAB5
:10202000AAE1BEEA88839983AA83BB838DE490ECFE
:10203000ABEBBBEF8093F8039093F903A093FA0303
:10204000B093FB038AE997E5A0E1BAE68093FC032D
:102050009093FD03A093FE03B093FF0386E596EBF8
:10206000A5E7B3E28093000490930104A0930204D7
:10207000B0930304AAE2B3E0B383A283ECE1F3E0FC
:102080001196FC93EE938FE692E091838083938385
:1020900082839583848397838683918780879387C0
:1020A0008287958784878AE094E015969C938E9327
:1020B00014971396DC93CE93129740E355E760E0B4
:1020C00070E018964D935D936D937C931B97809170
:1020D000210A9091220AA091230AB091240ACFEA02
:1020E000D9E08CA39DA3AEA3BFA38CA79DA7AEA749
:1020F000BFA708E112E0F80140855185628573852C
:10210000F901408351836283738388AF99AFAAAF8B
:10211000BBAF8093EF099093F009A093F109B093BE
:10212000F209F801848D958DA68DB78DF901848310
:102130009583A683B7831882C12CD12C7601C394D2
:10214000C982DA82EB82FC8280E090E0A0E8BFE303
:102150008E839F83A887B9878A879B87AC87BD8733
:102160001E861F86188A198A1A8A1B8A1C8A1D8A4B
:102170001E8A1F8A188E198E81E00E94560211E075
:102180001D831C8ECD8EDE8EEF8EF8A281E00E9424
:10219000560219A3DF91CF911F910F91FF90EF90FD
:1021A000DF90CF9008958091CB09811103C081E029
:1021B0008093CB098091AF09811103C081E08093A6
:1021C000AF09089560E070E080E89FE7089560E05F
:1021D00070E080E89FE7089560E070E080E89FEF9E
:1021E000089560E070E080E89FEF089560E070E09F
:1021F00080EC9FEF089560E070E080EC9FEF089521
:10220000F5DF6093250A7093260A8093270A90933E
:10221000280AF1DF6093190A70931A0A80931B0A47
:1022200090931C0ACFDF6093210A7093220A809357
:10223000230A9093240ACBDF60931D0A70931E0A31
:1022400080931F0A9093200AC7DF6093290A709336
:102250002A0A80932B0A90932C0AC3DF60932D0ADD
:1022600070932E0A80932F0A9093300A0895CF928C
:10227000DF92EF92FF92CF936B017C01AC019B0147
:102280006091210A7091220A8091230A9091240A78
:102290000E943F32C1E0882371F0A701960160914E
:1022A000290A70912A0A80912B0A90912C0A0E9487
:1022B0003F328111C0E08C2FCF91FF90EF90DF90E3
:1022C000CF9008950F931F938B019C010027112736
:1022D00020783F770115110520483F4749F4AB01AD
:1022E000BC016F77772781E0452B462B472B09F4FC
:1022F00080E01F910F910895E5CF4F925F926F920A
:102300007F928F929F92AF92BF92CF92DF92EF9285
:10231000FF920F931F93F894409045045090460409
:102320006090470470904804C0903904D0903A04FB
:10233000E0903B04F0903C044130510509F0A4C00A
:102340009B01AC01241935094609570929013A01B5
:1023500000914104109142042091430430914404BF
:1023600048015901840C951CA61CB71C80169106C7
:10237000A206B306A0F400913D0410913E04209102
:102380003F04309140040F5F1F4F2F4F3F4F00938A
:102390003D0410933E0420933F0430934004809208
:1023A000410490924204A0924304B09244040091EC
:1023B0003D0410913E0420913F04309140048092EE
:1023C000490490924A04A0924B04B0924C040093AA
:1023D0004D0410934E0420934F04309350046093A7
:1023E0004504709346048093470490934804A0E109
:1023F000B7E2A30192010E94CB3B6C0D7D1D8E1DA7
:102400009F1D6093390470933A0480933B0490932A
:102410003C0400914102109142022091430230910C
:1024200044020F3F1F4F2F4F3F4FF1F000914102E9
:102430001091420220914302309144020E3F1F4FFF
:102440002F4F3F4F89F0C0904102D0904202E09060
:102450004302F090440221E08C149D04AE04BF04BA
:1024600008F420E02093550478941F910F91FF9079
:10247000EF90DF90CF90BF90AF909F908F907F9024
:102480006F905F904F9008954B015C018418950800
:10249000A608B708A3019201261B370B480B590B5E
:1024A0006415750586059705D0F082169306A40677
:1024B000B50640F420E030E0A90181149104A104A4
:1024C000B10491F4A0E1B7E20E94CB3BA7019601D1
:1024D000261B370B480B590BCA01B901C5CF821611
:1024E0009306A406B50670F7A0E1B7E2A501940132
:1024F0000E94CB3B6C0D7D1D8E1D9F1DB5CFFDCE6B
:10250000CF93DF9300D01F92CDB7DEB71C821B8222
:102510001A8219821092510410925204109253049C
:1025200010925404BE016F5F7F4FCE0103960E944C
:10253000812F69817A818B819C810E946F2800970D
:1025400061F4BE016F5F7F4FCE0103960E948D2F15
:1025500069817A818B819C812BD50F900F900F9090
:102560000F90DF91CF910895FF920F931F93CF9318
:10257000DF93082F60E070E0CB010E941135FF244B
:10258000F3940E945827EC01892B89F010E0CE3F8C
:102590008FEFD80769F0002361F160E070E0CB01B4
:1025A0000E94113581E090E0892B59F322C011E09F
:1025B00022D5EC01892B21F0CE3F8FEFD80759F7B8
:1025C00011111EC011E0229609F410E00E940827A4
:1025D000EC01892B21F0CE3F8FEFD807E1F61111E6
:1025E00011C011E0CE3F8FEFD80709F410E00111C0
:1025F0000BC0CE01DF91CF911F910F91FF900895F5
:1026000011E0E4CF11E0F3CF60E070E0CB010E9475
:1026100011351F25812F90E0C7CFCF93DF93809195
:102620005504882321F060E070E0CB0149D632D612
:10263000D0E0C0E0892B71F06AE070E080E090E0CB
:102640000E94113581E090DF25D62196C03D27E01C
:10265000D20781F724D60E94C32810926D041092ED
:102660006C04109266041092670410926804109231
:102670006904109262041092630410926404109230
:10268000650410925E0410925F0410926004109230
:10269000610410925A0410925B0410925C04109230
:1026A0005D04109256041092570410925804109230
:1026B00059044EEF5FEF6FEF7FEF4093410250936D
:1026C0004202609343027093440210925504E9E47D
:1026D000F4E028E0DF011D922A95E9F71092450405
:1026E000109246041092470410924804109241043C
:1026F00010924204109243041092440410923D043C
:1027000010923E0410923F0410924004109239043B
:1027100010923A0410923B0410923C04DF91CF9146
:1027200008951092790410927A0410927B0410920A
:102730007C0410927804809181049091820490939B
:1027400077048093760410927504109274041092AA
:10275000700410927104109272041092730410921B
:102760007E0410927D0490E080E00895CF92DF9285
:10277000EF92FF920F931F93CF938C01019709F073
:1027800055C020918104309182048091760490910B
:1027900077044091810450918204509377044093D0
:1027A00076042817390781F010927504109274048A
:1027B00010927004109271041092720410927304BB
:1027C00010927E0410927D04809181049091820485
:1027D000019761F580917D0490917E04892B21F40D
:1027E00080914502811112C080917D0490917E04F8
:1027F0000197E1F48091700490917104A0917204AA
:10280000B09173040197A105B10581F41092700491
:102810001092710410927204109273041092450287
:1028200082E090E090937E0480937D048091810407
:1028300090918204019709F01CC1809197049091B6
:1028400098048017910709F014C180919304909126
:102850009404A0919504B0919604009709F409C1DD
:102860002091920421110DC0409193045091940441
:102870006091950470919604452B462B472B09F4E3
:10288000F8C020917D0430917E042230310509F09A
:10289000F0C0209174042111ECC0FC01C080D180F3
:1028A000E280F38080917804882309F4D3C080917A
:1028B000840490918504892B09F4FEC0209184043E
:1028C0003091850481E02230310509F080E02091CB
:1028D000840430918504C1E02130310549F0209114
:1028E000840430918504C1E02230310509F0C0E054
:1028F000882309F456C020918E0430918F044091B2
:10290000900450919104C701B6010E942F3487FDB5
:1029100014C020918E0430918F0440919004509106
:1029200091046091790470917A0480917B04909174
:102930007C040E943F3287FD22C020918E0430919A
:102940008F044091900450919104C701B6010E94F8
:102950002F34181634F520918E0430918F04409155
:102960009004509191046091790470917A0480915F
:102970007B0490917C040E943F32811112C08091AF
:10298000860490918704A0918804B0918904892BD2
:102990008A2B8B2B19F481E08093750481E080935E
:1029A0007404CC2309F456C020918E0430918F0416
:1029B0004091900450919104C701B6010E943F32AA
:1029C00087FF14C020918E0430918F0440919004B1
:1029D000509191046091790470917A0480917B0404
:1029E00090917C040E942F3487FF22C020918E0496
:1029F00030918F044091900450919104C701B60129
:102A00000E943F32811126C020918E0430918F04A4
:102A100040919004509191046091790470917A04EE
:102A200080917B0490917C040E942F34181694F4BA
:102A30008091860490918704A0918804B0918904C4
:102A4000892B8A2B8B2B19F481E08093750481E00C
:102A50008093740481E090917404911180E08093DC
:102A60007804C0927904D0927A04E0927B04F092C8
:102A70007C040130110509F067C180917D049091BB
:102A80007E04892BD9F410928304109274048091EF
:102A90004502882379F082E090E090937E04809351
:102AA0007D0410924502209181043091820481E0DE
:102AB000232BE9F080E01BC081E009CF1092450292
:102AC00080918304882349F01092750410927E044B
:102AD00010927D0410928304EDCF80918104909137
:102AE0008204892BE1F08091740410927404209187
:102AF0007D0430917E042230310509F45EC088F4F3
:102B00002115310509F448C02130310509F4F3C01D
:102B100010927504109274041092830438C081E0FE
:102B2000E6CF2330310509F4B1C02430310581F7F7
:102B3000409170045091710460917204709173041B
:102B4000411551056105710561F041505109610957
:102B500071094093700450937104609372047093F0
:102B600073044091700450917104609172047091EB
:102B70007304452B462B472BD9F420917F043091C9
:102B800080042130310509F046C01092750410927E
:102B90007E0410927D040CC080914502882341F090
:102BA00082E090E090937E0480937D041092450231
:102BB00010926E0480917504CEC08823C9F3809171
:102BC000860490918704A0918804B0918904181616
:102BD00019061A061B060CF07DC0809181049091A5
:102BE0008204019709F076C0809186049091870451
:102BF000A0918804B091890480937004909371042B
:102C0000A0937204B093730483E090E090937E04E9
:102C100080937D04CDCF40918A0450918B046091C4
:102C20008C0470918D04452B462B472BA9F01092F4
:102C3000750480918A0490918B04A0918C04B091CA
:102C40008D048093700490937104A0937204B093E8
:102C5000730481E090E0DACF882399F080914602F6
:102C600090914702A0914802B0914902809370046C
:102C700090937104A0937204B093730484E090E085
:102C8000C5CF1092750482E090E0C0CF80917004AF
:102C900090917104A0917204B09173040097A10502
:102CA000B10559F00197A109B1098093700490937F
:102CB0007104A0937204B093730480917004909196
:102CC0007104A0917204B0917304892B8A2B8B2B11
:102CD00009F06ECF8091460290914702A091480280
:102CE000B0914902892B8A2B8B2B09F44ECF81E0BE
:102CF00080937504B3CF409170045091710460913A
:102D0000720470917304411551056105710561F0FC
:102D10004150510961097109409370045093710445
:102D20006093720470937304409170045091710425
:102D30006091720470917304452B462B472B09F068
:102D400037CF8111C7CF9FCF80916E04882309F4BC
:102D500031CF80916F04CF911F910F91FF90EF9031
:102D6000DF90CF9008951092790410927A04109217
:102D70007B0410927C041092780410927E041092CE
:102D80007D041092770410927604109298041092A9
:102D900097041092750410927404109270041092AB
:102DA0007104109272041092730410926F041092C6
:102DB0006E04109293041092940410929504109251
:102DC00096041092920410928E0410928F04109226
:102DD00090041092910488EE93E0A0E0B0E080931C
:102DE000460290934702A0934802B0934902109282
:102DF0008A0410928B0410928C0410928D0410920D
:102E0000860410928704109288041092890410920C
:102E100085041092840481E080934502109283041B
:102E200010928204109281041092800410927F0408
:102E300090E080E008958091810490918204892B34
:102E4000E1F480914502882351F08091830481113F
:102E500006C081E080936F0480936E040895809192
:102E60008304882341F080914502811104C01092AF
:102E70006F0481E0F1CF10926E04089582E090E03B
:102E8000FA01918380838FEF9FEF0895CF93DF93B3
:102E9000EA01009711F00E94E3291982188290E05C
:102EA00080E0DF91CF910895DB01009719F48FEF57
:102EB0008C9308952EEF2C93FC017096E031F10570
:102EC00008F037C08827E859F84E8F4F0C94C33B61
:102ED00097179517931791178F178D1789178B17BA
:102EE00087178517831780177C1778177E17991710
:102EF00080E311968C93089589E2FBCF82E2F9CFAB
:102F000011961C92089583E2F4CF81E2F2CF81E121
:102F1000F0CF87E2EECF8AE2ECCF80E1EACF84E225
:102F2000E8CF88E2E6CF86E2E4CF81E3E2CF83E335
:102F3000E0CF80E2DECF8091A5049091A6040895B1
:102F40009093A6048093A50408958091A404089505
:102F50009091A404892B8093A4040895982F9095B0
:102F60008091A40489238093A40408958091A304EC
:102F700008958091A1049091A204089561157105AE
:102F800059F0FB0130E020E070E060E024173507E5
:102F900019F06115710511F0CB010895A081B1817F
:102FA000A817B90709F4BF012F5F3F4F3696EECF40
:102FB0008091A70481111CC060D266D290939A04BC
:102FC000809399040E94E1210E94F32190939E0432
:102FD00080939D040E9470260E94772690939C0403
:102FE00080939B0481E08093A70490E080E00895A3
:102FF00084EF9FEF08958F929F92AF92BF92CF92EE
:10300000DF92EF92FF920F931F93CF93DF9300D045
:1030100000D000D01F92CDB7DEB71A861986188669
:103020001F821E821D821C821B821A82198280913D
:10303000A70407EF1FEF882309F49CC08E010D5FE2
:103040001F4F9E012B5F3F4FAE01495F5F4FBE0197
:10305000675F7F4F90E080E00E94F4278C0100972B
:1030600021F00596029708F0DBC029853A852115E5
:10307000310509F402C1ED80FE804B815C81B7010E
:10308000640F751F8F8198858617970708F4F5C020
:10309000E20EF31ED7019C91903C09F07FC04230B4
:1030A000510508F47BC011968C914091A504509174
:1030B000A604452B09F49CC0913F08F071C02CE197
:1030C000290F2D3008F48BC02DE2290F203108F490
:1030D00089C0903C21F48150823008F483C088E399
:1030E000890F8B3008F481C094E5C92E97E1D92E61
:1030F000EEE3F7E16D817E81AE014F5F5F4F898521
:103100009A8519955C01C114D104A1F189809A8036
:103110008114910479F18B819C818815990508F4BB
:1031200087C010E000E04B815C8170E060E0C70187
:103130000E94F23B01151105E9F449815A81698524
:103140007A858D819E81680F791FC501F6011995D9
:10315000E980FA800D811E812F81388549855A8545
:103160006FEF7FEF81E090E00E948F278C01892B29
:1031700009F056C0C8012A960FB6F894DEBF0FBEFC
:10318000CDBFDF91CF911F910F91FF90EF90DF9016
:10319000CF90BF90AF909F908F90089580E085CFA3
:1031A00030E020E0220F331FF901E756FB4F01907A
:1031B000F081E02D309709F497CF892F90E0199591
:1031C000009709F491CFDC011296ED91FC911397D1
:1031D0001496CD90DC90309709F08CCF1FC021E081
:1031E00030E0E0CF22E030E0DDCF23E030E0DACFA6
:1031F000D12CC12CE6E4F7E19F3F09F07BCFE091B1
:103200009904F0919A04309721F4C90104EF1FEF5B
:103210000CC08FEF90E019950097A9F604EF1FEF0F
:1032200089859A85009709F4A5CF0E94E329A2CF4A
:103230000E94BE288C0189859A850E94E32970E04E
:1032400060E0C4010E94572898878F830E948C27D2
:103250009E838D836F8178856115710559F0C80152
:103260000E946F2B9A87898706EF1FEF892B09F041
:1032700058CF59CF08EF1FEF56CF08EF1FEFD0CF31
:103280002091A704222319F020E00C94F82187EF65
:103290009FEF08958091A5049091A60408950E943F
:1032A0007C260E94D625F5D0E9E9F4E088E0DF012C
:1032B0001D928A95E9F71092A70490E080E00895A6
:1032C0000C94342421E040E050E0BA010C94F82141
:1032D00086E090E0FA019183808390E080E0089599
:1032E00047E050E062E772E049CEDF92EF92FF9252
:1032F0000F931F93CF93DF938A01EC01C60FD71F63
:10330000E090AB04F090AC04D9800E94A628D816B7
:10331000190678F082E090E0F801918380838EEFC7
:103320009FEFDF91CF911F910F91FF90EF90DF9072
:103330000895EF2841F482E090E0F80191838083C2
:1033400084EF9FEFEECF89818093AA0490E00196ED
:10335000F8019183808390E080E0E3CFCF93DF9307
:10336000EA010E94E524882321F00E94B3280E94EC
:10337000E62482E090E0998388838BEF9FEFDF91D2
:10338000CF910895CF93DF93EB0186E0FB0111927B
:103390008A95E9F78FEF8883D8DD8983E7DD8A8313
:1033A000E8DD9D838C83DF91CF910895CF93DF93E8
:1033B000EA010E94E824811109C082E090E099832B
:1033C000888385EF9FEFDF91CF91089590E080E0B3
:1033D000B7DD81E090E09983888390E080E0F3CFCF
:1033E0000F931F93CF93DF93EA018C01060F171FF2
:1033F0000E94E82481110BC082E090E099838883C9
:1034000085EF9FEFDF91CF911F910F910895F80104
:103410008181823038F082E090E0998388838EEF5A
:103420009FEFF0CF81E090E08BDD88E090E0998322
:10343000888390E080E0E6CFCF93DF930097D1F4CC
:10344000EB01FB01329686E0DF011D928A95E9F7D8
:103450008FEF888385E089831A820E94A6288B8358
:103460000E94A5289D838C8381E08E838F83DF91CA
:10347000CF910895DF91CF9117CD80E799E1909397
:10348000A9048093A80408958091A8049091A904A8
:1034900008951092A9041092A80408958091AB0495
:1034A0009091AC040895411105C061157105810525
:1034B000910561F06093AB047093AC048093AD040C
:1034C0009093AE044093AF0481E0089580E00895A6
:1034D000FF920F931F93CF93DF938A01EC01C60FE6
:1034E000D71FF9800E94A628F816190668F082E016
:1034F00090E0F801918380838EEF9FEFDF91CF9171
:103500001F910F91FF9008956C817D818E819F8125
:103510004B81C9DF811108C082E090E0F8019183FE
:10352000808384EF9FEFEACF89818093AA0490E0A3
:103530000196F8019183808390E080E0DFCFCF9304
:10354000DF93EA01FC01E60FF71F64817581868134
:1035500097814381A8DF811109C082E090E09983BF
:10356000888384EF9FEFDF91CF91089581E090E011
:103570009983888390E080E0F6CFEBEAF4E0408125
:10358000518162817381480F511D611D711D4083FE
:103590005183628373830895CF93C091AA044C2F03
:1035A00050E06091AB047091AC0401960E94E93B3D
:1035B0008C2FE3DF1092AA04CF910895009799F41D
:1035C0008091AB049091AC042FEFFB012083892BF9
:1035D00059F02091AA0430E02F5F3F4F24173507A0
:1035E00019F4CB01D9CF60CC0895009799F480915C
:1035F000AB049091AC042FEFFB012083892B59F091
:103600002091AA0430E02F5F3F4F2417350719F4AB
:10361000CB01C2CF49CC089523E1AC01249FC00166
:10362000259F900D1124E091B404F091B504E80FAA
:10363000F91F238134812250310981E02230310584
:1036400008F080E008950F931F93CF93DF930091CC
:10365000B6041091B704D0E0C0E080E00C171D075D
:1036600049F491E0811190E0892FDF91CF911F9172
:103670000F9108958111F5CFCE01CEDF2196EECFC7
:10368000A091B404B091B504109729F12091B6042B
:103690003091B70482179307F0F453E1589F9001DB
:1036A000599F300D1124A20FB31FED91FC9111977A
:1036B000309789F012968C91681768F48DE0689FB6
:1036C000E00DF11D112480819181892B21F081E091
:1036D0009281491708F080E008959C0143E1429FE0
:1036E000C001439F900D1124E091B404F091B50402
:1036F000E80FF91F8385823091F481E090E06581C5
:10370000768140914A0250914B026417750711F47B
:1037100090E080E0892B19F081E0232B09F080E014
:103720000895FC01A081B1818DE0689FA00DB11DBD
:10373000112413964D915C9185859685489F900143
:10374000499F300D589F300D1124C9010196611118
:1037500003C0478144FD04960895EF92FF920F93B2
:103760001F93CF93DF93EA01FC01E60FF71F02815D
:103770001381E480F5804F2D6E2DC80181DF81110A
:103780000DC082E090E0998388838EEF9FEFDF91F8
:10379000CF911F910F91FF90EF900895C8013CDFEA
:1037A000882339F082E090E09983888388EF9FEF47
:1037B000EECF1093510200935002E0925202F09229
:1037C000530281E090E09983888390E080E0DFCF2E
:1037D000CF92DF92EF92FF920F931F93CF93DF93DD
:1037E0007A01EC01C60FD71FC0905002D090510251
:1037F0000091520210915302412F602FC60140DF09
:10380000811110C082E090E0F701918380838AEFFC
:103810009FEFDF91CF911F910F91FF90EF90DF907D
:10382000CF900895C601F8DE882341F082E090E051
:10383000F7019183808388EF9FEFEBCF4C815D810F
:103840006E817F819A8189818F3F41F082E090E093
:10385000F701918380838EEF9FEFDBCFE3E1EC9D57
:103860009001ED9D300D1124E091B404F091B50468
:10387000E20FF31F0190F081E02D2DE0029FE00D9B
:10388000F11D11240190F081E02D27E0129FE00D41
:10389000F11D1124808391838B8182834383548320
:1038A000658376831F5F1093530281E090E0F701F8
:1038B0009183808390E080E0ACCFEF92FF920F93F2
:1038C0001F93CF93DF937A018C01060F171FC091CE
:1038D000B404D091B504209781F021E030E0F801E4
:1038E000828193814091B6045091B7048417950763
:1038F00010F030E020E0232B71F482E090E0F7013B
:10390000918380838EEF9FEFDF91CF911F910F9175
:10391000FF90EF90089543E1489F9001499F300D3B
:103920001124C20FD31F78DE882341F082E090E09B
:10393000F7019183808388EF9FEFE6CFF801248120
:10394000358120383105C8F687818111D6CF418174
:10395000842F90E08F7E009741F082E090E0F701A5
:103960009183808386EF9FEFCFCF4F833E832D835C
:10397000268128871986223010F421E0288721E04B
:1039800030E0F70131832083BFCF88E090E0FA0177
:103990009183808390E080E00895FB018FEF808326
:1039A00081E181838FEF9FEF9383828380E890E0B2
:1039B00095838483168217820895FB018FEF80839D
:1039C00091E0918382839383848384E3858381E080
:1039D00090E097838683089582E090E0FA019183D6
:1039E000808380EF9FEF0895DF92EF92FF920F9315
:1039F0001F93CF93DF93EA01FC01E60FF71F81814C
:103A0000813071F082E090E0998388838FEF9FEF9F
:103A1000DF91CF911F910F91FF90EF90DF9008956C
:103A200082819381D4802581E680F7800091B4045F
:103A30001091B5040115110539F482E090E09983E5
:103A400088838CEF9FEFE4CF4091B6045091B70488
:103A50008417950738F082E090E0998388838EEF91
:103A60009FEFD6CF892B39F082E090E0998388834D
:103A700086EF9FEFCDCF8D2D8D7FB1F72130A1F750
:103A800081E0D11006C091E0E916F10431F080E048
:103A900004C0E2E0EE16F104D0F3882329F390E0AD
:103AA00080E0BADD882339F082E090E09983888352
:103AB00088EF9FEFADCFF801D38681E08487F6864B
:103AC000E586108A178681E090E09983888390E0EC
:103AD00080E09ECF4DE050E06CE972E04FCA8F92DB
:103AE0009F92BF92CF92DF92EF92FF920F931F931C
:103AF000CF93DF93EA01FC01E60FF71F82819381E8
:103B00000481B580E091B404F091B504309791F44C
:103B100082E090E0998388838CEF9FEFDF91CF91D3
:103B20001F910F91FF90EF90DF90CF90BF909F90EB
:103B30008F9008952091B6043091B70482179307AF
:103B400038F082E090E0998388838EEF9FEFE6CF94
:103B500023E1289F6001299FD00C1124EC0DFD1D4D
:103B6000E080F180E114F10499F28281081748F7AE
:103B70008DE0089F80011124E00EF11EF701808185
:103B80009181892B29F6BB20E1F2F7E0BF9E40012D
:103B90001124C4010E94AA29F70191838083E09136
:103BA000B404F091B504EC0DFD1D0190F081E02D01
:103BB000E00FF11F80819181009739F482E090E05D
:103BC000998388838DEF9FEFA9CFA40170E060E017
:103BD0000E94F23B8091B4049091B504C80ED91EA6
:103BE000F60180819181080F191FF801B28281E0EE
:103BF00090E09983888390E080E090CFAF92BF926D
:103C0000CF92DF92FF920F931F93CF93DF93EA013E
:103C1000FC01E60FF71F82819381F4800091B404C8
:103C20001091B5040115110581F482E090E09983AB
:103C300088838CEF9FEFDF91CF911F910F91FF90C1
:103C4000DF90CF90BF90AF9008952091B60430914F
:103C5000B7048217930738F082E090E09983888355
:103C60008EEF9FEFE8CF2FEF2F0D2C3FA8F723E12A
:103C7000289F6001299FD00C11240C0D1D1DF801F7
:103C800080819181892B89F6FDE0FF9E50011124EE
:103C9000C5010E94AA29F80191838083E091B404B0
:103CA000F091B504EC0DFD1D80819181009739F4F0
:103CB00082E090E0998388838DEF9FEFBCCFA501D0
:103CC00070E060E00E94F23BE091B404F091B50432
:103CD000EC0DFD1DF28281E090E09983888390E0F5
:103CE00080E0A9CFCF92DF92EF92FF920F931F93C4
:103CF000CF93DF93860F971FFC0102811381809180
:103D0000B4049091B504892B81F082E090E0FA012F
:103D1000918380838CEF9FEFDF91CF911F910F9163
:103D2000FF90EF90DF90CF900895C801B0E0A0E041
:103D30000197A109B1098F3F9F4FA105B10540F03F
:103D400082E090E0FA01918380838EEF9FEFE4CFD1
:103D50007A0183E1809F6001819FD00C1124C6010C
:103D60000E94AA29EC01009741F482E090E0F7015B
:103D7000918380838DEF9FEFCFCFA60170E060E04D
:103D80000E94F23BD093B504C093B4041093B704DF
:103D90000093B60490E080E02FEF3FEF41E061E058
:103DA00070E08017910741F481E090E0F701918382
:103DB000808390E080E0B0CF3A8B298B1B864C87C4
:103DC0007E876D87188A1F8601966396EACFEF92E9
:103DD000FF921F93CF93DF93EC0110E0F12CE12CC5
:103DE0006A811617B0F083E0689FB0011124AE011C
:103DF0004F5E5F4FC7010E940F2A009721F02FEFFF
:103E00003FEF3A8B298BDF91CF911F91FF90EF907D
:103E10000895612FCE0185DC61E070E00E94572893
:103E2000E816F90608F47C011F5FDACFF8942091B8
:103E3000B2043091B30481E02115310509F080E02E
:103E4000232B09F0789408952F923F924F925F921E
:103E50006F927F928F929F92AF92BF92CF92DF929A
:103E6000EF92FF920F931F93CF93DF933C01660E67
:103E7000771EF301828193814C01B12CA12CC0915A
:103E8000B404D091B504209769F021E030E060914E
:103E9000B6047091B7048617970710F030E020E061
:103EA000232BD1F482E090E0FA01918380838EEF9E
:103EB0009FEFDF91CF911F910F91FF90EF90DF90D7
:103EC000CF90BF90AF909F908F907F906F905F90BA
:103ED0004F903F902F9008958092540290925502F7
:103EE000A0925602B092570263E1689F9001699FC9
:103EF000300D1124C20FD31FF3018181833040F0B4
:103F000082E090E0FA019183808386EF9FEFD1CF2A
:103F10002A012B813C81232BF1F4288139819F8157
:103F200091FF2EC0232B09F46FC02091B9049A8110
:103F3000422F490F5527551FBA0141E050E0613823
:103F4000710514F050E040E0452B09F45DC02A876C
:103F5000920F9093B9048150823008F481C066DFDB
:103F6000882309F4D8C0F3018181813009F48DC020
:103F700008F47BC0823009F4C6C090E080E0ADC098
:103F8000232B09F441C02091B8049A81E22FE90F54
:103F9000FF27FF1F41E050E0ED3FF10514F050E036
:103FA00040E0452B89F12A87920F9093B804D3CF34
:103FB000A081B181A20FB31F11966C91060F111D44
:103FC0000196295F3F4F8417950794F38D859E8551
:103FD000089F1001099F300C189F300C1124C11448
:103FE000D104D1F48F8184FF17C00E94A528F5E089
:103FF0002F0E311C21E08215930508F420E0A70163
:10400000435F5F4F21110EC082E090E0F201918387
:10401000808387EF9FEF4DCF0E94A5282FEF221AB4
:10402000320AE8CF88819981E80EF91EF7011483DE
:104030000383FFEFCF1ADF0A7A018A818C151D04F2
:1040400009F00CF48CCFE881F981EE0DFF1D42815F
:1040500050E030E020E010E000E090E080E0B3CFFE
:10406000F12CE12CD12CC12CE8CF81E090E09C8395
:104070008B83E9DA882309F480CF81E090E00E9405
:10408000A01780E40E94AE1778CF89899A8901969B
:1040900061F083E090E09C838B8382E090E00E945B
:1040A000A01780E40E94A81768CF8D819E8120917F
:1040B0004A0230914B0282179307D1F460914E026D
:1040C00070914F02AE014F5E5F4F80914C02909114
:1040D0004D020E942E2B0097E1F2789422E030E00E
:1040E000F20131832083892B99F08DEF9FEFE1CE90
:1040F00089288A288B2869F6039758F6CE0167DE4F
:10410000188A1F86E8CF82E090E09C838B8335CFAE
:1041100090E080E0CECE82E090E0F2019183808357
:1041200085EF9FEFC6CE8F929F92AF92BF92CF92B4
:10413000DF92EF92FF920F931F93CF93DF93EA01E9
:104140008C01060F171FF8018181833098F082E0FF
:1041500090E09983888386EF9FEFDF91CF911F9145
:104160000F91FF90EF90DF90CF90BF90AF909F9016
:104170008F9008958091B4049091B504892B61F0DB
:1041800081E090E02091B6043091B704232B11F424
:1041900090E080E0892B39F482E090E09983888375
:1041A0008EEF9FEFDACF42DE882309F4E0C0F801FA
:1041B0008181813009F496C0E8F0823099F4209131
:1041C000B6043091B704E091B404F091B50490E0E6
:1041D00080E041E050E02817390709F0BEC033DA2B
:1041E000811117C0789481E090E09983888390E0F2
:1041F00080E0B3CF2091B6043091B704E091B404CD
:10420000F091B50490E080E041E050E028173907D4
:1042100041F481E090E00E94A01780E40E94AE1774
:10422000E1CF63817481672B11F05483438301963E
:104230007396ECCFE091B404F091B504E00FF11F58
:104240002381348122303105D9F4218932892F3FED
:104250003F4FB1F42581368140914A0250914B0283
:104260002417350761F5AF014F5E5F4F60914E0235
:1042700070914F0280914C0290914D020E942E2B22
:10428000EFEFCE1ADE0AEE0AFE0A0D5E1F4F4091D6
:10429000B6045091B70470E060E0C416D506E60697
:1042A000F70644F5009731F27894892B09F49BCFF7
:1042B00082E090E0998388838DEF9FEF4ECFC11409
:1042C000D104E104F104E1F623303105C8F6CF0151
:1042D0007EDDE091B404F091B504E00FF11F108A87
:1042E0001786CECF10E000E090E080E0C12CD12C0A
:1042F0007601CDCF0097C1F610E000E0812C912C23
:10430000540183E0E82EF12C1AC0E091B404F0913E
:10431000B504E00FF11F83819481029749F4F48280
:10432000E38282E090E00E94A01780E40E94A81738
:10433000FFEF8F1A9F0AAF0ABF0A0D5E1F4F8091D1
:10434000B6049091B704B0E0A0E088169906AA06DA
:10435000BB06DCF290E080E0A7CF6381748162301D
:10436000710511F4548343830196739634CF82E030
:1043700090E09983888385EF9FEFEFCE0097B9F4A3
:104380008FEFFB018083209154023091550243E16D
:10439000429FC001439F900D1124E091B404F0911D
:1043A000B504E80FF91F8285FB01818308950C9401
:1043B000541788E090E0FA019183808390E080E0D8
:1043C00008951092B3041092B204E4EBF4E086E096
:1043D000DF011D928A95E9F78AE69DE19093B10489
:1043E0008093B00408958091B0049091B104089531
:1043F0002F923F924F925F926F927F928F929F92F5
:10440000AF92BF92CF92DF92EF92FF920F931F93E2
:10441000CF93DF93CDB7DEB72F970FB6F894DEBFFB
:104420000FBECDBFF894E091B204F091B304319681
:10443000F093B304E093B20478944090B4045090A5
:10444000B5044114510409F40CC2E091B604F09192
:10445000B704EF2B09F405C22D8749875A876B876C
:104460007C8798878F831201B12CA12C10E000E08B
:104470008091B6049091B704A816B90618F40115F6
:10448000110529F1F8948091B2049091B304019739
:104490009093B3048093B2047894C8012F960FB61A
:1044A000F894DEBF0FBECDBFDF91CF911F910F916A
:1044B000FF90EF90DF90CF90BF90AF909F908F9044
:1044C0007F906F905F904F903F902F900895710173
:1044D000E418F508D10117968C91179781FD54C007
:1044E00013968D919C911497039709F04DC01596E2
:1044F0008D919C91EF81F8858E179F0709F044C03C
:10450000B50190E080E07FD48A832091B40430919B
:10451000B5043D832C833D85332309F44CC04C8185
:104520005D81452B09F49AC18091B6049091B7043E
:10453000A816B90608F092C1C501CFD88823E9F0C2
:104540006C817D816E0D7F1D7D836C83DB011F96E9
:104550008D919C91892B89F0D12CC12CF12CE12CCF
:10456000AC81BD8112968C9112978E151F0409F0B3
:1045700094F450961C921E921F972A81222321F0B8
:10458000B50190E080E041D43FEFA31AB30A43E1C4
:10459000240E311C6DCFAC81BD81ED91FC91EC0DF1
:1045A000FD1D858196810FD7BFEFEB1AFB0AEDE069
:1045B000CE0ED11CD5CFEC81FD81309709F44EC1D0
:1045C0008091B6049091B704A816B90608F046C1C8
:1045D000EE0DFF1DFF87EE87C5017FD88B838823F3
:1045E00039F1AE85BF851F968D919C9150970196AC
:1045F00021E01D964D915C918417950709F020E00C
:104600002E831982712C10E000E0AE85BF851296D2
:104610008C91781608F45DC0EE85FF8587859089BA
:104620000196658576850E948D3B908B8787A5CF07
:10463000B1E0BE83E6CF992493946BC08BD6F6018C
:104640009683858382C0D601ED90FC90B7E06B9E87
:10465000E00CF11C1124F7016381748180818F3F8C
:1046600061F121E030E002C0220F331F8A95E2F7AA
:10467000C901092E000CAA0BBB0BFB014081518123
:104680006281738184239523A623B72321E0892B9C
:104690008A2B8B2B09F420E0D4012C93D70111969F
:1046A0008C91F60123853485820F932F911D880EFE
:1046B000991E1486138663949BC0418150E0C40107
:1046C0000E94E93BEBCF998206EF1FEFC5C019822C
:1046D000C3C0F981F111A0CFEDE07E9E70011124DD
:1046E000AE85BF85CD90DC90CE0CDF1C15D49D83AC
:1046F0008C83BB81BB2309F49ECF81E0EE85FF85CF
:1047000027853089232B09F080E0982E882309F42F
:1047100058C0672D8E859F8504D8D60118969C9326
:104720008E93179761E070E0C2D4EE85FF852189F2
:1047300032892F3F320709F481CFBC01C901CFD79D
:10474000D60116969C938E931597D60115968D914A
:104750009C911697009709F4B6CFEC81FD818E0FDE
:104760009F1F1A969C938E931997AE85BF85ED91E6
:10477000FC911197EE0EFF1EF701218532851486FC
:1047800013861A968C91870DD9018D93711016C0DE
:10479000EE85FF85878184FF11C049855A856B8529
:1047A0007C85F9014183528363837483F701838598
:1047B00094850496A80FB91F14861386F701B28753
:1047C000A187D60115968D919C911697892B09F496
:1047D00043C0EE85FF852581368180914A02909104
:1047E0004B022817390779F019968D909C90612C0F
:1047F000D60112968C911297681608F424CF1A9657
:104800009C928E921997BE81BB2309F460CF61E020
:1048100070E0F601878190854AD4D6011796ED9015
:10482000FC90189715964D915C91E1E0F0E0BA810B
:10483000BB2311F0F0E0E0E00C811D819C01B5018B
:10484000882799278E1B9F0B6AD38C01892B21F017
:10485000F60185819681B7D57394D7CE0FEF1FEF00
:104860008CCE10E000E00ECE2F923F924F925F92DE
:104870006F927F928F929F92AF92BF92CF92DF9270
:10488000EF92FF920F931F93CF93DF938091B40425
:104890009091B50410E000E0892BA9F0C7DA0AEF87
:1048A0001FEF882381F02090B6043090B704C091A8
:1048B000B404D091B504D12CC12C10E000E02C142C
:1048C0003D04A9F47894C801DF91CF911F910F9115
:1048D000FF90EF90DF90CF90BF90AF909F908F9020
:1048E0007F906F905F904F903F902F900895C601FA
:1048F0000E946D1B882309F18B819C810397E9F449
:104900008F859889892BC9F0B60190E080E07BD231
:1049100021E030E0882311F030E020E044245524E9
:10492000421A530AB12CA12C912C812C8A81881512
:10493000190409F038F4188A1F864FEFC41AD40AF4
:104940006396BDCFE881F981EA0DFB1D85819681D3
:10495000892BA1F161E070E087819085A8D33C01AB
:10496000DBD28C01E881F981EA0DFB1D81859285FE
:1049700025813681200F311FAC01421B530B9A0158
:1049800047815085421B530B70E060E00E94F23B70
:10499000E881F981EA0DFB1DE780F08445815681AD
:1049A0009301B601C201BBD28C01892B39F0E88199
:1049B000F981EA0DFB1D8581968105D55FEF851A8A
:1049C000950A8DE0A80EB11CB1CF30CA7894089535
:1049D0002F923F924F925F926F927F929F92AF92EF
:1049E000BF92CF92DF92EF92FF920F931F93CF93DC
:1049F000DF9300D000D0CDB7DEB70091B4041091A2
:104A0000B504992493940115110509F43EC0A090B2
:104A1000B604B090B7040ADA982E8823B1F1109248
:104A2000B5041092B4041092B7041092B604109218
:104A3000B8041092B9048FEF9FEFDC018093540209
:104A400090935502A0935602B093570278947FD367
:104A50001E830D83C12CD12C7601C501B0E0A0E0EE
:104A600089839A83AB83BC8322242A94322C898144
:104A70009A81AB81BC81C816D906EA06FB06F4F020
:104A8000C801A1D480E40E94AE17892D26960FB6E6
:104A9000F894DEBF0FBECDBFDF91CF911F910F9174
:104AA000FF90EF90DF90CF90BF90AF909F907F905E
:104AB0006F905F904F903F902F900895AD81BE8191
:104AC00015968D919C91169720914A0230914B0238
:104AD00082179307D1F451968D919C91EED5ED817B
:104AE000FE8180819181B12CA12C412C512C32016D
:104AF000892B89F5BFEFCB1ADB0AEB0AFB0AED81A4
:104B0000FE817396FE83ED83B2CFC114D104E1041C
:104B1000F10429F7039718F7ED81FE8181899289C5
:104B20008F3F980709F029D5AD81BE8152963C92FE
:104B30002E925197D4CF8A0D9B1DDC018D919C91B3
:104B4000009709F040D4BFEF4B1A5B0A6B0A7B0A4F
:104B5000EDE0AE0EB11CAD81BE818D919C9111979F
:104B600012964C9150E070E060E0441655066606DF
:104B700077060CF328D4BECFCF93DF93EA0128DF6A
:104B8000811109C082E090E09983888385EF9FEFCF
:104B9000DF91CF91089581E090E00E94A01781E01D
:104BA00090E09983888390E080E0F2CF11DF10924B
:104BB000B1041092B004089542E050E06AEE72E051
:104BC0000C94BE17FF920F931F93CF93DF938A012C
:104BD000EC01C60FD71FF980B9D20897F81619064D
:104BE00071F068F082E090E0F801918380838EEFAD
:104BF0009FEFDF91CF911F910F91FF9008956C81EE
:104C00007D818E819F814B810E94531A811108C042
:104C100082E090E0F8019183808384EF9FEFE9CFF9
:104C2000F9800E944E1A4F2D50E0BE01685F7F4F01
:104C30000E94E93B89810E94BD1A81E090E0F80161
:104C40009183808390E080E0D4CFDF92EF92FF9257
:104C50000F931F93CF93DF938A01EC01C60FD71FE9
:104C60000E944E1A7C01D98071D2DD2059F0029742
:104C700021E030E0D816190619F010F030E020E0FD
:104C8000232B79F482E090E0F801918380838EEF0A
:104C90009FEFDF91CF911F910F91FF90EF90DF90E9
:104CA0000895EF2841F482E090E0F8019183808339
:104CB00084EF9FEFEECFF9800E944E1A4F2D50E007
:104CC000BE016E5F7F4F0E94E93B89810E94BD1A41
:104CD00081E090E0F8019183808390E080E0D9CF7B
:104CE0008CED95E29093BB048093BA040895809173
:104CF000BA049091BB0408950895FC0111821082BA
:104D0000938382830895DB011D921C92DC0112962D
:104D1000ED91FC9113977183608313967C936E934E
:104D200012970895FC0180819181DB018D939C9302
:104D3000A081B181109741F08D919C9191838083E6
:104D4000892B11F4F383E2830895FC018081918122
:104D5000DB018D939C93892B11F4738362837183A0
:104D600060830895FC0111821082938382830895E9
:104D7000CF93DF931F921F92CDB7DEB71A821982AD
:104D8000F894BE016F5F7F4F81EC94E0CBDF8981A7
:104D90009A81009709F017D389819A81892B89F725
:104DA000BE016F5F7F4F85EC94E0BCDF89819A8103
:104DB000009709F008D389819A81892B89F7789423
:104DC0000F900F90DF91CF910895CF93DF931F92B3
:104DD0001F92CDB7DEB71A821982F894BE016F5FB9
:104DE0007F4F8DEB94E09EDF89819A81009709F0D7
:104DF000EAD289819A81892B89F778940F900F9054
:104E0000DF91CF91089581E0089590E080E00895CA
:104E1000EF92FF920F931F93CF93DF931F921F92F6
:104E2000CDB7DEB71A8219828091BC0407EF1FEF5D
:104E30008823A1F1F894BE016F5F7F4F85EC94E069
:104E400071DF789489819A81EE24E394F12C892B87
:104E500051F4F894BE016F5F7F4F81EC94E062DF04
:104E60007894F12CE12C89819A810EEF1FEF009745
:104E7000A9F0FC014281538164E070E076D68C0198
:104E8000892B61F0F89469817A81C701880F991F95
:104E9000880F991F8F539B4F58DF7894C8010F904C
:104EA0000F90DF91CF911F910F91FF90EF90089598
:104EB0000F931F93CF93DF9300D01F92CDB7DEB730
:104EC0001C821B821A8219828091BC0407EF1FEF9B
:104ED0008823C1F0AE014D5F5F4F64E070E0CE010A
:104EE0000196B6D68C01892B69F4E981FA818B8110
:104EF0009C8193838283F89469817A818DEB94E01D
:104F000002DF7894C8010F900F900F900F90DF91FF
:104F1000CF911F910F910895BBD7049608958F925A
:104F20009F92AF92BF92CF92DF92EF92FF920F9338
:104F30001F93CF93DF931F921F92CDB7DEB71A82D4
:104F40001982BC016F5F7F4F6330710598F0AA240E
:104F5000AA94BA2CC5010F900F90DF91CF911F91A9
:104F60000F91FF90EF90DF90CF90BF90AF909F9008
:104F70008F9008954115510551F3480159018A0157
:104F80006C01CADF8815990511F7E114F104F9F2F3
:104F90008E0D9F1DA816B906D0F28091BC048823FF
:104FA000F1F0F894B501645071099701AE014F5FBB
:104FB0005F4FC8010496E1D65C01892B71F48981A9
:104FC0009A81F80193838283C601880F991F880F05
:104FD000991FB8018F539B4F96DE7894BBCF87EF14
:104FE000A82EBB24BA94B6CFAF92BF92CF92DF92D5
:104FF000EF92FF920F931F93CF93DF931F921F9215
:10500000CDB7DEB71A821982892B09F047C0611526
:10501000710509F443C04115510509F43FC021153C
:10502000310509F43BC001151105C1F18091BC04A3
:105030008823B9F179016A015B01F894BE016F5FC1
:105040007F4F8DEB94E06EDE789489819A81009792
:1050500059F1DC0112966D917C91A8010496A6D6B7
:105060008C01E981FA81D501ED93FC9382819381D2
:105070000496F601918380834FDFD7018D939C9333
:10508000C8010F900F90DF91CF911F910F91FF906A
:10509000EF90DF90CF90BF90AF9008950FEF1FEF8C
:1050A000EFCF07EF1FEFECCF0EEF1FEFE9CFCF935E
:1050B000DF93EC01672B71F4F4D68C179D0760F039
:1050C000E7D62496C80FD91FE6D68C0F9D1FDF9117
:1050D000CF910895E3D6F1CF90E080E0F8CF0F9321
:1050E0001F93CF93DF932091BC0421112BC08B0120
:1050F000EC0181EC94E001DE85EC94E0FEDD8DEBCB
:1051000094E0FBDD97D00097C1F4CBD670E060E06F
:10511000CEDF48E552E062E070E081D1009769F4AB
:105120008091580290915902CED6B801CE0103D594
:10513000009719F421E02093BC04DF91CF911F91D7
:105140000F91089584EF9FEFF8CFA8C6AAC6CF931A
:10515000DF93AAD6EC01892B11F40ADE36DECE01EC
:10516000DF91CF910895CF93DF939ED6EC01892BE9
:1051700009F4FEDDCE01DF91CF91089580915802B0
:10518000909159020895CF93DF938091BC04D0E0B1
:10519000C0E08823D1F09CD6EC01892BB1F4E8DD86
:1051A00014DE8091580290915902E7D1E8D2EC01C7
:1051B000892B59F481EC94E0D5DD85EC94E0D2DDC7
:1051C0008DEB94E0CFDD1092BC04CE01DF91CF9146
:1051D0000895EF92FF920F931F93CF93DF93EC010B
:1051E0007A018B010F5F1F4F0E9DA0010F9D500D87
:1051F0001E9D500D112470E060E00E94F23B90E093
:1052000080E0F0E0E0E02FEFE816F90639F4DF91F6
:10521000CF911F910F91FF90EF9008951A821982FC
:105220002883309711F0D283C1830196FE01C00F0D
:10523000D11FEACFCF92DF92EF92FF920F931F938D
:10524000CF93DF9302E216E00C7F43E050E06AE583
:1052500072E080E692E01CD48AE5E82E82E0F82E27
:1052600090E6C92E92E0D92EC9ECD6E0D7014D9137
:105270005D917D01F601619171916F011983088340
:105280005D834C835B834A837F836E839B012F5FA7
:105290003F4F249FC001259F900D349F900D1124F6
:1052A000998788870115110511F0C80192DF88855B
:1052B0009985080F191F2A96F0E6EF16F2E0FF060F
:1052C000A9F6EBECF4E084E591E0DF019C011D928E
:1052D00021503040E1F71092CA041092C904109294
:1052E000E8061092E7061092EC061092EB06109278
:1052F000EA061092E9061092EE061092ED06109260
:10530000F0061092EF061092F2061092F10610923B
:10531000F6061092F5061092F4061092F30610921B
:10532000F8061092F7061092FA061092F9061092FB
:10533000C6061092C5061092C8061092C70690E0E5
:1053400080E0DF91CF911F910F91FF90EF90DF9060
:10535000CF9008950097F1F0F894A0E6B2E0E9EC60
:10536000F6E030E020E04D915D9148175907A8F034
:10537000428153814115510581F08AE0829FF001FD
:10538000839FF00D1124E753F94F8081918100979D
:1053900059F4789490E080E008952F5F3F4F3A965B
:1053A0002330310501F7F5CFDC0111966D917C9129
:1053B000718360834150510953834283FC012193DF
:1053C000CF0178940895009749F1DC018E918530E2
:1053D00041F4E091C706F091C8063097F9F0CD018D
:1053E00019948530D8F4282F30E0F8948FEF8C93FF
:1053F0008AE0829FF001839FF00D1124E753F94F5B
:105400008081918112969C938E931197B183A08392
:105410008281938101969383828378940895CF92B9
:10542000DF92EF92FF920F931F93CF93DF939C0134
:105430008EEC94E08C7F4115510509F49BC0211539
:10544000310509F497C06115710509F493C07A011B
:10545000AB01B9016D5F7F4F6C7F9B012F5F3F4FA9
:10546000249F8001259F100D349F100D1124F89466
:105470002091E7063091E806232B59F42091EF069E
:105480003091F0062115310569F12017310708F038
:1054900058C02091F1063091F206232B91F420910F
:1054A000EF063091F006820F931F2091F90630919C
:1054B000FA062115310509F441C02017310708F01B
:1054C00056C07894CFEFDFEF86EF9FEFF701D183DF
:1054D000C083DF91CF911F910F91FF90EF90DF90EC
:1054E000CF900895C3E0D0E0C090C904D090CA0422
:1054F00021E531E02C193D092017310710F32AE08E
:105500002C9FF0012D9FF00D1124E753F94F91834B
:1055100080835583448353834283778366831187D3
:105520000087009709F055DE0C0D1D1D1093CA046D
:105530000093C904789490E080E0C8CFC4E0D0E044
:10554000D3CFC3E0D0E02AE02C9FF0012D9FF00DD7
:105550001124E753F94F9183808355834483538308
:10556000428377836683009729F333DEE3CFC4E079
:10557000D0E0E9CF8FEF9FEFACCF9C01039702976C
:1055800008F069C0F89484E09AE0482F50E02417AE
:1055900035070CF44DC091E08AE0829FF001839FB3
:1055A000F00D1124E753F94F1182108215821482F5
:1055B00013821282178216829923B1F18091E70635
:1055C0009091E806892BA9F42091EF063091F0061E
:1055D0002115310571F08091C9049091CA04821B94
:1055E000930B9093CA048093C9041092F006109212
:1055F000EF068091F1069091F206892BA9F4209193
:10560000F9063091FA062115310571F08091C9042F
:105610009091CA04821B930B9093CA048093C9048F
:105620001092FA061092F906789490E080E00895BE
:10563000949FF001959FF00D1124E753F94F40819D
:105640005181452B31F440855185452B11F4815012
:105650009CCF90E0A1CF8FEF9FEF089541155105AA
:1056600049F1009739F16115710521F1F894209104
:10567000C5063091C606232BB9F42091C706309198
:10568000C806232B89F49093C6068093C5067093B1
:10569000C8066093C706789425E030E090E080E08B
:1056A000FA0131832083089578942FEF3FEF86EF3E
:1056B0009FEFF6CF8FEF9FEF0895059769F4F89469
:1056C0001092C6061092C5061092C8061092C70620
:1056D000789490E080E008958FEF9FEF0895611532
:1056E000710519F4F0E0E0E011C08530910581F416
:1056F000E091C506F091C6063097A1F3CB01019663
:105700001995009779F3FC0185E08193CF01089505
:105710009C01235031092230310520F72AE0289FCF
:10572000D001299FB00D1124A753B94F2D913C9161
:105730001197232BB9F216962D913C9117972617A6
:10574000370780F2F89412962D913C91139721150A
:10575000310529F0ED91FC911197309711F478946F
:10576000C1CF4181528111965C934E9321503109F2
:1057700013963C932E93129781937894C7CFEFE1C1
:10578000F6E086EADF011D928A95E9F7EBECF4E09A
:1057900084E591E0DF019C011D9221503040E1F74A
:1057A0001092CA041092C904E9ECF6E082E3DF012A
:1057B0001D928A95E9F7E5ECF6E084E0DF011D92A1
:1057C0008A95E9F790E080E00895CF93DF93C09148
:1057D0006602D0916702CF3FDC0759F45ED4909304
:1057E00067028093660297FF09C0D0936702C09357
:1057F000660284EF9FEFDF91CF91089590E080E003
:10580000FACF8230910528F48093FB0690E080E087
:1058100008958FEF9FEF08954F925F926F927F925E
:10582000AF92BF92CF92DF92EF92FF920F931F93AE
:10583000CF93DF931F921F92CDB7DEB71A821982E2
:10584000009709F479C06115710509F475C02091BC
:1058500066023091670207EF1FEF2F3F3F4F09F4B9
:1058600045C06B015C01412C512C3201F12CE12C23
:1058700010E000E09E012F5F3F4FA6014E195F0927
:10588000B5016E0D7F1D809166029091670264D410
:10589000892B09F04BC089819A81009741F4E1146A
:1058A000F10429F42091FB06222309F442C0E80EFA
:1058B000F91EEC14FD04D0F480E8481684E858067C
:1058C0008EE16806710420F560E070E0CB010E9473
:1058D00011352AE0420E511C611C711C0A3F4FEF2A
:1058E000140721F0043F8FEF1807A1F4C8010F90AF
:1058F0000F90DF91CF911F910F91FF90EF90DF906C
:10590000CF90BF90AF907F906F905F904F90089531
:1059100001EF1FEF81E090E0013F2FEF120711F040
:1059200090E080E0892B09F4A5CFE0CF04EF1FEFD2
:10593000DDCF0AEF1FEFDACF0FEF1FEFD7CF4F9278
:105940005F926F927F92AF92BF92CF92DF92EF926F
:10595000FF920F931F93CF93DF931F921F92CDB7A8
:10596000DEB71A821982009709F479C061157105B2
:1059700009F475C0209166023091670207EF1FEFAE
:105980002F3F3F4F09F445C06B015C01412C512C66
:105990003201F12CE12C10E000E09E012F5F3F4F1F
:1059A000A6014E195F09B5016E0D7F1D809166023B
:1059B0009091670287D3892B09F04BC089819A8126
:1059C000009741F4E114F10429F42091FB0622230D
:1059D00009F442C0E80EF91EEC14FD04D0F480E492
:1059E000481682E458068FE06806710420F560E0EE
:1059F00070E0CB010E9411352AE0420E511C611C5F
:105A0000711C0E3F4FEF140721F0043F8FEF180772
:105A1000A1F4C8010F900F90DF91CF911F910F91CA
:105A2000FF90EF90DF90CF90BF90AF907F906F90FE
:105A30005F904F90089502EF1FEF81E090E0023FEA
:105A40002FEF120711F090E080E0892B09F4A5CF29
:105A5000E0CF04EF1FEFDDCF0EEF1FEFDACF0FEF38
:105A60001FEFD7CF80916602909167028F3F980712
:105A700049F00BD3892B49F48FEF9FEF9093670286
:105A80008093660290E080E0089584EF9FEF089590
:105A9000CF92DF92EF92FF920F931F93CF93DF93FA
:105AA00021E04115510509F020E041505109211133
:105AB0002CC0DC01FB01D12CC12C21E022C03FEF26
:105AC000C31AD30A7D010D911D91E701EA80FB8085
:105AD000E016F106A8F420813181E280F380F182A2
