:1000000075C00000A4C00000A2C00000A0C0000095
:100010009EC000009CC000009AC0000098C0000074
:1000200096C0000094C0000092C0000090C0000084
:100030008EC000008CC000008AC0000088C0000094
:1000400086C0000084C0000082C0000080C00000A4
:100050007EC000007CC000007AC000000C94EF2D30
:1000600076C000000C942C300C94623070C00000FC
:100070006EC000006CC000006AC0000068C00000D4
:1000800066C0000064C0000062C0000060C00000E4
:100090000C94B8300C94EE305AC0000058C00000E8
:1000A00056C0000054C0000052C0000050C0000004
:1000B0004EC000004CC000004AC0000048C0000014
:1000C00046C0000044C000000C94A9290C9444319F
:1000D0000C947A313CC000000C94D0310C94063260
:1000E00036C000008B301731A3312F3211241FBED0
:1000F000CFEFD1E2DEBFCDBF00E00CBF12E0A0E049
:10010000B2E0E2E8FBE600E00BBF02C007900D9210
:10011000A23FB107D9F728E0A2EFB2E001C01D92DB
:10012000A13EB207E1F710E0C6E7D0E000E006C06C
:1001300021970109802FFE010E941935C237D1078E
:1001400080E00807A9F70E94FF2A0C94BF3558CF1A
:10015000AB01BC0187E096E00C94BA34AB01BC0162
:1001600084EA96E00C94BA34AB01BC0181E497E0D8
:100170000C94BA34AB01BC018EED97E00C94BA3408
:100180008F929F92AF92BF92CF92DF92EF92FF92A7
:100190000F931F93CF93DF93CDB7DEB77B014A0157
:1001A0005901CDB6DEB69B01220F331F4DB75EB7A6
:1001B000421B530B0FB6F8945EBF0FBE4DBF0DB779
:1001C0001EB70F5F1F4FE82FF0E0EE0FFF1FE05F3D
:1001D000FD4F0190F081E02DC8011995F801D4017F
:1001E000E00EF11EEE15FF0519F081918D93FACF07
:1001F00081E0F50180830FB6F894DEBE0FBECDBE60
:10020000DF91CF911F910F91FF90EF90DF90CF90F2
:10021000BF90AF909F908F9008952F923F924F92F2
:100220005F926F927F928F929F92AF92BF92CF9286
:10023000DF92EF92FF920F931F93CF93DF9300D043
:1002400000D000D01F92CDB7DEB7682E7A876987BD
:10025000742EB52E3C832B8348012A2C312C4E2C36
:10026000512C81E090E0012B11F490E080E0849D1E
:100270009001859D300D949D300D112449855A853E
:10028000420F531F5A834983062D10E0000F111FA0
:10029000F801E050FE4F0190F081E02D199541E00A
:1002A00050E0C114D10411F450E040E0429D9001AF
:1002B000439D300D529D300D1124A981BA812A0F22
:1002C0003B1F821793075CF5E72DFB2D29853A85A7
:1002D0002E0F3F1F3A83298349815A81E417F5077E
:1002E00011F01192F9CFAB81BC811C922A960FB606
:1002F000F894DEBF0FBECDBFDF91CF911F910F915C
:10030000FF90EF90DF90CF90BF90AF909F908F9035
:100310007F906F905F904F903F902F900895C11401
:10032000D10409F441C0F12CE12CF801E050FE4F5A
:10033000FE83ED839801285F3D4F38872F83AD8181
:10034000BE81ED91FC91E214F30474F51995892BAB
:1003500081F4E72DFB2D29853A852E0F3F1F3A8327
:10036000298349815A81E417F50709F4BCCF11921A
:10037000F8CFAF81B885ED91FC911995F601EE0D9E
:10038000FF1D9081981761F021E030E0F601908127
:10039000981302C030E020E0EE24FF24E21AF30AB2
:1003A000FFEFEF1AFF0ACBCF980120503E4F6901B3
:1003B000D901ED91FC911995E981FA818E179F077A
:1003C00084F4E72DFB2D29853A852E0F3F1F3A83B4
:1003D000298349815A81E417F50709F484CF1192E2
:1003E000F8CF2B813C81472D5B2D69857A85862D41
:1003F000C7DE8114910409F479CF7401085F1D4FA1
:10040000C70188199909841595050CF06FCFD6019D
:10041000ED91FC911995892B81F4E72DFB2D298510
:100420003A852E0F3F1F3A83298349815A81E41769
:10043000F50709F458CF1192F8CFD801ED91FC914E
:100440001995F70191917F019817D1F2E72DFB2DB6
:1004500029853A852E0F3F1F3A83298349815A8186
:10046000E417F50709F43FCF1192F8CF87E096E043
:100470000C941C2F84EA96E00C941C2F81E497E0E6
:100480000C941C2F8EED97E00C941C2F87E096E0C7
:100490000C94022F84EA96E00C94022F81E497E0FA
:1004A0000C94022F8EED97E00C94022F882311F10B
:1004B000823071F08330A9F08130E1F426E030E041
:1004C00040E052EC61E070E081E090E00C9454294F
:1004D00026E030E040E052EC61E070E082E090E045
:1004E000F5CF26E030E040E052EC61E070E083E0E0
:1004F00090E0ECCF08952F923F924F925F926F92CF
:100500007F928F929F92AF92BF92CF92DF92EF92A3
:10051000FF920F931F93CF93DF931F92CDB7DEB758
:100520002B013A01D02EE9829C2DCA2CF401EF88D0
:10053000F88C998C6A8D7B8D4C8D843008F0EBC1E2
:10054000823051F0833009F456C0813049F434EAE6
:10055000232E36E0332E04C0A1E42A2EA7E03A2E43
:1005600030E02830310511F424E030E0269D5001C0
:10057000279DB00C369DB00C11240AE010E09923A1
:1005800051F000E110E0913031F008E010E09230DD
:1005900011F002E010E08111E1C0D11031C061150D
:1005A000710529F050E087E096E00E945C32A501D9
:1005B000B20187E096E00E945C32E114F10409F494
:1005C000AAC1492D50E0B70187E096E00F90DF9176
:1005D000CF911F910F91FF90EF90DF90CF90BF9040
:1005E000AF909F908F907F906F905F904F903F90D3
:1005F0002F900C945C325EED252E57E0352EB0CF57
:10060000BF0187E096E00E9498328981873008F028
:1006100082C1E82FF0E08827EF5EFC4F8F4F0C94EB
:1006200019353003430357036D03830397031803FE
:10063000AC2CB12CE1E06E1A710808F46CC1D20147
:100640004D915D916D917D912D01B1E0950187E016
:1006500096E0DB1280C00E947D34ECCF0E947033A4
:100660006A94AFEF6A1609F456C1F20161912F0145
:10067000F1E0A80187E096E0DF12F0CF0E946A3334
:10068000EFCF0E9485336A948FEF681609F443C157
:10069000D2016D917D912D01B1E0A80187E096E036
:1006A000DB12EFCF0E948033EECF0E9495336A9425
:1006B000EFEF6E1609F42FC1D2014D915D916D914E
:1006C0007D912D01B1E0980187E096E0DB12EDCF3E
:1006D0000E945E33ECCF0E943E336A94EFEF6E16B9
:1006E00009F419C1D2016D912D01062E000C770B72
:1006F000B1E0A80187E096E0DB12EDCF0E9438332D
:10070000ECCF0E943E336A94EFEF6E1609F403C1FA
:10071000D2016D917D912D01B1E0A80187E096E0B5
:10072000DB12EFCF0E943833EECF0E944E336A9433
:10073000EFEF6E1609F4EFC0D2014D915D916D910E
:100740007D912D01B1E0980187E096E0DB12EDCFBD
:100750000E94F332ECCF0E947E346CCFD11038C0AF
:100760006115710549F050E0D101ED91FC910280D5
:10077000F381E02DC1011995D101ED91FC91028029
:10078000F381E02DA501B201C1011995E114F10435
:1007900009F4C1C0492D50E0D101ED91FC910280D6
:1007A000F381E02DB701C1010F90DF91CF911F912F
:1007B0000F91FF90EF90DF90CF90BF90AF909F9000
:1007C0008F907F906F905F904F903F902F901994F3
:1007D000BF01C1010E949832B981B73008F09BC0B7
:1007E000EB2FF0E08827E850FC4F8F4F0C94193521
:1007F000160428043B04500464047604FF03AC2C64
:10080000B12CE1E06E1A710808F485C0D2014D9157
:100810005D916D917D912D01B1E09501C101DB12DA
:1008200077C00E947D34EDCF0E9470336A94EFEF61
:100830006E1609F470C0D2016D912D01B1E0A801CE
:10084000C101DB12F1CF0E946A33F0CF0E948533E1
:100850006A94EFEF6E1609F45EC0D2016D917D913E
:100860002D01B1E0A801C101DB12F0CF0E9480335D
:10087000EFCF0E9495336A94EFEF6E1609F44BC0E8
:10088000D2014D915D916D917D912D01B1E0980165
:10089000C101DB12EECF0E945E33EDCF0E943E33EA
:1008A0006A94EFEF6E16B9F1D2016D912D01062E0B
:1008B000000C770BB1E0A801C101DB12EFCF0E9461
:1008C0003833EECF0E943E336A94EFEF6E1619F183
:1008D000D2016D917D912D01B1E0A801C101DB1222
:1008E000F1CF0E943833F0CF0E944E336A94EFEF7D
:1008F0006E1689F0D2014D915D916D917D912D0122
:10090000B1E09801C101DB12EFCF0E94F332EECFCC
:100910000E947E3476CF0F90DF91CF911F910F917F
:10092000FF90EF90DF90CF90BF90AF909F908F900F
:100930007F906F905F904F903F902F90089590E040
:1009400080E008950F931F93009709F489C0611503
:10095000710509F485C000912002109121022091B7
:100960002202309123020E3F1F4F2F4F3F4F09F0BD
:1009700069C0DB014D915D916D917C9140932002A6
:10098000509321026093220270932302409120022F
:10099000509121026091220270912302DC01129693
:1009A000ED91FC9180819181A281B38180936A0352
:1009B00090936B03A0936C03B0936D038481958136
:1009C000A681B7818093660390936703A093680321
:1009D000B093690380859185A285B3858093620376
:1009E00090936303A0936403B09365038485958516
:1009F000A685B78580935E0390935F03A093600301
:100A0000B093610310925A0310925B0310925C033F
:100A100010925D030E94500D85E79DE09093F302D4
:100A20008093F2029093F5028093F40228D7009706
:100A300031F421E030E030936F0320936E031F9177
:100A40000F9108950091200210912102209122021D
:100A500030912302FB01008311832283338396CFDD
:100A60008FEF9FEFECCF8F929F92AF92BF92CF927A
:100A7000DF92EF92FF921F93CF93DF934B015C01C4
:100A80001091710382E090E090936F0380936E0366
:100A900081149104A104B10441F480917103811186
:100AA00004C080917003C1E08111C0E0C12CD12C41
:100AB000760180917103811106C0809170038111CC
:100AC00002C0CC23D9F083E090E090936F03809331
:100AD0006E03CC2379F1CCE9DFEF111102C00E9443
:100AE000D910CE01DF91CF911F91FF90EF90DF9051
:100AF000CF90BF90AF909F908F9008956AE070E084
:100B000080E090E00E946A2E80E1C80E87E2D81E45
:100B1000E11CF11C8FEF88169806A806B80631F084
:100B2000C1E08C149D04AE04BF0408F0C0E080E076
:100B3000DAD6BFCFD0E0C0E0D0CFCF92DF92EF9235
:100B4000FF920F931F93CF93DF938F3F910511F087
:100B500008F050C020916E0330916F0323303105AF
:100B600039F020916E0330916F032130310531F45B
:100B700024E030E030936F0320936E036A017B0121
:100B8000EC0182309105A0F011E0AE01C701B60181
:100B900075D6AB01BC01CE011123F9F0DF91CF91E5
:100BA0001F910F91FF90EF90DF90CF900C94FE1269
:100BB0008C01000F111F0E501D4FD8018D919C917B
:100BC000892B11F30E9408130297F1F6D801ED91D9
:100BD000FC91CE011995182FD8CF0E94201390E0D8
:100BE00080E0DF91CF911F910F91FF90EF90DF9008
:100BF000CF9008958FEF9FEFF4CF80E074C6CF932E
:100C0000DF9386E090E090936F0380936E03C4D6E9
:100C1000EC01E2EFF2E084E0DF011D928A95E9F752
:100C20000E94711010926F0310926E03CE01DF913B
:100C3000CF9108958091700308958091590308958C
:100C400060932002709321028093220290932302EA
:100C500090E080E00895CF92DF92EF92FF926B01D7
:100C60007C010AD5882379F0C090D308D090D408AD
:100C7000E090D508F090D608C701B601FF90EF903C
:100C8000DF90CF900895C701B601B1D48111ECCFA8
:100C900020E030E0A901C701B6010E94002C8823A2
:100CA00029F120E030E048EC52E4C701B6010E948F
:100CB0008C2C6B017C0120E030E0A9010E94002C0B
:100CC0008823A1F020E030E0A901C701B6010E940D
:100CD000002C87FFD1CF20E030E048EC52E4C70180
:100CE000B6010E94892B6B017C01C6CFC12CD12C8F
:100CF0007601C2CFCF92DF92EF92FF926B017C011F
:100D0000BBD4882379F0C090D308D090D408E09069
:100D1000D508F090D608C701B601FF90EF90DF909C
:100D2000CF900895C701B60162D48111ECCF20E0C5
:100D300030E0A901C701B6010E94002C882329F1E7
:100D400020E030E040E853E4C701B6010E948C2C5B
:100D50006B017C0120E030E0A9010E94002C882377
:100D6000A1F020E030E0A901C701B6010E94002CEB
:100D700087FFD1CF20E030E040E853E4C701B6015F
:100D80000E94892B6B017C01C6CFC12CD12C76012E
:100D9000C2CFFC0191E080913703811190E09183F3
:100DA0000895CF92DF92EF92FF926B017C019F77C3
:100DB00020E030E040E859E50E94002C87FF2BC07E
:100DC00020E030E040E05FE3C701B6010E94882DDB
:100DD00087FD0EC020E030E040E05FE3C701B601D0
:100DE0000E94892BFF90EF90DF90CF900C94722C93
:100DF00020E030E040E05FEBC701B6010E94882DA3
:100E0000181684F420E030E0A901C701B6010E9461
:100E10008C2D6B017C01C701B601FF90EF90DF9034
:100E2000CF90089520E030E040E05FE3C701B601D5
:100E30000E94882BFF90EF90DF90CF900C94ED2BC9
:100E4000AF92CF92DF92EF92FF920F931F93CF93C7
:100E5000DF9300D000D01F921F92CDB7DEB78091F4
:100E600037038F5F843608F0CBC080933703A12C03
:100E7000D12CC12CE12C10E000E024E838E043E85C
:100E800058E061E070E081E0C8D9109289081A82C8
:100E90001B821C821D821E82809184088130C1F4D5
:100EA000109183089091C6089111ADC01A3A81F44F
:100EB0001093BD0840E050E060E87FE34093B6083F
:100EC0005093B7086093B8087093B9088093C60828
:100ED00080918908882351F181E08093C5086A8157
:100EE00070E090E080E00E94352C6093AE08709333
:100EF000AF088093B0089093B1086B8170E090E0E8
:100F000080E00E94352C6093B2087093B308809300
:100F1000B4089093B5088C818093BB088D81809331
:100F2000BC088E8187FD8FE78093BA088091C50841
:100F3000809388088091AE089091AF08A091B00886
:100F4000B091B10880937B0890937C08A0937D08B2
:100F5000B0937E088091B2089091B308A091B40834
:100F6000B091B50880937F0890938008A093810882
:100F7000B09382088091BB08809385088091BC085B
:100F8000809386088091BA088093870860912A032D
:100F900070912B0380912C0390912D036F5F7F4FF5
:100FA0008F4F9F4F60932A0370932B0380932C03E2
:100FB00090932D030E94352C9B01AC0160912E0370
:100FC00070912F0380913003909131030E948C2DFA
:100FD000609326037093270380932803909329033B
:100FE00028960FB6F894DEBF0FBECDBFDF91CF912C
:100FF0001F910F91FF90EF90DF90CF90AF900895E9
:101000001092370334CF20E030E040E85FE3609196
:10101000B6087091B7088091B8089091B9080E94FD
:10102000892B6B017C01C092B608D092B708E09280
:10103000B808F092B9080E94042C6657774FFB015C
:1010400012AB20E030E040E051E4C701B6010E945D
:10105000002C81113DCFADEBB8E0FE013196CE0101
:1010600009962D9121938E179F07D9F781E08093E0
:1010700089081092B6081092B7081092B80810921A
:10108000B9081092C60824CF4F925F926F927F9258
:101090008F929F92AF92BF92CF92DF92EF92FF9288
:1010A0000F93CF93DF9300D000D01F92CDB7DEB760
:1010B000C0901802D0901902E0901A02F0901B0222
:1010C000C701B6010E94722C4B015C0120E030E0A8
:1010D00040E853E40E94002C87FF60C120E030E02C
:1010E000A901C501B4010E94882D87FD55C1C50124
:1010F000B4010E94092C698320E030E048EC52E4FE
:10110000C701B6010E948C2DA6DD0E94722C6B01D6
:101110007C0120E030E040E853E40E94002C87FF8F
:1011200042C120E030E0A901C701B6010E94882D2C
:1011300087FD37C1C701B6010E94092C6A83409020
:101140001C0250901D0260901E0270901F02C3018D
:10115000B2010E94722C6B017C0120E030E040E87B
:1011600053E40E94002C87FF23C120E030E0A90156
:10117000C701B6010E94882D87FD18C1C701B601BD
:101180000E94092C6B8320E030E048EC52E4C3015C
:10119000B2010E948C2D5FDD0E94722C2B013C015C
:1011A00020E030E040E853E40E94002C87FF05C1B6
:1011B00020E030E0A901C301B2010E94882D87FD23
:1011C000FAC0C301B2010E94092C6C8320E030E018
:1011D00040E853E4C501B4010E94002C87FFF2C02F
:1011E00020E030E0A901C501B4010E94882D87FDEF
:1011F000E7C0C501B4010E94092C6E8320E030E0F5
:1012000040E853E4C701B6010E94002C87FFDFC00D
:1012100020E030E0A901C701B6010E94882D87FDBA
:10122000D4C0C701B6010E94092C6F838E819A81B8
:10123000890F9927991F6F81860F911D6C81680F07
:10124000792F711D072E000C880B990B0E94372CEB
:1012500051DD9B01AC0160E070E080E893E40E9406
:10126000882B48DD9EDD6B017C0120E030E040E80A
:1012700053E40E94002C87FFAFC020E030E0A901BA
:10128000C701B6010E94882D87FDA4C0C701B60121
:101290000E94092C6D8385E58E838AEA8F83609195
:1012A000A0087091A1088091A2089091A3080E94C3
:1012B000092CC62E609198087091990880919A081F
:1012C00090919B080E94092CE62E60919C087091D9
:1012D0009D0880919E0890919F080E94092C062FDE
:1012E0006091940870919508809196089091970864
:1012F0000E94092CF62E60919008709191088091BF
:101300009208909193080E94092C862F91E09F9358
:101310009E01295F3F4F3F932F939F9321503109A7
:101320003F932F93912C812C92E0A92E2F2D45E0F5
:1013300050E0BE016F5F7F4FDED880913203909105
:101340003303A0913403B09135030196A11DB11D63
:101350008093320390933303A0933403B093350307
:101360000F900F900F900F900F900F9027960FB641
:10137000F894DEBF0FBECDBFDF91CF910F91FF90EC
:10138000EF90DF90CF90BF90AF909F908F907F9025
:101390006F905F904F9008951982AECE8FEF898342
:1013A000ABCE1A82CCCE8FEF8A83C9CE1B82EBCE16
:1013B0008FEF8B83E8CE1C8209CF8FEF8C8306CF13
:1013C0001E821CCF8FEF8E8319CF1F822FCF8FEFFE
:1013D0008F832CCF1D825FCF8FEF8D835CCFCF9219
:1013E000DF92EF92FF921F93CF93DF9384E090E020
:1013F000C7D0E0E1F3E080E090E0A6E9B3E480A7A5
:1014000091A7A2A7B3A78AE097EDA3E2BCE3868FDA
:10141000978FA0A3B1A385E098E1A6E3BBE4848302
:101420009583A683B7838CE99FE5AAE1B8EA808714
:101430009187A287B38784E99FEDA5EFB7EB8487F7
:101440009587A687B78780E890E7AEE4B5EC808BF8
:10145000918BA28BB38BA4E0B3E0B383A283E6EFBE
:10146000F2E01196FC93EE9389E492E091838083FD
:1014700093838283958384839783868391878087F0
:10148000938782879587848784E293E015969C935F
:101490008E93149784E193E013969C938E93129706
:1014A00040E355E760E070E018964D935D936D93CF
:1014B0007C931B97CAE8D8E01882C12CD12C760106
:1014C000C394C982DA82EB82FC8280E090E0A0E8DB
:1014D000BFE38E839F83A887B9878A879B87AC8762
:1014E000BD871E861F86188A198A1A8A1B8A1C8A3B
:1014F0001D8A1E8A1F8A188E198E81E00E9456024C
:1015000011E01D831C8ECD8EDE8EEF8EF8A281E061
:101510000E94560219A3DF91CF911F91FF90EF9087
:10152000DF90CF9008958091A608811103C081E0DB
:101530008093A60880918A08811103C081E080937E
:101540008A08089560E070E080E89FE7089560E011
:1015500070E080E89FE7089560E070E080E89FEF2A
:10156000089560E070E080E89FEF089560E070E02B
:1015700080EC9FEF089560E070E080EC9FEF0895AD
:10158000F5DF6093D3087093D4088093D5089093C7
:10159000D608F1DF6093C7087093C8088093C90824
:1015A0009093CA08CFDF6093CF087093D0088093E0
:1015B000D1089093D208CBDF6093CB087093CC080E
:1015C0008093CD089093CE08C7DF6093D7087093BF
:1015D000D8088093D9089093DA08C3DF6093DB08BA
:1015E0007093DC088093DD089093DE080895CF9215
:1015F000DF92EF92FF92CF936B017C01AC019B01D4
:101600006091CF087091D0088091D1089091D20854
:101610000E94002CC1E0882371F0A701960160911F
:10162000D7087091D8088091D9089091DA080E9463
:10163000002C8111C0E08C2FCF91FF90EF90DF90B4
:10164000CF9008950F931F938B019C0100271127C2
:1016500020783F770115110520483F4749F4AB0139
:10166000BC016F77772781E0452B462B472B09F488
:1016700080E01F910F910895E5CF4F925F926F9296
:101680007F928F929F92AF92BF92CF92DF92EF9212
:10169000FF920F931F93F8944090490350904A0390
:1016A00060904B0370904C03C0903D03D0903E037C
:1016B000E0903F03F0904003452B09F0A4C09B014C
:1016C000AC01241935094609570929013A0100914D
:1016D0004503109146032091470330914803480188
:1016E0005901840C951CA61CB71C80169106A206F5
:1016F000B306A0F4009141031091420320914303EB
:10170000309144030F5F1F4F2F4F3F4F0093410312
:101710001093420320934303309344038092450384
:1017200090924603A0924703B09248030091410370
:1017300010914203209143033091440380924D0362
:1017400090924E03A0924F03B09250030093510326
:10175000109352032093530330935403609349032F
:1017600070934A0380934B0390934C03A0E1B7E23C
:10177000A30192010E9421356C0D7D1D8E1D9F1DC0
:1017800060933D0370933E0380933F039093400327
:101790000091200210912102209122023091230217
:1017A0000F3F1F4F2F4F3F4FF1F00091200210913C
:1017B000210220912202309123020E3F1F4F2F4F12
:1017C0003F4F89F0C0902002D0902102E090220289
:1017D000F090230221E08C149D04AE04BF0408F4B1
:1017E00020E02093590378941F910F91FF90EF9080
:1017F000DF90CF90BF90AF909F908F907F906F9031
:101800005F904F9008954B015C0184189508A608DD
:10181000B708A3019201261B370B480B590B64151F
:10182000750586059705D0F082169306A406B506C1
:1018300040F420E030E0A90181149104A104B10436
:1018400091F4A0E1B7E20E942135A7019601261B81
:10185000370B480B590BCA01B901C5CF8216930645
:10186000A406B50670F7A0E1B7E2A50194010E94B5
:1018700021356C0D7D1D8E1D9F1DB5CFFECECF93E6
:10188000DF9300D01F92CDB7DEB71C821B821A8275
:10189000198210925503109256031092570310921A
:1018A0005803BE016F5F7F4FCE0103960E943E2911
:1018B00069817A818B819C810E942D22009761F43D
:1018C000BE016F5F7F4FCE0103960E944A29698156
:1018D0007A818B819C812AD50F900F900F900F9069
:1018E000DF91CF910895FF920F931F93CF93DF93D2
:1018F000082F60E070E0CB010E946A2EFF24F39471
:101900000E941621EC01892B89F010E0CE3F8FEF69
:10191000D80769F0002361F160E070E0CB010E941C
:101920006A2E81E090E0892B59F322C011E021D585
:10193000EC01892B21F0CE3F8FEFD80759F7111119
:101940001EC011E0229609F410E00E94C620EC01AE
:10195000892B21F0CE3F8FEFD807E1F6111111C08E
:1019600011E0CE3F8FEFD80709F410E001110BC052
:10197000CE01DF91CF911F910F91FF90089511E05B
:10198000E4CF11E0F3CF60E070E0CB010E946A2E5B
:101990001F25812F90E0C7CFCF93DF93809159030C
:1019A000882321F060E070E0CB0148D631D6D0E04A
:1019B000C0E0892B71F06AE070E080E090E00E9466
:1019C0006A2E81E090DF24D62196C03D27E0D20721
:1019D00081F723D60E948122109271031092700326
:1019E00010926A0310926B0310926C0310926D03B5
:1019F00010926603109267031092680310926903B5
:101A000010926203109263031092640310926503B4
:101A100010925E0310925F031092600310926103B4
:101A200010925A0310925B0310925C0310925D03B4
:101A30004EEF5FEF6FEF7FEF409320025093210254
:101A4000609322027093230210925903EDE4F3E0B5
:101A500028E0DF011D922A95E9F7109249031092C0
:101A60004A0310924B0310924C03109245031092BC
:101A700046031092470310924803109241031092BC
:101A80004203109243031092440310923D031092BC
:101A90003E0310923F0310924003DF91CF910895CF
:101AA00010927D0310927E0310927F0310928003A8
:101AB00010927C03809185039091860390937B0321
:101AC00080937A0310927903109278031092740332
:101AD000109275031092760310927703109282038E
:101AE0001092810390E080E00895CF92DF92EF9210
:101AF000FF920F931F93CF938C01892B09F055C050
:101B0000209185033091860380917A0390917B0325
:101B1000409185035091860350937B0340937A0351
:101B20002817390781F010927903109278031092E8
:101B3000740310927503109276031092770310923B
:101B4000820310928103809185039091860301970F
:101B500061F58091810390918203892B21F480911A
:101B60002402811112C08091810390918203019718
:101B7000E1F48091740390917503A0917603B09184
:101B800077030197A105B10581F4109274031092B7
:101B9000750310927603109277031092240282E06C
:101BA00090E09093820380938103809185039091CC
:101BB0008603019709F01CC180919B0390919C03BF
:101BC0008017910709F014C18091970390919803B1
:101BD000A0919903B0919A03009709F409C120914B
:101BE000960321110DC04091970350919803609185
:101BF000990370919A03452B462B472B09F4F8C0A3
:101C000020918103309182032230310509F0F0C028
:101C1000209178032111ECC0FC01C080D180E280CA
:101C2000F38080917C03882309F4D3C080918803DA
:101C300090918903892B09F4FDC02091880330918C
:101C4000890381E02230310509F080E0209188038A
:101C500030918903C1E02130310549F0209188039A
:101C600030918903C1E02230310509F0C0E08823BA
:101C700009F456C02091920330919303409194034C
:101C800050919503C701B6010E94882D87FD14C0AD
:101C900020919203309193034091940350919503C6
:101CA00060917D0370917E0380917F03909180030A
:101CB0000E94002C87FD22C0209192033091930353
:101CC0004091940350919503C701B6010E94882D5D
:101CD000181634F5209192033091930340919403A8
:101CE0005091950360917D0370917E0380917F03F5
:101CF000909180030E94002C811112C080918A0370
:101D000090918B03A0918C03B0918D03892B8A2B2A
:101D10008B2B19F481E08093790381E08093780321
:101D2000CC2309F456C02091920330919303409143
:101D3000940350919503C701B6010E94002C87FFC0
:101D400014C02091920330919303409194035091D9
:101D5000950360917D0370917E0380917F03909144
:101D600080030E94882D87FF22C02091920330912A
:101D700093034091940350919503C701B6010E94CB
:101D8000002C811126C02091920330919303409141
:101D900094035091950360917D0370917E0380912F
:101DA0007F03909180030E94882D181694F48091EF
:101DB0008A0390918B03A0918C03B0918D03892BA2
:101DC0008A2B8B2B19F481E08093790381E0809337
:101DD000780381E090917803911180E080937C03F7
:101DE000C0927D03D0927E03E0927F03F092800345
:101DF000012B09F067C18091810390918203892BA7
:101E0000D9F41092870310927803809124028823DA
:101E100079F082E090E090938203809381031092A6
:101E20002402209185033091860381E0232BE9F081
:101E300080E01BC081E00ACF1092240280918703CA
:101E4000882349F010927903109282031092810343
:101E500010928703EDCF8091850390918603892BA3
:101E6000E1F0809178031092780320918103309102
:101E700082032230310509F45EC088F42115310552
:101E800009F448C02130310509F4F3C010927903F8
:101E9000109278031092870338C081E0E6CF233098
:101EA000310509F4B1C02430310581F74091740344
:101EB0005091750360917603709177034115510538
:101EC0006105710561F04150510961097109409343
:101ED0007403509375036093760370937703409176
:101EE0007403509175036091760370917703452BCD
:101EF000462B472BD9F42091830330918403213062
:101F0000310509F046C010927903109282031092B5
:101F100081030CC080912402882341F082E090E08C
:101F20009093820380938103109224021092720393
:101F300080917903CEC08823C9F380918A03909160
:101F40008B03A0918C03B0918D03181619061A0605
:101F50001B060CF07DC0809185039091860301974C
:101F600009F076C080918A0390918B03A0918C0335
:101F7000B0918D038093740390937503A0937603BF
:101F8000B093770383E090E0909382038093810382
:101F9000CDCF40918E0350918F036091900370914B
:101FA0009103452B462B472BA9F010927903809182
:101FB0008E0390918F03A0919003B0919103809331
:101FC000740390937503A0937603B093770381E035
:101FD00090E0DACF882399F0809125029091260233
:101FE000A0912702B0912802809374039093750307
:101FF000A0937603B093770384E090E0C5CF10926E
:10200000790382E090E0C0CF8091740390917503D2
:10201000A0917603B09177030097A105B10559F01F
:102020000197A109B1098093740390937503A0935C
:102030007603B09377038091740390917503A09118
:102040007603B0917703892B8A2B8B2B09F06ECF07
:102050008091250290912602A0912702B09128023A
:10206000892B8A2B8B2B09F44ECF81E08093790347
:10207000B3CF4091740350917503609176037091D2
:102080007703411551056105710561F04150510912
:10209000610971094093740350937503609376034B
:1020A00070937703409174035091750360917603A8
:1020B00070917703452B462B472B09F037CF8111C1
:1020C000C7CF9FCF80917203882309F431CF8091CD
:1020D0007303CF911F910F91FF90EF90DF90CF90FE
:1020E000089510927D0310927E0310927F03109248
:1020F000800310927C03109282031092810310924D
:102100007B0310927A0310929C0310929B0310920F
:102110007903109278031092740310927503109251
:102120007603109277031092730310927203109249
:102130009703109298031092990310929A031092A9
:1021400096031092920310929303109294031092AC
:10215000950388EE93E0A0E0B0E080932502909391
:102160002602A0932702B093280210928E031092A9
:102170008F03109290031092910310928A03109291
:102180008B0310928C0310928D031092890310928E
:10219000880381E0809324021092870310928603C3
:1021A00010928503109284031092830390E080E0E4
:1021B00008958091850390918603892BE1F48091A5
:1021C0002402882351F080918703811106C081E0A9
:1021D000809373038093720308958091870388230B
:1021E00041F080912402811104C01092730381E0B8
:1021F000F1CF10927203089582E090E0FA0191838A
:1022000080838FEF9FEF0895CF93DF93EA010097CC
:1022100011F00E94A1231982188290E080E0DF91E2
:10222000CF910895DB01009719F48FEF8C930895F7
:102230002EEF2C93FC017096E031F10508F037C0C9
:102240008827EA5DFE4E8F4F0C94193555115311B6
:1022500051114F114D114B114711491145114311A6
:1022600041113E113A1136113C11571180E311967C
:102270008C93089589E2FBCF82E2F9CF11961C92EC
:10228000089583E2F4CF81E2F2CF81E1F0CF87E2DB
:10229000EECF8AE2ECCF80E1EACF84E2E8CF88E2B9
:1022A000E6CF86E2E4CF81E3E2CF83E3E0CF80E2D2
:1022B000DECF8091A9039091AA0308959093AA0379
:1022C0008093A90308958091A80308959091A8038D
:1022D000892B8093A8030895982F90958091A80347
:1022E00089238093A80308958091A703089580917E
:1022F000A5039091A60308956115710559F0FB019E
:1023000030E020E070E060E02417350719F0611537
:10231000710511F0CB010895A081B181A817B9070B
:1023200009F4BF012F5F3F4F3696EECF8091AB038C
:1023300081111CC060D266D290939E0380939D034E
:102340000E949F1B0E94B11B9093A2038093A10344
:102350000E942E200E9435209093A00380939F031B
:1023600081E08093AB0390E080E0089584EF9FEFDD
:1023700008958F929F92AF92BF92CF92DF92EF9289
:10238000FF920F931F93CF93DF9300D000D000D024
:102390001F92CDB7DEB71A86198618861F821E8255
:1023A0001D821C821B821A8219828091AB0307EF67
:1023B0001FEF882309F49CC08E010D5F1F4F9E0103
:1023C0002B5F3F4FAE01495F5F4FBE01675F7F4F9D
:1023D00090E080E00E94B2218C01009721F00596E8
:1023E000029708F0DBC029853A852115310509F4EB
:1023F00002C1ED80FE804B815C81B701640F751FC7
:102400008F8198858617970708F4F5C0E20EF31EB2
:10241000D7019C91903C09F07FC04230510508F4EF
:102420007BC011968C914091A9035091AA03452B32
:1024300009F49CC0913F08F071C02CE1290F2D30A8
:1024400008F48BC02DE2290F203108F489C0903C9C
:1024500021F48150823008F483C088E3890F8B30E7
:1024600008F481C092E1C92E91E1D92EECEFF0E1A0
:102470006D817E81AE014F5F5F4F89859A85199589
:102480005C01C114D104A1F189809A808114910466
:1024900079F18B819C818815990508F487C010E03B
:1024A00000E04B815C8170E060E0C7010E94B835BC
:1024B00001151105E9F449815A8169857A858D8173
:1024C0009E81680F791FC501F6011995E980FA8090
:1024D0000D811E812F81388549855A856FEF7FEFE9
:1024E00081E090E00E944D218C01892B09F056C0BB
:1024F000C8012A960FB6F894DEBF0FBECDBFDF919C
:10250000CF911F910F91FF90EF90DF90CF90BF90F0
:10251000AF909F908F90089580E085CF30E020E0CD
:10252000220F331FF901E356FC4F0190F081E02D9B
:10253000309709F497CF892F90E01995009709F407
:1025400091CFDC011296ED91FC9113971496CD90EA
:10255000DC90309709F08CCF1FC021E030E0E0CF55
:1025600022E030E0DDCF23E030E0DACFD12CC12C07
:10257000E4E0F1E19F3F09F07BCFE0919D03F09112
:102580009E03309721F4C90104EF1FEF0CC08FEFB9
:1025900090E019950097A9F604EF1FEF89859A85B9
:1025A000009709F4A5CF0E94A123A2CF0E947C220C
:1025B0008C0189859A850E94A12370E060E0C401A6
:1025C0000E94152298878F830E944A219E838D83C3
:1025D0006F8178856115710559F0C8010E942D251C
:1025E0009A87898706EF1FEF892B09F058CF59CFBB
:1025F00008EF1FEF56CF08EF1FEFD0CF2091AB03AE
:10260000222319F020E00C94B61B87EF9FEF08956A
:102610008091A9039091AA0308950E943A200E94F4
:10262000941FF5D0EDE9F3E088E0DF011D928A9573
:10263000E9F71092AB0390E080E008950C94F21D4E
:1026400021E040E050E0BA010C94B61B86E090E037
:10265000FA019183808390E080E0089547E050E0A4
:102660006CE472E049CEDF92EF92FF920F931F93DA
:10267000CF93DF938A01EC01C60FD71FE090AF0321
:10268000F090B003D9800E946422D816190678F021
:1026900082E090E0F801918380838EEF9FEFDF91DD
:1026A000CF911F910F91FF90EF90DF900895EF2849
:1026B00041F482E090E0F8019183808384EF9FEF02
:1026C000EECF89818093AE0390E00196F80191836B
:1026D000808390E080E0E3CFCF93DF93EA010E9414
:1026E000A31E882321F00E9471220E94A41E82E072
:1026F00090E0998388838BEF9FEFDF91CF910895CE
:10270000CF93DF93EB0186E0FB0111928A95E9F705
:102710008FEF8883D8DD8983E7DD8A83E8DD9D83B9
:102720008C83DF91CF910895CF93DF93EA010E94CC
:10273000A61E811109C082E090E09983888385EF0D
:102740009FEFDF91CF91089590E080E0B7DD81E0C9
:1027500090E09983888390E080E0F3CF0F931F93FC
:10276000CF93DF93EA018C01060F171F0E94A61E6C
:1027700081110BC082E090E09983888385EF9FEF01
:10278000DF91CF911F910F910895F80181818230DF
:1027900038F082E090E0998388838EEF9FEFF0CF4E
:1027A00081E090E08BDD88E090E09983888390E081
:1027B00080E0E6CFCF93DF930097D1F4EB01FB01EC
:1027C000329686E0DF011D928A95E9F78FEF8883C4
:1027D00085E089831A820E9464228B830E9463228F
:1027E0009D838C8381E08E838F83DF91CF910895C9
:1027F000DF91CF9117CD8EE293E19093AD0380935B
:10280000AC0308958091AC039091AD0308951092AC
:10281000AD031092AC0308958091AF039091B00383
:102820000895411105C0611571058105910561F09B
:102830006093AF037093B0038093B1039093B2039E
:102840004093B30381E0089580E00895FF920F93D1
:102850001F93CF93DF938A01EC01C60FD71FF98036
:102860000E946422F816190668F082E090E0F801F0
:10287000918380838EEF9FEFDF91CF911F910F9116
:10288000FF9008956C817D818E819F814B81C9DF8E
:10289000811108C082E090E0F8019183808384EF89
:1028A0009FEFEACF89818093AE0390E00196F80113
:1028B0009183808390E080E0DFCFCF93DF93EA01C4
:1028C000FC01E60FF71F6481758186819781438142
:1028D000A8DF811109C082E090E09983888384EFAA
:1028E0009FEFDF91CF91089581E090E099838883F5
:1028F00090E080E0F6CFEFEAF3E040815181628121
:102900007381480F511D611D711D40835183628386
:1029100073830895CF93C091AE034C2F50E0609124
:10292000AF037091B00301960E94AF358C2FE3DFA7
:102930001092AE03CF910895009799F48091AF0360
:102940009091B0032FEFFB012083892B59F0209148
:10295000AE0330E02F5F3F4F2417350719F4CB014A
:10296000D9CF60CC0895009799F48091AF039091EE
:10297000B0032FEFFB012083892B59F02091AE0388
:1029800030E02F5F3F4F2417350719F4CB01C2CF3A
:1029900049CC089523E1AC01249FC001259F900DEF
:1029A0001124E091B803F091B903E80FF91F2381D6
:1029B00034812250310981E02230310508F080E075
:1029C00008950F931F93CF93DF930091BA03109153
:1029D000BB03D0E0C0E080E00C171D0749F491E094
:1029E000811190E0892FDF91CF911F910F91089570
:1029F0008111F5CFCE01CEDF2196EECFA091B803A5
:102A0000B091B903109729F12091BA033091BB031B
:102A100082179307F0F453E1589F9001599F300DAE
:102A20001124A20FB31FED91FC911197309789F0FB
:102A300012968C91681768F48DE0689FE00DF11D87
:102A4000112480819181892B21F081E092814917A5
:102A500008F080E008959C0143E1429FC001439F3C
:102A6000900D1124E091B803F091B903E80FF91F1C
:102A70008385823091F481E090E065817681409198
:102A8000290250912A026417750711F490E080E042
:102A9000892B19F081E0232B09F080E00895FC01D7
:102AA000A081B1818DE0689FA00DB11D1124139606
:102AB0004D915C9185859685489F9001499F300D89
:102AC000589F300D1124C9010196611103C047813F
:102AD00044FD04960895EF92FF920F931F93CF93B6
:102AE000DF93EA01FC01E60FF71F02811381E48006
:102AF000F5804F2D6E2DC80181DF81110DC082E060
:102B000090E0998388838EEF9FEFDF91CF911F91A3
:102B10000F91FF90EF900895C8013CDF882339F0B2
:102B200082E090E09983888388EF9FEFEECF109347
:102B3000300200932F02E0923102F092320281E0E3
:102B400090E09983888390E080E0DFCFCF92DF929E
:102B5000EF92FF920F931F93CF93DF937A01EC01D3
:102B6000C60FD71FC0902F02D090300200913102C3
:102B700010913202412F602FC60140DF811110C039
:102B800082E090E0F701918380838AEF9FEFDF91ED
:102B9000CF911F910F91FF90EF90DF90CF9008950C
:102BA000C601F8DE882341F082E090E0F7019183CE
:102BB000808388EF9FEFEBCF4C815D816E817F81B9
:102BC0009A8189818F3F41F082E090E0F701918303
:102BD00080838EEF9FEFDBCFE3E1EC9D9001ED9DD5
:102BE000300D1124E091B803F091B903E20FF31F07
:102BF0000190F081E02D2DE0029FE00DF11D1124E8
:102C00000190F081E02D27E0129FE00DF11D1124CD
:102C1000808391838B81828343835483658376830E
:102C20001F5F1093320281E090E0F701918380836F
:102C300090E080E0ACCFEF92FF920F931F93CF9381
:102C4000DF937A018C01060F171FC091B803D09152
:102C5000B903209781F021E030E0F801828193816F
:102C60004091BA035091BB038417950710F030E0F0
:102C700020E0232B71F482E090E0F70191838083C0
:102C80008EEF9FEFDF91CF911F910F91FF90EF900B
:102C9000089543E1489F9001499F300D1124C20FD0
:102CA000D31F78DE882341F082E090E0F701918322
:102CB000808388EF9FEFE6CFF801248135812038AB
:102CC0003105C8F687818111D6CF4181842F90E0EC
:102CD0008F7E009741F082E090E0F701918380833E
:102CE00086EF9FEFCFCF4F833E832D8326812887AA
:102CF0001986223010F421E0288721E030E0F70126
:102D000031832083BFCF88E090E0FA0191838083F4
:102D100090E080E00895FB018FEF808381E1818363
:102D20008FEF9FEF9383828380E890E09583848385
:102D3000168217820895FB018FEF808391E09183C3
:102D400082839383848384E3858381E090E0978307
:102D50008683089582E090E0FA019183808380EF7A
:102D60009FEF0895DF92EF92FF920F931F93CF93FF
:102D7000DF93EA01FC01E60FF71F8181813071F0DA
:102D800082E090E0998388838FEF9FEFDF91CF916E
:102D90001F910F91FF90EF90DF90089582819381B2
:102DA000D4802581E680F7800091B8031091B903A3
:102DB0000115110539F482E090E0998388838CEF46
:102DC0009FEFE4CF4091BA035091BB03841795075E
:102DD00038F082E090E0998388838EEF9FEFD6CF22
:102DE000892B39F082E090E09983888386EF9FEF0A
:102DF000CDCF8D2D8D7FB1F72130A1F781E0D1109E
:102E000006C091E0E916F10431F080E004C0E2E090
:102E1000EE16F104D0F3882329F390E080E0BADDC8
:102E2000882339F082E090E09983888388EF9FEFD0
:102E3000ADCFF801D38681E08487F686E586108AD7
:102E4000178681E090E09983888390E080E09ECFB0
:102E50004DE050E066E772E04FCA8F929F92BF92BA
:102E6000CF92DF92EF92FF920F931F93CF93DF9356
:102E7000EA01FC01E60FF71F828193810481B5808E
:102E8000E091B803F091B903309791F482E090E0BB
:102E9000998388838CEF9FEFDF91CF911F910F91E2
:102EA000FF90EF90DF90CF90BF909F908F9008950C
:102EB0002091BA033091BB038217930738F082E068
:102EC00090E0998388838EEF9FEFE6CF23E1289FE0
:102ED0006001299FD00C1124EC0DFD1DE080F180D4
:102EE000E114F10499F28281081748F78DE0089FF8
:102EF00080011124E00EF11EF70180819181892B60
:102F000029F6BB20E1F2F7E0BF9E40011124C40185
:102F10000E946823F70191838083E091B803F091C8
:102F2000B903EC0DFD1D0190F081E02DE00FF11FC4
:102F300080819181009739F482E090E099838883C1
:102F40008DEF9FEFA9CFA40170E060E00E94B8353B
:102F50008091B8039091B903C80ED91EF601808103
:102F60009181080F191FF801B28281E090E09983E6
:102F7000888390E080E090CFAF92BF92CF92DF92B3
:102F8000FF920F931F93CF93DF93EA01FC01E60FAB
:102F9000F71F82819381F4800091B8031091B903E7
:102FA0000115110581F482E090E0998388838CEF0C
:102FB0009FEFDF91CF911F910F91FF90DF90CF9006
:102FC000BF90AF9008952091BA033091BB03821750
:102FD000930738F082E090E0998388838EEF9FEF2B
:102FE000E8CF2FEF2F0D2C3FA8F723E1289F60019A
:102FF000299FD00C11240C0D1D1DF8018081918199
:10300000892B89F6FDE0FF9E50011124C5010E9425
:103010006823F80191838083E091B803F091B903AC
:10302000EC0DFD1D80819181009739F482E090E0E4
:10303000998388838DEF9FEFBCCFA50170E060E09E
:103040000E94B835E091B803F091B903EC0DFD1D75
:10305000F28281E090E09983888390E080E0A9CFBC
:10306000CF92DF92EF92FF920F931F93CF93DF9354
:10307000860F971FFC01028113818091B803909104
:10308000B903892B81F082E090E0FA01918380837B
:103090008CEF9FEFDF91CF911F910F91FF90EF90F9
:1030A000DF90CF900895C801B0E0A0E00197A1099A
:1030B000B1098F3F9F4FA105B10540F082E090E03C
:1030C000FA01918380838EEF9FEFE4CF7A0183E151
:1030D000809F6001819FD00C1124C6010E9468234B
:1030E000EC01009741F482E090E0F7019183808346
:1030F0008DEF9FEFCFCFA60170E060E00E94B83562
:10310000D093B903C093B8031093BB030093BA03E1
:1031100090E080E02FEF3FEF41E061E070E080174A
:10312000910741F481E090E0F7019183808390E082
:1031300080E0B0CF3A8B298B1B864C877E876D87CA
:10314000188A1F8601966396EACFEF92FF921F932B
:10315000CF93DF93EC0110E0F12CE12C6A8116177C
:10316000B0F083E0689FB0011124AE014F5E5F4F65
:10317000C7010E94CD23009721F02FEF3FEF3A8B3C
:10318000298BDF91CF911F91FF90EF900895612FD0
:10319000CE0185DC61E070E00E941522E816F90698
:1031A00008F47C011F5FDACFF8942091B6033091C8
:1031B000B70381E02115310509F080E0232B09F0E8
:1031C000789408952F923F924F925F926F927F92E0
:1031D0008F929F92AF92BF92CF92DF92EF92FF9227
:1031E0000F931F93CF93DF933C01660E771EF3017D
:1031F000828193814C01B12CA12CC091B803D09154
:10320000B903209769F021E030E06091BA03709132
:10321000BB038617970710F030E020E0232BD1F492
:1032200082E090E0FA01918380838EEF9FEFDF913F
:10323000CF911F910F91FF90EF90DF90CF90BF90B3
:10324000AF909F908F907F906F905F904F903F9046
:103250002F9008958092330290923402A09235020A
:10326000B092360263E1689F9001699F300D11248E
:10327000C20FD31FF3018181833040F082E090E0E0
:10328000FA019183808386EF9FEFD1CF2A012B81B2
:103290003C81232BF1F4288139819F8191FF2EC03D
:1032A000232B09F46FC02091BD039A81422F490F4F
:1032B0005527551FBA0141E050E06138710514F0FF
:1032C00050E040E0452B09F45DC02A87920F9093AF
:1032D000BD038150823008F481C066DF882309F481
:1032E000D8C0F3018181813009F48DC008F47BC01E
:1032F000823009F4C6C090E080E0ADC0232B09F411
:1033000041C02091BC039A81E22FE90FFF27FF1FE4
:1033100041E050E0ED3FF10514F050E040E0452B76
:1033200089F12A87920F9093BC03D3CFA081B181FA
:10333000A20FB31F11966C91060F111D0196295F04
:103340003F4F8417950794F38D859E85089F100144
:10335000099F300C189F300C1124C114D104D1F4F2
:103360008F8184FF17C00E946322F5E02F0E311C6D
:1033700021E08215930508F420E0A701435F5F4F29
:1033800021110EC082E090E0F2019183808387EFEB
:103390009FEF4DCF0E9463222FEF221A320AE8CF0F
:1033A00088819981E80EF91EF70114830383FFEFEA
:1033B000CF1ADF0A7A018A818C151D0409F00CF4FA
:1033C0008CCFE881F981EE0DFF1D428150E030E0A5
:1033D00020E010E000E090E080E0B3CFF12CE12CA1
:1033E000D12CC12CE8CF81E090E09C838B83E9DA7B
:1033F000882309F480CF81E090E00E945E1180E490
:103400000E946C1178CF89899A89019661F083E0D6
:1034100090E09C838B8382E090E00E945E1180E4C8
:103420000E94661168CF8D819E8120912902309182
:103430002A0282179307D1F460912D0270912E0217
:10344000AE014F5E5F4F80912B0290912C020E9443
:10345000EC240097E1F2789422E030E0F20131832D
:103460002083892B99F08DEF9FEFE1CE89288A2860
:103470008B2869F6029758F6CE0167DE188A1F86F8
:10348000E8CF82E090E09C838B8335CF90E080E0B2
:10349000CECE82E090E0F2019183808385EF9FEFB2
:1034A000C6CE8F929F92AF92BF92CF92DF92EF9251
:1034B000FF920F931F93CF93DF93EA018C01060FC6
:1034C000171FF8018181833098F082E090E09983A2
:1034D000888386EF9FEFDF91CF911F910F91FF902F
:1034E000EF90DF90CF90BF90AF909F908F90089516
:1034F0008091B8039091B903892B61F081E090E04D
:103500002091BA033091BB03232B11F490E080E0AB
:10351000892B39F482E090E0998388838EEF9FEFC6
:10352000DACF42DE882309F4E0C0F80181818130DE
:1035300009F496C0E8F0823099F42091BA033091F2
:10354000BB03E091B803F091B90390E080E041E063
:1035500050E02817390709F0BEC033DA811117C0CF
:10356000789481E090E09983888390E080E0B3CF05
:103570002091BA033091BB03E091B803F091B903F5
:1035800090E080E041E050E02817390741F481E005
:1035900090E00E945E1180E40E946C11E1CF638193
:1035A0007481672B11F05483438301967396ECCF9B
:1035B000E091B803F091B903E00FF11F238134814A
:1035C00022303105D9F4218932892F3F3F4FB1F4A0
:1035D000258136814091290250912A02241735070E
:1035E00061F5AF014F5E5F4F60912D0270912E0229
:1035F00080912B0290912C020E94EC24EFEFCE1AC6
:10360000DE0AEE0AFE0A0D5E1F4F4091BA0350918A
:10361000BB0370E060E0C416D506E606F70644F585
:10362000009731F27894892B09F49BCF82E090E0E7
:10363000998388838DEF9FEF4ECFC114D104E104AD
:10364000F104E1F622303105C8F6CF017EDDE091CC
:10365000B803F091B903E00FF11F108A1786CECF9F
:1036600010E000E090E080E0C12CD12C7601CDCFBD
:103670000097C1F610E000E0812C912C540183E00A
:10368000E82EF12C1AC0E091B803F091B903E00FD5
:10369000F11F83819481029749F4F482E38282E0EE
:1036A00090E00E945E1180E40E946611FFEF8F1A85
:1036B0009F0AAF0ABF0A0D5E1F4F8091BA03909117
:1036C000BB03B0E0A0E088169906AA06BB06DCF2B0
:1036D00090E080E0A7CF638174816230710511F4BE
:1036E000548343830196739634CF82E090E09983AC
:1036F000888385EF9FEFEFCE0097B9F48FEFFB0142
:103700008083209133023091340243E1429FC00113
:10371000439F900D1124E091B803F091B903E80F95
:10372000F91F8285FB01818308950C94121188E0B2
:1037300090E0FA019183808390E080E008951092F8
:10374000B7031092B603E8EBF3E086E0DF011D92C9
:103750008A95E9F788E297E19093B5038093B403E3
:1037600008958091B4039091B50308952F923F92EC
:103770004F925F926F927F928F929F92AF92BF9281
:10378000CF92DF92EF92FF920F931F93CF93DF932D
:10379000CDB7DEB72F970FB6F894DEBF0FBECDBF03
:1037A000F894E091B603F091B7033196F093B70324
:1037B000E093B60378944090B8035090B903411455
:1037C000510409F40CC2E091BA03F091BB03EF2B52
:1037D00009F405C22D8749875A876B877C879887AC
:1037E0008F831201B12CA12C10E000E08091BA036C
:1037F0009091BB03A816B90618F40115110529F11B
:10380000F8948091B6039091B70301979093B70312
:103810008093B6037894C8012F960FB6F894DEBF54
:103820000FBECDBFDF91CF911F910F91FF90EF9011
:10383000DF90CF90BF90AF909F908F907F906F90D0
:103840005F904F903F902F9008957101E418F50814
:10385000D10117968C91179781FD54C013968D91C5
:103860009C911497039709F04DC015968D919C91EA
:10387000EF81F8858E179F0709F044C0B50190E0ED
:1038800080E07FD48A832091B8033091B9033D83CF
:103890002C833D85332309F44CC04C815D81452B3D
:1038A00009F49AC18091BA039091BB03A816B90696
:1038B00008F092C1C501CFD88823E9F06C817D81E1
:1038C0006E0D7F1D7D836C83DB011F968D919C9116
:1038D000892B89F0D12CC12CF12CE12CAC81BD813C
:1038E00012968C9112978E151F0409F094F450963D
:1038F0001C921E921F972A81222321F0B50190E08D
:1039000080E041D43FEFA31AB30A43E1240E311CF7
:103910006DCFAC81BD81ED91FC91EC0DFD1D8581DC
:1039200096810FD7BFEFEB1AFB0AEDE0CE0ED11C4C
:10393000D5CFEC81FD81309709F44EC18091BA0357
:103940009091BB03A816B90608F046C1EE0DFF1D05
:10395000FF87EE87C5017FD88B83882339F1AE8539
:10396000BF851F968D919C915097019621E01D96E1
:103970004D915C918417950709F020E02E83198200
:10398000712C10E000E0AE85BF8512968C91781600
:1039900008F45DC0EE85FF85878590890196658571
:1039A00076850E94E334908B8787A5CFB1E0BE83F4
:1039B000E6CF992493946BC08BD6F60196838583CA
:1039C00082C0D601ED90FC90B7E06B9EE00CF11C3C
:1039D0001124F7016381748180818F3F61F121E0BF
:1039E00030E002C0220F331F8A95E2F7C901092E89
:1039F000000CAA0BBB0BFB014081518162817381DA
:103A000084239523A623B72321E0892B8A2B8B2B94
:103A100009F420E0D4012C93D70111968C91F60182
:103A200023853485820F932F911D880E991E14864D
:103A3000138663949BC0418150E0C4010E94AF355E
:103A4000EBCF998206EF1FEFC5C01982C3C0F98181
:103A5000F111A0CFEDE07E9E70011124AE85BF85EF
:103A6000CD90DC90CE0CDF1C15D49D838C83BB8164
:103A7000BB2309F49ECF81E0EE85FF852785308941
:103A8000232B09F080E0982E882309F458C0672D75
:103A90008E859F8504D8D60118969C938E93179790
:103AA00061E070E0C2D4EE85FF85218932892F3F25
:103AB000320709F481CFBC01C901CFD7D6011696D0
:103AC0009C938E931597D60115968D919C91169780
:103AD000009709F4B6CFEC81FD818E0F9F1F1A96D7
:103AE0009C938E931997AE85BF85ED91FC911197AC
:103AF000EE0EFF1EF70121853285148613861A9675
:103B00008C91870DD9018D93711016C0EE85FF85BC
:103B1000878184FF11C049855A856B857C85F901B1
:103B20004183528363837483F7018385948504966C
:103B3000A80FB91F14861386F701B287A187D60193
:103B400015968D919C911697892B09F443C0EE85AB
:103B5000FF85258136818091290290912A022817BC
:103B6000390779F019968D909C90612CD6011296A8
:103B70008C911297681608F424CF1A969C928E9214
:103B80001997BE81BB2309F460CF61E070E0F601B4
:103B9000878190854AD4D6011796ED90FC901897AE
:103BA00015964D915C91E1E0F0E0BA81BB2311F0F4
:103BB000F0E0E0E00C811D819C01B5018827992788
:103BC0008E1B9F0B6AD38C01892B21F0F601858116
:103BD0009681B7D57394D7CE0FEF1FEF8CCE10E040
:103BE00000E00ECE2F923F924F925F926F927F92A3
:103BF0008F929F92AF92BF92CF92DF92EF92FF92FD
:103C00000F931F93CF93DF938091B8039091B903E3
:103C100010E000E0892BA9F0C7DA0AEF1FEF882334
:103C200081F02090BA033090BB03C091B803D091CB
:103C3000B903D12CC12C10E000E02C143D04A9F4F0
:103C40007894C801DF91CF911F910F91FF90EF9071
:103C5000DF90CF90BF90AF909F908F907F906F90AC
:103C60005F904F903F902F900895C6010E942B15B2
:103C7000882309F18B819C810397E9F48F859889CA
:103C8000892BC9F0B60190E080E07BD221E030E0E2
:103C9000882311F030E020E044245524421A530ACE
:103CA000B12CA12C912C812C8A818815190409F042
:103CB00038F4188A1F864FEFC41AD40A6396BDCF12
:103CC000E881F981EA0DFB1D85819681892BA1F19F
:103CD00061E070E087819085A8D33C01DBD28C0144
:103CE000E881F981EA0DFB1D818592852581368168
:103CF000200F311FAC01421B530B9A0147815085A5
:103D0000421B530B70E060E00E94B835E881F981F6
:103D1000EA0DFB1DE780F084458156819301B601D1
:103D2000C201BBD28C01892B39F0E881F981EA0DFF
:103D3000FB1D8581968105D55FEF851A950A8DE07B
:103D4000A80EB11CB1CF30CA789408952F923F923B
:103D50004F925F926F927F929F92AF92BF92CF925B
:103D6000DF92EF92FF920F931F93CF93DF9300D0D8
:103D700000D0CDB7DEB70091B8031091B9039924F4
:103D800093940115110509F43EC0A090BA03B090B8
:103D9000BB030ADA982E8823B1F11092B90310926E
:103DA000B8031092BB031092BA031092BC03109296
:103DB000BD038FEF9FEFDC018093330290933402B9
:103DC000A0933502B093360278947FD31E830D837F
:103DD000C12CD12C7601C501B0E0A0E089839A8383
:103DE000AB83BC8322242A94322C89819A81AB81B3
:103DF000BC81C816D906EA06FB06F4F0C801A1D4B6
:103E000080E40E946C11892D26960FB6F894DEBFCF
:103E10000FBECDBFDF91CF911F910F91FF90EF901B
:103E2000DF90CF90BF90AF909F907F906F905F900A
:103E30004F903F902F900895AD81BE8115968D9142
:103E40009C9116972091290230912A02821793079C
:103E5000D1F451968D919C91EED5ED81FE818081BA
:103E60009181B12CA12C412C512C3201892B89F547
:103E7000BFEFCB1ADB0AEB0AFB0AED81FE817396DA
:103E8000FE83ED83B2CFC114D104E104F10429F71C
:103E9000029718F7ED81FE81818992898F3F9807FB
:103EA00009F029D5AD81BE8152963C922E92519750
:103EB000D4CF8A0D9B1DDC018D919C91009709F058
:103EC00040D4BFEF4B1A5B0A6B0A7B0AEDE0AE0EE3
:103ED000B11CAD81BE818D919C91119712964C9130
:103EE00050E070E060E044165506660677060CF375
:103EF00028D4BECFCF93DF93EA0128DF811109C018
:103F000082E090E09983888385EF9FEFDF91CF91E6
:103F1000089581E090E00E945E1181E090E0998335
:103F2000888390E080E0F2CF11DF1092B503109209
:103F3000B403089542E050E064EC72E00C947C110C
:103F4000FF920F931F93CF93DF938A01EC01C60F6B
:103F5000D71FF980B9D20897F816190671F068F0E2
:103F600082E090E0F801918380838EEF9FEFDF91F4
:103F7000CF911F910F91FF9008956C817D818E816B
:103F80009F814B810E941114811108C082E090E052
:103F9000F8019183808384EF9FEFE9CFF9800E943D
:103FA0000C144F2D50E0BE01685F7F4F0E94AF356B
:103FB00089810E947B1481E090E0F80191838083E5
:103FC00090E080E0D4CFDF92EF92FF920F931F93A7
:103FD000CF93DF938A01EC01C60FD71F0E940C1408
:103FE0007C01D98071D2DD2059F0029721E030E0C8
:103FF000D816190619F010F030E020E0232B79F4E0
:1040000082E090E0F801918380838EEF9FEFDF9153
:10401000CF911F910F91FF90EF90DF900895EF28BF
:1040200041F482E090E0F8019183808384EF9FEF78
:10403000EECFF9800E940C144F2D50E0BE016E5F50
:104040007F4F0E94AF3589810E947B1481E090E010
:10405000F8019183808390E080E0D9CF8AE99FE1E5
:104060009093BF038093BE0308958091BE03909107
:10407000BF0308950895FC01118210829383828307
:104080000895DB011D921C92DC011296ED91FC91CA
:1040900013977183608313967C936E9312970895A0
:1040A000FC0180819181DB018D939C93A081B18182
:1040B000109741F08D919C9191838083892B11F40D
:1040C000F383E2830895FC0180819181DB018D936C
:1040D0009C93892B11F473836283718360830895A9
:1040E000FC0111821082938382830895CF93DF9322
:1040F0001F921F92CDB7DEB71A821982F894BE01C3
:104100006F5F7F4F85EC93E0CBDF89819A810097C9
:1041100009F017D389819A81892B89F7BE016F5FD6
:104120007F4F89EC93E0BCDF89819A81009709F089
:1041300008D389819A81892B89F778940F900F9001
:10414000DF91CF910895CF93DF931F921F92CDB748
:10415000DEB71A821982F894BE016F5F7F4F81EC3F
:1041600093E09EDF89819A81009709F0EAD28981E4
:104170009A81892B89F778940F900F90DF91CF91D6
:10418000089581E0089590E080E00895EF92FF9215
:104190000F931F93CF93DF931F921F92CDB7DEB77C
:1041A0001A8219828091C00307EF1FEF8823A1F1C3
:1041B000F894BE016F5F7F4F89EC93E071DF7894D4
:1041C00089819A81EE24E394F12C892B51F4F8949F
:1041D000BE016F5F7F4F85EC93E062DF7894F12C36
:1041E000E12C89819A810EEF1FEF0097A9F0FC0165
:1041F0004281538164E070E075D68C01892B61F0B7
:10420000F89469817A81C701880F991F880F991FD7
:104210008B539C4F58DF7894C8010F900F90DF911B
:10422000CF911F910F91FF90EF9008950F931F93DF
:10423000CF93DF9300D01F92CDB7DEB71C821B82D5
:104240001A8219828091C00307EF1FEF8823C1F003
:10425000AE014D5F5F4F64E070E0CE010196B5D6D0
:104260008C01892B69F4E981FA818B819C8193838C
:104270008283F89469817A8181EC93E002DF7894FB
:10428000C8010F900F900F900F90DF91CF911F9169
:104290000F910895BAD7049608958F929F92AF9286
:1042A000BF92CF92DF92EF92FF920F931F93CF9323
:1042B000DF931F921F92CDB7DEB71A821982BC011D
:1042C0006F5F7F4F6330710598F0AA24AA94BA2CCF
:1042D000C5010F900F90DF91CF911F910F91FF902B
:1042E000EF90DF90CF90BF90AF909F908F90089508
:1042F0004115510551F3480159018A016C01CADF8A
:104300008815990511F7E114F104F9F28E0D9F1D3E
:10431000A816B906D0F28091C0038823F1F0F89472
:10432000B501645071099701AE014F5F5F4FC8013D
:104330000496E0D65C01892B71F489819A81F80199
:1043400093838283C601880F991F880F991FB80134
:104350008B539C4F96DE7894BBCF87EFA82EBB245F
:10436000BA94B6CFAF92BF92CF92DF92EF92FF9204
:104370000F931F93CF93DF931F921F92CDB7DEB79A
:104380001A821982892B09F047C06115710509F459
:1043900043C04115510509F43FC02115310509F409
:1043A0003BC001151105C1F18091C0038823B9F10B
:1043B00079016A015B01F894BE016F5F7F4F81EC68
:1043C00093E06EDE789489819A81009759F1DC013F
:1043D00012966D917C91A8010496A5D68C01E98175
:1043E000FA81D501ED93FC93828193810496F601C5
:1043F000918380834FDFD7018D939C93C8010F90E9
:104400000F90DF91CF911F910F91FF90EF90DF9070
:10441000CF90BF90AF9008950FEF1FEFEFCF07EF52
:104420001FEFECCF0EEF1FEFE9CFCF93DF93EC013F
:10443000672B71F4F3D68C179D0760F0E6D62496AF
:10444000C80FD91FE5D68C0F9D1FDF91CF9108951E
:10445000E2D6F1CF90E080E0F8CF0F931F93CF9397
:10446000DF932091C00321112BC08B01EC0185EC5F
:1044700093E001DE89EC93E0FEDD81EC93E0FBDD6F
:1044800097D00097C1F4CAD670E060E0CEDF47E372
:1044900052E062E070E081D1009769F480913702C8
:1044A00090913802CDD6B801CE0102D5009719F40B
:1044B00021E02093C003DF91CF911F910F910895C8
:1044C00084EF9FEFF8CFA7C6A9C6CF93DF93A9D6F5
:1044D000EC01892B11F40ADE36DECE01DF91CF919B
:1044E0000895CF93DF939DD6EC01892B09F4FEDD6F
:1044F000CE01DF91CF9108958091370290913802DB
:104500000895CF93DF938091C003D0E0C0E088236B
:10451000D1F09BD6EC01892BB1F4E8DD14DE80915B
:10452000370290913802E7D1E8D2EC01892B59F497
:1045300085EC93E0D5DD89EC93E0D2DD81EC93E06E
:10454000CFDD1092C003CE01DF91CF910895EF929D
:10455000FF920F931F93CF93DF93EC017A018B01AE
:104560000F5F1F4F0E9DA0010F9D500D1E9D500D02
:10457000112470E060E00E94B83590E080E0F0E047
:10458000E0E02FEFE816F90639F4DF91CF911F91A3
:104590000F91FF90EF9008951A8219822883309727
:1045A00011F0D283C1830196FE01C00FD11FEACF63
:1045B000CF92DF92EF92FF920F931F93CF93DF93EF
:1045C00004E115E00C7F43E050E069E372E08FE323
:1045D00092E01BD489E3E82E82E0F82E9FE3C92EF7
:1045E00092E0D92ECBEBD5E0D7014D915D917D01C5
:1045F000F601619171916F01198308835D834C838A
:104600005B834A837F836E839B012F5F3F4F249F91
:10461000C001259F900D349F900D112499878887A4
:104620000115110511F0C80192DF88859985080FE1
:10463000191F2A96FFE3EF16F2E0FF06A9F6EFEC4A
:10464000F3E082E491E0DF019C011D9221503040B3
:10465000E1F71092CE031092CD031092DA0510927A
:10466000D9051092DE051092DD051092DC0510923E
:10467000DB051092E0051092DF051092E205109222
:10468000E1051092E4051092E3051092E8051092FE
:10469000E7051092E6051092E5051092EA051092E2
:1046A000E9051092EC051092EB051092B8051092F6
:1046B000B7051092BA051092B90590E080E0DF913D
:1046C000CF911F910F91FF90EF90DF90CF900895C1
:1046D0000097F1F0F894AFE3B2E0EBEBF5E030E0F7
:1046E00020E04D915D9148175907A8F04281538110
:1046F0004115510581F08AE0829FF001839FF00D02
:104700001124E554FA4F80819181009759F47894EF
:1047100090E080E008952F5F3F4F3A9623303105B7
:1047200001F7F5CFDC0111966D917C917183608367
:104730004150510953834283FC012193CF01789466
:104740000895009749F1DC018E91853041F4E091A4
:10475000B905F091BA053097F9F0CD01199485307B
:10476000D8F4282F30E0F8948FEF8C938AE0829F62
:10477000F001839FF00D1124E554FA4F808191815F
:1047800012969C938E931197B183A083828193811B
:1047900001969383828378940895CF92DF92EF926B
:1047A000FF920F931F93CF93DF939C0182ED93E0D1
:1047B0008C7F4115510509F49BC02115310509F481
:1047C00097C06115710509F493C07A01AB01B90175
:1047D0006D5F7F4F6C7F9B012F5F3F4F249F800158
:1047E000259F100D349F100D1124F8942091D905A8
:1047F0003091DA05232B59F42091E1053091E2053F
:104800002115310569F12017310708F058C02091B2
:10481000E3053091E405232B91F42091E1053091DB
:10482000E205820F931F2091EB053091EC052115D5
:10483000310509F441C02017310708F056C07894BB
:10484000CFEFDFEF86EF9FEFF701D183C083DF91DA
:10485000CF911F910F91FF90EF90DF90CF9008952F
:10486000C3E0D0E0C090CD03D090CE032FE331E081
:104870002C193D092017310710F32AE02C9FF00175
:104880002D9FF00D1124E554FA4F918380835583B9
:10489000448353834283778366831187008700971D
:1048A00009F055DE0C0D1D1D1093CE030093CD03B2
:1048B000789490E080E0C8CFC4E0D0E0D3CFC3E0EC
:1048C000D0E02AE02C9FF0012D9FF00D1124E5543B
:1048D000FA4F918380835583448353834283778344
:1048E0006683009729F333DEE3CFC4E0D0E0E9CF5D
:1048F0008FEF9FEFACCF9C010397029708F069C040
:10490000F89484E09AE0482F50E0241735070CF41F
:104910004DC091E08AE0829FF001839FF00D112449
:10492000E554FA4F1182108215821482138212828A
:10493000178216829923B1F18091D9059091DA05F9
:10494000892BA9F42091E1053091E205211531056B
:1049500071F08091CD039091CE03821B930B9093C5
:10496000CE038093CD031092E2051092E105809171
:10497000E3059091E405892BA9F42091EB05309192
:10498000EC052115310571F08091CD039091CE0396
:10499000821B930B9093CE038093CD031092EC0572
:1049A0001092EB05789490E080E00895949FF001D8
:1049B000959FF00D1124E554FA4F40815181452B0C
:1049C00031F440855185452B11F481509CCF90E006
:1049D000A1CF8FEF9FEF08954115510549F1009741
:1049E00039F16115710521F1F8942091B7053091E5
:1049F000B805232BB9F42091B9053091BA05232BC2
:104A000089F49093B8058093B7057093BA056093C5
:104A1000B905789425E030E090E080E0FA01318338
:104A20002083089578942FEF3FEF86EF9FEFF6CF26
:104A30008FEF9FEF0895059769F4F8941092B805E9
:104A40001092B7051092BA051092B905789490E0CB
:104A500080E008958FEF9FEF08956115710519F4B7
:104A6000F0E0E0E011C08530910581F4E091B705F8
:104A7000F091B8053097A1F3CB01019619950097F5
:104A800079F3FC0185E08193CF0108959C012350C7
:104A900031092230310520F72AE0289FD001299FD3
:104AA000B00D1124A554BA4F2D913C911197232B91
:104AB000B9F216962D913C9117972617370780F279
:104AC000F89412962D913C9113972115310529F0F8
:104AD000ED91FC911197309711F47894C1CF4181F9
:104AE000528111965C934E932150310913963C9359
:104AF0002E93129781937894C7CFE1E1F5E086EA8F
:104B0000DF011D928A95E9F7EFECF3E082E491E092
:104B1000DF019C011D9221503040E1F71092CE033D
:104B20001092CD03EBEBF5E082E3DF011D928A9555
:104B3000E9F7E7EBF5E084E0DF011D928A95E9F7FC
:104B400090E080E00895CF93DF93C0914502D0912B
:104B50004602CF3FDC0759F45DD490934602809320
:104B6000450297FF09C0D0934602C093450284EFE7
:104B70009FEFDF91CF91089590E080E0FACF8230EF
:104B8000910528F48093ED0590E080E008958FEF83
:104B90009FEF08954F925F926F927F92AF92BF9274
:104BA000CF92DF92EF92FF920F931F93CF93DF93F9
:104BB0001F921F92CDB7DEB71A821982009709F4AF
:104BC00079C06115710509F475C0209145023091D5
:104BD000460207EF1FEF2F3F3F4F09F445C06B011F
:104BE0005C01412C512C3201F12CE12C10E000E051
:104BF0009E012F5F3F4FA6014E195F09B5016E0D53
:104C00007F1D809145029091460263D4892B09F063
:104C10004BC089819A81009741F4E114F10429F491
:104C20002091ED05222309F442C0E80EF91EEC1490
:104C3000FD04D0F480E8481684E858068EE1680642
:104C4000710420F560E070E0CB010E946A2E2AE03A
:104C5000420E511C611C711C0A3F4FEF140721F0DA
:104C6000043F8FEF1807A1F4C8010F900F90DF9158
:104C7000CF911F910F91FF90EF90DF90CF90BF9059
:104C8000AF907F906F905F904F90089501EF1FEF6E
:104C900081E090E0013F2FEF120711F090E080E0FB
:104CA000892B09F4A5CFE0CF04EF1FEFDDCF0AEF8A
:104CB0001FEFDACF0FEF1FEFD7CF4F925F926F92B8
:104CC0007F92AF92BF92CF92DF92EF92FF920F93BB
:104CD0001F93CF93DF931F921F92CDB7DEB71A8237
:104CE0001982009709F478C06115710509F474C040
:104CF000209145023091460207EF1FEF2F3F3F4FB3
:104D000009F444C06B015C01412C512C3201F12C9F
:104D1000E12C10E000E09E012F5F3F4FA6014E19ED
:104D20005F09B5016E0D7F1D80914502909146028D
:104D300086D3892B09F04AC089819A81009741F472
:104D4000E114F10429F42091ED05222309F441C076
:104D5000E80EF91EEC14FD04C8F480E4481682E461
:104D600058068FE06806710418F560E070E0CB012A
:104D7000B1D72AE0420E511C611C711C0E3F4FEF4F
:104D8000140721F0043F8FEF1807A1F4C8010F901A
:104D90000F90DF91CF911F910F91FF90EF90DF90D7
:104DA000CF90BF90AF907F906F905F904F9008959D
:104DB00002EF1FEF81E090E0023F2FEF120711F0AA
:104DC00090E080E0892B09F4A6CFE0CF04EF1FEF3D
:104DD000DDCF0EEF1FEFDACF0FEF1FEFD7CF8091B0
:104DE0004502909146028F3F980749F00BD3892BDB
:104DF00049F48FEF9FEF909346028093450290E035
:104E000080E0089584EF9FEF0895CF92DF92EF92B4
:104E1000FF920F931F93CF93DF9321E0411551052C
:104E200009F020E04150510921112CC0DC01FB01A7
:104E3000D12CC12C21E022C03FEFC31AD30A7D013F
:104E40000D911D91E701EA80FB80E016F106A8F4C0
:104E500020813181E280F380F182E08233832283FA
:104E6000ED90FC9011979D0122503109E901F982E2
:104E7000E88211961C930E9320E03296C416D50654
:104E8000D8F2D2CFDF91CF911F910F91FF90EF9089
:104E9000DF90CF900895FC01680F791F90E080E0CB
:104EA000E617F70709F408952191820F911DF8CFB5
:104EB0002091EE05211113C046DE009791F4109267
:104EC000F4051092F3051092F2051092F10510927C
:104ED000F0051092EF0521E02093EE05089584EF90
:104EE0009FEF0895AF92BF92CF92DF92EF92FF9221
:104EF0000F931F93CF93DF93009709F460C0463060
:104F0000510508F45CC02091EE05C7EFDFEF2223C6
:104F100009F449C08C01060F171FF801C080D18029
:104F2000C114D10409F44EC096012A5F3F4F4217C5
:104F3000530708F447C07C018091F3059091F40574
:104F400093838283B6016C5F7F4F5801A60EB71E14
:104F5000C801A1DFF5019183808364E070E0C8019E
:104F600019DEEC01892BF9F481E090E008DEB6014E
:104F7000C80104960FDEEC01892B91F462E070E029
:104F8000C50108DEEC01892B59F4C701DADB8091F9
:104F9000F3059091F40501969093F4058093F30541
:104FA00090E080E0ECDDCE01DF91CF911F910F9179
:104FB000FF90EF90DF90CF90BF90AF900895CFEF2C
:104FC000DFEFF1CFC9EFDFEFEECF6F927F928F92DD
:104FD0009F92AF92BF92CF92DF92EF92FF920F9388
:104FE0001F93CF93DF9300D01F92CDB7DEB700970A
:104FF00009F47AC04115510509F476C02091EE05F7
:1050000007EF1FEF222309F44DC03A017B015C0139
:1050100064E070E0CE01019650DE8C01892B09F02E
:1050200041C009811A810115110509F45AC04801CE
:1050300086E0880E911CB701680D791D80914702AA
:10504000909148020ADD6C01009709F450C0A70155
:1050500070E060E00E94B83589819A81AB81BC81A3
:10506000EC0CFD1CF70181939193A193B1937F0107
:1050700081E090E084DDB801C7011FDE892B31F5A6
:1050800062E070E0C701800F911F17DE8C01892B51
:10509000E9F490E080E073DDF501D182C082F30194
:1050A00091828082C8010F900F900F900F90DF9136
:1050B000CF911F910F91FF90EF90DF90CF90BF9015
:1050C000AF909F908F907F906F90089590E080E0D8
:1050D00056DDF50111821082F30111821082C601A2
:1050E00030DB09EF1FEFDECF0FEF1FEFDBCF06EF57
:1050F0001FEFD8CF0097A1F04115510589F0211578
:10510000310571F0F90136966E177F0748F0DC0122
:105110002D933C93DA01ED93FC9390E080E00895A9
:105120008FEF9FEF0895AF92BF92CF92DF92EF92F1
:10513000FF920F931F93CF93DF93009709F45FC003
:105140004115510509F45BC06530710508F457C07D
:105150002091EE05C7EFDFEF222391F1DC01CD9026
:10516000DC9011971296ED91FC9196012A5F3F4FCA
:10517000C9EFDFEF2617370719F5C091EF05D0917A
:10518000F005209749F521E030E03093F0052093B9
:10519000EF057A018C01F093F205E093F1055601D9
:1051A000B4E0AB0EB11CB50176DE0A0D1B1DF80193
:1051B000208131818217930729F5D701CD92DC92A6
:1051C000CE01DF91CF911F910F91FF90EF90DF9073
:1051D000CF90BF90AF9008952091F1053091F205E6
:1051E0002F5F3F4FCCEFDFEFE217F30790F2CBEFEB
:1051F000DFEF2E173F0768F2D0E0C0E0CACFCFEF55
:10520000DFEFDECFC3EFDFEFDBCF84E090E0089588
:1052100082E090E008958CEF9FEF089580E290E0A7
:1052200008951092F4051092F3051092F205109271
:10523000F1051092F0051092EF0590E080E00895DE
:10524000909348028093470208958091EE05882349
:1052500091F0C5DD009789F41092F4051092F305E2
:105260001092F2051092F1051092F0051092EF05E0
:105270001092EE05089590E080E00895009749F0BF
:105280006115710531F0FC0111821082FB01118260
:1052900010820895F3CF26E030E040E052EC61E068
:1052A00070E090E080E000C01092F6051092F505E5
:1052B0008930910508F03AC0FC018827ED59F64D78
:1052C0008F4F0C9419356C2975297E2987299029CF
:1052D00097299A299D29A32981E090E09093F605CA
:1052E0008093F50587E096E057C682E090E09093C2
:1052F000F6058093F50584EA96E0F6CF84E090E029
:105300009093F6058093F50581E497E0EDCF88E072
:1053100090E09093F6058093F5058EED97E0E4CF4D
:1053200080E190E09093F6058093F505089580E282
:1053300090E0F8CF80E490E0F5CF80E890E09093A3
:10534000F6058093F5058091F5059091F60591603D
:10535000E9CF1F920F920FB60F9211240BB60F9246
:105360002F933F934F935F936F937F938F939F936D
:10537000AF93BF93EF93FF938FE89DEF9093250139
:1053800080932401B9D0FF91EF91BF91AF919F918C
:105390008F917F916F915F914F913F912F910F90DE
:1053A0000BBE0F900FBE0F901F9018958FE89DEFCA
:1053B0009093250180932401A3E7B0E08C918E7F28
:1053C0008C93E0E2F1E080818C7F8083E1E2F1E088
:1053D0008081877E808380818460808380818C7FD0
:1053E00080838C9181608C930895E3E7F0E0808165
:1053F00090819E7F90838170089581E0089510923E
:10540000F705089568EE73E080E090E063D490E0E3
:1054100080E0089526E030E040E050E16EE070E08A
:1054200090E080E041DF87E096E0ECD4892B21F02A
:1054300087E096E001D5F7CF90E080E00895CF9225
:10544000DF92EF92FF920F931F93CF93DF936B0145
:105450007A01E9011982188287E096E0D3D4892B7A
:1054600069F18601CC24C39482E0D82E8091F7059F
:10547000811110C087E096E0DFD40297B9F7C0929F
:10548000F705F801D1928F0188819981019699835E
:105490008883ECCF888199818E159F0578F487E009
:1054A00096E0CAD48F3F9807A9F3F80181938F0142
:1054B00088819981019699838883ECCF90E080E080
:1054C000DF91CF911F910F91FF90EF90DF90CF90E0
:1054D00008950F931F93CF93DF93EA01890187E02B
:1054E00096E0EAD7F801D183C08390E080E0DF91B5
:1054F000CF911F910F910895CF92DF92EF92FF927B
:105500000F931F93CF93DF931F921F92CDB7DEB7F8
:105510008091FA0591E0980F9093FA05882399F00D
:1055200021E030E03093FD052093FC058093FA05DF
:105530000F900F90DF91CF911F910F91FF90EF90FF
:10554000DF90CF900895CE0101960E94C90678940D
:1055500000914A0210914B02F801C28CD38CE48C6A
:10556000F58C0E942007B701A60190E080E00E9420
:105570009D05F8948091FA0581508093FA058A81FF
:10558000882389F08091F90591E0980F9093F905AF
:10559000882349F021E030E03093FD052093FC059D
:1055A0008093F905C5CF8091F905882309F4C0CF10
:1055B0008091FB058111BCCF81E08093FB0578943D
:1055C000F80122A133A144A155A1A4E6B0E00E94B4
:1055D00021356B017C010E944408B701A60181E0DE
:1055E00090E00E949D05F8948091F9058150809388
:1055F000F9058091FB0581508093FB0599CF0F93AE
:105600001F93CF93DF931092E0081092DF0898D396
:1056100042DEC0914A02D0914B021982188260E3A7
:1056200075E780E090E00E94200670E060E090E086
:1056300080E00E949F04009709F03AC00E94EF09A1
:10564000F89478948A819B81BC01685F7F4F0E94A7
:10565000A204892B59F46FEF7FEFCB010E94330531
:105660000E941A06882311F081E08CA7F8949EDE30
:105670000E941D06882311F080E008C00E941A06CF
:105680008111FACF81E09CA59111F6CF8093DF08BC
:1056900078940E9459118C0178948091DF088111CF
:1056A0000CC00E94930A0E94FF05F89490E080E0ED
:1056B000DF91CF911F910F9108950E94FD050E94E7
:1056C0001D068823D9F081E08093E0089091E008DE
:1056D00081E0911180E08093DF088091E0088111E2
:1056E00084DE0130110529F40E945911892B09F437
:1056F00086DE0E9459118C0180DECFCF0E941A06EF
:105700008111E1CF81E09CA59111DECF80E0DCCF5B
:105710005058BB27AA270ED0AAC19BD130F0A0D1E8
:1057200020F031F49F3F11F41EF490C10EF4E09587
:10573000E7FB5DC1E92FACD180F3BA1762077307AD
:105740008407950718F071F49EF5DBC10EF4E0951F
:105750000B2EBA2FA02D0B01B90190010C01CA012B
:10576000A0011124FF27591B99F0593F50F4503ED6
:1057700068F11A16F040A22F232F342F4427585FC8
:10578000F3CF469537952795A795F0405395C9F7E0
:105790007EF41F16BA0B620B730B840BBAF0915098
:1057A000A1F0FF0FBB1F661F771F881FC2F70EC037
:1057B000BA0F621F731F841F48F48795779567950A
:1057C000B795F7959E3F08F0B3CF9395880F08F0F3
:1057D0009927EE0F9795879508957CD180F09F3794
:1057E00040F491110EF48EC160E070E080E89FE318
:1057F000089526F01B16611D711D811DFEC018C184
:10580000D2D008F481E0089504D06894B1117AC12F
:10581000089546D188F09F5790F0B92F9927B75136
:10582000A0F0D1F0660F771F881F991F1AF0BA9564
:10583000C9F712C0B13081F064D1B1E0089561C1FF
:10584000672F782F8827B85F39F0B93FCCF386955A
:1058500077956795B395D9F73EF4909580957095B7
:1058600061957F4F8F4F9F4F0895E89409C097FB34
:105870003EF490958095709561957F4F8F4F9F4F27
:105880009923A9F0F92F96E9BB279395F69587956B
:1058900077956795B795F111F8CFFAF4BB0F11F42E
:1058A00060FF1BC06F5F7F4F8F4F9F4F16C08823D5
:1058B00011F096E911C0772321F09EE8872F762F0B
:1058C00005C0662371F096E8862F70E060E02AF04C
:1058D0009A95660F771F881FDAF7880F9695879538
:1058E00097F90895F7D080F09F3740F491110EF0AA
:1058F00009C160E070E080E89FEB089526F41B1674
:10590000611D711D811D79C093C0A3D018F011F0E5
:10591000A7D038F49BC0F6C0E92FBAD0B0F3552316
:10592000C9F3E7FB6217730784079507A8F199F39A
:10593000E92FFF2788232AF03197660F771F881FEA
:10594000DAF7952F5527442332F091505040220F1B
:10595000331F441FD2F7BB27E91BF50B621B730BE8
:10596000840BB109C1F222F4620F731F841FB11DB1
:1059700031972AF0660F771F881FBB1FEFCF91501A
:1059800050405AF041F0882332F0660F771F881F8D
:1059900091505040C1F793954BC086957795679588
:1059A0009F5FD9F7F8CF990F0008550FAA0BE0E8D1
:1059B000FEEF16161706E807F907C0F012161306D1
:1059C000E407F50798F0621B730B840B950B39F411
:1059D0000A2661F0232B242B252B21F408950A2677
:1059E00009F4A140A6958FEF811D811D089597F9B7
:1059F0009F6780E870E060E00895882371F4772362
:105A000021F09850872B762F07C0662311F4992731
:105A10000DC09051862B70E060E02AF09A95660FD9
:105A2000771F881FDAF7880F9695879597F908955D
:105A30009F3F31F0915020F4879577956795B79502
:105A4000880F911D9695879597F908959FEF80ECA3
:105A5000089500240A9416161706180609060895D4
:105A600000240A9412161306140605060895092E3A
:105A70000394000C11F4882352F0BB0F40F4BF2BA9
:105A800011F460FF04C06F5F7F4F8F4F9F4F0895E9
:105A900057FD9058440F551F59F05F3F71F04795DF
:105AA000880F97FB991F61F09F3F79F087950895C4
:105AB000121613061406551FF2CF4695F1DF08C0E3
:105AC000161617061806991FF1CF86957105610500
:105AD00008940895E5DFA0F0BEE7B91788F4BB2766
